:100000000C94BF050C94DC050C94DC050C943D327B
:100010000C94DC050C94DC050C94DC050C94DC05DC
:100020000C94DC050C94DC050C94D8180C94A01DE1
:100030000C94862A0C94DC050C94DC050C94DC05ED
:100040000C94DC050C94DC050C94DC050C94DC05AC
:100050000C94DC050C94B1190C94DC050C94DC05B3
:100060000C94DC050C94DC050C94DC050C94DC058C
:100070000C94DC050C94DC050C94DC050C94DC057C
:100080000C94DC050C94DC050C94DC050C94DC056C
:100090000C94DC050C94DC050C94DC050C94DC055C
:1000A0000C94DC050C94DC050C94DC0504010203C3
:1000B000048081828384A0A1A2A3A4C0C1C2C3C4BE
:1000C00000209495962020B4B5B62020D4D5D62013
:1000D00000209798992020B7B8B92020D7D8D920E8
:1000E00000209A9B9C2020BABBBC2020DADBDC20BD
:1000F00000209D9E9F2020BDBEBF2020DDDEDF2092
:1001000000A7A800AFB000C600CA00C800A5A6009E
:10011000ADAE008788008F9000C500C900C700CB36
:10012000008586008D8E00ABAC00CFD000C600CA23
:1001300000C800A9AA00B1B2008B8C00CDCE00C5CA
:1001400000C900C700CB00898A00919200202020BE
:100150002020002057504D2020000000000000000B
:10016000000000000000000000000000000000008F
:1001700000000000000000000000000000007E0FF2
:1001800000D4FFFFFFC7000000780000000000005F
:1001900000002A2B280000000000000000000000E2
:1001A000000000000029000000002C1E3420212245
:1001B00024342627252E362D3738271E1F202122AE
:1001C000232425263333362E37381F040506070827
:1001D000090A0B0C0D0E0F10111213141516171817
:1001E000191A1B1C1D2F3130232D35040506070855
:1001F000090A0B0C0D0E0F101112131415161718F7
:10020000191A1B1C1D2F3130354C4D6163726F2044
:100210003220746578743A0A73616E7469004D61B6
:1002200063726F203120746578743A0A73616E745A
:1002300069002B0014001A00080015001700E000E8
:1002400004001600070009000A0000571D001B00EB
:10025000060019000500000000000000E300AF5D8B
:100260002C002A00130012000C0018001C0034009F
:1002700033000F000E000D000B002900380037007E
:100280003600100011000000000000000157B05DB2
:1002900028002B001E001F00200021002200E0008B
:1002A0003A003B003C003D003E0000573F0040004C
:1002B000410042004300000000000000E300010094
:1002C0002C002A002700260025002400230000001F
:1002D00052004F005200510050004F00510050009A
:1002E0000000450044000000000000000157B15D1F
:1002F00028002B001E021F02200221022202E00021
:100300000000000000000000B25D00570000000087
:1003100000000000B35D000000000000E300B15DDC
:100320002C002A002702260225022402230235007F
:10033000310030002F002E002D0035023102300236
:100340002F022E022D0200000000000001570100C4
:100350002800005C0000000000000000A600C35C54
:10036000C65CC85CCA5C0000AE00C45CC75CC95C0B
:10037000CB5C00004600000000000000E30001002C
:100380002C00A900AA00000000000000F100BD0040
:10039000BE00F000ED00EE00EF00AB00AC00FB0093
:1003A000FA00F900FC000000000000000157010005
:1003B000280000DA0281FFD9F1DB20A4A62EAF00CD
:1003C000A0C000A1C800AED580A81FD300408D14E6
:1003D00020000001010101010101010102020202EC
:1003E00002020202020303030303030303040404DF
:1003F00004040404050505050506060606060707A8
:1004000007070708080808090909090A0A0A0B0B5F
:100410000B0C0C0C0D0D0D0E0E0E0F0F0F101011FE
:100420001111121213131414151516161717181884
:1004300019191A1A1B1B1C1D1D1E1E1F20202122EC
:1004400022232424252626272829292A2B2C2D2D32
:100450002E2F30313232333435363738393A3B3C4F
:100460003D3E3F404142434445464748494A4C4D42
:100470004E4F50515354555658595A5B5D5E5F610B
:100480006264656668696B6C6D6F7072737577789E
:100490007A7B7D7E8082838587888A8C8E8F9193FC
:1004A0009596989A9C9EA0A2A3A5A7A9ABADAFB123
:1004B000B3B5B7BABCBEC0C2C4C6C9CBCDCFD1D408
:1004C000D6D8DBDDDFE2E4E7E9EBEEF0F3F5F8FAAE
:1004D000FDFF00AF00AE05010902A101850209017F
:1004E000A1000509190129081500250195087501C4
:1004F00081020501093009311581257F95027508B2
:10050000810609381581257F950175088106050C3E
:100510000A38021581257F950175088106C0C0053E
:10052000010980A101850319012AB700150126B729
:1005300000950175108100C0050C0901A101850419
:1005400019012AA002150126A0029501751081004B
:10055000C005010906A1018506050719E029E7156F
:100560000025019508750181020507190029EF157D
:1005700000250195F07501810205081901290595ED
:100580000575019102950175039101C005010906E8
:10059000A101050719E029E7150025019508750156
:1005A00081029501750881010507190029FF1500D1
:1005B00026FF009506750881000508190129059593
:1005C0000575019102950175039101C009023B0077
:1005D000020100A0FA090400000103010100092141
:1005E00011010001224000070581030800010904F0
:1005F0000100010300000009211101000122B600E1
:1006000007058203200001120100020000000853C8
:100610004601000100010200010C0343006F00725B
:10062000006E0065000000100366006F006F00732D
:1006300000740061006E0000000403090400000063
:10064000000080C0E0E0F0F0F0F0F0F0F0F0F0F04A
:10065000F0E0E0C0800000000000001C577D571C47
:10066000001C5E7F5E1C0000183C180000FFE7C302
:10067000E7FF00001824180000FFE7DBE7FF003069
:10068000483A060E00262979292600407F050507ED
:1006900000407F05253F005A3CE73C5A007F3E1C46
:1006A0001C0800081C1C3E7F0014227F2214005FDF
:1006B0005F005F5F0006097F017F00006689956A21
:1006C0000060606060600094A2FFA2940008047E55
:1006D00004080010207E20100008082A1C080008CA
:1006E0001C2A0808001E10101010000C1E0C1E0CF6
:1006F0000030383E383000060E3E0E060000000086
:1007000000000000005F0000000007000700001468
:100710007F147F1400242A7F2A12002313086462A6
:1007200000364956205000000807030000001C2234
:100730004100000041221C00002A1C7F1C2A0008E6
:10074000083E08080000807030000008080808080B
:10075000000000606000002010080402003E5149C3
:10076000453E0000427F4000007249494946002151
:1007700041494D33001814127F1000274545453973
:10078000003C4A49493100412111090700364949D5
:10079000493600464949291E0000001400000000A7
:1007A00040340000000008142241001414141414F2
:1007B000000041221408000201590906003E415D73
:1007C000594E007C1211127C007F49494936003E87
:1007D00041414122007F4141413E007F4949494119
:1007E000007F09090901003E41415173007F08085B
:1007F000087F0000417F4100002040413F01007F11
:1008000008142241007F40404040007F021C027FCC
:10081000007F0408107F003E4141413E007F0909EE
:100820000906003E4151215E007F09192946002634
:10083000494949320003017F0103003F4040403FE6
:10084000001F2040201F003F4038403F0063140835
:100850001463000304780403006159494D43000008
:100860007F41414100020408102000004141417FC6
:100870000004020102040040404040400000030721
:100880000800002054547840007F28444438003841
:100890004444442800384444285F003854545418D1
:1008A0000000087E0902001824241C78007F080438
:1008B00004780000447D4000002040403D00007F5F
:1008C000102844000000417F4000007C0478047838
:1008D000007C08040478003844444438007C182420
:1008E000241800182424187C007C080404080048FC
:1008F000545454240004043F4424003C4040207CD1
:10090000001C2040201C003C4030403C004428108B
:100910002844004C9090907C004464544C44000067
:100920000836410000000077000000004136080052
:10093000000201020402003C2623263C0080E0F86D
:10094000FEFF7F230303070F0707070707070F07AC
:100950000303237FFFFFFEF8E0800000F80422522B
:10096000E2424242E2522222224282020222220237
:1009700004F80000F80402028242224282020202CB
:10098000824222122242820204F80000F8FCDEAE0B
:100990001EBEBEBE1EAEDEDEDEBE7EFEFEDEDEFEA7
:1009A000FCF80000F8FCFEFE7EBEDEBE7EFEFE0011
:1009B0000000000000808040402020101008081037
:1009C000102020404080808080C0C0E0E0F0F0F83F
:1009D000F8F0F0E0E0C0C08080808040402020102F
:1009E0001008081010202040408080808040C060A7
:1009F000A050B058A850B060A040C080803FFFFF1A
:100A0000FFFFE0C0800000000000000000000000C8
:100A10000080C0E0FFFFFFFFFF3F00001F20444AAF
:100A200047424242474A4440404040414244444099
:100A3000201F00001F2040414040404040414041B5
:100A4000414F4848484F4141201F00001F3F7B75E0
:100A5000787D7D7D78757B7F7F7F7F7E7D7B7B7FD3
:100A60003F1F00001F3F7F7E7F7F7F7F7F7E7F0055
:100A7000000000000088885D5D3E3E7C7CF8F87CCC
:100A80007C3E3E5D5D888888885555232347478F87
:100A90008F47472323555588888888D5D5E2E2C4F7
:100AA000C48888C4C4E2E2D5D5888888885DD56BBF
:100AB000B66DD6ADDA6DD66BB65DD588880000030D
:100AC000070E1C397377F7F301000000000103FFE4
:100AD000FF7F7F3F1F0F070300000004F80000F8AE
:100AE00004201F00001F20FCF80000F8043F1F0036
:100AF000001F2004F80000F8FC201F00001F3FFC2E
:100B0000F80000F8FC3F1F00001F3FFE7EBEDEEE37
:100B1000DEBE7EFEFCF8007E7E70777777707E7E8C
:100B20003F1F000000000000000000000000000067
:100B30000000000000000001010202040408080493
:100B40000402020101000000000101020204040885
:100B50000804040202010100000000010103030770
:100B6000070F0F0707030301010000000001010345
:100B70000205060D0A05060302010100000011240A
:100B80001FBECFEFDAE0DEBFCDBF12E0A0E0B1E0E4
:100B9000ECE6F9E602C005900D92A63CB107D9F744
:100BA00027E0A6ECB2E001C01D92A23BB207E1F73C
:100BB0000E94AD2A0C949E340C9400009091A105E3
:100BC000937061F081110BC094609093A105109215
:100BD000AA018091A00581608093A00508958330CB
:100BE00010F09860F2CF880F880F982BEECFFC01A1
:100BF000AC014C5F5F4F8FEF91E32191822728E09A
:100C000030E087FF09C0880F892721503109C9F7D3
:100C1000E417F50791F70895880FF7CF9091A10594
:100C2000937071F08093A2056093A305473908F093
:100C300046E94093A4058091A00581608093A005BA
:100C40000895E8EDF0E080818E7F80831092E200CD
:100C50001092DA001092E100A0EEB0E08C91816079
:100C60008C9380818F77808319BCA7EDB0E08C9145
:100C70008E7F8C9380818F7E808310927105089582
:100C80002091E4003091E50095E6A9012091EC0067
:100C9000822F817020FF06C08091E80080FF06C08F
:100CA00080E008952091E80022FD1AC08091960509
:100CB000882389F0853089F08091EB0085FD0FC095
:100CC0002091E4003091E50042175307F9F291506A
:100CD000E1F684E0089582E0089583E0089581E0DC
:100CE0000895EF92FF920F931F93CF937C018B0196
:100CF0000E944006C82F811117C08091E80085FD31
:100D00000BC08091E8008E778093E8000E94400637
:100D1000882399F3C82F08C0F70181917F01809340
:100D2000F1000150110949F78C2FCF911F910F91BC
:100D3000FF90EF9008958091980587FF13C08091F0
:100D4000E80082FF06C08091E8008B778093E8007E
:100D500004C0809196058111F2CF08958091960587
:100D60008823D9F38091E80080FFF8CF8091E800D4
:100D70008E77ECCF982F9093E900242F762F50E0B8
:100D8000891731F07091EC002091ED005091F00046
:100D900021FD07C09F5F973071F78093E90081E0E4
:100DA00008953091EB003E7F3093EB003091ED00E1
:100DB0003D7F3093ED003091EB0031603093EB00DC
:100DC0007093EC002093ED005093F0002091EE0022
:100DD00027FDE0CF80E00895B0E0A0E0E2EFF6E08C
:100DE0000C947733C8EDD0E088818F7E8883E7ED5F
:100DF000F0E080818160808384E082BF81E0809325
:100E0000710588818E7F888302EE10E0F8011082E0
:100E10001092DA0081EEC82ED12CF6011082888162
:100E20008F77888388818068888388818F7D888395
:100E300019BC109296051092970510929505109284
:100E4000940590EEE92EF12CF70180818B7F808351
:100E500088818160888342E060E080E00E94BA0679
:100E6000F60180818E7F8083F8018081816080839C
:100E7000808188608083F70180818E7F8083888174
:100E800080618883CDB7DEB7E8E00C949333FC0132
:100E900080919E0590919F0586179707A0F0611598
:100EA000710529F49091E8009E779093E80090E016
:100EB0006115710551F4911108C08091E80082FF1D
:100EC00034C080E00895BC01F2CF8091960588235C
:100ED000C1F18530C1F18091E80083FD30C080917F
:100EE000E80082FDEACF8091E80080FFE1CF8091A9
:100EF000F3002091F200382F6115710519F02830A8
:100F0000310558F091E02830310509F090E020914A
:100F1000E8002E772093E800CBCF81918093F100F9
:100F2000615071092F5F3F4FE7CF8091960588236D
:100F300041F0853041F08091E80083FFBECF81E031
:100F4000089582E0089583E00895089580917305DF
:100F5000089587E797E7909301088093000888E158
:100F60009AE00FB6F894A895809360000FBE909316
:100F70006000FFCFCF92DF92EF92FF922FB7F894ED
:100F8000C0906805D0906905E0906A05F0906B0507
:100F90002FBFA7019601261B370B480B590BCA011F
:100FA000B901FF90EF90DF90CF9008952FB7F8949C
:100FB000609168057091690580916A0590916B0553
:100FC0002FBF08952091A9012223C9F020916C051B
:100FD00027FF15C0E62FE695E695E695EE31D8F4A5
:100FE000E80FF92FF11D677021E030E001C0220FFA
:100FF0006A95EAF720958281282322830895FC01CF
:10100000329608962191621303C0DF0111971C925A
:10101000E817F907B9F708952091A9012223C1F033
:1010200020916C0527FF14C0E62FE695E695E6951E
:10103000EE31F8F4E80FF92FF11D677021E030E090
:1010400001C0220F6A95EAF78281822B828308957C
:10105000FC0132962FEF30E04191641751F02F3FA1
:1010600019F4411101C0232F3F5F3630A9F72F3FFC
:1010700009F40895820F911D27FD9A95FC01628362
:10108000089520916505309166052817390771F09C
:101090009093660580936505E0916305F091640582
:1010A000309721F00084F185E02D09950895209175
:1010B0006105309162052817390771F09093620538
:1010C00080936105E0916305F0916405309721F00C
:1010D0000680F781E02D09950895FA01811101C07C
:1010E000FB0109950895E1EAF5E024813AE0231B2C
:1010F00008F420E024838091A00581608093A005FE
:101100000895E1EAF5E024813AE0230F08F42FEF97
:1011100024838091A00581608093A0050895E1EA71
:10112000F5E0438128E0421B08F440E081816281C0
:1011300090E00E940E060895E1EAF5E0438128E080
:10114000420F08F44FEF8181628190E00E940E0609
:101150000895E1EAF5E0628128E0621B08F460E0AE
:101160008181438190E00E940E060895E1EAF5E056
:10117000628128E0620F08F46FEF8181438190E083
:101180000E940E060895E1EAF5E0818143816281C3
:101190008850990B0E940E060895E1EAF5E08181DE
:1011A00090E04381628108960E940E060895809126
:1011B000A10586958695815009F482E00E94DE059E
:1011C00008958091A105869586958F5F833008F0FC
:1011D00081E00E94DE0508950E9440110895FF926B
:1011E0000F931F93CF93DF93182F062FF42ED0E089
:1011F000C0E02F2D402F612FCE010E94EC082196D8
:10120000C633D105B1F7CDB7DEB7E5E00C94963320
:10121000EF92FF920F939701201B31092F3F310569
:1012200019F010F02FEF30E0322F3095482F430F98
:1012300008F44FEF842F620F0F91FF90EF90089505
:10124000AF92BF92CF92DF92FF920F931F93CF93F3
:10125000DF93362F472FE82FF0E0EE52FC4F71114D
:101260000FC0E4918E2F2E2F6E2F722FDF91CF9112
:101270001F910F91FF90DF90CF90BF90AF90089596
:10128000C72FD0E02491F22E022F10E056E0659F88
:10129000C0011124EFEFF0E0BF010E945933832F0A
:1012A00090E0880F991F35E5369FD001379FB00D2C
:1012B00011248A1B9B0B982F990F980F6F01CC1A42
:1012C000DD0AC09ED001C19EB00DD09EB00D11248C
:1012D0008B2F499FA0011124452F55276F01C41A58
:1012E000D50AC09EA001C19E500DD09E500D112464
:1012F0005F01A91AB108AC9E6001AD9ED00CBC9EE6
:10130000D00C1124CD2CDD24EC19FD09E09FE00167
:10131000E19FD00DF09FD00D1124ED2F62307105AB
:10132000A1F050F46115710509F49ECF613071058B
:1013300081F0EB2F852F98CF6430710569F080F034
:101340006630710509F490CFF4CFE22F2B2F8D2F4B
:101350008BCFE22F252F88CFEB2F822F2D2F84CFFD
:101360002B2F8F2DE52F80CF409151048D3E59F4C6
:101370008091520487FF0DC01092520441110BC09E
:101380001092490408C08E3E81F4809152041816D0
:101390009CF3442381F08091530490915404892B51
:1013A00009F05AC01092480408958F3E49F447FF4F
:1013B000F0CF10925104809152048111ECCFE0CF14
:1013C000803F19F41416ACF3E4CF90915304893F95
:1013D00029F41916F4F610925304DBCF8A3F19F45E
:1013E00097FFD7CFF8CF909154048B3F29F497FF04
:1013F000D0CF10925404CDCF8C3F19F41916CCF3F2
:10140000C8CF9FE0980F983090F4815F990B21E04E
:1014100030E0B90102C0660F771F8A95E2F7CB0171
:10142000809590915004892380935004B2CF8D3FD2
:1014300031F480914A048E7F80934A04AACF8E3F74
:1014400021F480914A048D7FF7CF8F3F09F0A1CF1F
:1014500080914A048B7FF0CF089580914A0480FDEB
:1014600016C081FD16C082FD16C0809148048823F5
:10147000A1F0883280F428E0829FC001112468E244
:1014800070E00E94B033862F672B39F0089582E018
:10149000089584E0089588E0089581E0089580919A
:1014A0004A0480FD14C081FD14C082FD16C08091E5
:1014B0004904882381F08E3180F420E5829FC001A9
:1014C00011246EE170E00E94B033862F089584E10C
:1014D000089588E2089588E0089580E508958D3E96
:1014E00031F40E944F0A81958093520408958E3EF4
:1014F00019F40E944F0AF8CF8F3E31F40E944F0A30
:101500008195809351040895803F19F40E944F0AF9
:10151000F8CF893F29F40E942D0A8093530408953F
:101520008A3F21F40E942D0A8195F7CF8B3F31F439
:101530000E942D0A81958093540408958C3F19F4DC
:101540000E942D0AF8CF9FE0980F983070F4815FC9
:10155000990B21E030E001C0220F8A95EAF78091D3
:101560005004822B8093500408958D3F31F4809174
:101570004A04816080934A0408958E3F21F480914B
:101580004A048260F7CF8F3FB9F780914A048460A4
:10159000F1CF80E00895F894E82FE295EF70F0E045
:1015A00031A1282F2F7081E090E001C0880F2A958B
:1015B000EAF7982F9095932391A392A1892B82A368
:1015C0007894089590916C0592FF06C0282F287199
:1015D0002830F9F4877F846093FF06C0282F287194
:1015E0002831F1F4877E846120916D0520FF06C0CB
:1015F000382F38713830D9F4877F816021FF06C0D9
:10160000282F28712831D1F4877E816194FD877E4F
:101610000895282F24712430F9F68B7F8860DCCF61
:10162000282F2471243101F78B7E8861DDCF382F7C
:101630003171313019F78E7F8860E0CF282F21710A
:10164000213121F78E7E8861E1CF972F7830A8F481
:10165000663098F470E026E0929F600D711D1124B1
:10166000FB0190E3899FE00DF11D1124EE0FFF1F98
:10167000EE5CFD4F85919491089580E090E008958F
:10168000CF93DF93EC0182389105A9F1D8F581332E
:10169000910509F496C048F58932910509F48AC08C
:1016A0008A9709F495C0C11521E5D20708F0BCC09E
:1016B000C11530E5D30708F014C1C83ED10508F0C4
:1016C0009CC0C13ED10560F5C83AD10508F087C07D
:1016D000C53AD10508F0FDC0C130D10509F1209708
:1016E000F9F0C430D105E0F440C08533910509F428
:1016F0005AC0C997C1F680916C05837089F0C0EE1D
:10170000D0E00EC0833E910599F170F4803E9105C2
:1017100001F1823E910539F680916C0582FD21C070
:10172000CE01DF91CF910895863E910561F1873E0C
:10173000910571F1843E910509F0B5CF80916D0559
:1017400081FFEECF80916C05C7EED0E084FD0DC027
:10175000E7CF80916C0580FD12C190916D0590FFDF
:10176000DFCFC3EED0E084FFDBCFD0E0C0E0D8CF46
:1017700080916C0582FD06C190916D0590FDBFCFF3
:1017800084FFCECFF2CF80916C0583FDDDCFC8CF33
:1017900080916C0583FDF9C090916D0591FFF0CFAC
:1017A000C4EED0E0BDCF80916C0585FFB9CFC9E212
:1017B000D0E0B6CF80916C0585FFB2CFC5E3D0E015
:1017C000AFCF80916C0586FFABCFCAE2D0E0A8CF47
:1017D00080916C0586FFA4CFC1E3D0E0A1CFCF3BC1
:1017E000D10518F6C85AD0E0CC0FDD1FCF54DE4F1C
:1017F0000990D881C02DD46493CFC11540E2D4079D
:1018000058F4C11581E0D80708F08ACFCD3ED10544
:1018100008F4ABCFD06584CFC11590E4D90708F4A4
:10182000A4CFDF70D06A7CCFC11525E5D20700F5C3
:10183000C11534E5D30708F08AC0C11543E5D407C4
:1018400008F071C0C11582E5D80708F467C0CE0161
:101850008370992721E030E002C0220F331F8A9560
:10186000E2F7C695C69580E2C89FE001112452C0F8
:10187000C11599E5D907A8F4C11528E5D20708F0E4
:101880006BC0C11536E5D30708F06FCF8C2F0E94CF
:10189000E20AC82FD0E0DC2FCC27CC27DF71D06242
:1018A0003FCFC1154AE5D40708F45BC0CE0190567E
:1018B0008115904208F059CF8D2F8F710E94E20A56
:1018C00090E0982F882788279F719C012C2BE90195
:1018D000E6CFC55AD0E0C255DE4FC881D0E0D06413
:1018E0001FCFCE01E4E096958795EA95E1F78370E6
:1018F0002C2F26952695237040E2249F90011124D9
:10190000382B8C2F8370C1E0D0E002C0CC0FDD1FDC
:101910008A95E2F7C22BD32BDC6802CFDC2FCC27D1
:10192000C16FD06AFDCECE018370992721E030E0EF
:1019300002C0220F331F8A95E2F7C695C69590E242
:10194000C99FE0011124C22BD32BDA68E9CEDC2F2A
:10195000CC27C46FD06AE4CEDC2FCC27C06FD06A0E
:10196000DFCE8C2F8F700E94E20A34E0D695C795A7
:101970003A95E1F7CF709C2FEC01D069D1CEC9E345
:10198000D0E0CECEC2EED0E0CBCEC6EED0E0C8CE18
:101990008091B40381111092B403089590916D0564
:1019A00092FF05C09091B40398138093B4030895F7
:1019B000809590915E05982390935E05089580959B
:1019C00090915F05982390935F050895809145035A
:1019D00090911403981301C008958F5F8770FACF18
:1019E000B0E0A0E0E6EFFCE00C9476338C01C09010
:1019F000AB04D090AC04E090AD04F090AE048091C4
:101A0000A8039091A903A091AA03B091AB03C82A9F
:101A1000D92AEA2AFB2ACFE1D0E0BC2ED701C601A1
:101A20000C2E04C0B695A795979587950A94D2F782
:101A300080FD09C0219788F7B12C8B2DCDB7DEB77B
:101A4000E9E00C949233B8018C2F0E94250B0E9480
:101A5000400B019779F3F1CFCF93DF93EC010E9414
:101A6000F00CBE010E94250B0E94400BDF91CF912C
:101A70000895292F983080F5863070F590E036E093
:101A8000239F800D911D1124682F677023E0969588
:101A900087952A95E1F725E0289FF001299FF00D11
:101AA0001124E051FD4F50E040E080E0219130E012
:101AB000062E02C0369527950A94E2F72170332747
:101AC000042E01C0220F0A94EAF7822B4F5F5F4F6A
:101AD0004530510559F7089580E00895292F983031
:101AE000A0F5863090F590E036E0239F800D911DA3
:101AF0001124282F277041E001C0440F2A95EAF7EE
:101B000023E0969587952A95E1F725E0289FF00137
:101B1000299FF00D1124E051FD4F30E020E070E0EE
:101B20005191DF011197CB01022E02C09695879546
:101B30000A94E2F7817081958527842385278C9309
:101B40002F5F3F4F2530310559F70895282F809199
:101B5000AB049091AC04A091AD04B091AE04009799
:101B6000A105B10549F004C0B695A795979587954D
:101B70002A95D2F78170089580E0089592959F701C
:101B8000963091F058F4925F9F70923058F4803FF5
:101B900019F030F4883E30F481E008959A5FF4CF74
:101BA000843FD1F380E00895883EB0F3813FD1F7C0
:101BB000F3CFFC01808191810E942C0D0E94BE0D0B
:101BC00008959C013A9521153F4150F5FC01EE27FF
:101BD000F170BC0166277270AC01442754709C01FF
:101BE0002227387094FF0EC080E1EF2B09F480E0CB
:101BF000672B09F08062452B09F08064232B89F064
:101C00008068089581E0EF2B09F480E0672B09F0EC
:101C10008260452B09F08460232B19F088600895B9
:101C200080E00895CF93DF93C091B007D091B107C2
:101C30008A30C1F42091A705CE018A5A9540622FBF
:101C400070E00E945933281B822F66E00E94A43363
:101C5000C82FC15018F4DF91CF91089580E20E94FF
:101C6000120EF7CF8D30E9F4CA5AD5402091A7055E
:101C7000622F70E0CE010E945933281B822F9E01F3
:101C8000280F311D2115324018F080E0D0E0C0E06F
:101C9000C80FD11DC655DA4FD093B107C093B00716
:101CA000DACF96E0FE01AAEAB7E001900D929A958C
:101CB000E1F7803E08F458C086E0FE0111928A9553
:101CC000E9F7C091B007D091B10746E050E0BE01FE
:101CD0008AEA97E00E9436349E012A5A3540892BC1
:101CE00041F1C90145E0969587954A95E1F741E0B4
:101CF00050E0BA0102C0660F771F8A95E2F7CB0168
:101D00006091A8057091A905862B972BB9016B5F8F
:101D10007F4FE5E076956795EA95E1F702C0440FBD
:101D2000551F6A95E2F7842B952B9093A905809314
:101D3000A8052A5F3F4F4091A705642F70E0C901B5
:101D40000E945933481B463010F4240F311D2115D1
:101D500072E0370710F030E020E026553A4F30931C
:101D6000B1072093B00777CFF6E08F9FB001112421
:101D7000635C794F46E050E0CE010E942D34A1CF44
:101D8000CF93DF93EC01FE018491811103C0DF91B9
:101D9000CF9108950E94120E2196F5CF80915F0594
:101DA00090915E05892B8093C8029091B40399238A
:101DB000A1F0892B8093C8028091A9018823E1F1C9
:101DC00080916C0587FF38C08EE1EAECF2E090E08C
:101DD0008150A0F591110E94C80C40E250E067E4E8
:101DE00073E088EC92E00E943634892B21F180E286
:101DF000E8ECF2E0A7E4B3E001900D928A95E1F7F8
:101E0000E0916305F09164053097A9F08091A901F4
:101E1000882359F080916C0587FF07C08091C80224
:101E20008093C90286E08093C8020280F381E02D8E
:101E300088EC92E00995089586E0C7CF219122238E
:101E400039F29F5FC5CFCF93DF93EC0181E0898B9F
:101E500080915F059F81892B80935F0580915E054E
:101E60009885892B80935E050E94CE0EEA81FB81C6
:101E7000309729F06C897D89CE0106960995DF910E
:101E8000CF910895EF92FF920F931F93CF93DF931B
:101E9000EC018A85811134C0EB80FC8087E5F81A5B
:101EA00026E12E9DC0012F9D900D1124DC01A35829
:101EB000BE4F1496ED91FC911597309731F05496E2
:101EC0006D917C918D579E4F099586E18E9D800185
:101ED0008F9D100D112403581E4FF80187810E9419
:101EE000DF0CF80180850E94D80C0E94CE0E18826B
:101EF00019861B861E821D8210925D0510925C055C
:101F0000CDB7DEB7E6E00C949533882321F00E942C
:101F1000D80C0E94CE0E0895882339F090915E056A
:101F2000982B90935E050E94CE0E0895882321F091
:101F30000E94DF0C0E94CE0E0895882339F0909104
:101F40005F05982B90935F050E94CE0E0895B0E038
:101F5000A0E0EDEAFFE00C9477336C017B0164E6CE
:101F600070E088E70E94B430EC0197FD12C010E0E9
:101F700000E0F601E00FF11F849164E670E00E943A
:101F80002231EC01892B29F40F5F1F4F0E151F051D
:101F900081F70E949931CE01CDB7DEB7E8E00C940D
:101FA000933380915A0590915B05911103C091E0A4
:101FB00089270895882369F062E070E084ED94E059
:101FC0000E94A70F892B19F080915A05089510924D
:101FD0005A0580915A05EBCFCF93C0915A05809155
:101FE0005B058823D1F00E94D607605D7A488F4F49
:101FF0009F4F6093560570935705809358059093B3
:102000005905C11108C062E070E082ED94E00E94C1
:10201000A70F892B29F0C0915A058C2FCF910895D5
:1020200081E080935A05F7CF80936E057093700519
:1020300060936F0580919605843001F582E080936E
:10204000E9008FEF9091E800815095FD06C095ED75
:102050009A95F1F700008111F5CF8091E80085FF96
:102060000DC050E040E063E070E08EE695E00E9435
:1020700071068091E8008E778093E8000895BC0196
:1020800084E00E9414100895BC0183E00E941410A3
:1020900008959C0182E08093E9009FEF8091E80021
:1020A000915085FD06C085ED8A95F1F700009111EC
:1020B000F5CF8091E80085FF0CC050E040E066E07D
:1020C00070E0C9010E9471068091E8008E778093CC
:1020D000E8000895CF93DF93EC018091A901882354
:1020E000B1F180916C0587FF32C060E282E080939D
:1020F000E9008FEF9091E800815095FD06C095EDC5
:102100009A95F1F700008111F5CF8091E80085FFE5
:102110001BC08091A90170E050E040E0811104C033
:1021200050E040E068E070E0CE010E9471068091CE
:10213000E8008E778093E80080E2FE01A4E7B5E036
:1021400001900D928A95E1F7DF91CF91089568E0B3
:1021500081E0CDCF539A3BB1377F2BB128604FB789
:10216000F89484EB94E0FC015191CF0168E02BB925
:10217000000000C057FF3BB9550F000000C000C071
:1021800000C03BB900C06A9591F7F5E086359F071E
:1021900051F74FBF8FE594E00197F1F700C00000C1
:1021A0000895B0E0A0E0E7EDF0E10C9475337C0118
:1021B0005B016A018091C50301E010E08A3010F4F0
:1021C0000AE010E0C1E0D0E0B501C701F6010995D1
:1021D000811104C021960C171D072CF4CDB7DEB772
:1021E000EAE00C949133CC9F9001CD9F300D300DDF
:1021F000112490E080E045E34A95F1F70000019654
:1022000082179307C1F7E0CF80917103811110C04D
:102210008091D80080618093D8008AE18A95F1F797
:1022200000C08091D90080FF0AC081E080937103D3
:1022300081E090917103913009F080E0089582E08F
:10224000809371030E94210610929605F1CF0E949F
:102250000411811103C0809160050895E091630528
:10226000F0916405309729F00190F081E02D0995F7
:10227000089580E008950E94041191E0892708954F
:10228000FF920F931F93CF93DF93EC01F62E042F51
:10229000122F0E943B1181110FC0CB31D1057CF070
:1022A0006B97FE01EE0FFF1FEC0FFD1FEC54FB4F71
:1022B000F1820083128303C0CB31D10594F3CDB7F3
:1022C000DEB7E5E00C949633A3E0B0E0EAE6F1E196
:1022D0000C946D33982E80917C01891128C09091C7
:1022E000A105937020917B0130E081E092171306E5
:1022F00009F480E0817080937A018091A605909125
:102300007901981739F08093790140E060E080E02E
:102310000E94EF08EE24E3949E14A9F0992049F05E
:1023200062E0F62E9F1409F476C080E043C081E09D
:10233000E1CF80917A018823E9F140E060E080E01C
:102340000E94EF08F2CF009178018BE0089F802D6A
:1023500011248983182F155F173308F016E30E94A4
:102360003B11882319F01C3108F01BE10E943B113E
:10237000811105C009810B3110F40BE109836091D3
:10238000A2057091A3058091A4050E942009062F43
:10239000F72EE82E3981232F30E03B832A839A8160
:1023A0009117F8F00E943B11882389F181E01B31DD
:1023B00008F0BBCF909178019F5F909378018111D5
:1023C0000CC082E08093AA0180917A01811105C03E
:1023D000911003C083E08093AA012396E2E10C945C
:1023E0008933EA81FB81E157FD4F8081909179012A
:1023F000892339F02E2D402F6F2D8A819B810E94D9
:10240000EC088A819B8101969B838A83C8CF81E0F7
:10241000163380F28ACFA09178018BE0A89F802D9F
:10242000112489835BE0452E480EB6E3B41510F401
:1024300046E3442E0E943B11882329F0EBE1E4158A
:1024400010F43BE1432E0E943B11811105C009812C
:102450000B3110F41BE1198380907E043981232F06
:1024600030E03B832A83C901880F991FDC01AD50FE
:10247000BE4F6D01312C212C8A81841558F00E94A9
:102480003B11882309F4A3C081E09AE1941508F078
:1024900091CF4BCFEA81FB81E157FD4F8081909135
:1024A0007901892319F16091A2057091A30587E94B
:1024B000682E84E0782E9EE7A92E94E0B92E80E065
:1024C0009A2DEEE7F4E09E1B9815D0F02091A4051C
:1024D000082F029F012D1124802F0E942009462FD2
:1024E000282F672F8A819B810E94EC082A813B81DB
:1024F0002F5F3F4F3B832A8332E0C30ED11CBCCFFA
:10250000F60140A9D50111969C911197491B550BD5
:1025100021A919969C91291B330B449FD001459FFB
:10252000B00DB00D1124229FF001239FF00DF00D8E
:102530001124EA0FFB1FE230F105D4F4E9839091F6
:10254000A505192F01E0100F08F41FEFD301ED913D
:10255000FD913D017101E19FE12CF19FE00CF11C27
:10256000112409810E940809BFEFAB1ABB0AA8CF4A
:102570009FEFE13EBEE1FB0744F4DF0105E0B695C5
:10258000A7950A95E1F798E09A0F55245394E52C06
:10259000E90EFF24FF1CD701B595A795A983AA9F33
:1025A0007001AB9FF00CF00C1124EE15FF0538F410
:1025B0009FEF9A0F951558F75A945982C0CF098109
:1025C0000F3F09F4BCCF552453945A0EF3CF81E04A
:1025D000A5E3A41508F0EECEA8CECF93C82F88238C
:1025E00091F08091B30481110EC00E946411109289
:1025F0007C018091A105837080937B010E94AA10C9
:1026000083E08093AA01C093B304CF9108950F9300
:102610001F930E940411882329F00E94D6071F915E
:102620000F9108950E94D6070091C6031091C70329
:102630002091C8033091C903600F711F821F931F3F
:10264000EECF4F925F926F927F928F929F92AF9256
:10265000BF92CF92DF92EF92FF92CF938090A70428
:102660009090A804A090A904B090AA040E9404111C
:10267000882309F44CC0C501B4010E94BA076B015C
:102680007C010E9407134B015C018092A704909289
:10269000A804A092A904B092AA04A0915504E5E56B
:1026A000F4E08A2F90E04FEF5FEF60E070E04C19AC
:1026B0005D096E097F09A91333C080935504809189
:1026C000B304C0E0811108C08091A105C82FC37078
:1026D00019F0C82FC695C6958091AA01813009F4DA
:1026E00049C0882381F1823009F4CEC0833009F4D7
:1026F000D6C0CF91FF90EF90DF90CF90BF90AF907A
:102700009F908F907F906F905F904F9008950E9460
:1027100007136B017C01C818D908EA08FB08B1CF80
:10272000218D328D2901712C612C441555056605CA
:10273000770520F481509F5F3296BDCF2C0D3D1D53
:10274000328F218FF8CF109278018092AF0490924F
:10275000B004A092B104B092B20489E2E5E5F4E0DD
:10276000AEE7B4E001900D928A95E1F781E08093A5
:10277000AA01BFCF8C2F0E946411CC2309F4B9CFDA
:102780004091AB045091AC046091AD047091AE04E3
:10279000CB01AA27BB270097A105B10509F44EC0BC
:1027A000AC01BD0180E1C52ED62EE72EFF24C11459
:1027B000D104E104F10419F0885FB701A6016A01B0
:1027C0007B0134E0F694E794D794C7943A95D1F717
:1027D000C114D104E104F10419F08C5FB701A60122
:1027E0006A017B0122E0F694E794D794C7942A9576
:1027F000D1F7C114D104E104F10419F08E5FB701DF
:10280000A6017695679557954795452B462B472BFF
:1028100009F08F5F8130A1F0823011F5F12CE12CAD
:1028200027E147E165EEC7010E94EC088FEFE81A47
:10283000F80A86E3E816F10499F75BCF80E0B3CF9E
:10284000F12CE12C2FED42E562E3C7010E94EC0878
:102850008FEFE81AF80A86E3E816F10499F749CFF2
:102860000E94271181FF45CFF12CE12C2FE44FED81
:1028700062E3C7010E94EC088FEFE81AF80A86E3CA
:10288000E816F10499F735CFC0937C018091A1053A
:10289000837080937B010E94AA1083E068CF8091AF
:1028A000A005882351F046E050E06CE170E081EA39
:1028B00095E00E946A341092A005C090AF04D090B9
:1028C000B004E090B104F090B2040E940411882397
:1028D00069F0C701B6010E94BA0760317105810530
:1028E000910508F406CF1092AA0103CF0E940713A6
:1028F0006C197D098E099F09F0CFE1EAF5E085E0CA
:1029000080838091AB019091AC01A091AD01818356
:102910009283A3838FE784838FEF858346E050E023
:102920006CE170E0CF010E946A341092A005089516
:10293000CF9384E090E00E945C34C82F82E290E064
:102940000E945C34982F8C2FCF910895B0E0A0E0C6
:10295000ECEAF4E10C9478337901C82F880FDD0B91
:1029600041155105A9F0FE0193E0EE0FFF1F9A9566
:10297000E1F7E75FFE4F818192818E589C4F208165
:1029800030E04217530708F49A01A9010E9443342A
:10299000CE010E94E332D82E8823D1F00115110513
:1029A000B9F083E0CC0FDD1F8A95E1F7FE01E75F08
:1029B000FE4F438150E00417150708F4A801C75FD4
:1029C000DE4F6C817D816E587C4FC7010E9443347D
:1029D0008D2DCDB7DEB7E7E00C949433A3E0B0E0E3
:1029E000E4EFF4E10C947B336091B5037091B6038E
:1029F0008091B7039091B8030E94BA0741E0643612
:102A000071058105910508F440E030915F05398337
:102A1000643671058105910520F420918803231304
:102A200041E090915E059A83411106C041E02091FA
:102A30008903291301C040E09091B4039B834111A5
:102A400005C080918A0311E08917C9F010E000E009
:102A500030E020E043E050E0BE016F5F7F4F87E051
:102A60000E94A614182F882351F00E94D607609365
:102A7000B5037093B6038093B7039093B803812F87
:102A80002396E4E00C949733A4E0B0E0EAE4F5E1A7
:102A90000C947B336091A0037091A1038091A203F9
:102AA0009091A3030E94BA0711E064367105810575
:102AB000910518F10E9407136E5F7F4F8F4F9F4F54
:102AC00069837A838B839C8310E000E030E020E010
:102AD00044E050E0BE016F5F7F4F83E00E94A61488
:102AE000182F882351F00E94D6076093A00370939B
:102AF000A1038093A2039093A303812F2496E4E083
:102B00000C949733A5E0B0E0E8E8F5E10C94793354
:102B10007B0101E010E09E012B5F3F4F50E040E061
:102B200070E060E080E00E94A614182F882309F46A
:102B300045C0609198037091990380919A03909198
:102B40009B030E94BA07643671058105910538F42C
:102B500083E793E00E94F7059D81891779F104E0EE
:102B600010E09E012F5F3F4F50E040E070E060E0DA
:102B700081E00E94A614082F83E793E00E94F705E6
:102B800011E09D81981310E0102331F10E94D607C7
:102B9000609398037093990380939A0390939B0397
:102BA00089819A81AB81BC81809394039093950332
:102BB000A0939603B093970311E00EC08091730326
:102BC00090917403A0917503B091760389839A83E1
:102BD000AB83BC831111E4CF809194039091950352
:102BE000A0919603B0919703F70180839183A2830C
:102BF000B383812F2596E6E00C949533B0E0A0E0F6
:102C0000E4E0F6E10C947533C82F7B01D42F690101
:102C10005801FB0160817181828193810E94BA0712
:102C2000643671058105910510F4DD23C9F010E0CB
:102C300000E030E020E0A501B6018C2F0E94A61430
:102C4000C82F882339F00E94D607F701608371836B
:102C5000828393838C2FCDB7DEB7EAE00C94913357
:102C6000C1E0F8CFA1E0B0E0E8E3F6E10C947B33FB
:102C700080915A0589832091930390E041E02817C1
:102C8000190609F440E001E010E09E012F5F3F4F7C
:102C900061EC73E08AE00E94FE152196E4E00C945A
:102CA0009733A1E0B0E0E7E5F6E10C947B33809147
:102CB000E703898341E090919203981301C040E0BB
:102CC00001E010E09E012F5F3F4F6DEB73E089E064
:102CD0000E94FE152196E4E00C9497330F931F9306
:102CE00041E000917F031091800320918103309196
:102CF00082038091AB049091AC04A091AD04B0919B
:102D0000AE04081719072A073B0709F440E004E05E
:102D100010E02BEA34E06CEA73E084E00E94FE15D8
:102D2000882301F141E000918303109184032091F5
:102D30008503309186038091A8039091A903A09107
:102D4000AA03B091AB03081719072A073B0709F438
:102D500040E004E010E028EA33E064EA73E085E054
:102D60000E94FE151F910F910895CF92DF92FF925E
:102D70000F931F93CF93DF93F82E6B01EA01A80105
:102D8000B901CE010E94363441E0892B09F440E0BC
:102D90009E01B6018F2D0E94FE15DF91CF911F91EC
:102DA0000F91FF90DF90CF900895A7E0B0E0EBED9A
:102DB000F6E10C947B3386E0E1EAF5E0DE01119662
:102DC00001900D928A95E1F78091B3048F8307E01B
:102DD00010E02BE833E0AE014F5F5F4F69EB73E02B
:102DE00088E00E94B5162796E4E00C949733A1E0A2
:102DF000B0E0EDEFF6E10C947B330E94271189835C
:102E000001E010E027E833E0AE014F5F5F4F60EB79
:102E100073E086E00E94B5162196E4E00C949733A7
:102E20000F931F9304E010E027E733E0AC016CE957
:102E300073E082E00E94B5161F910F91089568EE2D
:102E40007EEF90E080E00E94983460E082E090E0C5
:102E50000E947A3460E083E090E00E947A3410921D
:102E6000A8031092A9031092AA031092AB0360E08A
:102E700084E090E00E947A3464E082E290E00E9474
:102E80007A3460E085E090E00E947A3460E086E089
:102E900090E00E947A346FEF87E090E00E947A34ED
:102EA00040E050E0BA0188E090E00E948C3460E09D
:102EB0008DE090E00E947A3440E050E0BA0188E171
:102EC00090E00E948C3460E087E190E00E947A34C8
:102ED00040E050E0BA018CE190E00E948C3470E058
:102EE00060E080E290E00E94983440E050E0BA0157
:102EF00088E190E00E948C3440E050E0BA018FE01D
:102F000090E00E948C3440E050E0BA0183E190E010
:102F10000E948C340895B0E0A0E0E1E9F7E10C9460
:102F200073338CEA90E00E94C00E8DE491E00E9421
:102F3000C00E83E00E94A60D882309F4D6C081EF5D
:102F400090E00E94C00E8DE491E00E94C00EC091FE
:102F5000B40380915F05C82BDC2FD878C474DD23BF
:102F600009F4D6C084E291E00E94C00E8DE191E0A8
:102F7000CC2309F4D5C08FE191E00E94C00E86E118
:102F800091E0C11102C083E191E00E94C00EDD23F7
:102F900009F4CCC080E191E00E94C00E8BE091E08A
:102FA0000E94C00ECC2309F4D0C084E091E00E94BE
:102FB000C00EC091B40380915F05C82BDC2FD17186
:102FC000C272DD2309F4C4C08AE491E00E94C00EFD
:102FD00083E491E0CC2309F4C3C085E491E00E942E
:102FE000C00E8CE391E00E94C00EDD2309F4C4C042
:102FF00086E391E00E94C00E81E391E00E94C00E42
:10300000CC2309F4C8C08AE291E00E94C00E8DE48E
:1030100091E00E94C00E83E591E00E94C00EC09036
:10302000E703809108018C1105C08091EC02803289
:1030300009F44AC0C092080180E28093EC02D12CCE
:10304000F12CE12C1092EB02C701B6012AE030E02E
:1030500040E050E00E94C433605D603331F0C11441
:10306000D104E104F10409F460E26093EA0260E251
:103070008AE0C816D104E104F10490F08AE0882EB9
:10308000912CA12CB12CC701B601A50194010E947D
:10309000C433CA01B901A50194010E94C433605D23
:1030A0006093E90220E2E4E6CE16D104E104F104E3
:1030B00048F0C701B60124E630E040E050E00E944D
:1030C000C433205D2093E802C8EED2E009900020CE
:1030D000E9F7219708EE12E00C171D0708F462C00B
:1030E000CDB7DEB7ECE00C948F3381E00E94A60DE3
:1030F000882319F081EE90E024CF82E00E94A60D93
:10310000882319F081ED90E01CCF81EC90E019CF7D
:1031100081E291E00E94C00EC11105C089E191E0F9
:103120000E94C00E30CF8BE191E027CF8DE091E07F
:103130000E94C00ECC2329F089E091E00E94C00ECD
:1031400034CF87E091E00E94C00E81E091E02FCF64
:1031500087E491E00E94C00EC1110BC08FE391E0A3
:103160000E94C00E0E94271181FD3BCF89E391E0B0
:103170003ACF81E491E033CF83E391E00E94C00E27
:10318000CC2329F08FE291E00E94C00E3CCF8DE26B
:1031900091E00E94C00E0E94271181FD34CF87E28A
:1031A00091E033CFF80181918F010E94120E94CFEC
:1031B0001F920F920FB60F9211242F933F934F93AC
:1031C0005F936F937F938F939F93AF93BF93EF938F
:1031D000FF938091E10082FF09C08091E20082FFAD
:1031E00005C08091E1008B7F8093E1008091DA003F
:1031F00080FF24C08091D80080FF20C08091DA0039
:103200008E7F8093DA008091D90080FF9DC080E19D
:1032100089BD82E189BD09B400FEFDCF81E08093C4
:10322000960580917105811109C00E9421060E94B6
:10323000EC068091E20084608093E2008091E100DE
:1032400080FF17C08091E20080FF13C08091E200F0
:103250008E7F8093E2008091E20080618093E200A3
:103260008091D80080628093D80019BC85E080935B
:1032700096058091E10084FF2BC08091E20084FFDD
:1032800027C080E189BD82E189BD89B5982F917001
:1032900080FFFBCF8091D8008F7D8093D8008091F4
:1032A000E1008F7E8093E1008091E2008F7E809329
:1032B000E2008091E20081608093E20080919705B6
:1032C000882309F447C084E0809396058091960591
:1032D0008091E10083FF27C08091E20083FF23C03B
:1032E0008091E100877F8093E10082E080939605E2
:1032F000109297058091E1008E7F8093E10080918C
:10330000E2008E7F8093E2008091E20080618093F2
:10331000E20042E060E080E00E94BA068091F000A6
:1033200088608093F000FF91EF91BF91AF919F91E2
:103330008F917F916F915F914F913F912F910F905E
:103340000FBE0F901F90189519BC10929605109201
:10335000710574CF8091E30087FD93E0909396050B
:10336000B5CF78941F921FB61F9211248F939F930D
:10337000AF93BF938091680590916905A0916A050C
:10338000B0916B050196A11DB11D809368059093C6
:103390006905A0936A05B0936B05BF91AF919F91AA
:1033A0008F911F901FBE1F9018959C014FB7F894E6
:1033B0008091680590916905A0916A05B0916B05AF
:1033C0004FBF821B930B08952FB7F8948091680527
:1033D00090916905A0916A05B0916B052FBF089582
:1033E0000E94E4199C019091510480915204982B01
:1033F00021F030934E0420934D049091530480911A
:103400005404982B21F030934C0420934B04E0910A
:103410006305F0916405309749F082E080934F0492
:103420000480F581E02D8FE494E00995089590E003
:1034300080E00E94570890E080E00E9441081092CE
:103440005E050E94CE0E86E0EFE4F4E0DF011D92FF
:103450008A95E9F7109249041092480410924A04A0
:103460000E94F01908956093AB047093AC048093AC
:10347000AD049093AE040E94171A08950F931F9302
:1034800041E050E060E070E004C0440F551F661F4B
:10349000771F8A95D2F7CB01BA0160957095809518
:1034A00090950091AB041091AC042091AD04309143
:1034B000AE0460237123822393230E94331A1F9149
:1034C0000F91089590914603809589238093460338
:1034D000282F277091F4282F082E000C330B9217F9
:1034E000130659F090916D0592FF07C0859585955B
:1034F00085950E943E1A109246030895CF93C0917D
:103500006D05C2FB992790F9981791F080FBC2F9DD
:10351000C0936D0560916C0584E090E00E947A3460
:103520006C2F82E290E00E947A3482E00E94621A5C
:10353000CF9108950F931F9341E050E060E070E059
:1035400004C0440F551F661F771F8A95D2F78091DC
:10355000AB049091AC04A091AD04B091AE048A018B
:103560009B01082B192B2A2B3B2BC901B8010E9468
:10357000331A1F910F91089581E00E94A60D8823B0
:1035800049F082E00E94A60D882321F083E00E948A
:103590009A1A089583E00E943E1A08956093A80342
:1035A0007093A9038093AA039093AB030E94171A08
:1035B000089510925F058091A901EAECF2E088235A
:1035C00061F080916C0587FF08C08EE1DF011D92DC
:1035D0008A95E9F70E94171A089586E0F7CFAAE2C4
:1035E000B0E0E5EFFAE10C947C3388E995E02091B6
:1035F000F100FC012193CF01F5E0803A9F07B9F774
:1036000080919905833009F470C0B8F4813009F4D1
:1036100047C0823009F4B1C08091E80083FF7EC2C8
:1036200080919805909199059A3008F077C2E92F1A
:10363000F0E0E056FB4C0C9405348A3009F48CC061
:103640008B3009F46FC0893039F780919805813249
:1036500019F780919C0590919D050297E8F680915D
:10366000E800877F8093E8008091E80082FF38C0FF
:103670009091F3008091F200029731F48091F10073
:10368000813011F0863021F48091F1008093730530
:103690008091E8008B778093E8000E949B06BCCF66
:1036A00080919805813A09F0B7CF8091E800877F33
:1036B0008093E80080919C0590919D05892B61F491
:1036C00060E284E795E070E00E9447078091E8009F
:1036D0008B778093E800A0CF60E090E080E0F3CFAC
:1036E000809196058111C0CF97CF80919805813A3E
:1036F00009F092CF80919C0590919D05892B09F04E
:103700008BCF8091E800877F8093E8008091E8006C
:1037100080FFFCCF8091A9018093F1008091E800A7
:103720008E77B9CF80919805813209F075CF80915D
:103730009C0590919D05892B09F06ECF8091E80042
:10374000877F8093E8000E949B0680919A05809372
:10375000A9010E94D91A60CF80919805813209F0A1
:103760005BCF8091E800877F8093E8000E949B06F2
:1037700080919B05809372054FCF80919805813A87
:1037800009F04ACF8091E800877F8093E80080911C
:10379000E80080FFFCCF80917205BECF803899F0A1
:1037A000823809F0BBC180919C058F70873008F08A
:1037B000B5C18093E9008091EB0085FB882780F9F3
:1037C0001092E90006C080919405909195059111A1
:1037D00082609091E800977F9093E8008093F100D9
:1037E0001092F1008091E8008E7794C1882309F44B
:1037F00082C1823009F092C180919A05811185C100
:1038000080919C058F702FEF280F263008F086C11D
:103810008093E9002091EB0020FF77C1933031F4D1
:103820008091EB0080628093EB006FC19091EB0080
:1038300090619093EB0021E030E001C0220F8A9567
:10384000EAF72093EA001092EA008091EB0088608A
:10385000EACF811163C110919A051F778091E3002F
:103860008078812B8093E3008091E800877F8093AC
:10387000E8000E949B068091E80080FFFCCF8091C9
:10388000E30080688093E30082E0111183E080937D
:10389000960544C18058823008F040C180919A0555
:1038A00090919B058C3D23E09207A1F583E08A83EC
:1038B0008AE289834FB7F894DE01139620E03EE058
:1038C00051E2E32FF0E050935700E49120FF03C052
:1038D000E295EF703F5FEF708E2F90E0EA30C0F01E
:1038E000C7968D939D932F5F243159F74FBF8091D9
:1038F000E800877F8093E8006AE270E0CE010196DD
:103900000E9447078091E8008B778093E80006C10A
:10391000C096E7CF40919C0550919D05292F3327F4
:103920002330310509F444C078F52130310509F41C
:103930006FC08BE390E0ECECF5E02230310509F04C
:10394000EDC02091E800277F2093E80020919E059C
:1039500030919F058217930708F49C0140E02115E0
:10396000310509F064C0411162C08091E80082FD18
:10397000C9CF80919605882329F2853019F280916C
:10398000E80083FFF2CFBECF21323105A9F1223208
:10399000310509F0C3C04115510509F443C0413058
:1039A000510509F0BBC086EB90E0E6EDF4E0C9CF2D
:1039B000992781309105C1F0009759F0029709F0DD
:1039C000ADC0E9E1F6E0E4918E2F90E0E9E1F6E0A8
:1039D00007C0E9E3F6E0E4918E2F90E0E9E3F6E03A
:1039E000009709F49BC0ADCFE7E2F6E0E4918E2F9B
:1039F00090E0E7E2F6E0F4CF4115510571F0413077
:103A0000510509F08BC089E090E0E7EFF5E099CF30
:103A100082E190E0E7E0F6E094CF89E090E0EEED1F
:103A2000F5E08FCF80E490E0ECE8F5E08ACF80917C
:103A30009605882309F466CF853009F463CF809119
:103A4000E80083FD5FCF8091E80082FD8ECF8091FA
:103A5000E80080FF84CF9091F3008091F20021155F
:103A6000310519F08830910550F041E0089709F0D0
:103A700040E08091E8008E778093E80070CF449119
:103A80004093F1003196215031090196E8CF8038FA
:103A900009F044C08091E800877F8093E80080911E
:103AA00097058093F1009ECE811138C010919A0540
:103AB0001230A0F58091E800877F8093E800109392
:103AC00097050E949B06112311F084E005C08091A8
:103AD000E30087FDFACF81E08093960542E061EC38
:103AE00081E00E94BA0642E261EC82E00E94BA06DE
:103AF0008091960513C080919A05813079F481E018
:103B0000933009F080E0809395051092E900809150
:103B1000E800877F8093E8000E949B068091E80080
:103B200083FF0AC08091E800877F8093E80080913E
:103B3000EB0080628093EB00AA96E3E00C9498334C
:103B40001F920F920FB60F9211242F933F934F9312
:103B50005F936F937F938F939F93AF93BF93CF9315
:103B6000DF93EF93FF93D091E900DF708091EC0039
:103B7000C82FC17080FDC0E81092E9008091F0006C
:103B8000877F8093F00078940E94EF1A1092E900EA
:103B90008091F00088608093F000CD2BCF70C093AF
:103BA000E900FF91EF91DF91CF91BF91AF919F918C
:103BB0008F917F916F915F914F913F912F910F90D6
:103BC0000FBE0F901F9018950E94D91A2FEF84E313
:103BD0009CE0215080409040E1F700C0000088E167
:103BE0009AE00FB6F894A895809360000FBE90936A
:103BF0006000FFCF882391F19CEF980F913A40F439
:103C0000682F88EC92E00E94E2070E94CE0E089591
:103C100090E2980F983050F4877091E001C0990FAE
:103C20008A95EAF7892F0E94DF0CEFCF9BE5980F6A
:103C3000933028F490E080E00E945708089598E5BA
:103C4000980F973128F490E080E00E944108089591
:103C50008D3E20F00E94B4090E94F0190895CF9380
:103C6000DF93EC010E94FA1DCE010E94E10D9E013E
:103C7000205E31092830310510F0CD2B29F40E9447
:103C8000960FDF91CF9108950E94850FFACFFC0126
:103C90008081813031F4FB01808191810E942F1E4F
:103CA00008958230E9F7FB0182819381F7CFCF93AA
:103CB000C82F8823D9F18CEF8C0F813AC8F58091F9
:103CC000A901882311F180916C0587FF1EC0EC2F9C
:103CD000E695E695E695F0E0E853FD4F828190E0A9
:103CE0004C2F477021E030E002C0220F331F4A956D
:103CF000E2F782239323892B91F06C2F88EC92E0DA
:103D00000E94E2070E94CE0E0AC0EAECF2E080EDCB
:103D100092E02191C21789F38E179F07D1F76C2F7C
:103D200088EC92E00E940C080E94CE0ECF9108957C
:103D300080E28C0F883068F4C77021E030E001C069
:103D4000220FCA95EAF780915F05822B80935F0569
:103D5000EBCFEBE5EC0FE33040F4F0E0E255FE4F43
:103D6000808190E00E945708E1CFE8E5EC0FE73151
:103D700050F4F0E0EE0FFF1FEF54FE4F8081918171
:103D80000E944108D3CFCD3E88F28C2F0E946F0A4B
:103D90000E94F019CBCF1F93CF93DF93182FD0E061
:103DA000C0E0893311F4C0E5D0E0812F0E94571E96
:103DB000209739F4812F0E94FA1DDF91CF911F9136
:103DC00008958FE99FE00197F1F700C00000219767
:103DD000EFCFB0E0A0E0EFEEFEE10C947533EC0124
:103DE0008AE0A82EFE012491222309F497C02130F5
:103DF00009F03EC031968491813031F42296FE0163
:103E000084910E94CB1E07C0823039F42296FE01B5
:103E100084910E94571E2196E5CF833031F422967B
:103E2000FE0184910E94FA1DF6CF843009F074C01F
:103E30002296FE01249190E080E0FE01319620530D
:103E4000330B2A30310548F0019728F3EFE9FFE002
:103E50003197F1F700C00000F7CFA89EA001A99EFE
:103E6000500D1124C901840F951F2491EF01E5CF56
:103E7000E22FF0E0E657FE4FB490822F86958695AC
:103E8000869590E0FC01E658FE4FE4902770F12CF7
:103E9000022E02C0F594E7940A94E2F731E0E3229F
:103EA000FF24FC01E659FE4FC490D12C022E02C023
:103EB000D594C7940A94E2F7E1E0CE22DD24FC0118
:103EC000E65AFE4F049110E002C0159507952A9519
:103ED000E2F701701127E114F10419F081EE0E945C
:103EE000571EC114D10419F086EE0E94571E8B2D67
:103EF0000E94CB1EC114D10419F086EE0E94FA1D57
:103F0000E114F10419F081EE0E94FA1D011511056A
:103F100009F481CF8CE275CFEF017DCFCDB7DEB74D
:103F2000EAE00C949133CF93DF93EC010E94E10D12
:103F30009E01205E31092830310510F0209741F4B0
:103F40000E949D0F8C2F0E94571EDF91CF910895E4
:103F50000E948C0FF7CFFC018081813031F4FB018E
:103F6000808191810E94931F08958230E9F7FB01BF
:103F700082819381F7CFCF93DF93EC0188818230E8
:103F800039F4FB01828193810E94931F81E08B872A
:103F9000DF91CF910895ACE0B0E0E1EDFFE10C944A
:103FA00072338E010F5F1F4F88E0D8011D928A95F2
:103FB000E9F781EEC82E81E0D82EF12CE12CAA245D
:103FC000A394B12C2BEE822E21E0922EF60181914A
:103FD0006F018F3F09F442C0F894E82FE295EF702B
:103FE000F0E021A18F70A50102C0440F551F8A95F2
:103FF000E2F7CA01922F982B91A392A18095892371
:1040000082A3789400C0E5EEF1E0712C31E02191BB
:104010002F3F09F46EC0A22FA295AF70B0E090962A
:104020008C9190E02F7002C0959587952A95E2F7C4
:1040300080FD5FC0832F782A330F8E169F0639F7D5
:10404000F601319780818F3F11F00E94CB0A50EA30
:104050005A95F1F7F801EE0DFF1D70828FEFE81A07
:10406000F80AA4E0EA16F10409F0B0CF48E050E005
:10407000B8018AEC93E00E9436347C01892B41F030
:1040800088E0F801AAECB3E001900D928A95E1F77F
:104090001091D303E114F10471F181E0809369037D
:1040A0000E94E419909368038093670380916703EB
:1040B000909168030E94D519059790F0E12FF0E0E8
:1040C000EC52FC4F8091CA0380838091CB038183A3
:1040D0008091CC0382838091CD0383831092690306
:1040E00081E090E0E114F10451F02C96EDE00C94A5
:1040F0008E3380E0A0CF809169038111D7CF0E94D9
:104100000411F82EE091D303882309F4BAC019866C
:104110001A861B861C860E2F10E00C521C4F8091B5
:10412000C5038A3008F076C042E855E1BE01675FFA
:104130007F4FC8010E94D110882309F47BC040E161
:1041400057E1BE01675F7F4FC8010E94D1108823ED
:1041500009F470C044E455E1BE01675F7F4FC801B8
:104160000E94D110882309F465C04EE656E1BE01D5
:10417000675F7F4FC8010E94D110882309F45AC09D
:1041800047EF56E1BE01675F7F4FC8010E94D11023
:10419000882309F44FC04EEE54E1BE01675F7F4FA4
:1041A000C8010E94D110882309F444C045ED56E1AE
:1041B000BE01675F7F4FC8010E94D1108823D1F1F3
:1041C00041E556E1BE01675F7F4FC8010E94D110F3
:1041D000882381F142E356E1BE01675F7F4FC8014A
:1041E0000E94D110882331F11092C5038091D2032F
:1041F00090E044E050E0BE01675F7F4F8C529C4FDF
:104200000E94363421E020937003892B61F5F12C54
:104210008F2D6BCF80916A0390916B030E94D5190B
:10422000843F914008F080CF80917003811112C0CB
:1042300080E05BCF8091C5038F3F29F08F5F809333
:10424000C5038A3098F20E94E41990936B0380931F
:104250006A03EACFFE01399684E0DF011D928A9558
:10426000E9F710927003E091D203F0E0EC52FC4FBA
:1042700089859A85AB85BC8580839183A283B3832E
:10428000C7CF0091D20310E00C521C4FF0E0EC526B
:10429000FC4F84E0A3E7B3E001900D928A95E1F72B
:1042A00083E793E00E94F7058093720384E0E7E7D9
:1042B000F3E0D80101900D928A95E1F7C0907B035D
:1042C000D0907C03E0907D03F0907E0380916C039E
:1042D00090916D03A0916E03B0916F03C816D9063B
:1042E000EA06FB06D1F0C0926C03D0926D03E09217
:1042F0006E03F0926F030E94041181110EC00E94A0
:10430000D607C61AD70AE80AF90AC092C603D0929D
:10431000C703E092C803F092C90380917F03909194
:104320008003A0918103B09182038093AB049093AA
:10433000AC04A093AD04B093AE048091830390913C
:104340008403A0918503B09186038093A803909382
:10435000A903A093AA03B093AB0380918703809332
:1043600060058091880380935F0580918903809325
:104370005E0580918A030E94CE0C86E0EBE8F3E0B4
:10438000A1EAB5E001900D928A95E1F78091910341
:104390000E94ED12809192038093E7038091930332
:1043A000882319F00E94EC0F43CF0E94D10F40CF19
:1043B000A5E0B0E0EEEDF1E20C946F336C01DC01AE
:1043C00013968D919C911497892B39F08C911196AD
:1043D0009C9189238F3F09F0DBC52596E0E10C9481
:1043E0008B330E94F00C182F682F89819A810E94CC
:1043F0006E0D69817A81812F0E94250B8C01F60157
:1044000082818111C5C0D60112968C91013BBDE518
:104410001B0709F453C108F0ABC00F3AFDE51F07B5
:1044200009F429C1003B2DE5120709F441C19801A7
:1044300037552F3F310511F008F04BC040916E0108
:1044400050916F014217530724F430936F0120936A
:104450006E0196E1929F5001939FB00C1124D501FB
:10446000A358BE4F7D0150968C935097F6019281D0
:1044700016968C911697992309F431C11A961C93BC
:104480000E9319978F5F16968C930E94E419D701AB
:104490001E969C938E931D978091B40317968C93D0
:1044A000179780915E0590915F05892B18968C93E4
:1044B0001897ED91FC911197309739F054966D91C2
:1044C0007C91C5018D579E4F099510935D05009312
:1044D0005C05D60112968C91882309F46BC50430D3
:1044E000BDE51B0708F009C10B3FECE51E0730F4E2
:1044F000C80182509C45449708F009C10E94981455
:1045000090936D0580936C0501313CE5130709F428
:10451000DBC108F055C109309CE5190709F4C6C193
:1045200008F01DC10530BCE51B0709F4B3C108F054
:1045300005C10330FCE51F0709F4A2C108F0A6C1BC
:1045400080916C05816002303CE5130709F49BC142
:1045500060916C0510916D0584E090E00E947A34C2
:10456000612F82E290E00E947A340E94D91A8AC0B8
:10457000023B3DE5130709F4ABC0033B9DE519077A
:1045800009F055CF882309F47DC08AE092E0A4C0E9
:10459000C80190568115A0E29A0748F0905E8115F7
:1045A000B0E19B0720F0915C81159F4158F5C8014F
:1045B00099279C01245031092432310518F08B973A
:1045C0000E9780F4E091EC03F0E0EE0FFF1FEF5048
:1045D000FC4F808191818F3F2FE7920719F0019660
:1045E0009183808380916E0190916F01019609F40F
:1045F0000ACF8DE7E82E81E0F82EB12CA12C99246A
:10460000939431C090E080E00F3F110509F088F6E7
:10461000C801CFCFD70116968C9116978823E9F061
:1046200019968D919C910817190739F480915C05B2
:1046300090915D050817190781F0F7019786148797
:1046400003878189811103C0C7010E94230FC7011D
:1046500006960E94420F10925E05FFEFAF1ABF0A46
:1046600026E1E20EF11C80916E0190916F018A1596
:104670009B0584F6C8CE8823B9F081E00E949A1A7F
:104680000E94BC1A80914603877009F4A6CEF601F9
:104690008281882309F4A1CE80916D0582FF9DCE91
:1046A00082E00E94621A99CE81E00E943E1AE8CF11
:1046B000882311F082E0E2CF82E0F7CF882321F057
:1046C00083E00E949A1ADECF83E00E943E1ADACF7E
:1046D0008823C1F28EE192E00E94E91ED3CF8823A5
:1046E00009F4F7CEFD018189882309F4F2CEC501D2
:1046F0008D579E4F0E94420FECCE0236FDE51F07FC
:1047000009F4FCCE063A2DE5120709F4F7CE06317E
:104710008CE5180709F070C180915F058A7A91E0F5
:1047200009F490E09093ED0269E2811165E388EC71
:1047300092E00E940C080E94CE0EA4CF07308CE5B8
:10474000180709F4AFC080916C05806108309CE5C2
:10475000190708F498C080916C05806494C080911A
:104760006C058B7F0D30ACE51A0709F48CC0A0F402
:1047700080916C058E7F0B30ECE51E0709F483C039
:1047800080916C058C600C30FCE51F0708F47BC041
:1047900080916C058D7F77C080916C058F7E0F3086
:1047A0002CE5120709F46FC080916C05877F0031FA
:1047B0003CE5130708F467C080916C058F7D63C0EA
:1047C0000E3F8CE5180709F47BC058F50531ACE5C0
:1047D0001A0709F483C098F480916C05837F033134
:1047E000ECE51E0709F44FC008F472C00E94D91A04
:1047F00090916C05892F97FB87F9805844C00C3F36
:104800002CE5120709F44AC008F056C00B3F8CE5AE
:10481000180709F09DCE80916D05816080936D052C
:1048200097CE02309DE5190709F464C0C0F4809169
:104830006D058C7F0115BDE51B0781F380916D052A
:1048400083600130EDE51E0748F380916D05982FD8
:10485000909591708E7F892B90FB81F9DFCF023686
:10486000FDE51F0709F44CC0063A2DE5120709F4CF
:104870004EC003303DE5130709F06ACE60E03BC04F
:1048800080916C05826080936C0562CE80916C058E
:104890008460F9CF80916C058860F5CF80916D05BB
:1048A0008260BCCF80916C058062EDCF0E94D91AE6
:1048B00080916C058068E7CF80916D058E7FAECFCB
:1048C00080916D058D7FAACF80916C058F7BDBCFAA
:1048D0000E94D91A80916C058F77D5CF80916C0595
:1048E00082FB992790F921E0922790FB82F990FBB7
:1048F00083F9C9CF61E08EE090E00E947A3428CE3F
:1049000090916C05892F8F7E94FF8061BCCF909130
:104910006C05892F8E7F90FF8160B5CF8091ED026D
:1049200069E2811165E388EC92E00E94E20703CF1F
:1049300049EA58E066EB78E0083C9CE5190709F481
:1049400045C04DEC58E063EC78E0093CACE51A0753
:10495000E8F146EB58E069EA78E038C00E3CBCE587
:104960001B0709F445C0A8F443E758E061E878E084
:104970000C3CFCE51F0751F14CE958E06FE878E08A
:104980000D3C2CE5120710F141E858E063E778E0B0
:104990001DC0073D3CE5130708F474CE0E358DE5C8
:1049A000180709F46FCE28C38091A10591E08927EB
:1049B0008093A1051092AA018091A0058160809347
:1049C000A00560CE47ED58E061EE78E00E946D08EA
:1049D00059CE41EE58E067ED78E0F8CF43EC58E06F
:1049E0006DEC78E0F3CF4FE858E06CE978E0EECF7B
:1049F00081E00E94DE0546CE0B359DE5190771F179
:104A000058F40115BCE51B0791F00F3D1C4509F05A
:104A1000F3C20E941F1709C00D35FDE51F07A1F065
:104A2000F8F0083A1D4509F0E7C20E94E41D0E9413
:104A3000D91A8FEF94E3ACE081509040A040E1F7A9
:104A400000C000000E94A90780916D0582FB8827A5
:104A500080F991E089270E947E1ACEC281E0FBCFC7
:104A600080E0F9CFC8010E94390DF82ED6C2202F60
:104A70002F70922E802F807F19F0929430EF932226
:104A8000FF20B9F0992069F080E2810F883010F0A2
:104A9000811009C080915F05982A90925F050E945D
:104AA000CE0E812F43C080915E05982A90925E05BC
:104AB000F6CF812F0E94FA1D9920D1F180E2810F5B
:104AC000883010F0811004C0892D0E94DF0C03C0D3
:104AD000892D0E94D80C0E94CE0E2AC0302F3F7024
:104AE000932E802F807F803219F0929420EF9222B3
:104AF000882059F081E0881609F478C0FF2009F475
:104B000082C0EE2009F478C0CCCF80916D0582FD83
:104B100050C0FF2009F446C0992039F080915F050C
:104B2000982A90925F050E94CE0E80E00E94571E48
:104B3000EA2DE850FF0B349710F40E942711812FC3
:104B4000902F0E94BE0D811111C21092EF0210929F
:104B5000EE02BB20B1F08091460380FD12C0D60169
:104B600012961C928595859585950E949A1AC60184
:104B70000E94D821809146038595859585950E9450
:104B80003E1A85E0F601DE01119601900D928A959C
:104B9000E1F709811A81C8010E94390DB8010E940C
:104BA000250B1BCC80E00E94FA1D992009F4C0CF90
:104BB0008BCFFF2071F08091B4038929E11003C0ED
:104BC0000E949D0FB5CF91E0E912FACF0E94CE0C62
:104BD000AFCFE11006C00E94C80C892D0E94960F2D
:104BE000A7CFA1E0EA1609F4A3CFF5CFFF2031F05B
:104BF000B5E0BE1508F49CCF892DE2CFE4E0EE15B8
:104C000008F496CFEACFEE2041F3F9E38F1209C002
:104C10002FEF37EE83E0215030408040E1F700C0B5
:104C20000000812F0E94FA1D83CF802F86958695E4
:104C3000837069F0813009F07BCF812F902F9370C2
:104C4000F11002C090E080E00E94410871CF812FF6
:104C5000902F9370F11002C090E080E00E945708FE
:104C600067CF812FFF2029F00E946F0A0E94F01960
:104C70005FCF0E94B409FACF802F837009F067C01C
:104C8000F11056CF212F229526952770220F220F43
:104C9000412F4F7050E070E060E0022E04C0440FDE
:104CA000551F661F771F0A94D2F780E090E0DC0161
:104CB00014FF0FC08FE090E0A0E0B0E004C0880FC8
:104CC000991FAA1FBB1F2A95D2F780959095A09592
:104CD000B095202F269526952370223029F1D8F4FF
:104CE0004090A8035090A9036090AA037090AB0372
:104CF000213069F0842B952BA62BB72BBC01CD015D
:104D000064217521862197210E94CE1A11CF442952
:104D10005529662977293A014B01682A792A8A2A76
:104D20009B2AC401B301F0CF842B952BA62BB72B64
:104D30004090A8035090A9036090AA037090AB0321
:104D4000BC01CD016425752586259725DDCF869587
:104D5000FF2011F0802F8170882309F4E9CE212FE4
:104D6000229526952770220F220F412F4F7050E079
:104D700070E060E0022E04C0440F551F661F771FCD
:104D80000A94D2F780E090E0DC0114FF0FC08FE0BE
:104D900090E0A0E0B0E004C0880F991FAA1FBB1FDD
:104DA0002A95D2F780959095A095B095202F2695BD
:104DB00026952370223029F1D8F44090AB0450900E
:104DC000AC046090AD047090AE04213069F0842B87
:104DD000952BA62BB72BBC01CD0164217521862113
:104DE00097210E94331AA4CE442955296629772990
:104DF0003A014B01682A792A8A2A9B2AC401B30105
:104E0000F0CF842B952BA62BB72B4090AB04509062
:104E1000AC046090AD047090AE04BC01CD0164257B
:104E2000752586259725DDCF202F2F70922EFF2008
:104E300029F0822F0E949A1A812FC2CE812F0E94C0
:104E4000960F892D0E943E1A73CE812F32EF831662
:104E500009F441C0381570F090EF8916D1F0A1EF38
:104E60008A1691F0FF2009F471C0E1101ACE802F4C
:104E70008F7135C0B3EF8B16A9F1E4EF8E12F2CF2C
:104E800080916D0582FD42C0802F8F71FF20D1F28D
:104E900026C0FF20D1F0F4E0FE1508F449CE202F03
:104EA0002F7161E070E080E090E004C0660F771F32
:104EB000881F991F2A95D2F74090AB045090AC04FC
:104EC0006090AD047090AE04AACF95E0692E6E1488
:104ED00008F42ECEE4CF802F8F71F110B3CF0E9453
:104EE0009A1A26CE60E070E0CB01FF2009F479CF5A
:104EF000202F2F7161E070E080E090E004C0660F29
:104F0000771F881F991F2A95D2F76BCFFF2099F042
:104F1000202F2F71922E822F0E949A1A80916D0558
:104F200082FF07C038E0939EC00111248360809304
:104F30004603892DD4CF81E00E94621A81E08E154C
:104F400008F0F6CD82E00E94621AF2CDEE2059F010
:104F5000893309F066CE9FEFA7EEB3E09150A040F1
:104F6000B040E1F75CCE802F8F716CCFFF2019F03D
:104F7000E110EBCDEECDE110E8CD8091EE02909105
:104F8000EF02029709F0E1CD812F0E94CB1EDDCD0B
:104F900085E0F601DE01119601900D928A95E1F708
:104FA000F601228189819A8121111BCA0E94390D43
:104FB000182F1FCA0631FCE51F0709F4AFCC8091FA
:104FC0005F0582720A3C9CE5190709F40CCD08F0D4
:104FD000C5CC063CBCE51B0709F400CD08F0A8CC05
:104FE000043CFCE51F0709F4EDCC08F0F2CC033CCF
:104FF0003CE5130709F4D8CCD60112968C91129790
:105000000D911C91882309F42DCDC8010E94F00C4C
:10501000F82E682FC8010E946E0DB8018F2D0E94D6
:10502000250B0E94400B182F092F882EF601F280C5
:10503000E580E2945FE0E522809146038770C1F04D
:10504000BF2CFF20B1F0892F807F803421F080E2D7
:10505000810F883068F080916D0582FF09C082E081
:105060000E94621A809146038770BB24B394811119
:10507000B12CA02EA2944FE0A422FBE0FA1508F474
:1050800057CDEA2DF0E0E655FB4C0C9405341F9308
:10509000CF93DF9380911303807F09F049C0809103
:1050A0001003882309F444C080914503D091140370
:1050B00060910E0370910F03A0911103B091120340
:1050C000C62FC72316E0D81799F190E0109711F07A
:1050D000CF3F19F401968770F6CF189F9001199F62
:1050E000300D1124F901EB5EFC4F41814713F2CFE3
:1050F00040814613EFCF42814111ECCF438154816F
:105100004A1B5B0B483C510528F7809113038F70B5
:10511000806180931303F901E65EFC4F80818F70FC
:10512000806180838EE093E00E94D8210E94E60C8B
:10513000DF91CF911F910895A1E1B0E0E2EAF8E29A
:105140000C9475338C0185E0F801DE011D96019009
:105150000D928A95E1F7F801E2808EE0A82E83E0B7
:10516000B82E60911103709112036115710509F455
:1051700016C190910E0340910F03892F84238F3F16
:1051800009F40DC120813181C380D480F0901003D7
:10519000F601E61BF70BFF2009F4E8C0809113032A
:1051A000582F507FE83CF10508F0ABC051116BC09F
:1051B000FE2C431314C0921312C0E11010C08F7064
:1051C000806180931303C5010E94D821809113034D
:1051D000F80185838F2D6196EAE00C949133C11418
:1051E000D10429F0822F83238F3F09F0F3C080E0A0
:1051F000F82FF170DF2E80FF3CC080914503409175
:10520000140356E0841315C02D873E878D859E8537
:105210000E942C0D292F22952F702230F0F024307F
:1052200018F59F70F1F0F8019581907FD1F4D12CA1
:105230001EC090E0589FF001599FF00D1124EB5EC5
:10524000FC4F6181361306C06081261303C0628162
:10525000E6120FC001968770D5CF9F7011F088239A
:1052600031F3805E883018F3C8010E94D821FD2CEC
:10527000B1CFEE2009F4AECF80911303816080930B
:105280001303F12CA7CF431312C0921310C0E110E7
:105290000EC0F8018583C8010E94D82186E0F8017C
:1052A000AEE0B3E001900D928A95E1F793CFC8018B
:1052B0000E94D90D882309F1EE20F9F080911303A3
:1052C000803270F020910E0330910F0338872F83C6
:1052D0001986DB86CA868C87CE0107960E94D82164
:1052E00086E0F801AEE0B3E001900D928A95E1F717
:1052F0000E944728FF24F3946DCFC8010E94D82153
:10530000F9CF51110AC08EE093E00E94D82186E0C7
:10531000F50111928A95E9F7B4CF43130FC09213A8
:105320000DC0E1100BC0F8018583C8010E94D8218F
:1053300086E0F50111928A95E9F74CCFC8010E94E9
:10534000D90D8823D1F2EE20C1F28091130380326F
:1053500038F220910E0330910F033A8329831B8288
:10536000DD82CC828E83CE010196B8CFE83CF10578
:10537000F8F6FE2CEE2009F2431303C0921709F44D
:105380008DCFC8010E94D90D8111AACF809113033E
:10539000816080931303C8010E94D8211BCFEE20A7
:1053A00009F4ABCFC8010E94D90DF82E882309F467
:1053B000A4CF86E0F801AEE0B3E001900D928A95AB
:1053C000E1F780910E0390910F030E942C0D0E9433
:1053D000472800CF81E08E250BCFA7E1B0E0E3EFB7
:1053E000F9E20C947C334B8B5C8B6D8B7E8B8F8BBB
:1053F0008E899F89892B29F0CA0189238F3F09F063
:105400007BC08D89811110925E051A8A198A85E008
:10541000FE017396DE011D9601900D928A95E1F7CB
:1054200086E0FE013D96DE01179601900D928A9569
:10543000E1F7CE0107960E949C28882359F016E0D8
:105440008091450390911403891343C06796E3E06C
:105450000C94983386E0FE013796DE011196019098
:105460000D928A95E1F78A859B85892B41F38F817F
:10547000988589238F3F19F32091140330E0C901E7
:10548000019687709927409145034817190671F4D2
:105490000E94D91A109214031092450386E0EEE0A0
:1054A000F3E0DF011D928A95E9F7C9CF96E0929F5C
:1054B000D001939FB00D1124AB5EBC4FFE0131961D
:1054C00001900D929A95E1F7809314030E94E60CE7
:1054D000B6CF819FC00111248B5E9C4F0E949C28F7
:1054E000882309F4B3CF8091450390E0019687703B
:1054F000992780934503A4CF8091EE029091EF020B
:1055000001969093EF028093EE027BCF1F921FB61D
:105510001F9211248F939F93AF93BF938091670540
:10552000811113C08091680590916905A0916A0569
:10553000B0916B054196A11DB11D809368059093B4
:105540006905A0936A05B0936B05BF91AF919F91D8
:105550008F911F901FBE1F901895CDB7DEB766972D
:105560000FB6F894DEBF0FBECDBF85B7806885BF8C
:1055700085B7806885BF84B7877F84BF0FB6F894EE
:10558000A89580916000886180936000109260000F
:105590000FBE80E890E00FB6F8948093610090937E
:1055A00061000FBE89EC9AE09093C7028093C60217
:1055B0000E9421060E94EC068091E20084608093A4
:1055C000E2007894809196058823A1F01091E9007B
:1055D0001F709091EC00892F817090FD80E8182B4E
:1055E0001092E9008091E80083FD0E94EF1A1F707D
:1055F0001093E90082E084BD93E095BD9AEF97BDDA
:1056000080936E001092C6031092C7031092C803D5
:105610001092C9030E943B11809361010E94041102
:1056200081110E94F731809161018091610194E0C4
:10563000811190E09093D30384E0891B8093D2037F
:1056400084E90E94CB0A86E60E94CB0A87E90E9481
:10565000CB0A86EC0E94CB0A05EE11E0D8018D91B1
:105660008D018F3F11F00E94CB0AB1E00B3E1B076A
:10567000A9F788E0E4EDF3E0DF01282F1D922A95D9
:10568000E9F7EAECF3E0DF011D928A95E9F790E093
:1056900080E00E946434883E9E4F11F00E941F17E4
:1056A00082E090E00E945C348093DC030E949814B6
:1056B00090936D0580936C050E94CB1FEFE3FCE98E
:1056C0003197F1F700C000000E94CB1F0E943B11F0
:1056D000E4E08111E0E0F0E0EC52FC4F808181FFDA
:1056E00008C06FEF7FEF90E080E00E9498340E9446
:1056F000A90783E090E00E945C34682F70E090E09E
:1057000080E00E94CE1A10927E048FEF9FEF90935C
:1057100098048093970490939A04809399049093AB
:105720009C0480939B0490939E0480939D0490938B
:10573000A00480939F049093A2048093A10490936B
:10574000A4048093A3049093A6048093A5041092CC
:10575000550490936F0480936E049093710480932A
:1057600070049093730480937204909375048093F3
:1057700074049093770480937604909379048093D3
:10578000780490937B0480937A0490937D048093B3
:105790007C0490E080E00E946434883E9E4F21F0BB
:1057A0000E941F170E947D1446E050E06CE170E0FB
:1057B00081EA95E00E944C341092A0058091A105E9
:1057C0008C7F11F40E947D1483E08093430480E277
:1057D0008093A7050E94AE306DE070E085EC93E009
:1057E0000E94A70F892BE9F58091430463E070E0E4
:1057F00081FDE1C082EC93E00E94A70F892B89F51F
:105800006DE070E082EB93E00E94A70F892B49F5D1
:105810000E94D607605D7A488F4F9F4F6093560570
:10582000709357058093580590935905EAEAF5E07F
:1058300080E092E0DF019C011D9221503040E1F7B1
:10584000F093B107E093B0078FEF9FEF9093A90516
:105850008093A80581E080935B0580935A051092A0
:1058600044040E940411811102C00E94FA3182E6B0
:1058700091E0909364058093630524E6822E912C39
:10588000A12CB12C8091960500E112E1853009F43C
:10589000DAC00E94CB1F8A8B81110E94D607E4EDEB
:1058A000F3E0ADEDB3E010E000E0502E71908D918B
:1058B000871509F4C7C28725F12CEE24E394982FAD
:1058C0009E2109F4BAC20E9404117E20882399F017
:1058D000FF82588681E0711001C080E089870E94B4
:1058E000E4198160782F9B878A874F815885698565
:1058F0008B850E94ED29F801E352FC4F8081E82658
:10590000E082772089F086E0809FF001819FF00D92
:105910001124ED50FE4FEF0DF11D8081712C8F3F52
:1059200019F0898B77247394072D10E0809155042A
:10593000800F912F911D09976CF188E090E07C0118
:10594000E01AF10AB8016A5A7B4FA70186E594E094
:105950000E944334B801625A7B4FA7018EE594E060
:105960000E944334A701440F551FB801660F771FEB
:1059700062597B4F8EE694E00E944334B8016A5925
:105980007B4FA70186E694E00E94433488E08719A4
:10599000809355048091550490E0E989AE2FB0E0E2
:1059A0009D01220F331F2D5D3D4FAA0FBB1FBD016F
:1059B0006C5D7D4F70C08FEB93E01ECF809196059C
:1059C000843009F431C081E00E94ED1281E00E9430
:1059D000ED120E94211381E00E94ED120E94D10F6E
:1059E0001092670548E150E080E40FB6F894A8955E
:1059F000409360000FBE8093600083B7817F846016
:105A000083BF83B7816083BF7894889583B78E7F87
:105A100083BF0FB6F894A895809160008861809349
:105A20006000109260000FBE80919505882359F0A8
:105A30000E94CB1FE4EDF3E0819181116FC393E0ED
:105A4000EC3DF907C9F780919605853009F4B6CF8A
:105A50000E94D91A0E94271180E00E94ED1280E076
:105A60000E94ED1280E00E94ED1213CF90E0FC0145
:105A7000EB5AFB4FD9015C915183DB015C9151875B
:105A8000B989B18B880F991FFC01EB5AFB4F128E1D
:105A9000118E91E0842F41E0480F971538F38093E1
:105AA00055040E940411882309F4B8C080916E0146
:105AB00090916F01712C76E1572E019609F00FC27B
:105AC0004090F1035090F203052C000C6608770813
:105AD00010917001212F30E0E1EFF3E081E090E0E0
