:100000000C94BF050C94DC050C94DC050C9479343D
:100010000C94DC050C94DC050C94DC050C94DC05DC
:100020000C94DC050C94DC050C94401A0C942C1FE9
:100030000C946F2C0C94DC050C94DC050C94DC0502
:100040000C94DC050C94DC050C94DC050C94DC05AC
:100050000C94DC050C94181B0C94DC050C94DC054A
:100060000C94DC050C94DC050C94DC050C94DC058C
:100070000C94DC050C94DC050C94DC050C94DC057C
:100080000C94DC050C94DC050C94DC050C94DC056C
:100090000C94DC050C94DC050C94DC050C94DC055C
:1000A0000C94DC050C94DC050C94DC0573616E7417
:1000B00069008081828384A0A1A2A3A4C0C1C2C31D
:1000C000C400209495962020B4B5B62020D4D5D66F
:1000D0002000209798992020B7B8B92020D7D8D9E8
:1000E0002000209A9B9C2020BABBBC2020DADBDCBD
:1000F0002000209D9E9F2020BDBEBF2020DDDEDF92
:100100002000A7A800AFB000C600CA00C800A5A67E
:1001100000ADAE008788008F9000C500C900C70001
:10012000CB008586008D8E00ABAC00CFD000C60022
:10013000CA00C800A9AA00B1B2008B8C00CDCE00C5
:10014000C500C900C700CB00898A00919200202019
:10015000202020002057504D2020000000000000EB
:10016000000000000000000000000000000000008F
:100170000000000000000000000000000000007E01
:100180000F00D4FFFFFFC700000078000000000050
:100190000000002A2B2800000000000000000000E2
:1001A00000000000000029000000002C1E34202167
:1001B0002224342627252E362D3738271E1F2021AE
:1001C00022232425263333362E37381F040506070D
:1001D00008090A0B0C0D0E0F101112131415161727
:1001E00018191A1B1C1D2F3130232D350405060745
:1001F00008090A0B0C0D0E0F101112131415161707
:1002000018191A1B1C1D2F3130354C4D6163726F4C
:10021000203220746578743A0A73616E7469004DF7
:100220006163726F203120746578743A0A73616E6D
:100230007469002B0014001A00080015001700E074
:100240000004001600070009000A0003571D001BE8
:1002500000060019000500000000000000E300A8EF
:100260005D2C002A00130012000C0018001C000175
:100270005700570F000E0005570B00290002573793
:10028000003600100011000000000000000457A913
:100290005D28002B001E001F00200021002200E02E
:1002A000003A003B003C003D003E0003573F004049
:1002B00000410042004300000000000000E3000194
:1002C000002C002A0027002600250024002300001F
:1002D0000052004F005200510050004F005100509A
:1002E000000000450044000000000000000457AA80
:1002F0005D28002B001E021F02200221022202E0C4
:10030000000000000000000000AB5D03570000008B
:100310000000000000AC5D000000000000E300AA47
:100320005D2C002A00270226022502240223023522
:1003300000310030002F002E002D00350231023038
:10034000022F022E022D02000000000000045701BF
:10035000002800005C0000000000000000A600C3B0
:100360005CC65CC85CCA5C0000AE00C45CC75CC90B
:100370005CCB5C00004600000000000000E30001D0
:10038000002C00A900AA00000000000000F100BD40
:1003900000BE00F000ED00EE00EF00AB00AC00FB93
:1003A00000FA00F900FC0000000000000004570102
:1003B00000280000DA0281FFD9F1DB20A4A62EAFCD
:1003C00000A0C000A1C800AED580A81FD300408DFA
:1003D00014200000010101010101010101020202DA
:1003E00002020202020203030303030303030404E1
:1003F00004040404040505050505060606060607AB
:100400000707070708080808090909090A0A0A0B63
:100410000B0B0C0C0C0D0D0D0E0E0E0F0F0F101004
:10042000111111121213131414151516161717188B
:100430001819191A1A1B1B1C1D1D1E1E1F202021F6
:100440002222232424252626272829292A2B2C2D3D
:100450002D2E2F30313232333435363738393A3B5E
:100460003C3D3E3F404142434445464748494A4C53
:100470004D4E4F50515354555658595A5B5D5E5F1F
:10048000616264656668696B6C6D6F7072737577B5
:10049000787A7B7D7E8082838587888A8C8E8F9117
:1004A000939596989A9C9EA0A2A3A5A7A9ABADAF41
:1004B000B1B3B5B7BABCBEC0C2C4C6C9CBCDCFD12B
:1004C000D4D6D8DBDDDFE2E4E7E9EBEEF0F3F5F8D4
:1004D000FAFDFF00AF00AE05010902A10185020986
:1004E00001A10005091901290815002501950875C4
:1004F0000181020501093009311581257F950275B9
:1005000008810609381581257F9501750881060542
:100510000C0A38021581257F950175088106C0C037
:1005200005010980A101850319012AB700150126DB
:10053000B700950175108100C0050C0901A1018566
:100540000419012AA002150126A002950175108147
:1005500000C005010906A1018506050719E029E784
:10056000150025019508750181020507190029EF7D
:100570001500250195F0750181020508190129056D
:10058000950575019102950175039101C005010959
:1005900006A101050719E029E71500250195087551
:1005A0000181029501750881010507190029FF15D0
:1005B0000026FF0095067508810005081901290528
:1005C000950575019102950175039101C009023BE2
:1005D00000020100A0FA0904000001030101000962
:1005E00021110100012240000705810308000109D3
:1005F000040100010300000009211101000122B6DD
:10060000000705820320000112010002000000081B
:10061000534601000100010200010C0343006F007A
:1006200072006E0065000000100366006F006F002E
:100630007300740061006E000000040309040000F0
:10064000000000003E5B4F5B3E003E6B4F6B3E0088
:100650001C3E7C3E1C00183C7E3C18001C577D57FD
:100660001C001C5E7F5E1C0000183C180000FFE7A9
:10067000C3E7FF00001824180000FFE7DBE7FF00D6
:1006800030483A060E00262979292600407F0505C4
:100690000700407F05253F005A3CE73C5A007F3E5B
:1006A0001C1C0800081C1C3E7F0014227F22140022
:1006B0005F5F005F5F0006097F017F00006689952C
:1006C0006A0060606060600094A2FFA29400080469
:1006D0007E04080010207E20100008082A1C080054
:1006E000081C2A0808001E10101010000C1E0C1EFA
:1006F0000C0030383E383000060E3E0E060000007A
:100700000000000000005F0000000007000700007C
:10071000147F147F1400242A7F2A120023130864F4
:100720006200364956205000000807030000001CF4
:10073000224100000041221C00002A1C7F1C2A00CC
:1007400008083E080800008070300000080808080B
:1007500008000000606000002010080402003E5104
:1007600049453E0000427F40000072494949460029
:100770002141494D33001814127F1000274545458B
:1007800039003C4A494931004121110907003649E5
:1007900049493600464949291E000000140000005E
:1007A0000040340000000008142241001414141406
:1007B00014000041221408000201590906003E41BC
:1007C0005D594E007C1211127C007F494949360068
:1007D0003E41414122007F4141413E007F4949491C
:1007E00041007F09090901003E41415173007F0822
:1007F00008087F0000417F4100002040413F010088
:100800007F08142241007F40404040007F021C02CC
:100810007F007F0408107F003E4141413E007F0978
:10082000090906003E4151215E007F091929460051
:1008300026494949320003017F0103003F404040FF
:100840003F001F2040201F003F4038403F006314FE
:10085000081463000304780403006159494D430000
:10086000007F414141000204081020000041414145
:100870007F000402010204004040404040000003A9
:10088000070800002054547840007F284444380072
:10089000384444442800384444287F003854545491
:1008A000180000087E0902001824241C78007F0824
:1008B0000404780000447D4000002040403D0000DA
:1008C0007F102844000000417F4000007C04780431
:1008D00078007C08040478003844444438007C18CC
:1008E00024241800182424187C007C080404080020
:1008F00048545454240004043F4424003C40402005
:100900007C001C2040201C003C4030403C0044281F
:10091000102844004C9090907C004464544C440057
:100920000008364100000000770000000041360852
:1009300000000201020402003C2623263C000000C5
:10094000000000000000C0E0F0F8F81800C0F0FC63
:10095000FEFFFFFFFFFFFFFF7E00000000F8042204
:1009600052E2424242E252222222428202022222E7
:100970000204F80000F804020282422242820202CB
:1009800002824222122242820204F80000F8FCDEB7
:10099000AE1EBEBEBE1EAEDEDEDEBE7EFEFEDEDEF7
:1009A000FEFCF80000F8FCFEFE7EBEDEBE7EFEFE13
:1009B0000000000000008080404020201010080847
:1009C00010102020404080808080C0C0E0E0F0F027
:1009D000F8F8F0F0E0E0C0C0808080804040202047
:1009E000101008081010202040408080808040C0F7
:1009F00060A050B058A850B060A040C0808000F8FF
:100A0000FCFEFFE000FFFFFFFFFFFF80FFFFFFFF97
:100A1000FFFFFFFFFF1F070100000000001F204431
:100A20004A47424242474A4440404040414244448F
:100A300040201F00001F20404140404040404140B6
:100A400041414F4848484F4141201F00001F3F7B14
:100A500075787D7D7D78757B7F7F7F7F7E7D7B7BDD
:100A60007F3F1F00001F3F7F7E7F7F7F7F7F7E7FD6
:100A700000000000000088885D5D3E3E7C7CF8F848
:100A80007C7C3E3E5D5D888888885555232347479A
:100A90008F8F47472323555588888888D5D5E2E22C
:100AA000C4C48888C4C4E2E2D5D5888888885DD566
:100AB0006BB66DD6ADDA6DD66BB65DD588880003A2
:100AC0000F1F3F3F3F3F1F1F3F3F7F7F7F3F3F1F26
:100AD0003F7F7F7F7F7C7878381C0F0004F8000010
:100AE000F804201F00001F20FCF80000F8043F1F3E
:100AF00000001F2004F80000F8FC201F00001F3F2A
:100B0000FCF80000F8FC3F1F00001F3FFE7EBEDE29
:100B1000EEDEBE7EFEFCF8007E7E70777777707E1C
:100B20007E3F1F00000000000000000000000000E9
:100B30000000000000000000010102020404080897
:100B40000404020201010000000001010202040489
:100B5000080804040202010100000000010103036F
:100B600007070F0F07070303010100000000010141
:100B7000030205060D0A0506030201010000112407
:100B80001FBECFEFDAE0DEBFCDBF13E0A0E0B1E0E3
:100B9000E4EDFDE602C005900D92AA32B107D9F747
:100BA00028E0AAE2B3E001C01D92A631B207E1F746
:100BB0000E94962C0C94A4360C940000909105068B
:100BC000937061F081110BC09460909305061092B0
:100BD0001202809104068160809304060895833098
:100BE00010F09860F2CF880F880F982BEECFFC01A1
:100BF000AC014C5F5F4F8FEF91E32191822728E09A
:100C000030E087FF09C0880F892721503109C9F7D3
:100C1000E417F50791F70895880FF7CF909105062F
:100C2000937071F08093060660930706473908F0C9
:100C300046E940930806809104068160809304068B
:100C40000895E8EDF0E080818E7F80831092E200CD
:100C50001092DA001092E100A0EEB0E08C91816079
:100C60008C9380818F77808319BCA7EDB0E08C9145
:100C70008E7F8C9380818F7E80831092D50508951E
:100C80002091E4003091E50095E6A9012091EC0067
:100C9000822F817020FF06C08091E80080FF06C08F
:100CA00080E008952091E80022FD1AC08091FA05A5
:100CB000882389F0853089F08091EB0085FD0FC095
:100CC0002091E4003091E50042175307F9F291506A
:100CD000E1F684E0089582E0089583E0089581E0DC
:100CE0000895EF92FF920F931F93CF937C018B0196
:100CF0000E944006C82F811117C08091E80085FD31
:100D00000BC08091E8008E778093E8000E94400637
:100D1000882399F3C82F08C0F70181917F01809340
:100D2000F1000150110949F78C2FCF911F910F91BC
:100D3000FF90EF9008958091FC0587FF13C080918C
:100D4000E80082FF06C08091E8008B778093E8007E
:100D500004C08091FA058111F2CF08958091FA05BF
:100D60008823D9F38091E80080FFF8CF8091E800D4
:100D70008E77ECCF982F9093E900242F762F50E0B8
:100D8000891731F07091EC002091ED005091F00046
:100D900021FD07C09F5F973071F78093E90081E0E4
:100DA00008953091EB003E7F3093EB003091ED00E1
:100DB0003D7F3093ED003091EB0031603093EB00DC
:100DC0007093EC002093ED005093F0002091EE0022
:100DD00027FDE0CF80E00895CF92DF92EF92FF925F
:100DE0000F931F93CF93DF93C8EDD0E088818F7E60
:100DF0008883E7EDF0E080818160808384E082BFBA
:100E000081E08093D50588818E7F888302EE10E093
:100E1000F80110821092DA0081EEC82ED12CF60172
:100E2000108288818F778883888180688883888111
:100E30008F7D888319BC1092FA051092FB051092E1
:100E4000F9051092F80590EEE92EF12CF70180815A
:100E50008B7F808388818160888342E060E080E0CE
:100E60000E94BA06F60180818E7F8083F80180811E
:100E700081608083808188608083F70180818E7F9C
:100E80008083888180618883DF91CF911F910F914A
:100E9000FF90EF90DF90CF900895FC01CB0120915F
:100EA0000206309103062617370790F0009729F4C1
:100EB0002091E8002E772093E80040E0009751F45D
:100EC000411108C08091E80082FF31C080E00895A0
:100ED000C901F3CF2091FA052223A9F12530A9F108
:100EE0002091E80023FD2DC02091E80022FDEACFEB
:100EF0002091E80020FFE2CF3091F3002091F20032
:100F0000009719F02830310558F041E028303105BC
:100F100009F040E02091E8002E772093E800CECF42
:100F200041914093F10001972F5F3F4FE9CF8091AE
:100F3000FA05882341F0853041F08091E80083FF75
:100F4000C1CF81E0089582E0089583E00895089577
:100F50008091D705089587E797E7909301088093DC
:100F6000000888E19AE00FB6F894A8958093600095
:100F70000FBE90936000FFCF0F931F93CF93DF932B
:100F800000D000D0CDB7DEB7462F572FBC012FB70A
:100F9000F8948091CC059091CD05A091CE05B091AB
:100FA000CF052FBF8C019D01041B150B260B370BA2
:100FB000C901B8010F900F900F900F90DF91CF9162
:100FC0001F910F910895CF93DF9300D000D0CDB73C
:100FD000DEB78FB7F8942091CC053091CD054091C4
:100FE000CE055091CF0529833A834B835C838FBF15
:100FF00069817A818B819C810F900F900F900F9067
:10100000DF91CF9108959C01809111028823C9F04E
:101010008091D00587FF15C0E62FE695E695E69509
:10102000603FE0F4E20FF32FF11D677081E090E084
:1010300001C0880F6A95EAF780959281892382839F
:101040000895F9013296285F3F4F8191681303C0DC
:10105000DF0111971C92E217F307B9F708959C017D
:10106000809111028823C1F08091D00587FF14C0C0
:10107000E62FE695E695E695603FF8F4E20FF32F4C
:10108000F11D677021E030E001C0220F6A95EAF798
:101090008281822B82830895F90132968FEF90E04E
:1010A0004191641751F08F3F19F4411101C0892F0C
:1010B0009F5F9630A9F78F3F09F40895280F311DDF
:1010C00087FD3A95F901628308952091C905309111
:1010D000CA052817390771F09093CA058093C9058E
:1010E000E091C705F091C805309721F00084F185A3
:1010F000E02D099408952091C5053091C605281763
:10110000390771F09093C6058093C505E091C70536
:10111000F091C805309721F00680F781E02D099401
:101120000895FA0181110994FB01FDCFE5E0F6E095
:1011300024813AE0231B08F420E0248380910406F4
:101140008160809304060895E5E0F6E024813AE0AA
:10115000230F08F42FEF248380910406816080938D
:1011600004060895E5E0F6E0438128E0421B08F418
:1011700040E08181628190E00C940E06E5E0F6E0AB
:10118000438128E0420F08F44FEF8181628190E0B3
:101190000C940E06E5E0F6E0628128E0621B08F49C
:1011A00060E08181438190E00C940E06E5E0F6E07A
:1011B000628128E0620F08F46FEF8181438190E043
:1011C0000C940E06E5E0F6E081814381628188504F
:1011D000990B0C940E06E5E0F6E0818190E04381E6
:1011E000628108960C940E06909105069695969548
:1011F0008FEF890F913009F482E00C94DE05809125
:101200000506869586958F5F833008F081E00C9403
:10121000DE050C948811FF920F931F93CF93DF93F9
:10122000182F062FF42ED0E0C0E02F2D402F612F75
:10123000CE010E9409092196C633D105B1F7DF918D
:10124000CF911F910F91FF900895EF92FF920F930E
:10125000282FC701801B91098F3F910519F010F0CD
:101260008FEF90E0382F3095230F08F42FEF680FA1
:10127000822F0F91FF90EF900895AF92BF92CF927F
:10128000DF92EF92FF920F931F93CF93DF93262F5E
:10129000472FE82FF0E0ED52FC4F71110FC0649121
:1012A000862FE62F7E2FDF91CF911F910F91FF9018
:1012B000EF90DF90CF90BF90AF900895E72EF12C84
:1012C000E49186E0689F80011124CFEFD0E0C8014F
:1012D000BE010E949635DB0130E0220F331F55E539
:1012E000569FC001579F900D1124281B390B622F68
:1012F000660F260FCE018E199F09E89F6001E99FB6
:10130000D00C11246D2D429FA0011124452F55278B
:10131000CE01841B950BE89FA001E99F500D11247D
:10132000852F5E01A21AB108AE9C9001AF9C300DD2
:10133000BE9C300D1124232F3327C21BD30BEC9FEF
:101340009001ED9F300D1124A330B105B1F00C3F99
:1013500093E0190760F4A130B10599F01297A9F054
:101360000F3F110508F09ECF8D2D632F9BCFA4302A
:10137000B10571F01697C1F395CF652F8E2FED2D26
:1013800091CF6E2FE52F8D2D8DCF832F6E2FF7CF21
:101390008E2FE32F87CF4091B5048D3E59F4809175
:1013A000B60487FF0DC01092B60441110BC0109215
:1013B000AD0408C08E3E81F48091B60418169CF3EB
:1013C000442381F08091B7049091B804892B09F0EF
:1013D0005AC01092AC0408958F3E49F447FFF0CFF5
:1013E0001092B5048091B6048111ECCFE0CF803F1C
:1013F00019F41416ACF3E4CF9091B704893F29F4A3
:101400001916F4F61092B704DBCF8A3F19F497FF50
:10141000D7CFF8CF9091B8048B3F29F497FFD0CF66
:101420001092B804CDCF8C3F19F41916CCF3C8CF65
:101430009FE0980F983090F4815F990B21E030E0A5
:10144000B90102C0660F771F8A95E2F7CB0180953C
:101450009091B40489238093B404B2CF8D3F31F4CA
:101460008091AE048E7F8093AE04AACF8E3F21F48C
:101470008091AE048D7FF7CF8F3F09F0A1CF80918F
:10148000AE048B7FF0CF08958091AE0480FD16C02E
:1014900081FD16C082FD16C08091AC048823A1F0A6
:1014A000883280F428E0829FC001112468E270E055
:1014B0000E94B635862F672B39F0089582E0089593
:1014C00084E0089588E0089581E008958091AE0455
:1014D00080FD14C081FD14C082FD16C08091AD0452
:1014E000882381F08E3180F420E5829FC001112491
:1014F0006EE170E00E94B635862F089584E108956C
:1015000088E2089588E0089580E508958D3E31F4DD
:101510000E94660A81958093B60408958E3E19F460
:101520000E94660AF8CF8F3E31F40E94660A8195C8
:101530008093B5040895803F19F40E94660AF8CF9D
:10154000893F29F40E94440A8093B70408958A3F92
:1015500021F40E94440A8195F7CF8B3F31F40E9419
:10156000440A81958093B80408958C3F19F40E9431
:10157000440AF8CF9FE0980F983070F4815F990B80
:1015800021E030E001C0220F8A95EAF78091B4048F
:10159000822B8093B40408958D3F31F48091AE0482
:1015A00081608093AE0408958E3F21F48091AE0453
:1015B0008260F7CF8F3FB9F78091AE048460F1CF9E
:1015C00080E0089578940895F894E82FE295EF70FC
:1015D000F0E041A18F7021E030E0B90102C0660F58
:1015E000771F8A95E2F7CB01962F9095942391A3CC
:1015F00092A1892B82A30C94E20A9091D00592FFCC
:1016000006C0282F28712830F9F4877F846093FF63
:1016100006C0282F28712831F1F4877E846120913B
:10162000D10520FF06C0382F38713830D9F4877FB4
:10163000816021FF06C0282F28712831D1F4877ED0
:10164000816194FD877E0895282F24712430F9F656
:101650008B7F8860DCCF282F2471243101F78B7EAB
:101660008861DDCF382F3171313019F78E7F886076
:10167000E0CF282F2171213121F78E7E8861E1CFC3
:10168000CF93DF93EC01803E910509F460C050F5E3
:101690008133910509F4A6C090F48932910509F4CB
:1016A0009AC08A9709F4A5C0C130D10509F462C077
:1016B000CE010497813A910508F055C05BC089338B
:1016C0009105F1F182389105D9F1C59709F47CC0F3
:1016D000C83AD10508F094C0C53AD10528F3A497BB
:1016E000D06448C0843E910509F453C068F4823E3A
:1016F0009105E1F1833E910509F440C0CE01805E81
:101700009109089780F536C0863E910509F44CC0D2
:10171000873E910509F44DC0811522E5920708F036
:10172000AAC0811531E5930708F0FAC08F3F9105F3
:1017300011F008F074C08D3E910550F2D0651AC0CA
:101740008091D0058370B1F0C0EED0E013C08091DD
:10175000D00580FD12C19091D10590FF0BC0C3EE62
:10176000D0E084FF07C0D0E0C0E004C08091D00585
:1017700082FDF5CFCE01DF91CF9108958091D00504
:1017800082FDFEC09091D10590FDDECF84FFF2CFA7
:10179000EACF8091D10581FFEDCF8091D005C7EED2
:1017A000D0E084FDE0CFE6CF8091D00583FDF7CF78
:1017B000E1CF8091D00583FDE6C09091D10591FFE6
:1017C000E5CFC4EED0E0D6CF8091D00585FFD2CF53
:1017D000C9E2D0E0CFCF8091D00585FFCBCFC5E364
:1017E000D0E0C8CF8091D00586FFC4CFCAE2D0E058
:1017F000C1CF8091D00586FFBDCFC1E3D0E0BACF85
:10180000CF3BD10508F07ACFC85AD0E0CC0FDD1F0E
:10181000CA5EDD4F0990D881C02DD464ABCF81154D
:1018200040E5940760F4C11580E4D80708F075C05E
:10183000CE019A9581159F4108F49CCF94CFF4E096
:1018400096958795FA95E1F783702C2F2695269526
:10185000237040E2249F90011124382B8C2F837039
:10186000C1E0D0E002C0CC0FDD1F8A95E2F7C22BA9
:10187000D32BDC687FCFC11586E5D80730F5C115BD
:1018800095E5D90708F060C0C11524E5D207C0F47A
:101890009C2F969596959E0123703327C115D345AD
:1018A00008F043C0C1E0D0E002C0CC0FDD1F2A9594
:1018B000E2F720E2929FC0011124C82BD92BD9CF87
:1018C000DC2FCC27C46FD06A55CFC1153AE5D307BA
:1018D00088F4C11549E5D40708F041C0CE019855F8
:1018E0008F3F910511F008F03ECFDC2FCC27C06F61
:1018F000D06A40CFCE0190568115904208F033CF88
:101900008D2F8F710E94FD0A90E0982F88278827DD
:101910009F719C012C2BE90120C0DF70D06A2ACF77
:10192000D82FCC27C16FD06A25CFC1E0D0E002C04C
:10193000CC0FDD1F2A95E2F730E2939FC0011124FE
:10194000C82BD92BDA6816CF8C2F0E94FD0AC82F1E
:10195000D0E0DC2FCC27CC27DF71D0620BCF8C2FCF
:101960008F700E94FD0A34E0D695C7953A95E1F74D
:10197000CF70DC2FC82FD069FDCEC9E3D0E0FACEFE
:10198000C2EED0E0F7CEC6EED0E0F4CE80911804DF
:1019900081111092180408959091D10592FD05C00F
:1019A000909118049813809318040895982F909597
:1019B0008091C20589238093C2050895982F909540
:1019C0008091C30589238093C30508958091A9035D
:1019D00090917803981301C008958F5F8770FACFB4
:1019E000AF92BF92CF92DF92EF92FF920F931F932D
:1019F000CF93DF93C0900F05D0901005E0901105B4
:101A0000F090120540910C0450910D0460910E0469
:101A100070910F04C42AD52AE62AF72ACFE1D0E034
:101A2000082F10E026E0929F000D111D112490E375
:101A3000A92EBC2ED701C6010C2E04C0B695A795C1
:101A4000979587950A94D2F780FD0FC0219788F764
:101A5000B12C8B2DDF91CF911F910F91FF90EF90C3
:101A6000DF90CF90BF90AF900895AC9EF001AD9EF7
:101A7000F00D1124E00FF11FEE0FFF1FED5CFD4F85
:101A8000859194910E94400B019701F3E2CFCF938F
:101A9000DF93EC010E94F00CEC2FF0E096E0D99F70
:101AA000E00DF11D112490E3899FE00DF11D11243B
:101AB000EE0FFF1FED5CFD4F85919491DF91CF916B
:101AC0000C94400B292F220FE22FE90FEE0FE80FA5
:101AD0009E2F9770E695E695E69585E0E89FF001E4
:101AE0001124EC5AFC4F50E040E080E0219130E0BE
:101AF000092E02C0369527950A94E2F72170332704
:101B0000042E01C0220F0A94EAF7822B4F5F5F4F29
:101B10004530510559F70895292F220FE22FE90F7B
:101B2000EE0FE80F8E2F877041E001C0440F8A95B9
:101B3000EAF7E695E695E69585E0E89FF001112441
:101B4000EC5AFC4F30E020E070E05191DF0111973A
:101B5000CB01022E02C0969587950A94E2F7817018
:101B600081958527842385278C932F5F3F4F2530D0
:101B7000310559F70895282F80910F059091100590
:101B8000A0911105B09112050097A105B10549F08A
:101B900004C0B695A795979587952A95D2F7817039
:101BA000089580E00895282F92959F70963091F0C7
:101BB00060F4925F9F70923030F481E0203F81F0BA
:101BC00030F4283E30F080E008959A5FF3CF243F50
:101BD000D1F7089581E0283EE0F3213FA1F7F9CF46
:101BE0000895FC01808191810E94470D0C94D30DD2
:101BF0009C019A9581159F4150F5D901AA27B17092
:101C0000F901EE27F270B90166277470A901442723
:101C1000587034FF0EC080E1AB2B09F480E0EF2B4D
:101C200009F08062672B09F08064452B89F0806899
:101C3000089581E0AB2B09F480E0EF2B09F082607E
:101C4000672B09F08460452B19F08860089580E0C7
:101C50000895CF93DF93682F809114089091150811
:101C60006A30B9F420910B068E509640622F70E0D6
:101C70000E949635281B822F66E00E94AA35C82F45
:101C8000C15018F4DF91CF91089580E20E94290E8F
:101C9000F7CF6D30F9F49C012E50364040910B0681
:101CA000642F70E0C9010E949635481B842FA9015A
:101CB000480F511D4115524018F080E030E020E0FF
:101CC000820F932F911D825F994F909315088093F7
:101CD0001408D8CF26E0FC01AEE0B8E001900D92E8
:101CE0002A95E1F7603E08F458C026E0FC01119205
:101CF0002A95E9F7C0911408D091150846E050E004
:101D0000BE018EE098E00E943C369E012E50364087
:101D1000892B41F1C90145E0969587954A95E1F7F0
:101D200041E050E0BA0102C0660F771F8A95E2F7E2
:101D3000CB0160910C0670910D06862B972BB90193
:101D40006B5F7F4FE5E076956795EA95E1F702C016
:101D5000440F551F6A95E2F7842B952B90930D063F
:101D600080930C062A5F3F4F40910B06642F70E072
:101D7000C9010E949635481B463010F4240F311DCE
:101D8000211572E0370710F030E020E0225F394F74
:101D9000309315082093140875CFF6E06F9FB001BB
:101DA0001124625C794F46E050E00E943336A2CFA6
:101DB000CF93DF93EC01FE018491811103C0DF9189
:101DC000CF9108950E94290E2196F5CF8091C305E9
:101DD0009091C205892B80932C039091180499232C
:101DE000A1F0892B80932C03809111028823D9F1D3
:101DF0008091D00587FF37C08EE1EEE2F3E090E0FE
:101E0000815098F591110E94C60C40E250E06BEAB7
:101E100073E08CE293E00E943C36892B59F180E21A
:101E2000ECE2F3E0ABEAB3E001900D928A95E1F7C2
:101E3000E091C705F091C8053097E1F0809111025B
:101E4000882359F08091D00587FF07C080912C032B
:101E500080932D0386E080932C030280F381E02D94
:101E60008CE293E0099486E0C8CF2191222341F2CD
:101E70009F5FC6CF0895CF93DF93EC0181E0898BFC
:101E80008091C3059F81892B8093C3058091C205F2
:101E90009885892B8093C2050E94E60EEA81FB811A
:101EA000309739F06C897D89CE010696DF91CF910C
:101EB0000994DF91CF910895EF92FF920F931F93B2
:101EC000CF93DF93EC018A85811134C0EB80FC80D5
:101ED00087E5F81A26E12E9DC0012F9D900D112453
:101EE000DC01A357BE4F1496ED91FC9115973097E6
:101EF00031F054966D917C918D569E4F099586E1F7
:101F00008E9D80018F9D100D112403571E4FF801E7
:101F100087810E94DE0CF80180850E94D60C0E9409
:101F2000E60E188219861B861E821D821092C1053C
:101F30001092C005DF91CF911F910F91FF90EF900C
:101F40000895882321F00E94D60C0C94E60E089583
:101F5000882339F09091C205892B8093C2050C9497
:101F6000E60E0895882321F00E94DE0C0C94E60E04
:101F70000895882339F09091C305892B8093C30578
:101F80000C94E60E0895CF92DF92EF92FF920F939A
:101F90001F93CF93DF936C017B0164E670E088E7C9
:101FA0000E94C632EC0197FD12C010E000E0F6017D
:101FB000E00FF11F849164E670E00E944033EC0171
:101FC000892B29F40F5F1F4F0E151F0581F70E9403
:101FD000CD33CE01DF91CF911F910F91FF90EF9004
:101FE000DF90CF9008958091BE059091BF0591112B
:101FF00003C091E089270895882369F062E070E0CA
:1020000085ED94E00E94C30F892B19F08091BE05E5
:1020100008951092BE058091BE05EBCFCF93DF935C
:1020200000D000D00F92CDB7DEB78091BE058D8372
:102030008091BF058823F1F00E94E307DC01CB010A
:10204000805D9A48AF4FBF4F8093BA059093BB0510
:10205000A093BC05B093BD058D81811108C062E0DD
:1020600070E083ED94E00E94C30F892B61F08091B2
:10207000BE058D838D810F900F900F900F900F9064
:10208000DF91CF91089581E08093BE05F0CF8093DA
:10209000D2057093D4056093D3058091FA058430FE
:1020A00001F582E08093E9008FEF9091E800815084
:1020B00095FD06C095ED9A95F1F700008111F5CFD9
:1020C0008091E80085FF0DC050E040E063E070E0E3
:1020D00082ED95E00E9471068091E8008E778093F2
:1020E000E8000895BC0184E00C944710BC0183E033
:1020F0000C94471022E02093E9002FEF3091E80084
:10210000215035FD06C035ED3A95F1F7000021115B
:10211000F5CF2091E80025FF0BC050E040E066E0DD
:1021200070E00E9471068091E8008E778093E8004D
:102130000895CF93DF93D82FC92F80911102882360
:10214000C1F18091D00587FF34C060E282E08093C6
:10215000E9008FEF9091E800815095FD06C095ED64
:102160009A95F1F700008111F5CF8091E80085FF85
:102170001DC08091110270E050E040E0811104C068
:1021800050E040E068E070E08D2F9C2F0E947106C7
:102190008091E8008E778093E80080E2ED2FFC2F9D
:1021A000A8EDB5E001900D928A95E1F7DF91CF910E
:1021B000089568E081E0CBCF539A3BB1377F2BB1D4
:1021C00028604FB7F89488E195E0FC0101965081B2
:1021D00068E02BB9000000C057FF3BB9550F000065
:1021E00000C000C000C03BB900C06A9591F755E03F
:1021F0008A3B950751F74FBF8FE594E00197F1F7C0
:1022000000C0000008959F92AF92BF92CF92DF92DC
:10221000EF92FF920F931F93CF93DF93082FD92E46
:10222000C62E972E7A0180912904AA24A394B12C5A
:102230008A3018F48AE0A82EB12CC1E0D0E0F894DE
:102240006C2D792D802F9D2DF7010995182F0E9457
:10225000E20A111104C02196AC16BD066CF4812F60
:10226000DF91CF911F910F91FF90EF90DF90CF9072
:10227000BF90AF909F900895CC9F9001CD9F300D5F
:10228000300D112490E080E045E34A95F1F700001D
:10229000019682179307C1F7D2CF8091D5038111A0
:1022A00010C08091D80080618093D8008AE18A951F
:1022B000F1F700C08091D90080FF0AC081E08093CF
:1022C000D50381E09091D503913009F080E0089525
:1022D00082E08093D5030E9421061092FA05F1CF87
:1022E0000E944D11811103C08091C4050895E091B1
:1022F000C705F091C805309721F00190F081E02DDD
:10230000099480E008950E944D1191E08927089575
:10231000FF920F931F93CF93DF93EC01F62E042FC0
:10232000122F0E94831181110FC0CB31D1057CF097
:102330006B97CE01880F991FC80FD91FC85EDA4F5F
:10234000F98208831A8303C0CB31D10594F3DF915E
:10235000CF911F910F91FF9008952F923F924F922E
:102360005F926F927F928F929F92AF92BF92CF9225
:10237000DF92EF92FF920F931F93CF93DF9300D0E2
:1023800000D00F92CDB7DEB7482E80918C0184111A
:1023900032C090910506937020918B0130E081E06E
:1023A0009217130609F480E0817080938A0180916E
:1023B0000A0690918901981739F08093890140E0CD
:1023C00060E080E00E940B09EE24E3944E14A9F033
:1023D00032E0F32E4F1409F48DC041100AC08091F1
:1023E0008A01882309F440C040E060E080E00E9458
:1023F0000B0980E039C081E0D7CF009188018BE0E4
:10240000089F802D11248983082F055F073308F06A
:1024100006E30E948311882319F00C3108F00BE1C8
:102420000E948311811105C029812B3110F43BE1F9
:1024300039836091060670910706809108060E9414
:102440003D09F62EE72ED82E9981892F90E09A83A8
:102450008983F981F01798F10E948311882309F488
:1024600044C081E00B3128F6909188019F5F9093E2
:10247000880181110CC082E08093120280918A0150
:10248000811105C0411003C083E0809312020F90B8
:102490000F900F900F900F90DF91CF911F910F91A0
:1024A000FF90EF90DF90CF90BF90AF909F908F9074
:1024B0007F906F905F904F903F902F900895E981AB
:1024C000FA81EC50FD4F808190918901892339F088
:1024D0002D2D4F2D6E2D89819A810E940909E98148
:1024E000FA813196FA83E983B4CF81E0063308F4A8
:1024F000BBCF7FCFC090E20421E00C2D021B08F47B
:1025000000E0C02E209188018BE0289F802D1124AF
:102510008983182F155F173308F016E30E94831183
:10252000882319F01C3108F01BE10E9483118111EE
:1025300005C009810B3110F40BE10983A090E2047E
:102540003981232F30E03C832B83C901880F991FE9
:10255000FC01E85AFD4F3F018C2D90E09C012F5F5C
:102560003F4F3A832983312C212C6B81611750F026
:102570000E948311882309F4A1C081E01B3108F473
:1025800073CF37CFEB81FC81EC50FD4F8081909170
:1025900089018923F9F0609106066D837091070621
:1025A00089819A818E519B4F4C01BC2C80E0BA14DA
:1025B000D8F020910806082F029F012D1124802FAA
:1025C0006D810E943D09462F672F282F8B819C81AA
:1025D0000E9409092B813C812F5F3F4F3C832B8355
:1025E00032E0630E711CC1CFF40191914F01F301F0
:1025F00040A9491B550B21A9F4019781291B330BD5
:10260000449FD001459FB00DB00D1124229FF001D1
:10261000239FF00DF00D1124EA0FFB1FDE2EE23098
:10262000F10538F19FEFE13E0EE1F00740F4DF01E4
:1026300095E0B695A7959A95E1F798E09A0F5524FD
:102640005394E52CE90EFF24FF1CD701B595A795FF
:10265000DA2EAA9F7001AB9FF00CF00C1124EE153E
:10266000FF0520F59FEF9A0F951558F7DD24DA94B2
:10267000D50C90910906092F61E0060F08F40FEFC1
:10268000F401EE0FFF1FE25EF4400588F689E02DAD
:102690007101E09FE12CF09FE00CF11C11240D2D45
:1026A0006D810E9425096D83B39481CFFF24FA9434
:1026B000AF15F9F2552453945A0ED6CF81E0163354
:1026C00008F4D2CE96CECF93C82F882391F0809174
:1026D000170581110EC00E94AD1110928C018091DE
:1026E0000506837080938B010E94DC1083E0809349
:1026F0001202C0931705CF910895CF93DF9300D0B6
:1027000000D0CDB7DEB70E944D11882341F00F9065
:102710000F900F900F90DF91CF910C94E3070E94E0
:10272000E30769837A838B839C8380912A04909149
:102730002B04A0912C04B0912D0429813A814B8166
:102740005C81280F391F4A1F5B1FCA01B9010F9016
:102750000F900F900F90DF91CF9108954F925F925D
:102760006F927F928F929F92AF92BF92CF92DF92A1
:10277000EF92FF92CF93DF93CDB7DEB728970FB6D6
:10278000F894DEBF0FBECDBF80910B0590910C0574
:10279000A0910D05B0910E0589839A83AB83BC830C
:1027A0000E944D11882309F453C069817A818B817D
:1027B0009C810E94BC076B017C010E947D13609389
:1027C0000B0570930C0580930D0590930E05A09159
:1027D000B904E9EBF4E02A2F30E088248A94982C9D
:1027E000A12CB12C8C189D08AE08BF08A31341C0C2
:1027F0002093B9042091170521114EC020910506A0
:10280000A22FA370A983AA2319F0269526952983C0
:1028100020911202223009F4E3C008F03FC02111D8
:1028200055C010928801609313057093140580932E
:1028300015059093160589E2E9EBF4E0A2EEB4E009
:1028400001900D928A95E1F781E08093120229C0F0
:102850000E947D136D837E838F8398876B017C013B
:1028600089819A81AB81BC81C81AD90AEA0AFB0A1C
:10287000A4CF418D528D2A01712C612C84149504B2
:10288000A604B70420F421503F5F3296AFCF4C0D21
:102890005D1D528F418FF8CF1982BACF233009F4D2
:1028A000ABC028960FB6F894DEBF0FBECDBFDF9148
:1028B000CF91FF90EF90DF90CF90BF90AF909F901F
:1028C0008F907F906F905F904F90089589810E94C4
:1028D000AD11B981BB2329F340910F05509110052B
:1028E0006091110570911205CB01AA27BB270097B3
:1028F000A105B10509F450C0AC01BD0180E1C52EB0
:10290000D62EE72EFF24C114D104E104F10419F0FE
:10291000885FB701A6016A017B0134E0F694E79471
:10292000D794C7943A95D1F7C114D104E104F104C6
:1029300019F08C5FB701A6016A017B0122E0F694D1
:10294000E794D794C7942A95D1F7C114D104E10430
:10295000F10419F08E5FB701A6017695679557953A
:102960004795452B462B472B29F08F5FF12CE12C07
:102970008130A1F0823001F5F12CE12C20E040E023
:102980006FEFC7010E9409093FEFE31AF30A86E3DC
:10299000E816F10499F785CF80E0B1CF2FEF40E042
:1029A00060E0C7010E9409099FEFE91AF90AA6E34E
:1029B000EA16F10499F775CF0E94701181FF71CF6B
:1029C000F12CE12C20E04FEF60E0C7010E940909E3
:1029D000BFEFEB1AFB0A36E3E316F10499F761CF78
:1029E000898180938C0180910506837080938B018F
:1029F0000E94DC1083E029CF80910406882351F0E7
:102A000046E050E06CE170E085E096E00E947036B0
:102A1000109204068091130590911405A09115055C
:102A2000B091160589839A83AB83BC830E944D11B4
:102A3000882391F069817A818B819C810E94BC07F7
:102A4000462F572FBC01403151056105710508F42F
:102A500028CF1092120225CF0E947D13AB01BC013A
:102A600089819A81AB81BC81481B590B6A0B7B0B16
:102A7000EACFE5E0F6E085E0808380911302909153
:102A80001402A091150281839283A3838FE784832C
:102A90008FEF858346E050E06CE170E0CF010E944B
:102AA0007036109204060895CF9384E090E00E945F
:102AB0006236C82F82E290E00E946236982F8C2FF7
:102AC000CF910895CF92DF92EF92FF920F931F93D1
:102AD000CF93DF93FA0169017801C82F880FDD0BCE
:102AE0003097B1F0DE0193E0AA0FBB1F9A95E1F792
:102AF000A75EBE4F11968D919C9112978A529C4F62
:102B00004C9150E0E417F50708F4AF010E944936F4
:102B1000CE010E942035182F8823D1F0E114F10452
:102B2000B9F083E0CC0FDD1F8A95E1F7FE01E75E87
:102B3000FE4F438150E0E416F50608F4A701C75E96
:102B4000DE4F6C817D816A527C4FC6010E944936FE
:102B5000812FDF91CF911F910F91FF90EF90DF9028
:102B6000CF9008950F931F93CF93DF9300D000D0A1
:102B700000D00F92CDB7DEB78091190490911A045E
:102B8000A0911B04B0911C04BC01CD010E94BC07A4
:102B9000462F572FBC0181E0443651056105710570
:102BA00008F480E09091C30599834436510561058E
:102BB000710520F42091EC03291381E09091C20566
:102BC0009A83811106C081E02091ED03291301C091
:102BD00080E0909118049B83811105C08091EE03E1
:102BE00011E08917C9F010E000E030E020E043E098
:102BF00050E0BE016F5F7F4F87E00E946215182F83
:102C0000882351F00E94E3076093190470931A041B
:102C100080931B0490931C04812F27960FB6F89481
:102C2000DEBF0FBECDBFDF91CF911F910F910895F1
:102C30000F931F93CF93DF93CDB7DEB728970FB6CF
:102C4000F894DEBF0FBECDBF8091040490910504BF
:102C5000A0910604B0910704BC01CD010E94BC07FD
:102C600011E0643671058105910520F10E947D1304
:102C7000DC01CB010296A11DB11D89839A83AB8330
:102C8000BC8310E000E030E020E044E050E0BE0112
:102C90006F5F7F4F83E00E946215182F882351F0E9
:102CA0000E94E30760930404709305048093060474
:102CB00090930704812F28960FB6F894DEBF0FBEBD
:102CC000CDBFDF91CF911F910F910895EF92FF92A9
:102CD0000F931F93CF93DF93CDB7DEB729970FB62E
:102CE000F894DEBF0FBECDBF7B0101E010E09E0176
:102CF0002B5F3F4F50E040E070E060E080E00E94DA
:102D00006215182F882309F447C08091FC03909125
:102D1000FD03A091FE03B091FF03BC01CD010E9411
:102D2000BC07643671058105910538F487ED93E0A1
:102D30000E94F7059D81891779F104E010E09E015A
:102D40002F5F3F4F50E040E070E060E081E00E9484
:102D50006215082F87ED93E00E94F70511E09D8131
:102D6000981310E0102331F10E94E3076093FC03F5
:102D70007093FD038093FE039093FF0389819A81F2
:102D8000AB81BC818093F8039093F903A093FA037D
:102D9000B093FB0311E00EC08091D7039091D8034C
:102DA000A091D903B091DA0389839A83AB83BC8362
:102DB0001111E4CF8091F8039091F903A091FA03E7
:102DC000B091FB03F70180839183A283B383812FAA
:102DD00029960FB6F894DEBF0FBECDBFDF91CF911D
:102DE0001F910F91FF90EF900895AF92BF92CF92F5
:102DF000DF92EF92FF920F931F93CF93DF9300D058
:102E000000D000D0CDB7DEB78D837B01A42ED22EAB
:102E10003E83B02EC12EDB018D919D910D90BC9112
:102E2000A02DBC01CD010E94BC076436710581054F
:102E3000910510F4AA2039F110E000E030E020E024
:102E40004B2D5C2D6D2D7E818D810E9462158983B5
:102E5000882339F00E94E307F7016083718382833E
:102E60009383898126960FB6F894DEBF0FBECDBF3F
:102E7000DF91CF911F910F91FF90EF90DF90CF9056
:102E8000BF90AF900895F1E0F983EBCF0F931F93BC
:102E9000CF93DF930F92CDB7DEB78091BE058983C4
:102EA0002091F70390E041E02817190609F440E06B
:102EB00001E010E09E012F5F3F4F65E274E08AE081
:102EC0000E94F5160F90DF91CF911F910F910895F9
:102ED0000F931F93CF93DF930F92CDB7DEB78091FF
:102EE0004B04898341E09091F603981301C040E0C0
:102EF00001E010E09E012F5F3F4F61E274E089E046
:102F00000E94F5160F90DF91CF911F910F910895B8
:102F10000F931F9341E00091E3031091E40320918C
:102F2000E5033091E60380910F0590911005A09183
:102F30001105B0911205081719072A073B0709F474
:102F400040E004E010E02FE035E060E174E084E070
:102F50000E94F516882301F141E00091E7031091EA
:102F6000E8032091E9033091EA0380910C049091E9
:102F70000D04A0910E04B0910F04081719072A0739
:102F80003B0709F440E004E010E02CE034E068E0A6
:102F900074E085E00E94F5161F910F910895DF926D
:102FA000EF92FF920F931F93CF93DF93F82ED62EBD
:102FB000E72ED42FC52FB901A8018D2F9C2F0E9479
:102FC0003C3641E0892B09F440E02D2F3C2F6D2D3C
:102FD0007E2D8F2D0E94F516DF91CF911F910F91BD
:102FE000FF90EF90DF9008950F931F93CF93DF939F
:102FF00000D000D000D00F92CDB7DEB786E0E5E07C
:10300000F6E0DE01119601900D928A95E1F780912C
:1030100017058F8307E010E02FEE33E0AE014F5F1E
:103020005F4F6DE174E088E00E94CF1727960FB6DE
:10303000F894DEBF0FBECDBFDF91CF911F910F91EE
:1030400008950F931F93CF93DF930F92CDB7DEB701
:103050000E947011898301E010E02BEE33E0AE0195
:103060004F5F5F4F64E174E086E00E94CF170F90DE
:10307000DF91CF911F910F9108950F931F93AC0192
:1030800004E010E02BED33E060E074E082E00E94A9
:10309000CF171F910F91089569EE7EEF90E080E0C9
:1030A0000E949E3660E082E090E00E94803660E000
:1030B00083E090E00E94803610920C0410920D0480
:1030C00010920E0410920F0460E084E090E00E94E1
:1030D000803660E082E290E00E94803660E085E029
:1030E00090E00E94803660E086E090E00E948036AA
:1030F0006FEF87E090E00E94803640E050E0BA0138
:1031000088E090E00E94923660E08DE090E00E94BE
:10311000803640E050E0BA0188E190E00E949236AB
:1031200060E087E190E00E94803640E050E0BA0124
:103130008CE190E00E94923670E060E080E290E0E6
:103140000E949E3640E050E0BA0188E190E00E9483
:10315000923640E050E0BA018FE090E00E94923653
:1031600040E050E0BA0183E190E00C949236CF92B7
:10317000DF92EF92FF920F931F93CF93DF93CDB720
:10318000DEB728970FB6F894DEBF0FBECDBF82EB37
:1031900090E00E94D80E8CEA90E00E94D80E8EE457
:1031A00091E00E94D80E83E00E94BB0D8823D1F1EC
:1031B00082EF90E00E94D80E8EE491E00E94D80E3B
:1031C000209118048091C305282B298328782D830A
:1031D0003981347439832223C1F185E291E00E9460
:1031E000D80E49818EE191E04423C1F180E291E063
:1031F0000E94D80E8981882399F187E191E00E948D
:10320000D80E9D81992391F181E191E00E94D80E21
:103210008CE091E00E94D80EA981A11132C082E019
:1032200091E031C081E00E94BB0D882319F082EE4D
:1032300090E0C0CF82E00E94BB0D882319F082EDA0
:1032400090E0B8CF82EC90E0B5CF82E291E00E94AE
:10325000D80E5981511107C08AE191E00E94D80E21
:1032600084E191E0CCCF8CE191E0C2CF8EE091E09F
:103270000E94D80EB981BB23D9F18AE091E00E9467
:10328000D80E85E091E00E94D80EE091180480915C
:10329000C305E82BE983E171ED83F981F272F983CB
:1032A000EE2359F18BE491E00E94D80E298184E449
:1032B00091E0222359F186E491E00E94D80E8DE33B
:1032C00091E00E94D80E4D81442361F187E391E0A3
:1032D0000E94D80E82E391E00E94D80E59815111CC
:1032E0002DC00E94701181FD29C088E291E028C0A4
:1032F00088E091E00E94D80E92CF88E491E00E948D
:10330000D80E398131110BC080E491E00E94D80EB3
:103310000E94701181FDD3CF8AE391E0D2CF82E485
:1033200091E0CBCF84E391E00E94D80E898188237D
:1033300009F49BC080E391E00E94D80E8BE291E0FB
:103340000E94D80E8EE491E00E94D80E84E591E0B0
:103350000E94D80E80914B0490911801981305C0DB
:1033600090915003903209F462C08093180190E26A
:1033700090935003282F30E050E040E029833A83B7
:103380004B835C8310924F03CA01B9012AE030E0FD
:1033900040E050E00E94CA35605D603349F08981A9
:1033A0009A81AB81BC81892B8A2B8B2B09F460E23B
:1033B00060934E038AE0C82ED12CE12CF12C698158
:1033C0007A818B819C81A70196010E94CA352D8349
:1033D0003E834F83588729813A814B815C8160E22B
:1033E0002A3031054105510548F06D817E818F817C
:1033F0009885A70196010E94CA35605D60934D03D0
:1034000089819A81AB81BC8120E284369105A10536
:10341000B10558F06D817E818F8198852AE030E07A
:1034200040E050E00E94CA35205D20934C03ACE49C
:10343000B3E00D900020E9F71197BA83A9830CE45B
:1034400013E029813A8102171307A0F028960FB6DE
:10345000F894DEBF0FBECDBFDF91CF911F910F91CA
:10346000FF90EF90DF90CF9008958EE291E00E9460
:10347000D80E37CFF80181918F010E94290EE1CF3C
:103480001F920F920FB60F9211242F933F934F93D9
:103490005F936F937F938F939F93AF93BF93EF93BC
:1034A000FF938091E10082FF09C08091E20082FFDA
:1034B00005C08091E1008B7F8093E1008091DA006C
:1034C00080FF24C08091D80080FF20C08091DA0066
:1034D0008E7F8093DA008091D90080FF9BC080E1CD
:1034E00089BD82E189BD09B400FEFDCF81E08093F2
:1034F000FA058091D505811109C00E9421060E941C
:10350000EC068091E20084608093E2008091E1000B
:1035100080FF17C08091E20080FF13C08091E2001D
:103520008E7F8093E2008091E20080618093E200D0
:103530008091D80080628093D80019BC85E0809388
:10354000FA058091E10084FF29C08091E20084FFA8
:1035500025C080E189BD82E189BD09B400FEFDCFAF
:103560008091D8008F7D8093D8008091E1008F7E7C
:103570008093E1008091E2008F7E8093E200809151
:10358000E20081608093E2008091FB05882309F4CA
:1035900047C084E08093FA058091FA058091E100AC
:1035A00083FF27C08091E20083FF23C08091E10068
:1035B000877F8093E10082E08093FA051092FB05FB
:1035C0008091E1008E7F8093E1008091E2008E7F08
:1035D0008093E2008091E20080618093E20042E00B
:1035E00060E080E00E94BA068091F00088608093DD
:1035F000F000FF91EF91BF91AF919F918F917F91DB
:103600006F915F914F913F912F910F900FBE0F904F
:103610001F90189519BC1092FA051092D50576CF17
:103620008091E30087FD02C081E0B4CF83E0B2CF98
:1036300078941F921FB61F9211248F939F93AF937C
:10364000BF938091CC059091CD05A091CE05B0910E
:10365000CF050196A11DB11D8093CC059093CD059A
:10366000A093CE05B093CF05BF91AF919F918F915D
:103670001F901FBE1F9018959C014FB7F894809122
:10368000CC059091CD05A091CE05B091CF054FBF4F
:10369000821B930B08952FB7F8948091CC059091DD
:1036A000CD05A091CE05B091CF052FBF08950E9402
:1036B0004B1B2091B5043091B604232B21F080934D
:1036C000B1049093B2042091B7043091B804232B35
:1036D00021F08093AF049093B004E091C705F0917E
:1036E000C805309749F082E08093B3040480F581E7
:1036F000E02D83EB94E00994089590E080E00E942F
:103700007B0890E080E00E9465081092C2050E944C
:10371000E60E86E0E3EBF4E0DF011D928A95E9F71F
:103720001092AD041092AC041092AE040C94571B8E
:1037300060930F0570931005809311059093120507
:103740000C947D1B0F931F93CF93DF9300D000D079
:10375000CDB7DEB741E050E060E070E004C0440F58
:10376000551F661F771F8A95D2F740955095609533
:10377000709580910F0590911005A0911105B09161
:1037800012058A019B01082319232A233B2309835D
:103790001A832B833C83C901B8010F900F900F90BF
:1037A0000F90DF91CF911F910F910C94981B9091E6
:1037B000AA03809589238093AA03282F277091F468
:1037C000282F082E000C330B9217130659F09091F6
:1037D000D10592FD07C08595859585950E94A21B10
:1037E0001092AA030895CF93C091D105C2FB9927E7
:1037F00090F9981799F080FBC2F9C093D1056091B8
:10380000D00584E090E00E9480366C2F82E290E048
:103810000E94803682E0CF910C94D71BCF910895FF
:103820000F931F93CF93DF9300D000D0CDB7DEB7B7
:1038300041E050E060E070E004C0440F551F661F97
:10384000771F8A95D2F780910F0590911005A0916E
:103850001105B09112058A019B01082B192B2A2B07
:103860003B2B09831A832B833C83C901B8010F903A
:103870000F900F900F90DF91CF911F910F910C94AB
:10388000981B81E00E94BB0D882341F082E00E94DA
:10389000BB0D882319F083E00C94101C83E00C947A
:1038A000A21B60930C0470930D0480930E049093FC
:1038B0000F040C947D1B1092C30580911102EEE25F
:1038C000F3E0882359F08091D00587FF07C08EE18F
:1038D000DF011D928A95E9F70C947D1B86E0F8CFF5
:1038E0001F93CF93DF93CDB7DEB7AA970FB6F894A7
:1038F000DEBF0FBECDBF8CEF95E0FC01019620919D
:10390000F100208326E084309207B9F78091FD050D
:10391000893009F456C0C8F4823009F4B2C083304B
:1039200009F481C0813071F18091E80083FF7CC28D
:103930008091FC059091FD059A3008F075C2E92F41
:10394000F0E0EA55F94C0C940B368A3009F488C043
:103950008B3051F78091FC05813231F78091000660
:1039600090910106892B01F78091E800877F809371
:10397000E8000E949B068091FE05809311020E9440
:103980005B1CD2CF8091FC05813A71F68091E800F2
:10399000877F8093E8008091000690910106892B33
:1039A00061F460E288ED95E070E00E944D0780913F
:1039B000E8008B778093E800B7CF60E090E080E08C
:1039C000F3CF8091FC05813209F0AECF80910006E3
:1039D00090910106029708F0A7CF8091E800877FB9
:1039E0008093E8008091E80082FF18C09091F30076
:1039F0008091F200029731F48091F100813011F052
:103A0000863021F48091F1008093D7058091E80001
:103A10008B778093E8000E949B0686CF8091FA0501
:103A20008111E0CF81CF8091FC05813A09F07CCFF4
:103A30008091000690910106892B09F075CF809145
:103A4000E800877F8093E8008091E80080FFFCCF4A
:103A5000809111028093F1008091E8008E77D9CF98
:103A60008091FC05813209F05FCF8091E800877F6B
:103A70008093E8000E949B068091FF058093D60505
:103A800053CF8091FC05813A09F04ECF8091E80038
:103A9000877F8093E8008091E80080FFFCCF8091D1
:103AA000D605D8CF803899F0823809F0BDC1809111
:103AB00000068F70873008F0B7C18093E9008091CD
:103AC000EB0085FB882780F91092E90006C0809101
:103AD000F8059091F905911182609091E800977F27
:103AE0009093E8008093F1001092F1008091E8003B
:103AF0008E7796C1882309F484C1823009F094C17D
:103B00008091FE05811187C1809100068F702FEF93
:103B1000280F263008F088C18093E9002091EB003F
:103B200020FF79C1933031F48091EB008062809363
:103B3000EB0071C19091EB0090619093EB0021E05C
:103B400030E001C0220F8A95EAF72093EA00109234
:103B5000EA008091EB008860EACF811165C1109185
:103B6000FE051F778091E3008078812B8093E3002E
:103B70008091E800877F8093E8000E949B068091F7
:103B8000E80080FFFCCF8091E30080688093E30031
:103B900082E0111183E08093FA0546C1805882309B
:103BA00008F042C14091FE055091FF054C3D83E075
:103BB0005807A1F583E08A838AE289834FB7F89496
:103BC000DE01139620E03EE051E2E32FF0E0509357
:103BD0005700E49120FF03C0E295EF703F5FEF7064
:103BE0008E2F90E0EA30C0F0C7968D939D932F5FA3
:103BF000243159F74FBF8091E800877F8093E80018
:103C00006AE270E0CE0101960E944D078091E800C3
:103C10008B778093E80008C1C096E7CF209100061B
:103C200030910106852F99278330910509F160F4C1
:103C30008130910509F472C0029709F0F5C08BE359
:103C400090E0EDECF5E029C08132910509F45AC00D
:103C5000829709F0E9C02115310509F469C02130C6
:103C6000310509F0E1C086EB90E0E7EDF4E015C026
:103C7000CA0199274130B1F18230910509F43AC067
:103C8000892B09F0D1C0EAE3F6E0E4918E2F90E0B1
:103C9000EAE3F6E0009709F4C7C02091E800277F27
:103CA0002093E800209102063091030682179307C3
:103CB00008F49C0140E02115310509F03EC0411196
:103CC0003CC08091E80082FDA1CF8091FA05882355
:103CD00009F49CCF853009F499CF8091E80083FFE7
:103CE000F0CF94CFE8E2F6E0E4918E2F90E0E8E2A6
:103CF000F6E0D0CFEAE1F6E0E4918E2F90E0EAE141
:103D0000F6E0C8CF2115310571F02130310509F0F9
:103D10008BC089E090E0E8EFF5E0BFCF82E190E072
:103D2000E8E0F6E0BACF89E090E0EFEDF5E0B5CF5E
:103D300080E490E0EDE8F5E0B0CF8091FA058823CB
:103D400009F464CF853009F461CF8091E80083FDE8
:103D50005DCF8091E80082FDB4CF8091E80080FFC4
:103D6000AACF9091F3008091F2002115310519F04E
:103D70008830910550F041E0089709F040E08091CB
:103D8000E8008E778093E80096CF44914093F1004D
:103D90003196215031090196E8CF803809F044C0AE
:103DA0008091E800877F8093E8008091FB058093F5
:103DB000F1009CCE811138C01091FE051230A0F5A3
:103DC0008091E800877F8093E8001093FB050E94B4
:103DD0009B06112311F084E005C08091E30087FD6C
:103DE000FACF81E08093FA0542E061EC81E00E9425
:103DF000BA0642E261EC82E00E94BA068091FA05BE
:103E000013C08091FE05813079F481E0933009F090
:103E100080E08093F9051092E9008091E800877FA7
:103E20008093E8000E949B068091E80083FF0AC00F
:103E30008091E800877F8093E8008091EB008062AA
:103E40008093EB00AA960FB6F894DEBF0FBECDBFED
:103E5000DF91CF911F9108951F920F920FB60F928D
:103E600011242F933F934F935F936F937F938F937F
:103E70009F93AF93BF93CF93DF93EF93FF93D09133
:103E8000E900DF708091EC00C82FC17080FDC0E8B0
:103E90001092E9008091F000877F8093F000789481
:103EA0000E94701C1092E9008091F000886080935D
:103EB000F000CD2BCF70C093E900FF91EF91DF911F
:103EC000CF91BF91AF919F918F917F916F915F91B2
:103ED0004F913F912F910F900FBE0F901F9018950B
:103EE000882379F19CEF980F913A38F4682F8CE28F
:103EF00093E00E9403080C94E60E90E2980F98302D
:103F000050F4877091E001C0990F8A95EAF7892FE4
:103F10000E94DE0CF0CF9BE5980F933020F490E0E8
:103F200080E00C947B0898E5980F973120F490E09E
:103F300080E00C9465088D3E20F00E94CB090C9423
:103F4000571B0895CF93DF93EC010E94701FCE01A1
:103F50000E94F80D9E01205E31092830310510F0D5
:103F6000CD2B21F4DF91CF910C94B20FDF91CF9143
:103F70000C94A10FFB01DC018C91813021F4808134
:103F800091810C94A21F823019F482819381F9CF20
:103F90000895CF93C82F882309F46DC08CEF8C0F40
:103FA000813AB8F580911102882311F18091D005F2
:103FB00087FF1EC0EC2FE695E695E695F0E0E45D00
:103FC000FC4F828190E04C2F477021E030E002C02E
:103FD000220F331F4A95E2F782239323892B89F01E
:103FE0006C2F8CE293E00E9403080E94E60E09C049
:103FF000EEE2F3E08191C81799F323E0E433F2078E
:10400000C9F76C2F8CE293E00E942F08CF910C949B
:10401000E60E80E28C0F883068F4C77021E030E053
:1040200001C0220FCA95EAF78091C305822B8093C5
:10403000C305ECCF8BE58C0F833038F42C2F245242
:10404000330BC901CF910C947B08E8E5EC0FE73105
:1040500050F4F0E0EE0FFF1FEA5EFD4F808191818A
:10406000CF910C946508CD3E30F08C2F0E94860ACB
:10407000CF910C94571BCF9108950F931F93CF931B
:10408000C82F10E000E0893311F400E510E08C2F18
:104090000E94C91F0115110531F48C2FCF911F917A
:1040A0000F910C94701F8FE99FE00197F1F700C00A
:1040B000000001501109EECFAF92BF92CF92DF9274
:1040C000EF92FF920F931F93CF93DF93EC018AE05F
:1040D000A82EFE012491222309F494C0213009F076
:1040E0003EC031968491813031F42296FE01849154
:1040F0000E943D2007C0823039F42296FE0184914F
:104100000E94C91F2196E5CF833031F42296FE012B
:1041100084910E94701FF6CF843009F071C02296FE
:10412000FE01249190E080E0FE0131962053330B94
:104130002A30310548F0019728F3EFE9FFE0319785
:10414000F1F700C00000F7CFA89EA001A99E500D76
:104150001124C901840F951F2491EF01E5CFE22FAF
:10416000F0E0E557FE4FB490822F869586958695B0
:1041700090E0FC01E558FE4FE4902770F12C022EF0
:1041800002C0F594E7940A94E2F731E0E322FF24B9
:10419000FC01E559FE4FC490D12C022E02C0D594EB
:1041A000C7940A94E2F7E1E0CE22DD24FC01E55A4F
:1041B000FE4F049110E002C0159507952A95E2F78D
:1041C00001701127E114F10419F081EE0E94C91F5A
:1041D000C114D10419F086EE0E94C91F8B2D0E94D4
:1041E0003D20CD2819F086EE0E94701FEF2819F0AF
:1041F00081EE0E94701F012B09F484CF8CE278CFEE
:10420000EF0180CFDF91CF911F910F91FF90EF9041
:10421000DF90CF90BF90AF900895CF93DF93EC01E4
:104220000E94F80D9E01205E31092830310510F002
:10423000209739F40E94B90F8C2FDF91CF910C9405
:10424000C91F0E94A80FF8CFFB01DC018C918130BF
:1042500021F4808191810C940D21823019F48281A6
:104260009381F9CF0895CF93DF93EC01FB0188810F
:10427000823031F4828193810E940D2181E08B870D
:10428000DF91CF9108959F92AF92BF92CF92DF922C
:10429000EF92FF920F931F93CF93DF93CDB7DEB7CB
:1042A00060970FB6F894DEBF0FBECDBF1A82198299
:1042B000FE01339686E0DF011D928A95E9F786E4D8
:1042C000E82E82E0F82E10E000E0CC24C394D12C3C
:1042D00020E5A22E22E0B22EF70181917F018F3FCF
:1042E00009F446C0F894E82FE295EF70F0E021A1C0
:1042F0008F70A60102C0440F551F8A95E2F7CA01CC
:10430000922F982B91A392A18095892382A30E943A
:10431000E20A00C0EAE4F2E031E0912C21912F3F63
:1043200009F47FC0A22FA295AF70B0E090968C9157
:1043300090E02F7002C0959587952A95E2F780FD51
:1043400070C0832F982A330FAE16BF0639F7F701D6
:10435000319780818F3F11F00E94E40A50EA5A950C
:10436000F1F7E1E0F0E0EC0FFD1FE00FF11F9082AC
:104370000F5F1F4F0430110509F0AECF48E050E049
:10438000BE016F5F7F4F8EE294E00E943C367C015D
:10439000892B49F088E0FE013196AEE2B4E001904D
:1043A0000D928A95E1F710913704E114F104D9F1E7
:1043B00081E08093CD030E944B1B9093CC038093AC
:1043C000CB038091CB039091CC030E943C1B0597BB
:1043D00090F0E12FF0E0E85CFB4F80912E048083A9
:1043E00080912F04818380913004828380913104F5
:1043F00083831092CD0381E090E0EF28C1F06096B6
:104400000FB6F894DEBF0FBECDBFDF91CF911F91E5
:104410000F91FF90EF90DF90CF90BF90AF909F9063
:10442000089580E08FCF8091CD038111CACF0E9483
:104430004D11F82EE0913704882309F4BAC01A868A
:1044400019861C861B860E2F10E0085C1B4F80917E
:1044500029048A3008F076C046E656E1BE01675F5F
:104460007F4FC8010E940311882309F47BC04DE3EC
:1044700058E1BE01675F7F4FC8010E940311882386
:1044800009F470C048E156E1BE01675F7F4FC80183
:104490000E940311882309F465C048E857E1BE0172
:1044A000675F7F4FC8010E940311882309F45AC037
:1044B00041E258E1BE01675F7F4FC8010E940311CE
:1044C000882309F44FC042EB55E1BE01675F7F4F7F
:1044D000C8010E940311882309F444C044EF57E146
:1044E000BE01675F7F4FC8010E9403118823D1F18D
:1044F00048E657E1BE01675F7F4FC8010E94031184
:10450000882381F146E457E1BE01675F7F4FC80110
:104510000E940311882331F11092290480913604FE
:1045200090E044E050E0BE01675F7F4F885C9B4FA6
:104530000E943C3621E02093D403892B61F5F12CB5
:104540008F2D5DCF8091CE039091CF030E943C1BB5
:10455000843F914008F080CF8091D403811112C034
:1045600080E04DCF809129048F3F29F08F5F8093A9
:1045700029048A3098F20E944B1B9093CF038093BA
:10458000CE03EACFFE01399684E0DF011D928A95C1
:10459000E9F71092D403E0913604F0E0E85CFB4FB9
:1045A00089859A85AB85BC8580839183A283B383FB
:1045B000C7CFF0E0E85CFB4F0091360410E0085CE8
:1045C0001B4FF89480819181A281B3818093D7039E
:1045D0009093D803A093D903B093DA0387ED93E0C7
:1045E0000E94F7058093D6030E94E20AF894809116
:1045F000DB039091DC03A091DD03B091DE03F801B1
:1046000080839183A283B3830E94E20AF894C090CE
:10461000DF03D090E003E090E103F090E2038091AB
:10462000D0039091D103A091D203B091D303C816C7
:10463000D906EA06FB06F1F0C092D003D092D1036E
:10464000E092D203F092D3030E944D11811112C067
:104650000E94E3076D877E878F87988BC61AD70ADB
:10466000E80AF90AC0922A04D0922B04E0922C04A2
:10467000F0922D040E94E20AF8948091E303909155
:10468000E403A091E503B091E60380930F059093B6
:104690001005A0931105B09312058091E703909146
:1046A000E803A091E903B091EA0380930C0490938E
:1046B0000D04A0930E04B0930F040E94E20AF89434
:1046C0008091EB038093C4050E94E20AF8948091E4
:1046D000EC038093C3058091ED038093C205809124
:1046E000EE030E94CC0C0E94E20AF89486E0EFEE02
:1046F000F3E0A5E0B6E001900D928A95E1F7809194
:10470000F5030E9463130E94E20AF8948091F60375
:1047100080934B040E94E20AF8948091F703882367
:1047200029F00E940E100E94E20A1ACF0E94F30F95
:10473000FACF4F925F926F927F928F929F92AF9239
:10474000BF92CF92DF92EF92FF920F931F93CF937E
:10475000DF93CDB7DEB729970FB6F894DEBF0FBE53
:10476000CDBF6C01DC0113968D919C911497892B20
:1047700041F01C911196FC90812F8F218F3F09F001
:1047800041C629960FB6F894DEBF0FBECDBFDF91AC
:10479000CF911F910F91FF90EF90DF90CF90BF903E
:1047A000AF909F908F907F906F905F904F90089503
:1047B0000E94F00C082F682F89819A810E948C0D2D
:1047C000E12FF0E0B6E0FB9EE00DF11D112420E3A7
:1047D000029FE00DF11D1124EE0FFF1FED5CFD4F58
:1047E00005911491D60112968C918111ACC0F601FD
:1047F00082810A3AFDE51F0709F451C108F093C010
:10480000083A3DE5130709F411C1093A4DE51407CB
:1048100009F43FC1980137552F3F310511F008F0D9
:104820004CC040917E0150917F014217530724F400
:1048300030937F0120937E0196E1929F5001939FD8
:10484000B00C1124A50143575E4F7A01DA0150964E
:104850008C935097F601928116968C911697992316
:1048600009F42EC11A961C930E9319978F5F169612
:104870008C930E944B1BD7011E969C938E931D9781
:104880008091180417968C9317978091C205909188
:10489000C305892B18968C931897ED91FC9111976D
:1048A000309739F054966D917C91C5018D569E4F8D
:1048B00009951093C1050093C005D60112968C91FD
:1048C000882309F4B2C50236BDE51B0761F008F084
:1048D00021C10631FCE51F0708F000C102302CE5BC
:1048E000120708F41CC10E9454159093D1058093BF
:1048F000D00506314CE5140708F031C102305CE503
:10490000150708F01FC16091D0051091D10584E012
:1049100090E00E948036612F82E290E00E94803613
:104920000E945B1C8AC00B3A5DE5150709F4C1C003
:104930000C3A9DE5190709F06DCF882309F47DC075
:104940008BE092E0BAC0C80190568115A0E29A07A8
:1049500048F0905E8115B0E19B0720F0915C8115D5
:104960009F4158F5C80199279C01245031092432F0
:10497000310518F08B970E9780F4E0915004F0E029
:10498000EE0FFF1FEB5AFB4F808191818F3F2FE786
:10499000920719F001969183808380917E01909116
:1049A0007F01019609F423CF8DE8E82E81E0F82EEF
:1049B000B12CA12C9924939431C090E080E00F3F5A
:1049C000110509F088F6C801CFCFD70116968C9152
:1049D00016978823E9F019968D919C91081719076D
:1049E00039F48091C0059091C1050817190781F02D
:1049F000F7019786148703878189811103C0C70156
:104A00000E943B0FC70106960E945C0F1092C205E0
:104A1000FFEFAF1ABF0A26E1E20EF11C80917E0182
:104A200090917F018A159B0584F6E1CE882369F178
:104A300081E00E94101C0E94411C8091AA03877093
:104A400009F49FCED60112968C91882309F499CE51
:104A50008091D10582FD95CE82E029960FB6F8941B
:104A6000DEBF0FBECDBFDF91CF911F910F91FF90A1
:104A7000EF90DF90CF90BF90AF909F908F907F90FE
:104A80006F905F904F900C94D71B81E00E94A21B07
:104A9000D2CF882311F082E0CCCF82E0F7CF8823F9
:104AA00021F083E00E94101CC8CF83E00E94A21B6B
:104AB000C4CF882311F28FE192E00E945C20BDCF29
:104AC000882309F4FACEFA018189882309F4F5CE06
:104AD000C5018D569E4F0E945C0FEFCEC8018B5FC3
:104AE0009C45099708F4FFCE0631BCE51B07B9F4D5
:104AF0008091C3058A7A91E009F490E09093510384
:104B000069E2811165E38CE293E00E942F080E9424
:104B1000E60E93CF063A3DE5130709F4E4CE0B35D4
:104B20003DE5130709F4AAC108F089C101155CE548
:104B3000150709F496C10F3D1C4509F0DFC00E941E
:104B40004C187BCFF801E350FC458091D005816083
:104B5000E331F10530F5E055F94C0C940B36043097
:104B60008DE5180778F40B3F9CE5190708F4CBCEC8
:104B7000F801EC5FFC45E830F10510F5ED53F94C18
:104B80000C940B360236ADE51A0709F496C09091E5
:104B9000D005892F8E7F90FF8160063A1D4509F070
:104BA000B2CE8093D005AFCE8091D0058260F9CF90
:104BB0008091D0058460F5CF8091D0058860F1CFD9
:104BC0008091D10581608093D1059DCE8091D105E2
:104BD0008260F9CF8091D0058061E3CF8091D005CC
:104BE0008062DFCF8091D0058064DBCF0E945B1CA8
:104BF0008091D0058068D5CF8091D0058C60D1CFD1
:104C00008091D1058360DFCF8091D0058E7FC9CFA1
:104C10008091D0058D7FC5CF8091D0058B7FC1CF8E
:104C20008091D005877FBDCF8091D1058E7FCBCF7E
:104C30008091D1058D7FC7CF8091D0058F7EB1CF78
:104C40008091D0058F7DADCF8091D0058F7BA9CF8E
:104C50000E945B1C8091D0058F77A3CF8091D005F7
:104C6000837F9FCF8091D1058C7FADCF8091D00580
:104C700082FB992790F921E0922790FB82F990FB23
:104C800083F98FCF8091D105982F909591708E7F69
:104C9000892B90FB81F997CF0E945B1C9091D005E6
:104CA000892F97FB87F980587CCF61E08EE090E0F8
:104CB0000E94803628CE60E0F9CF9091D005892FF0
:104CC0008F7E94FF80616DCF8091C3058272073D16
:104CD000ECE51E0778F4033CFCE51F0778F0F801CB
:104CE000E45CFC45E331F10508F063C0E553F94CA1
:104CF0000C940B360E351D4509F49FCEF6018281CA
:104D00001081F180882309F4BDC0812F9F2D0E945E
:104D1000F00C082F682F812F9F2D0E948C0DE12F02
:104D2000F0E026E0F29EE00DF11D112430E3039F38
:104D3000E00DF11D1124EE0FFF1FED5CFD4F85917D
:104D400094910E94400B182F092F782ED6011296AD
:104D5000FC9012971596EC90E294EFE0EE22809191
:104D6000AA038770C1F0AF2CFF20B1F0892F807F9C
:104D7000803421F080E2810F883068F08091D10585
:104D800082FD09C082E00E94D71B8091AA03877030
:104D9000AA24A3948111A12C802F82958F70882E34
:104DA000912C8C3008F0D5C0F401E252F94C0C94EF
:104DB0000B368091050691E08927809305061092B5
:104DC00012028091040681608093040636CE44EF7F
:104DD00058E06FEF78E00E9491082FCE4FEF58E037
:104DE00064EF78E0F8CF42EE58E06BEE78E0F3CF76
:104DF0004BEE58E062EE78E0EECF4AEC58E066ED1C
:104E000078E0E9CF46ED58E06AEC78E0E4CF42EB99
:104E100058E06EEB78E0DFCF4EEB58E062EB78E0E5
:104E2000DACF46E958E064EA78E0D5CF44EA58E0C2
:104E300066E978E0D0CF81E00E94DE05FECD0C353A
:104E40009DE51907E9F00D351D4509F057CF809113
:104E5000D10582FB882780F991E089270E94F31B06
:104E60004DCF0E945B1CBFEFE4E3FCE0B150E0409B
:104E7000F040E1F700C000000E94AB0781E0EECFF8
:104E800080E0ECCF812F9F2D0E94620D082F47CF2D
:104E9000B02FBF70BB2E802F807F19F0B29460EFCF
:104EA000B622FF20B9F0BB2069F080E2810F883084
:104EB00010F0711009C08091C305B82AB092C305E3
:104EC0000E94E60E812F43C08091C205B82AB0929D
:104ED000C205F6CF812F0E94701FBB20D1F180E266
:104EE000810F883010F0711004C08B2D0E94DE0CF1
:104EF00003C08B2D0E94D60C0E94E60E2AC0E02F24
:104F0000EF70BE2E802F807F803219F0B29450EF68
:104F1000B522772059F0F1E07F1609F48AC0FF200E
:104F200009F496C0EE2009F48BC0CCCF8091D10556
:104F300082FF60C0FF2009F456C0BB2039F0809189
:104F4000C305B82AB092C3050E94E60E80E00E9415
:104F5000C91FA8E08A1A9108B4E08B16910410F4D6
:104F60000E947011812F902F0E94D30D811138C2A1
:104F70001092530310925203AA20A9F08091AA0321
:104F800080FD11C0F60112828595859585950E9458
:104F9000101CC6010E9499238091AA0385958595CE
:104FA00085950E94A21B85E0F601DE011196019015
:104FB0000D928A95E1F789819A810E94620D9A810A
:104FC000E981F0E026E0929FE00DF11D112430E32D
:104FD000839FE00DF11D1124EE0FFF1FED5CFD4FCF
:104FE00085919491CECB80E00E94701FBB2009F484
:104FF000B0CF7BCFFF2079F0809118048B29E1108E
:1050000003C00E94B90FA5CF44244394E410F9CF04
:105010000E94CC0C9ECFE11006C00E94C60C8B2DC6
:105020000E94B20F96CF55245394E51409F491CF02
:10503000F4CFFF2039F045E0642E6E1408F489CFD8
:105040008B2DDFCF34E0732E7E1408F482CFE7CFB0
:10505000EE2029F329E3721209C03FEF47EE53E037
:10506000315040405040E1F700C00000812F0E94C5
:10507000701F6FCF802F86958695837069F0813081
:1050800009F067CF812F902F9370F11002C090E04C
:1050900080E00E9465085DCF812F902F9370F11002
:1050A00002C090E080E00E947B0853CF812FFF2058
:1050B00029F00E94860A0E94571B4BCF0E94CB0901
:1050C000FACF802F837009F075C0F11042CF912F75
:1050D000929596959770292F220F220F812F8F700E
:1050E00090E0B0E0A0E02C013D01022E04C0440C91
:1050F000551C661C771C0A94D2F780E090E0DC0116
:1051000014FF0FC08FE090E0A0E0B0E004C0880F73
:10511000991FAA1FBB1F2A95D2F780959095A0953D
:10512000B095202F269526952370223081F12330CB
:1051300009F140910C0450910D0460910E0470919E
:105140000F04213099F084299529A629B7292C012B
:105150003D0144225522662277224E825F82688674
:105160007986C301B2010E94511CF3CE442A552A0C
:10517000662A772AA3019201282B392B4A2B5B2B15
:105180002E833F8348875987CA01B901ECCF842910
:105190009529A629B72940910C0450910D046091DE
:1051A0000E0470910F042C013D01442655266626FD
:1051B0007726D3CF8695FF2011F0802F817088232A
:1051C00009F4C7CE912F929596959770292F220FAB
:1051D000220F812F8F7090E0B0E0A0E02C013D0104
:1051E000022E04C0440C551C661C771C0A94D2F78E
:1051F00080E090E0DC0114FF0FC08FE090E0A0E0C1
:10520000B0E004C0880F991FAA1FBB1F2A95D2F7D0
:1052100080959095A095B095202F26952695237082
:10522000223081F12330F9F040910F0550911005A3
:105230006091110570911205213089F0842995291A
:10524000A629B7292C013D01442255226622772246
:105250004E825F8268867986C301B20110C0442AFB
:10526000552A662A772AA3019201282B392B4A2B2B
:105270005B2B2E833F8348875987CA01B9010E945F
:10528000981B67CE84299529A629B72940910F0537
:105290005091100560911105709112052C013D018E
:1052A0004426552666267726D3CF302F3F70B32E5F
:1052B000FF2029F0832F0E94101C812FA2CE812F66
:1052C0000E94B20F8B2D0E94A21B43CE812F42EF72
:1052D0007416C9F1471570F050EF7516D1F091EFC3
:1052E000791691F0FF2009F46BC0E110EBCD802F0F
:1052F0008F712DC0A3EF7A1669F1B4EF7B12F2CF54
:105300008091D10582FF3CC0802F8F71FF20D9F2A0
:105310001EC0FF2091F0E4E0EE1508F41ACE202F15
:105320002F7181E090E0A0E0B0E004C0880F991FE9
:10533000AA1FBB1F2A95D2F7A9CF25E0522E5E14D3
:1053400008F407CEECCF802F8F71F110BCCF0E94F4
:10535000101CFFCD60E070E0CB01FF2009F48FCF7F
:10536000802F8F7141E050E060E070E02A013B0146
:1053700004C0440C551C661C771C8A95D2F768CF74
:10538000FF2099F0202F2F71B22E822F0E94101C27
:105390008091D10582FD07C038E0B39EC001112481
:1053A00083608093AA038B2DD2CF81E00E94D71B0C
:1053B00041E04E1508F0CDCD82E00E94D71BC9CD4B
:1053C000EE2059F0893309F051CE5FEF87EE93E07C
:1053D000515080409040E1F747CE802F8F7173CFBE
:1053E000FF2019F0E110C4CDC7CDE110C1CD8091EF
:1053F000520390915303029709F0BACD812F0E9476
:105400003D20B6CD85E0F601DE01119601900D92AA
:105410008A95E1F7D60112962C9189819A81211102
:10542000C7C90E94620D082FCBC90631ECE51E07E3
:1054300009F04ACC8091510369E2811165E38CE265
:1054400093E00E94030863CB1F93CF93DF93809177
:105450007703807FA9F480917403882389F0809179
:10546000A903D09178036091720370917303A091A6
:105470007503B0917603C62FC72316E0D81304C076
:10548000DF91CF911F91089590E0109711F0CF3FD9
:1054900019F401968770F2CF189F9001199F300D73
:1054A0001124F901E758FC4F41814713F2CF4081A5
:1054B0004613EFCF42814111ECCF438154814A1B07
:1054C0005B0B483C510528F7809177038F70806112
:1054D00080937703F901E258FC4F80818F708061DF
:1054E000808382E793E00E949923DF91CF911F91FF
:1054F0000C94E60CAF92BF92CF92DF92EF92FF92A4
:105500000F931F93CF93DF93CDB7DEB72B970FB6D3
:10551000F894DEBF0FBECDBF8C0185E0F801DE013F
:10552000179601900D928A95E1F7F801E28082E7E3
:10553000A82E83E0B82E60917503709176036115F3
:10554000710509F40AC19091720340917303842F8D
:1055500089238F3F09F401C120813181C380D48028
:10556000F0907403F601E61BF70BFF2009F4DCC092
:1055700080917703582F507FE83CF10508F0B7C0C1
:10558000511177C0FE2C431321C092131FC0E110AC
:105590001DC08F70806180937703C5010E9499239D
:1055A00080917703F80185838F2D2B960FB6F894A1
:1055B000DEBF0FBECDBFDF91CF911F910F91FF9046
:1055C000EF90DF90CF90BF90AF900895CD2829F055
:1055D000822F83238F3F09F0DAC080E0F82FF1702B
:1055E000DF2EE091A9034091780356E080FD1CC0B6
:1055F000EE20D1F280917703816080937703F12CC4
:10560000D3CF8E2F90E05E9FF0011124E758FC4F1E
:105610006181361306C06081261303C06281E612E1
:10562000E7CFFC013196E770E413EBCF2F83388787
:105630008F8198850E94470D292F22952F709032D7
:1056400060F0225F2F70223078F49F7051F0F801E3
:105650009581907F31F4D12C0AC09F7011F088237E
:10566000D1F3805E8830B8F3C8010E949923FD2CE5
:105670009BCF431312C0921310C0E1100EC0F8016B
:105680008583C8010E94992386E0F801A2E7B3E070
:1056900001900D928A95E1F787CFC8010E94F10D24
:1056A000882309F1EE20F9F080917703803270F0C1
:1056B00020917203309173033A8329831B82DD8228
:1056C000CC828E83CE0101960E94992386E0F80158
:1056D000A2E7B3E001900D928A95E1F70E94242A97
:1056E000FF24F39461CFC8010E949923F9CF51118F
:1056F0000AC082E793E00E94992386E0F5011192A7
:105700008A95E9F77CCF4313C8CF9213C6CFE11037
:10571000C4CFF8018583C8010E94992386E0F50172
:1057200011928A95E9F740CFE83CF105B8F7FE2CD5
:10573000EE20C9F2431303C0921709F4A5CFC801A4
:105740000E94F10D8111C2CF809177038160809317
:105750007703C8010E94992327CFEE2021F2C801C8
:105760000E94F10DF82E882309F4BDCF86E0F801E0
:10577000A2E7B3E001900D928A95E1F78091720360
:10578000909173030E94470D0E94242A0DCF81E05F
:105790008E2524CF1F93CF93DF93CDB7DEB76797C6
:1057A0000FB6F894DEBF0FBECDBF4B8B5C8B6D8BFD
:1057B0007E8B8F8B2E893F892115310529F0842F0F
:1057C00085238F3F09F081C061111092C2051A8AAA
:1057D0004D875E876F87398B288B86E0FE013D966B
:1057E000DE01179601900D928A95E1F7CE0107969A
:1057F0000E947A2A882389F016E08091A90390916B
:10580000780389134FC067960FB6F894DEBF0FBEBA
:10581000CDBFDF91CF911F91089586E0FE013796AD
:10582000DE01119601900D928A95E1F76A857B85DC
:105830006115710509F34F815885842F85238F3FAA
:10584000D9F22091780330E0C90101968770992739
:10585000E091A903E817190671F40E945B1C1092ED
:1058600078031092A90386E0E2E7F3E0DF011D92DE
:105870008A95E9F7C1CF49835A837D836C8396E08B
:10588000929FD001939FB00D1124A758BC4FFE01E9
:10589000319601900D929A95E1F7809378030E94DA
:1058A000E60CAACF819FC001112487589C4F0E940B
:1058B0007A2A882309F4A7CF8091A90390E0019662
:1058C000877099278093A90398CF80915203909174
:1058D00053030196909353038093520375CF1F9205
:1058E0001FB61F9211248F939F93AF93BF93809104
:1058F000CB05811113C08091CC059091CD05A0916D
:10590000CE05B091CF054196A11DB11D8093CC0568
:105910009093CD05A093CE05B093CF05BF91AF91E5
:105920009F918F911F901FBE1F901895CDB7DEB726
:1059300063970FB6F894DEBF0FBECDBF84B7877FE5
:1059400084BF0FB6F894A895809160008861809319
:105950006000109260000FBE80E890E00FB6F894EF
:1059600080936100909361000FBE85B7806885BF0A
:1059700085B7806885BF80EE9AE090932B03809373
:105980002A030E9421060E94EC068091E2008460B6
:105990008093E20078948091FA058823A1F0109119
:1059A000E9001F709091EC00892F817090FD80E8D4
:1059B000182B1092E9008091E80083FD0E94701C72
:1059C0001F701093E90082E084BD93E095BD9AEFCB
:1059D00097BD80936E0010922A0410922B041092AF
:1059E0002C0410922D040E948311809371010E9457
:1059F0004D1181110E9432348091710180917101A9
:105A000094E0811190E09093370484E0891B8093A7
:105A1000360484E90E94E40A86E60E94E40A87E9E3
:105A20000E94E40A86EC0E94E40A0AE412E0D8012B
:105A30008D918D018F3F11F00E94E40AB2E0003594
:105A40001B07A9F788E0E8E3F4E0DF01282F1D92A7
:105A50002A95E9F7EEE2F4E0DF011D928A95E9F775
:105A600090E080E00E946A36893E9E4F11F00E94CD
:105A70004C1882E090E00E946236809340040E94BD
:105A800054159093D1058093D0050E944321EFE3F4
:105A9000FCE93197F1F700C000000E9443210E9409
:105AA0008311E4E08111E0E0F0E0E85CFB4F8081ED
:105AB00081FF08C06FEF7FEF90E080E00E949E368C
:105AC0000E94AB0783E090E00E946236282F30E00E
:105AD00050E040E02B873C874D875E87CA01B901C3
