:100000000C949A050C94D2050C94D2050C94AD2F47
:100010000C94D2050C94D2050C94D2050C94D20504
:100020000C94D2050C94D2050C94191D0C94D51C7B
:100030000C94E1280C94D2050C94D2050C94D205B2
:100040000C94D2050C94D2050C94D2050C94D205D4
:100050000C94D2050C94F21D0C94D2050C94D2058C
:100060000C94D2050C94D2050C94D2050C94D205B4
:100070000C94D2050C94D2050C94D2050C94D205A4
:100080000C94D2050C94D2050C94D2050C94D20594
:100090000C94D2050C94D2050C94D2050C94D20584
:1000A0000C94D2050C94D2050C94D20504010203E1
:1000B000048081828384A0A1A2A3A4C0C1C2C3C4BE
:1000C00000209495962020B4B5B62020D4D5D62013
:1000D00000209798992020B7B8B92020D7D8D920E8
:1000E00000209A9B9C2020BABBBC2020DADBDC20BD
:1000F00000209D9E9F2020BDBEBF2020DDDEDF2092
:1001000000A7A800AFB000C600CA00C800A5A6009E
:10011000ADAE008788008F9000C500C900C700CB36
:10012000008586008D8E00ABAC00CFD000C600CA23
:1001300000C800A9AA00B1B2008B8C00CDCE00C5CA
:1001400000C900C700CB00898A00919200202020BE
:100150002020002057504D2020000000000000000B
:10016000000000000000000000000000000000008F
:1001700000000000000000000000000000007E0FF2
:1001800000D4FFFFFFC7000000780000000000005F
:1001900000002A2B280000000000000000000000E2
:1001A000000000000029000000002C1E3420212245
:1001B00024342627252E362D3738271E1F202122AE
:1001C000232425263333362E37381F040506070827
:1001D000090A0B0C0D0E0F10111213141516171817
:1001E000191A1B1C1D2F3130232D35040506070855
:1001F000090A0B0C0D0E0F101112131415161718F7
:10020000191A1B1C1D2F3130354C4D6163726F2044
:100210003220746578743A0A73616E7469004D61B6
:1002200063726F203120746578743A0A73616E745A
:1002300069002B0014001A00080015001700E000E8
:1002400004001600070009000A0000571D001B00EB
:10025000060019000500000000000000E300AF5D8B
:100260002C002A00130012000C0018001C0034009F
:1002700033000F000E000D000B002900380037007E
:100280003600100011000000000000000157B05DB2
:1002900028002B001E001F00200021002200E0008B
:1002A0003A003B003C003D003E0000573F0040004C
:1002B000410042004300000000000000E300010094
:1002C0002C002A002700260025002400230000001F
:1002D00052004F005200510050004F00510050009A
:1002E0000000450044000000000000000157B15D1F
:1002F00028002B001E021F02200221022202E00021
:100300000000000000000000B25D00570000000087
:1003100000000000B35D000000000000E300B15DDC
:100320002C002A002702260225022402230235007F
:10033000310030002F002E002D0035023102300236
:100340002F022E022D0200000000000001570100C4
:100350002800005C0000000000000000A600C35C54
:10036000C65CC85CCA5C0000AE00C45CC75CC95C0B
:10037000CB5C00004600000000000000E30001002C
:100380002C00A900AA000000000000000000BD0031
:10039000BE000000000000000000AB00AC00000048
:1003A00000000000000000000000000001570100F4
:1003B000280000DA0281FFD9F1DB20A4A62EAF00CD
:1003C000A0C000A1C800AED580A81FD300408D14E6
:1003D00020000001010101010101010102020202EC
:1003E00002020202020303030303030303040404DF
:1003F00004040404050505050506060606060707A8
:1004000007070708080808090909090A0A0A0B0B5F
:100410000B0C0C0C0D0D0D0E0E0E0F0F0F101011FE
:100420001111121213131414151516161717181884
:1004300019191A1A1B1B1C1D1D1E1E1F20202122EC
:1004400022232424252626272829292A2B2C2D2D32
:100450002E2F30313232333435363738393A3B3C4F
:100460003D3E3F404142434445464748494A4C4D42
:100470004E4F50515354555658595A5B5D5E5F610B
:100480006264656668696B6C6D6F7072737577789E
:100490007A7B7D7E8082838587888A8C8E8F9193FC
:1004A0009596989A9C9EA0A2A3A5A7A9ABADAFB123
:1004B000B3B5B7BABCBEC0C2C4C6C9CBCDCFD1D408
:1004C000D6D8DBDDDFE2E4E7E9EBEEF0F3F5F8FAAE
:1004D000FDFF00AF00AE05010980A10185031901F0
:1004E0002AB700150126B700950175108100C005D7
:1004F0000C0901A101850419012AA002150126A0F9
:1005000002950175108100C005010906A10185064B
:10051000050719E029E715002501950875018102F5
:100520000507190029EF1500250195F075018102D5
:1005300005081901290595057501910295017503B5
:100540009101C005010906A101050719E029E71578
:100550000025019508750181029501750881010545
:1005600007190029FF150026FF0095067508810070
:100570000508190129059505750191029501750375
:100580009101C009023B00020100A0FA0904000029
:1005900001030101000921110100012240000705AA
:1005A0008103080001090401000103000000092182
:1005B00011010001226D00070582032000011201D4
:1005C0000002000000085346010001000102000182
:1005D0000C0343006F0072006E0065000000100302
:1005E00066006F006F007300740061006E00000011
:1005F00004030904000000000080C0E0E0F0F0F017
:10060000F0F0F0F0F0F0F0F0E0E0C080000000006A
:1006100000001C577D571C001C5E7F5E1C000018EC
:100620003C180000FFE7C3E7FF0000182418000093
:10063000FFE7DBE7FF0030483A060E00262979295C
:100640002600407F05050700407F05253F005A3CF6
:10065000E73C5A007F3E1C1C0800081C1C3E7F0023
:1006600014227F2214005F5F005F5F0006097F0194
:100670007F00006689956A0060606060600094A2F7
:10068000FFA2940008047E04080010207E201000C1
:1006900008082A1C0800081C2A0808001E10101050
:1006A00010000C1E0C1E0C0030383E383000060EB8
:1006B0003E0E060000000000000000005F00000089
:1006C000000700070000147F147F1400242A7F2AEB
:1006D00012002313086462003649562050000008B7
:1006E00007030000001C224100000041221C000002
:1006F0002A1C7F1C2A0008083E0808000080703071
:1007000000000808080808000000606000002010D1
:10071000080402003E5149453E0000427F4000006F
:100720007249494946002141494D33001814127F4E
:1007300010002745454539003C4A494931004121CF
:1007400011090700364949493600464949291E0022
:1007500000001400000000403400000000081422D3
:100760004100141414141400004122140800020162
:10077000590906003E415D594E007C1211127C0061
:100780007F49494936003E41414122007F41414174
:100790003E007F49494941007F09090901003E4166
:1007A000415173007F0808087F0000417F4100002D
:1007B0002040413F01007F08142241007F4040401B
:1007C00040007F021C027F007F0408107F003E4132
:1007D00041413E007F09090906003E4151215E006A
:1007E0007F091929460026494949320003017F0142
:1007F00003003F4040403F001F2040201F003F407B
:1008000038403F00631408146300030478040300B5
:100810006159494D4300007F4141410002040810E5
:100820002000004141417F000402010204004040D9
:100830004040400000030708000020545478400066
:100840007F2844443800384444442800384444282D
:100850005F0038545454180000087E090200182420
:10086000241C78007F080404780000447D400000C8
:100870002040403D00007F102844000000417F40A0
:1008800000007C04780478007C0804047800384474
:10089000444438007C1824241800182424187C00B0
:1008A0007C080404080048545454240004043F44C1
:1008B00024003C4040207C001C2040201C003C4088
:1008C00030403C004428102844004C9090907C001C
:1008D0004464544C44000008364100000000770096
:1008E00000000041360800000201020402003C261C
:1008F00023263C0080E0F8FEFF7F230303070F0759
:1009000007070707070F070303237FFFFFFEF8E032
:10091000800000F8042252E2424242E252222222A5
:100920004282020222220204F80000F8040202823B
:1009300042224282020202824222122242820204A5
:10094000F80000F8FCDEAE1EBEBEBE1EAEDEDEDE71
:10095000BE7EFEFEDEDEFEFCF80000F8FCFEFE7E43
:10096000BEDEBE7EFEFE0000000000008080404033
:100970002020101008081010202040408080808027
:10098000C0C0E0E0F0F0F8F8F0F0E0E0C0C0808037
:100990008080404020201010080810102020404087
:1009A0008080808040C060A050B058A850B060A047
:1009B00040C080803FFFFFFFFFE0C08000000000DC
:1009C000000000000000000080C0E0FFFFFFFFFF0C
:1009D0003F00001F20444A47424242474A444040A9
:1009E00040404142444440201F00001F20404140FD
:1009F00040404040414041414F4848484F414120DC
:100A00001F00001F3F7B75787D7D7D78757B7F7F24
:100A10007F7F7E7D7B7B7F3F1F00001F3F7F7E7F30
:100A20007F7F7F7F7E7F00000000000088885D5D03
:100A30003E3E7C7CF8F87C7C3E3E5D5D8888888804
:100A40005555232347478F8F47472323555588887C
:100A50008888D5D5E2E2C4C48888C4C4E2E2D5D58A
:100A6000888888885DD56BB66DD6ADDA6DD66BB6E5
:100A70005DD58888000003070E1C397377F7F301F2
:100A8000000000000103FFFF7F7F3F1F0F070300EF
:100A9000000004F80000F804201F00001F20FCF8EC
:100AA0000000F8043F1F00001F2004F80000F8FCBD
:100AB000201F00001F3FFCF80000F8FC3F1F000053
:100AC0001F3FFE7EBEDEEEDEBE7EFEFCF8007E7EBA
:100AD00070777777707E7E3F1F0000000000000077
:100AE0000000000000000000000000000000010104
:100AF00002020404080804040202010100000000CC
:100B000001010202040408080404020201010000B9
:100B100000000101030307070F0F0707030301018B
:100B2000000000000101030205060D0A050603028C
:100B30000101000011241FBECFEFDAE0DEBFCDBF00
:100B400004B603FE18C08091A5079091A607A09156
:100B5000A707B091A8078730904BA740B04B59F436
:100B60001092A5071092A6071092A7071092A80747
:100B7000E0E0F8E3099512E0A0E0B1E0ECE4F4E68F
:100B800002C005900D92A63CB107D9F727E0A6EC6C
:100B9000B2E001C01D92A53AB207E1F70E94082910
:100BA0000C940E320C94000090919405937061F0B7
:100BB00081110BC09460909394051092AA018091CA
:100BC00093058160809393050895833010F09860B9
:100BD000F2CF880F880F982BEECFFC01AC014C5F51
:100BE0005F4F8FEF91E32191822728E030E087FF6C
:100BF00009C0880F892721503109C9F7E417F50783
:100C000091F70895880FF7CF90919405937071F044
:100C10008093950560939605473908F046E940931F
:100C20009705809193058160809393050895E8ED81
:100C3000F0E080818E7F80831092E2001092DA00D3
:100C40001092E100A0EEB0E08C9181608C938081E5
:100C50008F77808319BCA7EDB0E08C918E7F8C9349
:100C600080818F7E80831092640508952091E40036
:100C70003091E50095E6A9012091EC00822F81706A
:100C800020FF06C08091E80080FF06C080E0089544
:100C90002091E80022FD1AC080918905882389F0FF
:100CA000853089F08091EB0085FD0FC02091E40034
:100CB0003091E50042175307F9F29150E1F684E0D4
:100CC000089582E0089583E0089581E00895EF9209
:100CD000FF920F931F93CF937C018B010E943606E6
:100CE000C82F811117C08091E80085FD0BC080914D
:100CF000E8008E778093E8000E943606882399F3F7
:100D0000C82F08C0F70181917F018093F100015045
:100D1000110949F78C2FCF911F910F91FF90EF9000
:100D2000089580918B0587FF13C08091E80082FFB2
:100D300006C08091E8008B778093E80004C0809122
:100D400089058111F2CF0895809189058823D9F30F
:100D50008091E80080FFF8CF8091E8008E77ECCF9B
:100D6000982F9093E900242F762F50E0891731F0C7
:100D70007091EC002091ED005091F00021FD07C032
:100D80009F5F973071F78093E90081E0089530917B
:100D9000EB003E7F3093EB003091ED003D7F3093D0
:100DA000ED003091EB0031603093EB007093EC007C
:100DB0002093ED005093F0002091EE0027FDE0CF4E
:100DC00080E00895B0E0A0E0E8EEF6E00C94E730B3
:100DD000C8EDD0E088818F7E8883E7EDF0E08081E8
:100DE0008160808384E082BF81E080936405888194
:100DF0008E7F888302EE10E0F80110821092DA00F4
:100E000081EEC82ED12CF601108288818F778883DD
:100E100088818068888388818F7D888319BC10923F
:100E2000890510928A05109288051092870590EE28
:100E3000E92EF12CF70180818B7F8083888181608E
:100E4000888342E060E080E00E94B006F601808185
:100E50008E7F8083F80180818160808380818860BB
:100E60008083F70180818E7F808388818061888381
:100E7000CDB7DEB7E8E00C940331FC018091910519
:100E80009091920586179707A0F06115710529F4D6
:100E90009091E8009E779093E80090E061157105CD
:100EA00051F4911108C08091E80082FF34C080E0C5
:100EB0000895BC01F2CF809189058823C1F1853066
:100EC000C1F18091E80083FD30C08091E80082FD8F
:100ED000EACF8091E80080FFE1CF8091F30020917C
:100EE000F200382F6115710519F02830310558F0DE
:100EF00091E02830310509F090E02091E8002E774C
:100F00002093E800CBCF81918093F100615071096B
:100F10002F5F3F4FE7CF80918905882341F08530CF
:100F200041F08091E80083FFBECF81E0089582E028
:100F3000089583E0089508950895809166050895C1
:100F4000CF92DF92EF92FF922FB7F894C0905B059B
:100F5000D0905C05E0905D05F0905E052FBFA70185
:100F60009601261B370B480B590BCA01B901FF909C
:100F7000EF90DF90CF9008952FB7F89460915B05C4
:100F800070915C0580915D0590915E052FBF08957D
:100F90002091A9012223C9F020915F0527FF15C0E8
:100FA000E62FE695E695E695EE31D8F4E80FF92FB1
:100FB000F11D677021E030E001C0220F6A95EAF769
:100FC00020958281282322830895FC013296089679
:100FD0002191621303C0DF0111971C92E817F907F2
:100FE000B9F708952091A9012223C1F020915F054E
:100FF00027FF14C0E62FE695E695E695EE31F8F466
:10100000E80FF92FF11D677021E030E001C0220FD9
:101010006A95EAF78281822B82830895FC013296D9
:101020002FEF30E04191641751F02F3F19F4411137
:1010300001C0232F3F5F3630A9F72F3F09F40895F1
:10104000820F911D27FD9A95FC01628308952091DE
:101050005805309159052817390771F090935905B3
:1010600080935805E0915605F0915705309721F08F
:101070000084F185E02D0995089520915405309163
:1010800055052817390771F090935505809354053D
:10109000E0915605F0915705309721F00680F781D1
:1010A000E02D09950895FA01811101C0FB01099510
:1010B0000895E4E9F5E024813AE0231B08F420E0F8
:1010C0002483809193058160809393050895E4E9DA
:1010D000F5E024813AE0230F08F42FEF2483809178
:1010E00093058160809393050895E4E9F5E04381D9
:1010F00028E0421B08F440E08181628190E00E9478
:1011000004060895E4E9F5E0438128E0420F08F47D
:101110004FEF8181628190E00E9404060895E4E926
:10112000F5E0628128E0621B08F460E08181438180
:1011300090E00E9404060895E4E9F5E0628128E069
:10114000620F08F46FEF8181438190E00E940406F2
:101150000895E4E9F5E08181438162818850990B2B
:101160000E9404060895E4E9F5E0818190E043815E
:10117000628108960E9404060895809194058695E0
:101180008695815009F482E00E94D40508958091EB
:101190009405869586958F5F833008F081E00E94E4
:1011A000D4050895FF920F931F93CF93DF93182FC9
:1011B000062FF42ED0E0C0E02F2D402F612FCE015E
:1011C0000E945D142196C633D105B1F7CDB7DEB7C5
:1011D000E5E00C940631EF92FF920F939701201BEC
:1011E00031092F3F310519F010F02FEF30E0322F89
:1011F0003095482F430F08F44FEF842F620F0F9163
:10120000FF90EF900895AF92BF92CF92DF92FF923E
:101210000F931F93CF93DF93362F472FE82FF0E0E4
:10122000EE52FC4F71110FC0E4918E2F2E2F6E2FB6
:10123000722FDF91CF911F910F91FF90DF90CF9090
:10124000BF90AF900895C72FD0E02491F22E022FC7
:1012500010E056E0659FC0011124EFEFF0E0BF0100
:101260000E94C930832F90E0880F991F35E5369F83
:10127000D001379FB00D11248A1B9B0B982F990F1B
:10128000980F6F01CC1ADD0AC09ED001C19EB00D2F
:10129000D09EB00D11248B2F499FA0011124452F02
:1012A00055276F01C41AD50AC09EA001C19E500DDA
:1012B000D09E500D11245F01A91AB108AC9E6001A7
:1012C000AD9ED00CBC9ED00C1124CD2CDD24EC198D
:1012D000FD09E09FE001E19FD00DF09FD00D1124AA
:1012E000ED2F62307105A1F050F46115710509F41C
:1012F0009ECF6130710581F0EB2F852F98CF643040
:10130000710569F080F06630710509F490CFF4CF73
:10131000E22F2B2F8D2F8BCFE22F252F88CFEB2F76
:10132000822F2D2F84CF2B2F8F2DE52F80CF80E084
:101330000895F894E82FE295EF70F0E031A1282F9E
:101340002F7081E090E001C0880F2A95EAF7982F6E
:101350009095932391A392A1892B82A378940895C9
:1013600090915F0592FF06C0282F28712830F9F46C
:10137000877F846093FF06C0282F28712831F1F4FD
:10138000877E84612091600520FF06C0382F387168
:101390003830D9F4877F816021FF06C0282F28715B
:1013A0002831D1F4877E816194FD877E0895282FAE
:1013B00024712430F9F68B7F8860DCCF282F2471CC
:1013C000243101F78B7E8861DDCF382F31713130C8
:1013D00019F78E7F8860E0CF282F2171213121F706
:1013E0008E7E8861E1CF972F7830A8F4663098F42C
:1013F00070E026E0929F600D711D1124FB0190E3C7
:10140000899FE00DF11D1124EE0FFF1FEE5CFD4FD3
:1014100085919491089580E090E00895CF93DF93B3
:10142000EC0182389105A9F1D8F58133910509F4D1
:1014300096C048F58932910509F48AC08A9709F463
:1014400095C0C11522E5D20708F0B6C0C11531E537
:10145000D30708F026C1C83ED10508F09CC0C03EA5
:10146000D10560F5C83AD10508F087C0C53AD10565
:1014700008F0EFC0C130D10509F12097F9F0C43070
:10148000D105E0F440C08533910509F45AC0C997ED
:10149000C1F680915F05837089F0C0EED0E00EC088
:1014A000833E910599F170F4803E910501F1823EF1
:1014B000910539F680915F0582FD21C0CE01DF9153
:1014C000CF910895863E910561F1873E910571F1B6
:1014D000843E910509F0B5CF8091600581FFEECF84
:1014E00080915F05C7EED0E084FD0DC0E7CF80910D
:1014F0005F0580FD07C19091600590FFDFCFC3EECF
:10150000D0E084FFDBCFD0E0C0E0D8CF80915F0592
:1015100082FDFBC09091600590FDBFCF84FFCECFD0
:10152000F2CF80915F0583FDDDCFC8CF80915F054D
:1015300083FDEEC09091600591FFF0CFC4EED0E046
:10154000BDCF80915F0585FFB9CFC9E2D0E0B6CFAE
:1015500080915F0585FFB2CFC5E3D0E0AFCF80912A
:101560005F0586FFABCFCAE2D0E0A8CF80915F05D0
:1015700086FFA4CFC1E3D0E0A1CFCF3BD10518F6C1
:10158000C85AD0E0CC0FDD1FCF54DE4F0990D88170
:10159000C02DD46493CFC11540E5D40708F064C0D2
:1015A000C11580E4D80708F05CC0CE019A9581157A
:1015B0009F4108F483CFA7CFC11536E5D30718F5AF
:1015C000C11545E5D40708F084C0C11584E5D807E6
:1015D00008F07AC09C2F969596959E01237033272C
:1015E000C115D34508F462C0C1E0D0E002C0CC0F01
:1015F000DD1F2A95E2F730E2939FC0011124C82B2A
:10160000D92BDA685BCFC1158AE5D80778F4C11504
:1016100099E5D90708F068C0C11528E5D20708F494
:1016200072CFDC2FCC27C06FD06A48CFCE01905646
:101630008115904208F067CF8D2F8F710E94B009FD
:1016400090E0982F882788279F719C012C2BE90117
:1016500049C0C55AD0E0C255DE4FC881D0E0D06441
:101660002DCFDF70D06A2ACFCE01E4E09695879522
:10167000EA95E1F783702C2F26952695237040E29A
:10168000249F90011124382B8C2F8370C1E0D0E06F
:1016900002C0CC0FDD1F8A95E2F7C22BD32BDC688A
:1016A0000DCFDC2FCC27C16FD06A08CFC1E0D0E0CE
:1016B00002C0CC0FDD1F2A95E2F720E2929FC00105
:1016C0001124C82BD92BEBCFDC2FCC27C46FD06AC9
:1016D000F5CE8C2F0E94B009C82FD0E0DC2FCC278C
:1016E000CC27DF71D062EACE8C2F8F700E94B009B8
:1016F00034E0D695C7953A95E1F7CF709C2FEC0171
:10170000D069DCCEC9E3D0E0D9CEC2EED0E0D6CEEF
:10171000C6EED0E0D3CE8091B40381111092B40311
:1017200008959091600592FF05C09091B4039813BD
:101730008093B403089580959091510598239093D8
:1017400051050895809590915205982390935205E4
:1017500008958091450390911403981301C0089552
:101760008F5F8770FACFB0E0A0E0E9EBFBE00C946C
:10177000E6308C01C0909E04D0909F04E090A004BD
:10178000F090A1048091A8039091A903A091AA03CD
:10179000B091AB03C82AD92AEA2AFB2ACFE1D0E0CC
:1017A000BC2ED701C6010C2E04C0B695A7959795FF
:1017B00087950A94D2F780FD09C0219788F7B12C4C
:1017C0008B2DCDB7DEB7E9E00C940231B8018C2F38
:1017D0000E94F3090E940E0A019779F3F1CFCF938B
:1017E000DF93EC010E94B30BBE010E94F3090E943B
:1017F0000E0ADF91CF910895292F983080F5863019
:1018000070F590E036E0239F800D911D1124682F24
:10181000677023E0969587952A95E1F725E0289F44
:10182000F001299FF00D1124E051FD4F50E040E000
:1018300080E0219130E0062E02C0369527950A946B
:10184000E2F721703327042E01C0220F0A94EAF731
:10185000822B4F5F5F4F4530510559F7089580E067
:101860000895292F9830A0F5863090F590E036E065
:10187000239F800D911D1124282F277041E001C066
:10188000440F2A95EAF723E0969587952A95E1F784
:1018900025E0289FF001299FF00D1124E051FD4F14
:1018A00030E020E070E05191DF011197CB01022E72
:1018B00002C0969587950A94E2F7817081958527F5
:1018C000842385278C932F5F3F4F2530310559F7AF
:1018D0000895282F80919E0490919F04A091A004C8
:1018E000B091A1040097A105B10549F004C0B695D7
:1018F000A795979587952A95D2F78170089580E0EE
:10190000089592959F70963091F058F4925F9F7071
:10191000923058F4803F19F030F4883E30F481E082
:1019200008959A5FF4CF843FD1F380E00895883E14
:10193000B0F3813FD1F7F3CFFC01808191810E9408
:10194000EF0B0E94810C08959C013A9521153F41AF
:1019500050F5FC01EE27F170BC0166277270AC01F6
:10196000442754709C012227387094FF0EC080E1F8
:10197000EF2B09F480E0672B09F08062452B09F01A
:101980008064232B89F08068089581E0EF2B09F4AF
:1019900080E0672B09F08260452B09F08460232BDF
:1019A00019F08860089580E00895CF93DF93C09187
:1019B000A307D091A4078A30C1F420919A05CE01E3
:1019C0008D599540622F70E00E94C930281B822FEC
:1019D00066E00E941431C82FC15018F4DF91CF91F6
:1019E000089580E20E94D50CF7CF8D30E9F4CD59EF
:1019F000D54020919A05622F70E0CE010E94C93037
:101A0000281B822F9E01280F311D2115324018F00E
:101A100080E0D0E0C0E0C80FD11DC356DA4FD093AC
:101A2000A407C093A307DACF96E0FE01ADE9B7E0C3
:101A300001900D929A95E1F7803E08F458C086E037
:101A4000FE0111928A95E9F7C091A307D091A407EE
:101A500046E050E0BE018DE997E00E94A6319E016C
:101A60002D593540892B41F1C90145E0969587955F
:101A70004A95E1F741E050E0BA0102C0660F771FD6
:101A80008A95E2F7CB0160919B0570919C05862BAE
:101A9000972BB9016B5F7F4FE5E076956795EA95E7
:101AA000E1F702C0440F551F6A95E2F7842B952B8E
:101AB00090939C0580939B052A5F3F4F40919A0528
:101AC000642F70E0C9010E94C930481B463010F4F1
:101AD000240F311D211572E0370710F030E020E0AF
:101AE00023563A4F3093A4072093A30777CFF6E00D
:101AF0008F9FB00111246C507A4F46E050E0CE0128
:101B00000E949D31A1CFCF93DF93EC01FE01849120
:101B1000811103C0DF91CF9108950E94D50C2196C9
:101B2000F5CF8091520590915105892B8093C80281
:101B30009091B4039923A1F0892B8093C8028091DE
:101B4000A9018823E1F180915F0587FF38C08EE10C
:101B5000EAECF2E090E08150A0F591110E948B0B2D
:101B600040E250E067E473E088EC92E00E94A63126
:101B7000892B21F180E2E8ECF2E0A7E4B3E00190E8
:101B80000D928A95E1F7E0915605F091570530974F
:101B9000A9F08091A901882359F080915F0587FF02
:101BA00007C08091C8028093C90286E08093C80272
:101BB0000280F381E02D88EC92E00995089586E09B
:101BC000C7CF2191222339F29F5FC5CFCF93DF93F7
:101BD000EC0181E0898B809152059F81892B809354
:101BE0005205809151059885892B809351050E945B
:101BF000910DEA81FB81309729F06C897D89CE01B6
:101C000006960995DF91CF910895EF92FF920F9379
:101C10001F93CF93DF93EC018A85811134C0EB8051
:101C2000FC8087E5F81A26E12E9DC0012F9D900DBE
:101C30001124DC01A358BE4F1496ED91FC91159729
:101C4000309731F054966D917C918D579E4F099548
:101C500086E18E9D80018F9D100D112403581E4F2B
:101C6000F80187810E94A20BF80180850E949B0BDE
:101C70000E94910D188219861B861E821D82109269
:101C8000500510924F05CDB7DEB7E6E00C94053154
:101C900090E080E00E943D0890E080E00E942708EC
:101CA000109251050E94910D089560939E047093C7
:101CB0009F048093A0049093A1040E94480E08956D
:101CC0000F931F9341E050E060E070E004C0440FC8
:101CD000551F661F771F8A95D2F7CB01BA01609511
:101CE00070958095909500919E0410919F0420918D
:101CF000A0043091A10460237123822393230E94C6
:101D0000550E1F910F910895909146038095892358
:101D100080934603282F277091F4282F082E000C5B
:101D2000330B9217130659F09091600592FF07C08C
:101D30008595859585950E94600E109246030895BD
:101D40000F931F9341E050E060E070E004C0440F47
:101D5000551F661F771F8A95D2F780919E04909138
:101D60009F04A091A004B091A1048A019B01082BBB
:101D7000192B2A2B3B2BC901B8010E94550E1F912C
:101D80000F91089581E00E94690C882349F082E058
:101D90000E94690C882321F083E00E94A00E089520
:101DA00083E00E94600E08956093A8037093A903D6
:101DB0008093AA039093AB030E94480E089510925B
:101DC00052058091A901EAECF2E0882361F080914C
:101DD0005F0587FF08C08EE1DF011D928A95E9F754
:101DE0000E94480E089586E0F7CFAAE2B0E0EBEF3C
:101DF000FEE00C94EC308BE895E02091F100FC01C2
:101E00002193CF01F5E083399F07B9F780918C05C5
:101E1000833009F470C0B8F4813009F447C08230CF
:101E200009F4B1C08091E80083FF7EC280918B05E8
:101E300090918C059A3008F077C2E92FF0E0E05FCE
:101E4000FD4C0C9475318A3009F48CC08B3009F448
:101E50006FC0893039F780918B05813219F78091F5
:101E60008F05909190050297E8F68091E800877FB2
:101E70008093E8008091E80082FF38C09091F300E1
:101E80008091F200029731F48091F100813011F0DD
:101E9000863021F48091F100809366058091E800FE
:101EA0008B778093E8000E949106BCCF80918B05D0
:101EB000813A09F0B7CF8091E800877F8093E800EE
:101EC00080918F0590919005892B61F460E287E6FF
:101ED00095E070E00E943D078091E8008B77809349
:101EE000E800A0CF60E090E080E0F3CF809189052A
:101EF0008111C0CF97CF80918B05813A09F092CFA5
:101F000080918F0590919005892B09F08BCF80915E
:101F1000E800877F8093E8008091E80080FFFCCF95
:101F20008091A9018093F1008091E8008E77B9CF6C
:101F300080918B05813209F075CF80918F0590914A
:101F40009005892B09F06ECF8091E800877F809300
:101F5000E8000E94910680918D058093A9010E945E
:101F6000DF0E60CF80918B05813209F05BCF8091CD
:101F7000E800877F8093E8000E94910680918E059B
:101F8000809365054FCF80918B05813A09F04ACF48
:101F90008091E800877F8093E8008091E80080FFCF
:101FA000FCCF80916505BECF803899F0823809F06A
:101FB000BBC180918F058F70873008F0B5C18093C9
:101FC000E9008091EB0085FB882780F91092E900F9
:101FD00006C080918705909188059111826090914B
:101FE000E800977F9093E8008093F1001092F10051
:101FF0008091E8008E7794C1882309F482C18230F1
:1020000009F092C180918D05811185C180918F0564
:102010008F702FEF280F263008F086C18093E900DB
:102020002091EB0020FF77C1933031F48091EB00D9
:1020300080628093EB006FC19091EB009061909370
:10204000EB0021E030E001C0220F8A95EAF72093EF
:10205000EA001092EA008091EB008860EACF8111DB
:1020600063C110918D051F778091E3008078812BEB
:102070008093E3008091E800877F8093E8000E94CE
:1020800091068091E80080FFFCCF8091E30080689A
:102090008093E30082E0111183E08093890544C1BD
:1020A0008058823008F040C180918D0590918E0556
:1020B0008C3D23E09207A1F583E08A838AE289833D
:1020C0004FB7F894DE01139620E03EE051E2E32F93
:1020D000F0E050935700E49120FF03C0E295EF70C9
:1020E0003F5FEF708E2F90E0EA30C0F0C7968D937F
:1020F0009D932F5F243159F74FBF8091E800877F70
:102100008093E8006AE270E0CE0101960E943D07EC
:102110008091E8008B778093E80006C1C096E7CFF6
:1021200040918F0550919005292F33272330310599
:1021300009F444C078F52130310509F46FC08BE310
:1021400090E0E3E8F5E02230310509F0EDC02091A0
:10215000E800277F2093E8002091910530919205B7
:102160008217930708F49C0140E02115310509F01E
:1021700064C0411162C08091E80082FDC9CF8091A6
:102180008905882329F2853019F28091E80083FFC0
:10219000F2CFBECF21323105A9F12232310509F04B
:1021A000C3C04115510509F443C04130510509F040
:1021B000BBC08DE690E0E6EDF4E0C9CF9927813011
:1021C0009105C1F0009759F0029709F0ADC0E0ED1C
:1021D000F5E0E4918E2F90E0E0EDF5E007C0E0EF50
:1021E000F5E0E4918E2F90E0E0EFF5E0009709F440
:1021F0009BC0ADCFEEEDF5E0E4918E2F90E0EEEDDB
:10220000F5E0F4CF4115510571F04130510509F069
:102210008BC089E090E0EEEAF5E099CF82E190E0B2
:10222000EEEBF5E094CF89E090E0E5E9F5E08FCFC3
:1022300080E490E0E3E4F5E08ACF8091890588238B
:1022400009F466CF853009F463CF8091E80083FDFF
:102250005FCF8091E80082FD8ECF8091E80080FF03
:1022600084CF9091F3008091F2002115310519F08F
:102270008830910550F041E0089709F040E08091E6
:10228000E8008E778093E80070CF44914093F1008E
:102290003196215031090196E8CF803809F044C0C9
:1022A0008091E800877F8093E80080918A05809381
:1022B000F1009ECE811138C010918D051230A0F52D
:1022C0008091E800877F8093E80010938A050E9440
:1022D0009106112311F084E005C08091E30087FD91
:1022E000FACF81E08093890542E061EC81E00E94B1
:1022F000B00642E261EC82E00E94B006809189055E
:1023000013C080918D05813079F481E0933009F01C
:1023100080E0809388051092E9008091E800877F33
:102320008093E8000E9491068091E80083FF0AC034
:102330008091E800877F8093E8008091EB008062C5
:102340008093EB00AA96E3E00C940831882321F0F7
:102350000E949B0B0E94910D0895882339F0909163
:102360005105982B909351050E94910D0895882353
:1023700021F00E94A20B0E94910D0895882339F04C
:1023800090915205982B909352050E94910D0895BB
:10239000882351F19CEF980F913A40F4682F88EC14
:1023A00092E00E94C8070E94910D089590E2980F54
:1023B000983050F4877091E001C0990F8A95EAF740
:1023C000892F0E94A20BEFCF9BE5980F933028F442
:1023D00090E080E00E943D080895885A873120F4FB
:1023E00090E080E00E9427080895CF93DF93EC01EE
:1023F0000E94C811CE010E94A40C9E01205E3109EA
:102400002830310510F0CD2B29F40E94B711DF914F
:10241000CF9108950E94A611FACFCF93C82F882399
:10242000D9F18CEF8C0F813AC8F58091A9018823EE
:1024300011F180915F0587FF1EC0EC2FE695E695B0
:10244000E695F0E0E853FD4F828190E04C2F477015
:1024500021E030E002C0220F331F4A95E2F78223C9
:102460009323892B91F06C2F88EC92E00E94C8078F
:102470000E94910D0AC0EAECF2E080ED92E0219119
:10248000C21789F38E179F07D1F76C2F88EC92E063
:102490000E94F2070E94910DCF91089580E28C0F67
:1024A000883068F4C77021E030E001C0220FCA957F
:1024B000EAF780915205822B80935205EBCFEBE532
:1024C000EC0FE33040F4F0E0E255FE4F808190E005
:1024D0000E943D08E1CFC85AC731F0F6EC2FF0E07A
:1024E000EE0FFF1FEF54FE4F808191810E9427085D
:1024F000D3CFCF93DF93EC010E94A40C9E01205E0A
:1025000031092830310510F0209741F40E94BE11A6
:102510008C2F0E940D12DF91CF9108950E94AD1172
:10252000F7CFFC018081813031F4FB018081918102
:102530000E94791208958230E9F7FB01828193812C
:10254000F7CFCF93DF93EC018881823039F4FB0120
:10255000828193810E94791281E08B87DF91CF91F4
:102560000895B0E0A0E0E7EBF2E10C94E7306C01F5
:102570007B0164E670E088E70E94242EEC0197FD61
:1025800012C010E000E0F601E00FF11F849164E654
:1025900070E00E94922EEC01892B29F40F5F1F4FEF
:1025A0000E151F0581F70E94092FCE01CDB7DEB7AA
:1025B000E8E00C94033180914D0590914E05911106
:1025C00003C091E089270895882369F062E070E0F4
:1025D00084ED94E00E94B112892B19F080914D0591
:1025E000089510924D0580914D05EBCFCF93C0918A
:1025F0004D0580914E058823D1F00E94BC07605D97
:102600007A488F4F9F4F6093490570934A05809396
:102610004B0590934C05C11108C062E070E082ED5B
:1026200094E00E94B112892B29F0C0914D058C2FA6
:10263000CF91089581E080934D05F7CF8093610598
:10264000709363056093620580918905843001F57C
:1026500082E08093E9008FEF9091E800815095FD32
:1026600006C095ED9A95F1F700008111F5CF8091A4
:10267000E80085FF0DC050E040E063E070E081E6D7
:1026800095E00E9467068091E8008E778093E800CD
:102690000895BC0184E00E941E130895BC0183E0EC
:1026A0000E941E130895CF93DF93EC018091A9013E
:1026B0008823B1F180915F0587FF32C060E282E03C
:1026C0008093E9008FEF9091E800815095FD06C05E
:1026D00095ED9A95F1F700008111F5CF8091E80012
:1026E00085FF1BC08091A90170E050E040E081119E
:1026F00004C050E040E068E070E0CE010E94670650
:102700008091E8008E778093E80080E2FE01A7E6E2
:10271000B5E001900D928A95E1F7DF91CF91089590
:1027200068E081E0CDCF81E08093E00080E280939B
:10273000D8001092C9008FE19EE40197F1F700C024
:10274000000087E090EBDC018093A5079093A6073B
:10275000A093A707B093A80788E19CE00FB6F89470
:10276000A895809360000FBE90936000FFCFFC019E
:102770008081813031F4FB01808191810E94F511CB
:1027800008958230E9F7FB0182819381F7CF539A54
:102790003BB1377F2BB128604FB7F89487EA94E0BC
:1027A000FC015191CF0168E02BB9000000C057FF38
:1027B0003BB9550F000000C000C000C03BB900C0CD
:1027C0006A9591F7F5E089349F0751F74FBF8FE580
:1027D00094E00197F1F700C000000895B0E0A0E098
:1027E000E4EFF3E10C94E5307C015B016A01809138
:1027F000C50301E010E08A3010F40AE010E0C1E007
:10280000D0E0B501C701F6010995811104C02196F8
:102810000C171D072CF4CDB7DEB7EAE00C9401319C
:10282000CC9F9001CD9F300D300D112490E080E0C1
:1028300045E34A95F1F70000019682179307C1F727
:10284000E0CF80917103811110C08091D800806128
:102850008093D8008AE18A95F1F700C08091D90071
:1028600080FF0AC081E08093710381E09091710341
:10287000913009F080E0089582E0809371030E9416
:10288000170610928905F1CF0E942114811103C00F
:10289000809153050895E0915605F09157053097C2
:1028A00029F00190F081E02D0995089580E00895C8
:1028B0000E94211491E089270895FF920F931F939E
:1028C000CF93DF93EC01F62E042F122F0E945814A1
:1028D00081110FC0CB31D1057CF06B97FE01EE0F5B
:1028E000FF1FEC0FFD1FE955FB4FF18200831283A0
:1028F00003C0CB31D10594F3CDB7DEB7E5E00C943E
:102900000631A3E0B0E0E7E8F4E10C94DD30982E66
:1029100080917C01891128C0909194059370209139
:102920007B0130E081E09217130609F480E08170AA
:1029300080937A018091990590917901981739F0E7
:102940008093790140E060E080E00E94D208EE24AC
:10295000E3949E14A9F0992049F062E0F62E9F14AA
:1029600009F476C080E043C081E0E1CF80917A0134
:102970008823E9F140E060E080E00E94D208F2CFD5
:10298000009178018BE0089F802D11248983182FF6
:10299000155F173308F016E30E945814882319F0C6
:1029A0001C3108F01BE10E945814811105C00981F7
:1029B0000B3110F40BE10983609195057091960538
:1029C000809197050E940309062FF72EE82E398182
:1029D000232F30E03B832A839A819117F8F00E94DD
:1029E0005814882389F181E01B3108F0BBCF909106
:1029F00078019F5F9093780181110CC082E08093F1
:102A0000AA0180917A01811105C0911003C083E071
:102A10008093AA012396E2E10C94F930EA81FB81CC
:102A2000E157FD4F808190917901892339F02E2D56
:102A3000402F6F2D8A819B810E945D148A819B812A
:102A400001969B838A83C8CF81E0163380F28ACFB8
:102A5000A09178018BE0A89F802D112489835BE0F1
:102A6000452E480EB6E3B41510F446E3442E0E94FA
:102A70005814882329F0EBE1E41510F43BE1432ED0
:102A80000E945814811105C009810B3110F41BE11B
:102A90001983809071043981232F30E03B832A838E
:102AA000C901880F991FDC01AD50BE4F6D01312C5B
:102AB000212C8A81841558F00E945814882309F427
:102AC000A3C081E09AE1941508F091CF4BCFEA8141
:102AD000FB81E157FD4F808190917901892319F1A4
:102AE00060919505709196058AE8682E84E0782EAD
:102AF00091E7A92E94E0B92E80E09A2DE1E7F4E069
:102B00009E1B9815D0F020919705082F029F012D4C
:102B10001124802F0E940309462F282F672F8A81B6
:102B20009B810E945D142A813B812F5F3F4F3B8335
:102B30002A8332E0C30ED11CBCCFF60140A9D501D7
:102B400011969C911197491B550B21A919969C919F
:102B5000291B330B449FD001459FB00DB00D1124AC
:102B6000229FF001239FF00DF00D1124EA0FFB1FAF
:102B7000E230F105D4F4E98390919805192F01E032
:102B8000100F08F41FEFD301ED91FD913D0171018C
:102B9000E19FE12CF19FE00CF11C112409810E94BE
:102BA000EB08BFEFAB1ABB0AA8CF9FEFE13EBEE137
:102BB000FB0744F4DF0105E0B695A7950A95E1F718
:102BC00098E09A0F55245394E52CE90EFF24FF1C3E
:102BD000D701B595A795A983AA9F7001AB9FF00C6B
:102BE000F00C1124EE15FF0538F49FEF9A0F9515A0
:102BF00058F75A945982C0CF09810F3F09F4BCCFCE
:102C0000552453945A0EF3CF81E0A5E3A41508F0A0
:102C1000EECEA8CECF93C82F882391F08091A60442
:102C200081110EC00E94811410927C018091940544
:102C3000837080937B010E94C71383E08093AA0175
:102C4000C093A604CF9108950F931F930E9421145F
:102C5000882329F00E94BC071F910F9108950E94BC
:102C6000BC070091C6031091C7032091C80330919F
:102C7000C903600F711F821F931FEECF1F93CF9365
:102C8000DF93182FD0E0C0E0893311F4C0E5D0E025
:102C9000812F0E940D12209739F4812F0E94C811B4
:102CA000DF91CF911F9108958FE99FE00197F1F790
:102CB00000C000002197EFCFB0E0A0E0E2E6F6E12F
:102CC0000C94E530EC018AE0A82EFE012491222329
:102CD00009F497C0213009F03EC0319684918130CB
:102CE00031F42296FE0184910E943E1607C0823084
:102CF00039F42296FE0184910E940D122196E5CFAF
:102D0000833031F42296FE0184910E94C811F6CFDF
:102D1000843009F074C02296FE01249190E080E096
:102D2000FE0131962053330B2A30310548F00197CC
:102D300028F3EFE9FFE03197F1F700C00000F7CF8B
:102D4000A89EA001A99E500D1124C901840F951FB2
:102D50002491EF01E5CFE22FF0E0E657FE4FB4906B
:102D6000822F86958695869590E0FC01E658FE4F69
:102D7000E4902770F12C022E02C0F594E7940A9497
:102D8000E2F731E0E322FF24FC01E659FE4FC49054
:102D9000D12C022E02C0D594C7940A94E2F7E1E048
:102DA000CE22DD24FC01E65AFE4F049110E002C061
:102DB000159507952A95E2F701701127E114F104A2
:102DC00019F081EE0E940D12C114D10419F086EEA3
:102DD0000E940D128B2D0E943E16C114D10419F0D1
:102DE00086EE0E94C811E114F10419F081EE0E94F0
:102DF000C8110115110509F481CF8CE275CFEF01DF
:102E00007DCFCDB7DEB7EAE00C9401310E94DF0E32
:102E10002FEF84E39CE0215080409040E1F700C018
:102E2000000088E19CE00FB6F894A89580936000BC
:102E30000FBE90936000FFCF4F925F926F927F9290
:102E40008F929F92AF92BF92CF92DF92EF92FF92BA
:102E5000CF9380909A0490909B04A0909C04B09093
:102E60009D040E942114882309F44CC0C501B401BB
:102E70000E94A0076B017C010E9424164B015C019B
:102E800080929A0490929B04A0929C04B0929D041C
:102E9000A0914804E8E4F4E08A2F90E04FEF5FEF60
:102EA00060E070E04C195D096E097F09A91333C019
:102EB000809348048091A604C0E0811108C08091ED
:102EC0009405C82FC37019F0C82FC695C695809178
:102ED000AA01813009F449C0882381F1823009F4C4
:102EE000B4C0833009F4BCC0CF91FF90EF90DF9065
:102EF000CF90BF90AF909F908F907F906F905F909A
:102F00004F9008950E9424166B017C01C818D908BF
:102F1000EA08FB08B1CF218D328D2901712C612C7B
:102F2000441555056605770520F481509F5F32965C
:102F3000BDCF2C0D3D1D328F218FF8CF109278011F
:102F40008092A2049092A304A092A404B092A5043B
:102F500089E2E8E4F4E0A1E7B4E001900D928A95FB
:102F6000E1F781E08093AA01BFCF8C2F0E948114EA
:102F7000CC2309F4B9CF40919E0450919F046091F5
:102F8000A0047091A104CB01AA27BB270097A1053B
:102F9000B10509F447C0AC01BD0180E1C52ED62EB4
:102FA000E72EFF24C114D104E104F10419F0885F75
:102FB000B701A6016A017B0134E0F694E794D79447
:102FC000C7943A95D1F7C114D104E104F10419F082
:102FD0008C5FB701A6016A017B0122E0F694E794B9
:102FE000D794C7942A95D1F7C114D104E104F10410
:102FF00019F08E5FB701A6017695679557954795AD
:10300000452B462B472B09F08F5F8130B9F0882381
:1030100059F08230B1F0833009F066CF49E06FE6B5
:103020008BE709C080E0BACF0E94441447E16FEDFE
:1030300081FF5ACF82E30E94D20856CF4FED62E55E
:10304000F9CF47E167E185EEF6CFC0937C0180912F
:103050009405837080937B010E94C71383E082CF25
:1030600080919305882351F046E050E06CE170E0D8
:1030700084E995E00E94DA3110929305C090A20491
:10308000D090A304E090A404F090A5040E94211421
:10309000882369F0C701B6010E94A007603171055D
:1030A0008105910508F420CF1092AA011DCF0E943E
:1030B00024166C197D098E099F09F0CFE4E9F5E02B
:1030C00085E080838091AB019091AC01A091AD012E
:1030D00081839283A3838FE784838FEF858346E088
:1030E00050E06CE170E0CF010E94DA31109293055C
:1030F0000895CF9384E090E00E94CC31C82F82E203
:1031000090E00E94CC31982F8C2FCF910895B0E0A1
:10311000A0E0EDE8F8E10C94E8307901C82F880FC1
:10312000DD0B41155105A9F0FE0193E0EE0FFF1FE5
:103130009A95E1F7E75FFE4F818192818E589C4F0F
:10314000208130E04217530708F49A01A9010E9438
:10315000B331CE010E945330D82E8823D1F001150F
:103160001105B9F083E0CC0FDD1F8A95E1F7FE0170
:10317000E75FFE4F438150E00417150708F4A801EC
:10318000C75FDE4F6C817D816E587C4FC7010E9406
:10319000B3318D2DCDB7DEB7E7E00C940431A3E059
:1031A000B0E0E5EDF8E10C94EB306091B50370917F
:1031B000B6038091B7039091B8030E94A00741E045
:1031C000643671058105910508F440E0309152059F
:1031D0003983643671058105910520F420918803B7
:1031E000231341E0909151059A83411106C041E0BB
:1031F00020918903291301C040E09091B4039B837F
:10320000411105C080918A0311E08917C9F010E0CF
:1032100000E030E020E043E050E0BE016F5F7F4F10
:1032200087E00E948718182F882351F00E94BC075E
:103230006093B5037093B6038093B7039093B8037C
:10324000812F2396E4E00C940731A4E0B0E0EBE298
:10325000F9E10C94EB306091A0037091A10380918F
:10326000A2039091A3030E94A00711E064367105A8
:103270008105910518F10E9424166E5F7F4F8F4FD4
:103280009F4F69837A838B839C8310E000E030E05A
:1032900020E044E050E0BE016F5F7F4F83E00E947A
:1032A0008718182F882351F00E94BC076093A00351
:1032B0007093A1038093A2039093A303812F24967C
:1032C000E4E00C940731A5E0B0E0E9E6F9E10C9404
:1032D000E9307B0101E010E09E012B5F3F4F50E0A1
:1032E00040E070E060E080E00E948718182F88239B
:1032F00009F445C0609198037091990380919A03F5
:1033000090919B030E94A007643671058105910589
:1033100038F483E793E00E94ED059D81891779F1E8
:1033200004E010E09E012F5F3F4F50E040E070E06E
:1033300060E081E00E948718082F83E793E00E94F5
:10334000ED0511E09D81981310E0102331F10E94EA
:10335000BC07609398037093990380939A039093AA
:103360009B0389819A81AB81BC8180939403909364
:103370009503A0939603B093970311E00EC080913C
:10338000730390917403A0917503B09176038983C0
:103390009A83AB83BC831111E4CF80919403909105
:1033A0009503A0919603B0919703F70180839183D1
:1033B000A283B383812F2596E6E00C940531B0E01B
:1033C000A0E0E5EEF9E10C94E530C82F7B01D42FA5
:1033D00069015801FB0160817181828193810E94A2
:1033E000A007643671058105910510F4DD23C9F04D
:1033F00010E000E030E020E0A501B6018C2F0E9433
:103400008718C82F882339F00E94BC07F701608312
:103410007183828393838C2FCDB7DEB7EAE00C945F
:103420000131C1E0F8CFA1E0B0E0E9E1FAE10C94AC
:10343000EB3080914D0589832091930390E041E02A
:103440002817190609F440E001E010E09E012F5F03
:103450003F4F61EC73E08AE00E94DF192196E4E0BF
:103460000C940731A1E0B0E0E8E3FAE10C94EB3012
:103470008091E703898341E090919203981301C002
:1034800040E001E010E09E012F5F3F4F6DEB73E0E5
:1034900089E00E94DF192196E4E00C9407310F9334
:1034A0001F9341E000917F031091800320918103DD
:1034B0003091820380919E0490919F04A091A0047A
:1034C000B091A104081719072A073B0709F440E047
:1034D00004E010E02EE934E06CEA73E084E00E943E
:1034E000DF19882301F141E00091830310918403E7
:1034F00020918503309186038091A8039091A903C0
:10350000A091AA03B091AB03081719072A073B073C
:1035100009F440E004E010E028EA33E064EA73E0F4
:1035200085E00E94DF191F910F910895CF92DF92DD
:10353000FF920F931F93CF93DF93F82E6B01EA0155
:10354000A801B901CE010E94A63141E0892B09F4FE
:1035500040E09E01B6018F2D0E94DF19DF91CF91CF
:103560001F910F91FF90DF90CF900895A7E0B0E0FA
:10357000ECEBFAE10C94EB3086E0E4E9F5E0DE01F7
:10358000119601900D928A95E1F78091A6048F83A0
:1035900007E010E02BE833E0AE014F5F5F4F69EBCF
:1035A00073E088E00E94961A2796E4E00C940731B5
:1035B000A1E0B0E0EEEDFAE10C94EB300E9444148F
:1035C000898301E010E027E833E0AE014F5F5F4FF1
:1035D00060EB73E086E00E94961A2196E4E00C947A
:1035E00007310F931F9304E010E027E733E0AC01AD
:1035F0006CE973E082E00E94961A1F910F91089582
:1036000068EE7EEF90E080E00E94083260E082E0A9
:1036100090E00E94EA3160E083E090E00E94EA31AD
:103620001092A8031092A9031092AA031092AB0360
:1036300060E084E090E00E94EA3164E082E290E0A1
:103640000E94EA3160E085E090E00E94EA3160E0AB
:1036500086E090E00E94EA316FEF87E090E00E9400
:10366000EA3140E050E0BA0188E090E00E94FC318D
:1036700060E08DE090E00E94EA3140E050E0BA0165
:1036800088E190E00E94FC3160E087E190E00E94D8
:10369000EA3140E050E0BA018CE190E00E94FC3158
:1036A00070E060E080E290E00E94083240E050E08C
:1036B000BA0188E190E00E94FC3140E050E0BA019C
:1036C0008FE090E00E94FC3140E050E0BA0183E1DD
:1036D00090E00E94FC310895CF93C0916005C2FB39
:1036E000992790F9981791F080FBC2F9C093600573
:1036F00060915F0584E090E00E94EA316C2F82E2E5
:1037000090E00E94EA3182E00E94840ECF910895F9
:10371000B0E0A0E0EEE8FBE10C94E3308CEA90E04E
:103720000E94830D8DE491E00E94830D83E00E944E
:10373000690C882309F4D6C081EF90E00E94830DC4
:103740008DE491E00E94830DC091B40380915205F5
:10375000C82BDC2FD878C474DD2309F4D6C084E2EA
:1037600091E00E94830D8DE191E0CC2309F4D5C056
:103770008FE191E00E94830D86E191E0C11102C0CA
:1037800083E191E00E94830DDD2309F4CCC080E148
:1037900091E00E94830D8BE091E00E94830DCC2389
:1037A00009F4D0C084E091E00E94830DC091B4037D
:1037B00080915205C82BDC2FD171C272DD2309F430
:1037C000C4C08AE491E00E94830D83E491E0CC239D
:1037D00009F4C3C085E491E00E94830D8CE391E07D
:1037E0000E94830DDD2309F4C4C086E391E00E94AA
:1037F000830D81E391E00E94830DCC2309F4C8C0BE
:103800008AE291E00E94830D8DE491E00E94830D95
:1038100083E591E00E94830DC090E7038091080149
:103820008C1105C08091EC02803209F44AC0C0922C
:10383000080180E28093EC02D12CF12CE12C109253
:10384000EB02C701B6012AE030E040E050E00E9400
:103850003431605D603331F0C114D104E104F1040E
:1038600009F460E26093EA0260E28AE0C816D104DB
:10387000E104F10490F08AE0882E912CA12CB12C67
:10388000C701B601A50194010E943431CA01B901F2
:10389000A50194010E943431605D6093E90220E249
:1038A000E4E6CE16D104E104F10448F0C701B60104
:1038B00024E630E040E050E00E943431205D209367
:1038C000E802C8EED2E009900020E9F7219708EE5F
:1038D00012E00C171D0708F462C0CDB7DEB7ECE0AC
:1038E0000C94FF3081E00E94690C882319F081EE6E
:1038F00090E024CF82E00E94690C882319F081EDCA
:1039000090E01CCF81EC90E019CF81E291E00E9421
:10391000830DC11105C089E191E00E94830D30CF74
:103920008BE191E027CF8DE091E00E94830DCC23C5
:1039300029F089E091E00E94830D34CF87E091E087
:103940000E94830D81E091E02FCF87E491E00E94F7
:10395000830DC1110BC08FE391E00E94830D0E9483
:10396000441481FD3BCF89E391E03ACF81E491E0BB
:1039700033CF83E391E00E94830DCC2329F08FE2C3
:1039800091E00E94830D3CCF8DE291E00E94830D77
:103990000E94441481FD34CF87E291E033CFF801D7
:1039A00081918F010E94D50C94CF1F920F920FB678
:1039B0000F9211242F933F934F935F936F937F93B5
:1039C0008F939F93AF93BF93CF93DF93EF93FF9327
:1039D000D091E900DF708091EC00C82FC17080FDAC
:1039E000C0E81092E9008091F000877F8093F0009A
:1039F00078940E94F50E1092E9008091F0008860A2
:103A00008093F000CD2BCF70C093E900FF91EF9130
:103A1000DF91CF91BF91AF919F918F917F916F91E6
:103A20005F914F913F912F910F900FBE0F901F907C
:103A300018951F920F920FB60F9211242F933F9358
:103A40004F935F936F937F938F939F93AF93BF93A6
:103A5000EF93FF938091E10082FF09C08091E20023
:103A600082FF05C08091E1008B7F8093E10080910F
:103A7000DA0080FF24C08091D80080FF20C08091B0
:103A8000DA008E7F8093DA008091D90080FF9DC09C
:103A900080E189BD82E189BD09B400FEFDCF81E0EE
:103AA0008093890580916405811109C00E941706E1
:103AB0000E94E2068091E20084608093E20080919F
:103AC000E10080FF17C08091E20080FF13C0809169
:103AD000E2008E7F8093E2008091E200806180931B
:103AE000E2008091D80080628093D80019BC85E004
:103AF000809389058091E10084FF2BC08091E200D2
:103B000084FF27C080E189BD82E189BD89B5982FF6
:103B1000917080FFFBCF8091D8008F7D8093D8007B
:103B20008091E1008F7E8093E1008091E2008F7EA2
:103B30008093E2008091E20081608093E2008091B6
:103B40008A05882309F447C084E080938905809121
:103B500089058091E10083FF27C08091E20083FF07
:103B600023C08091E100877F8093E10082E0809311
:103B7000890510928A058091E1008E7F8093E10093
:103B80008091E2008E7F8093E2008091E20080616C
:103B90008093E20042E060E080E00E94B006809105
:103BA000F00088608093F000FF91EF91BF91AF919A
:103BB0009F918F917F916F915F914F913F912F9145
:103BC0000F900FBE0F901F90189519BC1092890589
:103BD0001092640574CF8091E30087FD93E0909389
:103BE0008905B5CF78941F921FB61F9211248F9329
:103BF0009F93AF93BF9380915B0590915C05A091DB
:103C00005D05B0915E050196A11DB11D80935B0518
:103C100090935C05A0935D05B0935E05BF91AF9155
:103C20009F918F911F901FBE1F9018959C014FB7B9
:103C3000F89480915B0590915C05A0915D05B09131
:103C40005E054FBF821B930B08952FB7F8948091A8
:103C50005B0590915C05A0915D05B0915E052FBF5D
:103C60000895ACE0B0E0E7E3FEE10C94E2308E01B1
:103C70000F5F1F4F88E0D8011D928A95E9F781EE0A
:103C8000C82E81E0D82EF12CE12CAA24A394B12CCB
:103C90002BEE822E21E0922EF60181916F018F3F53
:103CA00009F442C0F894E82FE295EF70F0E021A10A
:103CB0008F70A50102C0440F551F8A95E2F7CA0113
:103CC000922F982B91A392A18095892382A3789417
:103CD00000C0E5EEF1E0712C31E021912F3F09F4B5
:103CE0006EC0A22FA295AF70B0E090968C9190E03C
:103CF0002F7002C0959587952A95E2F780FD5FC0E9
:103D0000832F782A330F8E169F0639F7F6013197E5
:103D100080818F3F11F00E94990950EA5A95F1F77E
:103D2000F801EE0DFF1D70828FEFE81AF80AA4E08B
:103D3000EA16F10409F0B0CF48E050E0B8018AEC8F
:103D400093E00E94A6317C01892B41F088E0F801C4
:103D5000AAECB3E001900D928A95E1F71091D3039C
:103D6000E114F10471F181E0809369030E94251E42
:103D70009093680380936703809167039091680331
:103D80000E94161E059790F0E12FF0E0EC52FC4FD8
:103D90008091CA0380838091CB0381838091CC037F
:103DA00082838091CD0383831092690381E090E048
:103DB000E114F10451F02C96EDE00C94FE3080E01B
:103DC000A0CF809169038111D7CF0E942114F82ED2
:103DD000E091D303882309F4BAC019861A861B869A
:103DE0001C860E2F10E00C521C4F8091C5038A30A8
:103DF00008F076C043E659E1BE01675F7F4FC80116
:103E00000E94EE13882309F47BC041EF5AE1BE0102
:103E1000675F7F4FC8010E94EE13882309F470C0CA
:103E200045E259E1BE01675F7F4FC8010E94EE1372
:103E3000882309F465C04FE45AE1BE01675F7F4FF4
:103E4000C8010E94EE13882309F45AC048ED5AE1D4
:103E5000BE01675F7F4FC8010E94EE13882309F4FB
:103E60004FC04FEC58E1BE01675F7F4FC8010E9411
:103E7000EE13882309F444C046EB5AE1BE01675FA4
:103E80007F4FC8010E94EE138823D1F142E35AE12B
:103E9000BE01675F7F4FC8010E94EE13882381F146
:103EA00043E15AE1BE01675F7F4FC8010E94EE13F4
:103EB000882331F11092C5038091D20390E044E051
:103EC00050E0BE01675F7F4F8C529C4F0E94A6312D
:103ED00021E020937003892B61F5F12C8F2D6BCF9E
:103EE00080916A0390916B030E94161E843F91405B
:103EF00008F080CF80917003811112C080E05BCF09
:103F00008091C5038F3F29F08F5F8093C5038A306E
:103F100098F20E94251E90936B0380936A03EACF68
:103F2000FE01399684E0DF011D928A95E9F710922F
:103F30007003E091D203F0E0EC52FC4F89859A8542
:103F4000AB85BC8580839183A283B383C7CF009167
:103F5000D20310E00C521C4FF0E0EC52FC4F84E016
:103F6000A3E7B3E001900D928A95E1F783E793E030
:103F70000E94ED058093720384E0E7E7F3E0D80147
:103F800001900D928A95E1F7C0907B03D0907C035D
:103F9000E0907D03F0907E0380916C0390916D031F
:103FA000A0916E03B0916F03C816D906EA06FB060E
:103FB000D1F0C0926C03D0926D03E0926E03F09248
:103FC0006F030E94211481110EC00E94BC07C61A03
:103FD000D70AE80AF90AC092C603D092C703E09252
:103FE000C803F092C90380917F0390918003A09150
:103FF0008103B091820380939E0490939F04A093C9
:10400000A004B093A1048091830390918403A091B4
:104010008503B09186038093A8039093A903A0938E
:10402000AA03B093AB0380918703809353058091DB
:104030008803809352058091890380935105809174
:104040008A030E94910B86E0EBE8F3E0A4E9B5E077
:1040500001900D928A95E1F7809191030E940A16D2
:10406000809192038093E70380919303882319F052
:104070000E94F61243CF0E94DB1240CFA5E0B0E0D1
:10408000E4E4F0E20C94DF306C01DC0113968D91D6
:104090009C911497892B39F08C9111969C918923CE
:1040A0008F3F09F0D0C52596E0E10C94FB300E94CB
:1040B000B30B182F682F89819A810E94310C698176
:1040C0007A81812F0E94F3098C01F601828181118E
:1040D000C5C0D60112968C91013BBDE51B0709F4C2
:1040E00053C108F0ABC00F3AFDE51F0709F429C121
:1040F000003B2DE5120709F441C1980137552F3FC8
:10410000310511F008F04BC040916E0150916F01E4
:104110004217530724F430936F0120936E0196E108
:10412000929F5001939FB00C1124D501A358BE4F0C
:104130007D0150968C935097F601928116968C9142
:104140001697992309F431C11A961C930E93199767
:104150008F5F16968C930E94251ED7011E969C9306
:104160008E931D978091B40317968C931797809127
:10417000510590915205892B18968C931897ED91C3
:10418000FC911197309739F054966D917C91C5014F
:104190008D579E4F09951093500500934F05D601FA
:1041A00012968C91882309F460C50430BDE51B0785
:1041B00008F009C10B3FECE51E0730F4C80182503E
:1041C0009C45449708F009C10E94791890936005B6
:1041D00080935F0501313CE5130709F4DBC108F06A
:1041E00055C109309CE5190709F4C6C108F01DC185
:1041F0000530BCE51B0709F4B3C108F005C1033065
:10420000FCE51F0709F4A2C108F0A6C180915F0573
:10421000816002303CE5130709F49BC160915F05A2
:104220001091600584E090E00E94EA31612F82E203
:1042300090E00E94EA310E94DF0E8AC0023B3DE519
:10424000130709F4ABC0033B9DE5190709F055CFEF
:10425000882309F47DC08AE092E0A4C0C80190568A
:104260008115A0E29A0748F0905E8115B0E19B07A6
:1042700020F0915C81159F4158F5C80199279C0158
:10428000245031092432310518F08B970E9780F4B1
:10429000E091EC03F0E0EE0FFF1FEF50FC4F808148
:1042A00091818F3F2FE7920719F0019691838083C8
:1042B00080916E0190916F01019609F40ACF8DE70C
:1042C000E82E81E0F82EB12CA12C9924939431C0D2
:1042D00090E080E00F3F110509F088F6C801CFCFCC
:1042E000D70116968C9116978823E9F019968D912F
:1042F0009C910817190739F480914F05909150054A
:104300000817190781F0F7019786148703878189B9
:10431000811103C0C7010E94E60DC70106960E94E5
:10432000050E10925105FFEFAF1ABF0A26E1E20E0B
:10433000F11C80916E0190916F018A159B0584F6A6
:10434000C8CE8823B9F081E00E94A00E0E94C20E60
:1043500080914603877009F4A6CEF60182818823F6
:1043600009F4A1CE8091600582FF9DCE82E00E947B
:10437000840E99CE81E00E94600EE8CF882311F070
:1043800082E0E2CF82E0F7CF882321F083E00E9431
:10439000A00EDECF83E00E94600EDACF8823C1F248
:1043A0008EE192E00E945C16D3CF882309F4F7CE09
:1043B000FD018189882309F4F2CEC5018D579E4FF6
:1043C0000E94050EECCE0236FDE51F0709F4FCCE77
:1043D000063A2DE5120709F4F7CE06318CE51807E9
:1043E00009F070C1809152058A7A91E009F490E059
:1043F0009093ED0269E2811165E388EC92E00E94FE
:10440000F2070E94910DA4CF07308CE5180709F43C
:10441000AFC080915F05806108309CE5190708F402
:1044200098C080915F05806494C080915F058B7F08
:104430000D30ACE51A0709F48CC0A0F480915F053B
:104440008E7F0B30ECE51E0709F483C080915F0579
:104450008C600C30FCE51F0708F47BC080915F0581
:104460008D7F77C080915F058F7E0F302CE512071E
:1044700009F46FC080915F05877F00313CE5130729
:1044800008F467C080915F058F7D63C00E3F8CE5A7
:10449000180709F47BC058F50531ACE51A0709F493
:1044A00083C098F480915F05837F0331ECE51E079C
:1044B00009F44FC008F472C00E94DF0E90915F05AE
:1044C000892F97FB87F9805844C00C3F2CE51207D1
:1044D00009F44AC008F056C00B3F8CE5180709F0F4
:1044E0009DCE8091600581608093600597CE0230FB
:1044F0009DE5190709F464C0C0F4809160058C7FC4
:104500000115BDE51B0781F38091600583600130D3
:10451000EDE51E0748F380916005982F9095917006
:104520008E7F892B90FB81F9DFCF0236FDE51F07D7
:1045300009F44CC0063A2DE5120709F44EC00330C9
:104540003DE5130709F06ACE60E03BC080915F054E
:10455000826080935F0562CE80915F058460F9CFB1
:1045600080915F058860F5CF809160058260BCCF47
:1045700080915F058062EDCF0E94DF0E80915F0524
:104580008068E7CF809160058E7FAECF8091600517
:104590008D7FAACF80915F058F7BDBCF0E94DF0EDE
:1045A00080915F058F77D5CF80915F0582FB99273A
:1045B00090F921E0922790FB82F990FB83F9C9CF13
:1045C00061E08EE090E00E94EA3128CE90915F0594
:1045D000892F8F7E94FF8061BCCF90915F05892FDA
:1045E0008E7F90FF8160B5CF8091ED0269E28111ED
:1045F00065E388EC92E00E94C80703CF4FE858E0DB
:104600006CE978E0083C9CE5190709F445C043EBE8
:1046100058E069EA78E0093CACE51A07E8F14CE9B2
:1046200058E06FE878E038C00E3CBCE51B0709F4A1
:1046300045C0A8F449E558E067E678E00C3CFCE5A5
:104640001F0751F142E858E065E778E00D3C2CE5A2
:10465000120710F147E658E069E578E01DC0073D14
:104660003CE5130708F474CE0E358DE5180709F400
:104670006FCE1DC38091940591E0892780939405A6
:104680001092AA018091930581608093930560CE7A
:104690004DEB58E067EC78E00E94530859CE47ECA8
:1046A00058E06DEB78E0F8CF49EA58E063EB78E04A
:1046B000F3CF45E758E062E878E0EECF81E00E9472
:1046C000D40546CE0B359DE5190771F158F4011557
:1046D000BCE51B0791F00F3D1C4509F0E8C20E94A4
:1046E000001B09C00D35FDE51F07A1F0F8F0083AE1
:1046F0001D4509F0DCC20E9406170E94DF0E8FEFF5
:1047000094E3ACE081509040A040E1F700C000008D
:104710000E9493138091600582FB882780F991E0C5
:1047200089270E946C1BC3C281E0FBCF80E0F9CFD8
:10473000C8010E94FC0BF82ECBC2202F2F70922EA6
:10474000802F807F19F0929430EF9322FF20B9F0F0
:10475000992069F080E2810F883010F0811009C043
:1047600080915205982A909252050E94910D812FB6
:1047700043C080915105982A90925105F6CF812F20
:104780000E94C8119920D1F180E2810F883010F089
:10479000811004C0892D0E94A20B03C0892D0E94A4
:1047A0009B0B0E94910D2AC0302F3F70932E802FBB
:1047B000807F803219F0929420EF9222882059F065
:1047C00081E0881609F478C0FF2009F482C0EE2049
:1047D00009F478C0CCCF8091600582FD50C0FF20E5
:1047E00009F446C0992039F080915205982A909298
:1047F00052050E94910D80E00E940D12EA2DE850B2
:10480000FF0B349710F40E944414812F902F0E94C4
:10481000810C811106C21092EF021092EE02BB20B1
:10482000B1F08091460380FD12C0D60112961C9211
:104830008595859585950E94A00EC6010E943E2013
:10484000809146038595859585950E94600E85E04B
:10485000F601DE01119601900D928A95E1F709812A
:104860001A81C8010E94FC0BB8010E94F3091BCCFD
:1048700080E00E94C811992009F4C0CF8BCFFF209F
:1048800071F08091B4038929E11003C00E94BE1128
:10489000B5CF91E0E912FACF0E94910BAFCFE110B2
:1048A00006C00E948B0B892D0E94B711A7CFA1E0F3
:1048B000EA1609F4A3CFF5CFFF2031F0B5E0BE151D
:1048C00008F49CCF892DE2CFE4E0EE1508F496CFF2
:1048D000EACFEE2041F3F9E38F1209C02FEF37EE54
:1048E00083E0215030408040E1F700C00000812F7C
:1048F0000E94C81183CF802F86958695837069F0BA
:10490000813009F07BCF812F902F9370F11002C07E
:1049100090E080E00E94270871CF812F902F937044
:10492000F11002C090E080E00E943D0867CF802F28
:10493000837009F067C0F11061CF212F2295269571
:104940002770220F220F412F4F7050E070E060E07F
:10495000022E04C0440F551F661F771F0A94D2F71A
:1049600080E090E0DC0114FF0FC08FE090E0A0E059
:10497000B0E004C0880F991FAA1FBB1F2A95D2F769
:1049800080959095A095B095202F2695269523701B
:10499000223029F1D8F44090A8035090A9036090E8
:1049A000AA037090AB03213069F0842B952BA62BC2
:1049B000B72BBC01CD0164217521862197210E946E
:1049C000D40E1CCF44295529662977293A014B0179
:1049D000682A792A8A2A9B2AC401B301F0CF842B42
:1049E000952BA62BB72B4090A8035090A90360905D
:1049F000AA037090AB03BC01CD0164257525862503
:104A00009725DDCF8695FF2011F0802F81708823B8
:104A100009F4F4CE212F229526952770220F220F1C
:104A2000412F4F7050E070E060E0022E04C0440F50
:104A3000551F661F771F0A94D2F780E090E0DC01D3
:104A400014FF0FC08FE090E0A0E0B0E004C0880F3A
:104A5000991FAA1FBB1F2A95D2F780959095A09504
:104A6000B095202F269526952370223029F1D8F471
:104A700040909E0450909F046090A0047090A10408
:104A8000213069F0842B952BA62BB72BBC01CD01CF
:104A900064217521862197210E94550EAFCE4429AD
:104AA0005529662977293A014B01682A792A8A2AE9
:104AB0009B2AC401B301F0CF842B952BA62BB72BD7
:104AC00040909E0450909F046090A0047090A104B8
:104AD000BC01CD016425752586259725DDCF202FC6
:104AE0002F70922EFF2029F0822F0E94A00E812F7E
:104AF000CDCE812F0E94B711892D0E94600E7ECEEF
:104B0000812F32EF831609F441C0381570F090EF11
:104B10008916D1F0A1EF8A1691F0FF2009F471C037
:104B2000E11025CE802F8F7135C0B3EF8B16A9F120
:104B3000E4EF8E12F2CF8091600582FD42C0802F9B
:104B40008F71FF20D1F226C0FF20D1F0F4E0FE15D6
:104B500008F454CE202F2F7161E070E080E090E0E7
:104B600004C0660F771F881F991F2A95D2F74090BF
:104B70009E0450909F046090A0047090A104AACF5E
:104B800095E0692E6E1408F439CEE4CF802F8F7132
:104B9000F110B3CF0E94A00E31CE60E070E0CB01E7
:104BA000FF2009F479CF202F2F7161E070E080E0C1
:104BB00090E004C0660F771F881F991F2A95D2F7CF
:104BC0006BCFFF2099F0202F2F71922E822F0E9401
:104BD000A00E8091600582FF07C038E0939EC0015F
:104BE0001124836080934603892DD4CF81E00E94F5
:104BF000840E81E08E1508F001CE82E00E94840EC2
:104C0000FDCDEE2059F0893309F071CE9FEFA7EE6C
:104C1000B3E09150A040B040E1F767CE802F8F7194
:104C20006CCFFF2019F0E110F6CDF9CDE110F3CDF6
:104C30008091EE029091EF02029709F0ECCD812F66
:104C40000E943E16E8CD85E0F601DE011196019046
:104C50000D928A95E1F7F601228189819A812111CD
:104C600026CA0E94FC0B182F2ACA0631FCE51F0732
:104C700009F4BACC8091520582720A3C9CE519076E
:104C800009F417CD08F0D0CC063CBCE51B0709F4AD
:104C90000BCD08F0B3CC043CFCE51F0709F4F8CCBD
:104CA00008F0FDCC033C3CE5130709F4E3CCD60146
:104CB00012968C9112970D911C91882309F438CD8E
:104CC000C8010E94B30BF82E682FC8010E94310C56
:104CD000B8018F2D0E94F3090E940E0A182F092F88
:104CE000882EF601F280E580E2945FE0E522809173
:104CF00046038770C1F0BF2CFF20B1F0892F807F61
:104D0000803421F080E2810F883068F08091600566
:104D100082FF09C082E00E94840E80914603877062
:104D2000BB24B3948111B12CA02EA2944FE0A422F5
:104D3000FBE0FA1508F462CDEA2DF0E0E65EFD4CEA
:104D40000C9475311F93CF93DF9380911303807F71
:104D500009F049C080911003882309F444C0809170
:104D60004503D091140360910E0370910F03A0913D
:104D70001103B0911203C62FC72316E0D81799F17B
:104D800090E0109711F0CF3F19F401968770F6CF9D
:104D9000189F9001199F300D1124F901EB5EFC4F13
:104DA00041814713F2CF40814613EFCF4281411139
:104DB000ECCF438154814A1B5B0B483C510528F7DB
:104DC000809113038F70806180931303F901E65E75
:104DD000FC4F80818F70806180838EE093E00E9421
:104DE0003E200E94A90BDF91CF911F910895A1E170
:104DF000B0E0EDEFF6E20C94E5308C0185E0F801CF
:104E0000DE011D9601900D928A95E1F7F801E2808E
:104E10008EE0A82E83E0B82E6091110370911203EA
:104E20006115710509F416C190910E0340910F03AD
:104E3000892F84238F3F09F40DC120813181C380E4
:104E4000D480F0901003F601E61BF70BFF2009F465
:104E5000E8C080911303582F507FE83CF10508F01B
:104E6000ABC051116BC0FE2C431314C0921312C07F
:104E7000E11010C08F70806180931303C5010E9400
:104E80003E2080911303F80185838F2D6196EAE01F
:104E90000C940131C114D10429F0822F83238F3F58
:104EA00009F0F3C080E0F82FF170DF2E80FF3CC0E6
:104EB000809145034091140356E0841315C02D875B
:104EC0003E878D859E850E94EF0B292F22952F709E
:104ED0002230F0F0243018F59F70F1F0F801958140
:104EE000907FD1F4D12C1EC090E0589FF001599FC3
:104EF000F00D1124EB5EFC4F6181361306C060811A
:104F0000261303C06281E6120FC001968770D5CFC9
:104F10009F7011F0882331F3805E883018F3C80148
:104F20000E943E20FD2CB1CFEE2009F4AECF80913F
:104F30001303816080931303F12CA7CF431312C096
:104F4000921310C0E1100EC0F8018583C8010E94C1
:104F50003E2086E0F801AEE0B3E001900D928A9524
:104F6000E1F793CFC8010E949C0C882309F1EE2041
:104F7000F9F080911303803270F020910E0330918C
:104F80000F0338872F831986DB86CA868C87CE016C
:104F900007960E943E2086E0F801AEE0B3E0019063
:104FA0000D928A95E1F70E94A226FF24F3946DCF1B
:104FB000C8010E943E20F9CF51110AC08EE093E053
:104FC0000E943E2086E0F50111928A95E9F7B4CF60
:104FD00043130FC092130DC0E1100BC0F80185837D
:104FE000C8010E943E2086E0F50111928A95E9F7FA
:104FF0004CCFC8010E949C0C8823D1F2EE20C1F254
:1050000080911303803238F220910E0330910F0308
:105010003A8329831B82DD82CC828E83CE01019666
:10502000B8CFE83CF105F8F6FE2CEE2009F2431368
:1050300003C0921709F48DCFC8010E949C0C811106
:10504000AACF80911303816080931303C8010E944B
:105050003E201BCFEE2009F4ABCFC8010E949C0C70
:10506000F82E882309F4A4CF86E0F801AEE0B3E07F
:1050700001900D928A95E1F780910E0390910F03B4
:105080000E94EF0B0E94A22600CF81E08E250BCF5D
:10509000A7E1B0E0EEE4F8E20C94EC304B8B5C8BD3
:1050A0006D8B7E8B8F8B8E899F89892B29F0CA010E
:1050B00089238F3F09F07BC08D89811110925105A2
:1050C0001A8A198A85E0FE017396DE011D96019009
:1050D0000D928A95E1F786E0FE013D96DE01179676
:1050E00001900D928A95E1F7CE0107960E94F7266E
:1050F000882359F016E08091450390911403891399
:1051000043C06796E3E00C94083186E0FE013796D1
:10511000DE01119601900D928A95E1F78A859B85B3
:10512000892B41F38F81988589238F3F19F3209133
:10513000140330E0C9010196877099274091450317
:105140004817190671F40E94DF0E10921403109292
:10515000450386E0EEE0F3E0DF011D928A95E9F772
:10516000C9CF96E0929FD001939FB00D1124AB5E02
:10517000BC4FFE01319601900D929A95E1F7809314
:1051800014030E94A90BB6CF819FC00111248B5E2E
:105190009C4F0E94F726882309F4B3CF80914503E2
:1051A00090E001968770992780934503A4CF809162
:1051B000EE029091EF0201969093EF028093EE023F
:1051C0007BCF1F921FB61F9211248F939F93AF9393
:1051D000BF9380915A05811113C080915B05909116
:1051E0005C05A0915D05B0915E054196A11DB11DC4
:1051F00080935B0590935C05A0935D05B0935E057D
:10520000BF91AF919F918F911F901FBE1F901895D6
:10521000CDB7DEB760970FB6F894DEBF0FBECDBF37
:1052200085B7806885BF85B7806885BF84B7877F6D
:1052300084BF0FB6F894A895809160008861809330
:105240006000109260000FBE80E890E00FB6F89406
:1052500080936100909361000FBE87E999E090937D
:10526000C7028093C6020E9417060E94E206809140
:10527000E20084608093E20078948091890588231D
:10528000A1F01091E9001F709091EC00892F8170BE
:1052900090FD80E8182B1092E9008091E80083FDD2
:1052A0000E94F50E1F701093E90082E084BD93E028
:1052B00095BD9AEF97BD80936E001092C603109231
:1052C000C7031092C8031092C9030E945814809318
:1052D00061010E94211481110E94672F8091610158
:1052E0008091610194E0811190E09093D30384E078
:1052F000891B8093D20384E90E94990986E60E9463
:10530000990987E90E94990986EC0E94990905EE9E
:1053100011E0D8018D918D018F3F11F00E94990904
:10532000B1E00B3E1B07A9F788E0E4EDF3E0DF01F5
:10533000282F1D922A95E9F7EAECF3E0DF011D9290
:105340008A95E9F790E080E00E94D431883E9E4F34
:1053500011F00E94001B82E090E00E94CC3180930B
:10536000DC030E9479189093600580935F050E948A
:10537000311EEFE3FCE93197F1F700C000000E9415
:10538000311E0E945814E4E08111E0E0F0E0EC529C
:10539000FC4F808181FF08C06FEF7FEF90E080E0DD
:1053A0000E9408320E94931383E090E00E94CC3167
:1053B000682F70E090E080E00E94D40E109271049B
:1053C0008FEF9FEF90938B0480938A0490938D04CA
:1053D00080938C0490938F0480938E049093910417
:1053E00080939004909393048093920490939504F7
:1053F00080939404909397048093960490939904D7
:1054000080939804109248049093620480936104FE
:10541000909364048093630490936604809365047E
:10542000909368048093670490936A04809369045E
:1054300090936C0480936B0490936E0480936D043E
:105440009093700480936F0490E080E00E94D431C8
:10545000883E9E4F21F00E94001B0E945E1846E08D
:1054600050E06CE170E084E995E00E94BC3110925C
:105470009305809194058C7F11F40E945E1883E05F
:105480008093430480E280939A050E941E2E6DE073
:1054900070E085EC93E00E94B112892BE9F58091D0
:1054A000430463E070E081FDE1C082EC93E00E9480
:1054B000B112892B89F56DE070E082EB93E00E94D8
:1054C000B112892B49F50E94BC07605D7A488F4F65
:1054D0009F4F6093490570934A0580934B059093C5
:1054E0004C05EDE9F5E080E092E0DF019C011D92C2
:1054F00021503040E1F7F093A407E093A3078FEF2A
:105500009FEF90939C0580939B0581E080934E05CF
:1055100080934D05109244040E942114811102C011
:105520000E946A2F82E691E090935705809356057A
:1055300024E6822E912CA12CB12C8091890500E1CA
:1055400012E1853009F4DAC00E94311E8C87811186
:105550000E94BC07E4EDF3E0ADEDB3E010E000E045
:10556000502E71908D91871509F4F6C18725F12C85
:10557000EE24E394982F9E2109F4E9C10E9421149E
:105580007E20882399F0F9825A8281E0711001C04F
:1055900080E08B830E94251E8160782F9D838C8301
:1055A00049815A816B818D810E944828F801E3521C
:1055B000FC4F8081E826E082772089F086E0809F9A
:1055C000F001819FF00D1124ED50FE4FEF0DF11D04
:1055D0008081712C8F3F19F08B8777247394072D6E
:1055E00010E080914804800F912F911D09976CF174
:1055F00088E090E07C01E01AF10AB801675B7B4F1C
:10560000A70189E494E00E94B331B8016F5A7B4F3F
:10561000A70181E594E00E94B331A701440F551F13
:10562000B801660F771F6F597B4F81E694E00E94A7
:10563000B331B801675A7B4FA70189E594E00E9416
:10564000B33188E08719809348048091480490E042
:10565000EB85AE2FB0E09D01220F331F2D5D3D4F36
:10566000AA0FBB1FBD016C5D7D4F70C08FEB93E037
:105670001ECF80918905843009F431C081E00E94F9
:105680000A1681E00E940A160E941C1781E00E94FF
:105690000A160E94DB1210925A0588E190E0A0E4FD
:1056A0000FB6F894A895809360000FBEA093600099
:1056B00083B7817F846083BF83B7816083BF789421
:1056C000889583B78E7F83BF0FB6F894A895809195
:1056D0006000886180936000109260000FBE80912E
:1056E0008805882359F00E94311EE4EDF3E0819192
:1056F00081118EC2B3E0EC3DFB07C9F780918905AB
:10570000853009F4B6CF0E94DF0E0E94441480E079
:105710000E940A1680E00E940A1680E00E940A1683
:1057200013CF90E0FC01E85BFB4FD9015C91518302
:10573000DB015C915187BB85B18B880F991FFC0100
:10574000E85BFB4F128E118E91E0842F41E0480FF1
:10575000971538F3809348040E942114882309F494
:10576000B8C080916E0190916F01712C76E1572E37
:10577000019609F03EC14090F1035090F203052CD0
:10578000000C6608770810917001212F30E0E1EFDE
:10579000F3E081E090E03296281739070CF033C12E
:1057A0006091ED037091EE038091EF039091F0030F
:1057B0000E94A0076B017C01F9ECCF16D104E10433
:1057C000F10414F18091EC0390E0019669E170E03E
:1057D0000E9420318093EC03880F991FFC01EF5049
:1057E000FC4F11821082812F183108F087E18F5F02
:1057F000809370010E94BC076093ED037093EE03E9
:105800008093EF039093F00322E042165104610469
:1058100071040CF404C1A0E6BAEEA30192010E9447
:105820007B312B013C0158EC159F90011124032E74
:10583000000C440B550B2C0D3D1D4E1D5F1DA5E0AE
:10584000B0E00E947B319B01AC01C301B2010E9418
:10585000343129013A0181EF481651046104710481
:105860002CF050EF452E512C612C712C6091E803E7
:105870007091E9038091EA039091EB030E94A007E5
:105880006B017C0195E6C916D104E104F10484F0B2
:105890000E94BC076093E8037093E9038093EA03D6
:1058A0009093EB038091E7038093E6034092E50336
:1058B0001091E603A091E503A11BBB0BA701960184
:1058C0000E948631A50194010E945631120F109357
:1058D000E7030E941C1780914E05882351F18091A7
:1058E0004504909146040E94161EC29708F09BC082
:1058F00020919B0530919C052115310509F0B5C01B
:1059000080914D058823A9F00E94BC0700914905AC
:1059100010914A0520914B0530914C05601B710B8D
:10592000820B930B6F3F7F4F8F4F9F4710F40E9466
:10593000DB125C8551110E94F6120E944414909172
:105940004704891709F4F9CD80934704F6CDF39401
:10595000EE0C26E0F2120ECE0F5F1F4F083011053D
:1059600009F0FECD8FEF8E838F8318860E94251E4F
:105970008160782F9A8789874E815F8168858A85C3
:105980000E944828E9CE589EF001599EF00D11243E
:10599000E358FE4FE288F388E114F10419F4E8ECCF
:1059A000EE2EF12C589E8001599E100D11240358A3
:1059B0001E4FD80116968C9116978823C9F01D9614
:1059C0008D919C910E94161EE816F90688F4759C2C
:1059D00070011124F8018189811105C0C701835824
:1059E0009E4F0E94E60DC7018D579E4F0E94050EE7
:1059F0007394872D90E020916E0130916F012817EC
:105A000039070CF6B8CE40815181052E000C660B8B
:105A1000770B440E551E661E771E0196BCCE412C98
:105A2000512C320123CF0E94251E9093460480936F
:105A300045048DE995E09093A4078093A3070E9405
:105A4000BC070E94A0076136734E8641910540F065
:105A50000E94DB1280914E05882309F451CF48CF74
:105A60000E94F6120E94881BF5CF8091440461E0E9
:105A700070E0811145CF482E512C3B01082E02C009
:105A8000660C771C0A94E2F7A90146215721452BA1
:105A900009F447C09091430490FD45C08295880F5A
:105AA00080768093730192013695279536952795D8
:105AB00020937601815E809374011092770124E631
:105AC00030E047E050E061E771E088E70E94C12ED6
:105AD000892B09F015CF95E0440C551C9A95E1F7F8
