:100000000C94B0050C94E8050C94E8050C949A3116
:100010000C94E8050C94E8050C94E8050C94E805AC
:100020000C94E8050C94E8050C94C21D0C947E1DFC
:100030000C947F290C94E8050C94E8050C94E805D1
:100040000C94E8050C94E8050C94E8050C94E8057C
:100050000C94E8050C949B1E0C94E8050C94E805A0
:100060000C94E8050C94E8050C94E8050C94E8055C
:100070000C94E8050C94E8050C94E8050C94E8054C
:100080000C94E8050C94E8050C94E8050C94E8053C
:100090000C94E8050C94E8050C94E8050C94E8052C
:1000A0000C94E8050C94E8050C94E8052020202029
:1000B0002000202020206162636465666768696AA9
:1000C0006B6C6D6E6F707172737475767778797A08
:1000D00031323334353637383930524542545F2D5A
:1000E0003D5B5D5C233B27602C2E2F202020342E8F
:1000F0003932312E3839382D3100303932333430FD
:10010000343839002B0014001A00080015001700BD
:10011000E00004001600070009000A0000571D0057
:100120001B00060019000500000000000000E300AD
:10013000417E2C002A00130012000C0018001C0045
:10014000340033000F000E000D000B0029003800B2
:1001500037003600100011000000000000000157B9
:10016000427E28002B001E001F00200021002200DC
:10017000E0003A003B003C003D003E0000573F00DD
:100180004000410042004300000000000000E30086
:1001900001002C002A00270026002500240023004F
:1001A000000052004F005200510050004F0051001B
:1001B000500000004500440000000000000001570E
:1001C000437E28002B001E021F0220022102220271
:1001D000E0000000000000000000447E0057000026
:1001E000000000000000457E000000000000E30069
:1001F000437E2C002A002702260225022402230225
:100200003500310030002F002E002D003502310264
:1002100030022F022E022D020000000000000157C4
:1002200001002800007C0000000000000000A60083
:1002300020782378257827780000AE00217824786C
:100240002678287800004600000000000000E30047
:1002500001002C00A900AA0000000000000000001E
:10026000BD00BE000000000000000000AB00AC00BC
:100270000000000000000000000000000000015726
:100280000100280000DA0281FFD9F1DB20A4A62EAC
:10029000AF00A0C0D30000A1C8D30000AED580A895
:1002A0001F408D142000209495962020B4B5B620D0
:1002B00020D4D5D62000209798992020B7B8B9200F
:1002C00020D7D8D92000209A9B9C2020BABBBC20E4
:1002D00020DADBDC2000209D9E9F2020BDBEBF20B9
:1002E00020DDDEDF2000A7A800AFB000C600CA00F6
:1002F000C800A5A600ADAE008788008F9000C5009D
:10030000C900C700CB008586008D8E00ABAC00CF46
:10031000D000C600CA00C800A9AA00B1B2008B8CE8
:1003200000CDCE00C500C900C700CB00898A00916E
:1003300092002057504D20200004010203048081C8
:10034000828384A0A1A2A3A4C0C1C2C3C40000012F
:100350000101010101010101020202020202020285
:100360000203030303030303030404040404040457
:10037000050505050506060606060707070707081B
:10038000080808090909090A0A0A0B0B0B0C0C0CCE
:100390000D0D0D0E0E0E0F0F0F1010111111121268
:1003A00013131414151516161717181819191A1AE5
:1003B0001B1B1C1D1D1E1E1F202021222223242446
:1003C000252626272829292A2B2C2D2D2E2F303182
:1003D0003232333435363738393A3B3C3D3E3F4094
:1003E0004142434445464748494A4C4D4E4F50517F
:1003F0005354555658595A5B5D5E5F616264656639
:1004000068696B6C6D6F7072737577787A7B7D7EBF
:100410008082838587888A8C8E8F91939596989A0F
:100420009C9EA0A2A3A5A7A9ABADAFB1B3B5B7BA27
:10043000BCBEC0C2C4C6C9CBCDCFD1D4D6D8DBDDFB
:10044000DFE2E4E7E9EBEEF0F3F5F8FAFDFF00AFE9
:1004500000AE05010980A101850319012AB7001525
:100460000126B700950175108100C0050C0901A196
:1004700001850419012AA002150126A00295017523
:10048000108100C005010906A1018506050719E0D4
:1004900029E7150025019508750181020507190056
:1004A00029EF1500250195F0750181020508190154
:1004B0002905950575019102950175039101C00506
:1004C000010906A101050719E029E7150025019595
:1004D0000875018102950175088101050719002938
:1004E000FF150026FF009506750881000508190113
:1004F0002905950575019102950175039101C009C2
:10050000023B00020100A0FA0904000001030101FE
:1005100000092111010001224000070581030800A4
:10052000010904010001030000000921110100017B
:10053000226D000705820320000112010002000065
:100540000008534601000100010200010C034300B2
:100550006F0072006E0065000000100366006F00FF
:100560006F007300740061006E0000000403090452
:10057000000000000000000000000000000000007B
:10058000000000000000000000000000000000006B
:10059000000000007E0F00D4FFFFFFC700000078BE
:1005A00000000000000000002A2B280000000000CE
:1005B0000000000000000000000000290000000012
:1005C0002C1E3420212224342627252E362D373880
:1005D000271E1F202122232425263333362E373889
:1005E0001F0405060708090A0B0C0D0E0F10111247
:1005F000131415161718191A1B1C1D2F3130232D13
:10060000350405060708090A0B0C0D0E0F10111210
:10061000131415161718191A1B1C1D2F3130354CC1
:10062000000000000080C0E0E0F0F0F0F0F0F0F03A
:10063000F0F0F0F0E0E0C0800000000000001C5787
:100640007D571C001C5E7F5E1C0000183C180000DB
:10065000FFE7C3E7FF00001824180000FFE7DBE70F
:10066000FF0030483A060E00262979292600407FEF
:1006700005050700407F05253F005A3CE73C5A002E
:100680007F3E1C1C0800081C1C3E7F0014227F2299
:1006900014005F5F005F5F0006097F017F00006656
:1006A00089956A0060606060600094A2FFA2940077
:1006B00008047E04080010207E20100008082A1C70
:1006C0000800081C2A0808001E10101010000C1E3C
:1006D0000C1E0C0030383E383000060E3E0E060070
:1006E00000000000000000005F000000000700079D
:1006F0000000147F147F1400242A7F2A1200231381
:1007000008646200364956205000000807030000C4
:10071000001C224100000041221C00002A1C7F1CFA
:100720002A0008083E080800008070300000080811
:1007300008080800000060600000201008040200A3
:100740003E5149453E0000427F4000007249494900
:1007500046002141494D33001814127F10002745EF
:10076000454539003C4A49493100412111090700FA
:10077000364949493600464949291E0000001400FF
:10078000000000403400000000081422410014144E
:100790001414140000412214080002015909060033
:1007A0003E415D594E007C1211127C007F4949493F
:1007B00036003E41414122007F4141413E007F4998
:1007C000494941007F09090901003E414151730037
:1007D0007F0808087F0000417F4100002040413F22
:1007E00001007F08142241007F40404040007F020A
:1007F0001C027F007F0408107F003E4141413E0003
:100800007F09090906003E4151215E007F0919292F
:10081000460026494949320003017F0103003F4059
:1008200040403F001F2040201F003F4038403F0015
:100830006314081463000304780403006159494DEC
:100840004300007F414141000204081020000041A4
:1008500041417F000402010204004040404040004A
:100860000003070800002054547840007F284444C7
:100870003800384444442800384444285F00385441
:100880005454180000087E0902001824241C780023
:100890007F080404780000447D4000002040403D73
:1008A00000007F102844000000417F4000007C04CD
:1008B000780478007C080404780038444444380004
:1008C0007C1824241800182424187C007C080404B4
:1008D000080048545454240004043F4424003C407D
:1008E00040207C001C2040201C003C4030403C004C
:1008F0004428102844004C9090907C004464544C50
:10090000440000083641000000007700000000416C
:10091000360800000201020402003C2623263C00A7
:1009200080E0F8FEFF7F230303070F070707070791
:10093000070F070303237FFFFFFEF8E0800000F8A6
:10094000042252E2424242E2522222224282020225
:1009500022220204F80000F80402028242224282AB
:10096000020202824222122242820204F80000F8AD
:10097000FCDEAE1EBEBEBE1EAEDEDEDEBE7EFEFEF9
:10098000DEDEFEFCF80000F8FCFEFE7EBEDEBE7E73
:10099000FEFE00000000000080804040202010107B
:1009A000080810102020404080808080C0C0E0E017
:1009B000F0F0F8F8F0F0E0E0C0C0808080804040C7
:1009C00020201010080810102020404080808080D7
:1009D00040C060A050B058A850B060A040C0808017
:1009E0003FFFFFFFFFE0C0800000000000000000AC
:1009F0000000000080C0E0FFFFFFFFFF3F00001F7E
:100A000020444A47424242474A44404040404142D3
:100A1000444440201F00001F2040414040404040CF
:100A2000414041414F4848484F4141201F00001F6D
:100A30003F7B75787D7D7D78757B7F7F7F7F7E7D39
:100A40007B7B7F3F1F00001F3F7F7E7F7F7F7F7FFD
:100A50007E7F00000000000088885D5D3E3E7C7C5B
:100A6000F8F87C7C3E3E5D5D888888885555232358
:100A700047478F8F47472323555588888888D5D582
:100A8000E2E2C4C48888C4C4E2E2D5D588888888F4
:100A90005DD56BB66DD6ADDA6DD66BB65DD5888893
:100AA000000003070E1C397377F7F3010000000004
:100AB0000103FFFF7F7F3F1F0F070300000004F8C3
:100AC0000000F804201F00001F20FCF80000F804BC
:100AD0003F1F00001F2004F80000F8FC201F00004A
:100AE0001F3FFCF80000F8FC3F1F00001F3FFE7E88
:100AF000BEDEEEDEBE7EFEFCF8007E7E707777778F
:100B0000707E7E3F1F00000000000000000000001B
:100B100000000000000000000000010102020404C7
:100B200008080404020201010000000001010202A1
:100B3000040408080404020201010000000001018D
:100B4000030307070F0F070703030101000000005D
:100B50000101030205060D0A05060302010100005A
:100B600011241FBECFEFDAE0DEBFCDBF04B603FE17
:100B700018C08091690890916A08A0916B08B091A3
:100B80006C088730904BA740B04B59F4109269081D
:100B900010926A0810926B0810926C08E0E0F8E37B
:100BA000099512E0A0E0B1E0ECE0F9E602C00590A2
:100BB0000D92A83CB107D9F728E0A8ECB2E001C03B
:100BC0001D92A936B207E1F70E94A6290C9437348A
:100BD0000C9400008F929F92AF92BF92CF92DF92BF
:100BE000EF92FF929091A201981305C090915D063B
:100BF000903209F44BC08093A20190E290935D067D
:100C0000C82ED12CF12CE12C10925C06C701B60144
:100C10002AE030E040E050E00E942133605D603324
:100C200031F0C114D104E104F10409F460E26093ED
:100C30005B0660E28AE0C816D104E104F10490F09A
:100C40008AE0882E912CA12CB12CC701B601A501F8
:100C500094010E942133CA01B901A50194010E94A7
:100C60002133605D60935A0620E284E6C816D10401
:100C7000E104F10448F0C701B60124E630E040E0A9
:100C800050E00E942133205D2093590689E596E0CB
:100C9000FF90EF90DF90CF90BF90AF909F908F909C
:100CA000089590915106937061F081110BC094608A
:100CB000909351061092A10180915006816080931B
:100CC00050060895833010F09860F2CF880F880F97
:100CD000982BEECF482F20914F069091160657E0A3
:100CE000291302C080E0089530E0529FF001539F25
:100CF000F00D1124E95EF94F8181681306C08081EF
:100D0000481303C085818111EECF2F5F3F4F2770BD
:100D1000E7CFFC01AC014C5F5F4F8FEF91E3219176
:100D2000822728E030E087FF09C0880F89272150FB
:100D30003109C9F7E417F50791F70895880FF7CF40
:100D400090915106937071F0809352066093530610
:100D5000473908F046E94093540680915006816077
:100D6000809350060895E8EDF0E080818E7F8083C7
:100D70001092E2001092DA001092E100A0EEB0E0D2
:100D80008C9181608C9380818F77808319BCA7EDD3
:100D9000B0E08C918E7F8C9380818F7E80831092C7
:100DA000E70508952091E4003091E50095E6A9015A
:100DB0002091EC00822F817020FF06C08091E80016
:100DC00080FF06C080E008952091E80022FD1AC04F
:100DD00080910C06882389F0853089F08091EB00A2
:100DE00085FD0FC02091E4003091E50042175307C4
:100DF000F9F29150E1F684E0089582E0089583E0ED
:100E0000089581E0089580910E0687FF13C08091B8
:100E1000E80082FF06C08091E8008B778093E800AD
:100E200004C080910C068111F2CF089580910C06C8
:100E30008823D9F38091E80080FFF8CF8091E80003
:100E40008E77ECCF982F9093E900242F762F50E0E7
:100E5000891731F07091EC002091ED005091F00075
:100E600021FD07C09F5F973071F78093E90081E013
:100E700008953091EB003E7F3093EB003091ED0010
:100E80003D7F3093ED003091EB0031603093EB000B
:100E90007093EC002093ED005093F0002091EE0051
:100EA00027FDE0CF80E00895B0E0A0E0EAE5F7E0BC
:100EB0000C94D432C8EDD0E088818F7E8883E7ED32
:100EC000F0E080818160808384E082BF81E0809354
:100ED000E70588818E7F888302EE10E0F80110829A
:100EE0001092DA0081EEC82ED12CF6011082888192
:100EF0008F77888388818068888388818F7D8883C5
:100F000019BC10920C0610920D0610920B0610924E
:100F10000A0690EEE92EF12CF70180818B7F808309
:100F200088818160888342E060E080E00E9422073F
:100F3000F60180818E7F8083F801808181608083CB
:100F4000808188608083F70180818E7F80838881A3
:100F500080618883CDB7DEB7E8E00C94F032FC0105
:100F6000809114069091150686179707A0F06115D9
:100F7000710529F49091E8009E779093E80090E045
:100F80006115710551F4911108C08091E80082FF4C
:100F900034C080E00895BC01F2CF80910C06882314
:100FA000C1F18530C1F18091E80083FD30C08091AE
:100FB000E80082FDEACF8091E80080FFE1CF8091D8
:100FC000F3002091F200382F6115710519F02830D7
:100FD000310558F091E02830310509F090E020917A
:100FE000E8002E772093E800CBCF81918093F10029
:100FF000615071092F5F3F4FE7CF80910C06882326
:1010000041F0853041F08091E80083FFBECF81E060
:10101000089582E0089583E0089508958091E90598
:101020000895CF92DF92EF92FF922FB7F894C0907D
:10103000E105D090E205E090E305F090E4052FBFD4
:10104000A7019601261B370B480B590BCA01B901A2
:10105000FF90EF90DF90CF9008952FB7F8946091B4
:10106000E1057091E2058091E3059091E4052FBFC1
:1010700008952091A0012223C9F02091E50527FFC2
:1010800015C0E62FE695E695E695EE31D8F4E80F23
:10109000F92FF11D677021E030E001C0220F6A9541
:1010A000EAF720958281282322830895FC01329655
:1010B00008962191621303C0DF0111971C92E81773
:1010C000F907B9F708952091A0012223C1F02091DA
:1010D000E50527FF14C0E62FE695E695E695EE3187
:1010E000F8F4E80FF92FF11D677021E030E001C03E
:1010F000220F6A95EAF78281822B82830895FC0190
:1011000032962FEF30E04191641751F02F3F19F4E0
:10111000411101C0232F3F5F3630A9F72F3F09F45B
:101120000895820F911D27FD9A95FC016283089511
:10113000A3E0B0E0EEE9F8E00C94DA322091DE05AD
:101140003091DF0528173907A1F09093DF058093D0
:10115000DE05E091DC05F091DD05309751F024E0EB
:1011600029839B838A830680F781E02DCE01019637
:1011700009952396E2E00C94F632A3E0B0E0E3ECAC
:10118000F8E00C94DA322091DA053091DB0528176B
:101190003907A1F09093DB058093DA05E091DC0537
:1011A000F091DD05309751F023E029839B838A83FA
:1011B0000680F781E02DCE01019609952396E2E0A5
:1011C0000C94F632FA01811101C0FB0109950895D2
:1011D000E1E5F6E024813AE0231B08F420E02483D3
:1011E000809150068160809350060895E1E5F6E015
:1011F00024813AE0230F08F42FEF248380915006D6
:101200008160809350060895E1E5F6E0438128E08F
:10121000421B08F440E08181628190E00E94A006B8
:101220000895E1E5F6E0438128E0420F08F44FEF2E
:101230008181628190E00E94A0060895E1E5F6E0D8
:10124000628128E0621B08F460E08181438190E0C4
:101250000E94A0060895E1E5F6E0628128E0620FB1
:1012600008F46FEF8181438190E00E94A006089509
:10127000E1E5F6E08181438162818850990B0E940B
:10128000A0060895E1E5F6E0818190E04381628166
:1012900008960E94A006089580915106869586952D
:1012A000815009F482E00E94510608958091510610
:1012B000869586958F5F833008F081E00E94510605
:1012C0000895FF920F931F93CF93DF93182F062F4C
:1012D000F42ED0E0C0E02F2D402F612FCE010E94D0
:1012E000F0142196C633D105B1F7CDB7DEB7E5E0EE
:1012F0000C94F332EF92FF920F939701201B310968
:101300002F3F310519F010F02FEF30E0322F3095DC
:10131000482F430F08F44FEF842F620F0F91FF9077
:10132000EF9008958091C804982F9E7F71F480916A
:10133000C804817082608093C8048091CB0489378F
:1013400018F088E78093CB040895843080F7F5CFB8
:10135000AF92BF92CF92DF92FF920F931F93CF93E2
:10136000DF93362F472FE82FF0E0E25BFC4F71113F
:101370000FC0E4918E2F2E2F6E2F722FDF91CF9101
:101380001F910F91FF90DF90CF90BF90AF90089585
:10139000C72FD0E02491F22E022F10E056E0659F77
:1013A000C0011124EFEFF0E0BF010E94B632832F9D
:1013B00090E0880F991F35E5369FD001379FB00D1B
:1013C00011248A1B9B0B982F990F980F6F01CC1A31
:1013D000DD0AC09ED001C19EB00DD09EB00D11247B
:1013E0008B2F499FA0011124452F55276F01C41A47
:1013F000D50AC09EA001C19E500DD09E500D112453
:101400005F01A91AB108AC9E6001AD9ED00CBC9ED4
:10141000D00C1124CD2CDD24EC19FD09E09FE00156
:10142000E19FD00DF09FD00D1124ED2F623071059A
:10143000A1F050F46115710509F49ECF613071057A
:1014400081F0EB2F852F98CF6430710569F080F023
:101450006630710509F490CFF4CFE22F2B2F8D2F3A
:101460008BCFE22F252F88CFEB2F822F2D2F84CFEC
:101470002B2F8F2DE52F80CF80E00895F894E82F53
:10148000E295EF70F0E031A1282F2F7081E090E01D
:1014900001C0880F2A95EAF7982F9095932391A37E
:1014A00092A1892B82A3789408959091E50592FFEB
:1014B00006C0282F28712830F9F4877F846093FFB5
:1014C00006C0282F28712831F1F4877E846120918D
:1014D000E60520FF06C0382F38713830D9F4877FF1
:1014E000816021FF06C0282F28712831D1F4877E22
:1014F000816194FD877E0895282F24712430F9F6A8
:101500008B7F8860DCCF282F2471243101F78B7EFC
:101510008861DDCF382F3171313019F78E7F8860C7
:10152000E0CF282F2171213121F78E7E8861E1CF14
:1015300082389105B9F1B0F48133910509F47DC089
:1015400048F48932910509F46DC08A32910509F495
:101550007BC008958533910509F45FC089339105F7
:1015600009F10895833E9105D9F138F4803E910543
:1015700029F1823E910579F10895863E9105D9F1D0
:10158000873E910509F43EC0843E910541F52091C6
:10159000E60521FF24C08091E50584FD19C087EE92
:1015A00090E008952091E505237009F05AC020913C
:1015B000E60523FF14C089E290E008952091E50537
:1015C00020FD38C03091E60530FF09C024FF43C03C
:1015D00090E080E008952091E50522FDF7CF089581
:1015E0002091E50522FD3AC03091E60530FD39C075
:1015F00024FFF5CFEDCF2091E50523FFF0CF24FDAB
:10160000E7CFCDCF2091E50523FD2EC03091E60533
:1016100031FFEECF84EE90E008952091E50525FF9F
:10162000DECFC9CF2091E50525FD21C02091E6053B
:1016300023FFD5CF89E390E0D2CF2091E50526FFA7
:10164000CECF8AE290E008952091E50526FFC7CF2E
:1016500081E390E0089583EE90E0089582EE90E0BB
:10166000089580EE90E0089586EE90E0089585E379
:1016700090E00895972F7830B8F46630A8F484305D
:10168000B0F470E026E0929F600D711D1124FB0103
:1016900090E3899FE00DF11D1124EE0FFF1FEC5F19
:1016A000FE4F85919491089580E090E0089581E047
:1016B000FCCF1F93CF93DF930E94980AEC01C115D2
:1016C00080E5D807F0F5C11580E4D80708F09CC084
:1016D000C03ED10520F5CD3CD10508F082C0C83A06
:1016E000D10578F4C53AD10508F073C0C130D105F1
:1016F00019F1209709F1C430D105F0F4D0E0C0E031
:101700001BC0C33CD105D0F7C85AD0E0CC0FDD1FB9
:10171000C755DE4F0990D881C02DD4640DC0C115C6
:1017200080E2D80708F0D1C0C11581E0D80708F0E1
:101730005AC0C83ED10510F7CE01DF91CF911F915D
:101740000895C03682E5D80718F5C03482E5D80779
:1017500008F06BC0C03282E5D80708F05FC0C11541
:1017600082E5D80708F497C02C2F2695269580E2AD
:10177000289F900111248C2F8370C1E0D0E002C01B
:10178000CC0FDD1F8A95E2F7C22BD32BDD68D4CFB7
:10179000C03A82E5D80760F4C03882E5D80708F47B
:1017A00059C0CF71D0E0DC2FCC27C46FD06AC4CF32
:1017B000C03C82E5D80708F462C0C03E82E5D80785
:1017C00008F09CCFDC2FCC27CC27DF71C06FD06A0C
:1017D000B3CFC55AD0E0CA55DE4FC881D0E0D0643F
:1017E000ABCFD065A9CF8D2F0E94550A182FCE01FF
:1017F00099270E94980AC12FD0E0DC2FCC27CC2754
:10180000DF71C82BD92B98CFCE0199270E94980A57
:10181000CC27DF70C82BD92BD06A8ECFCF71D0E008
:10182000DC2FCC27C16FD06A87CF2C2F2695269529
:10183000277080E2289F900111248C2F8370C1E0D3
:10184000D0E002C0CC0FDD1F8A95E2F7C22BD32B6C
:10185000DC6872CF2C2F26952695277080E2289F72
:10186000900111248C2F8370C1E0D0E002C0CC0F16
:10187000DD1F8A95E2F7C22BD32BDA685DCF8C2F60
:101880008F710E94550AC82FD0E0DC2FCC27CC27BF
:10189000DF71D06251CF8C2F8F710E94550A55E0B5
:1018A000D695C7955A95E1F7CF70D0E0DC2FCC27BD
:1018B000282F30E084FF05C044E0220F331F4A95F3
:1018C000E1F7C22BD32BD06937CF8D2F8F710E94B8
:1018D000550A182FCE0199270E94980AC12FD0E0EF
:1018E000DC2FCC27CC27DF71C82BD92BD2CF80950A
:1018F0009091D50598239093D50508958095909162
:10190000D60598239093D605089580914F0690911F
:101910001606981301C008958F5F8770FACFB0E064
:10192000A0E0E5E9FCE00C94D3327C0100912605AF
:101930001091270580917A0390917B03082B192B36
:10194000CFE0D0E0CC24C394D12CBC2EC6010C2E09
:1019500002C0880F991F0A94E2F780239123892BF4
:1019600049F4219790F7B12C8B2DCDB7DEB7E9E084
:101970000C94EF32B7018C2F0E943A0B0E94590B46
:10198000019779F3F1CFCF93DF93EC010E948F0C95
:10199000BE010E943A0B0E94590BDF91CF9108952E
:1019A000983078F5863068F5E82FF0E086E0989F6B
:1019B000E00DF11D11249E2F977083E0F695E795B9
:1019C0008A95E1F7EE0FFF1FEE0FFF1FE251FD4F6B
:1019D00050E040E080E0219130E0092E02C03695D1
:1019E00027950A94E2F721703327042E01C0220FB5
:1019F0000A94EAF7822B4F5F5F4F4430510559F745
:101A0000089580E00895983098F5863088F5E82F9D
:101A1000F0E086E0989FE00DF11D11248E2F877075
:101A200041E001C0440F8A95EAF783E0F695E79517
:101A30008A95E1F7EE0FFF1FEE0FFF1FE251FD4FFA
:101A400030E020E070E05191DF011197CB01022ED0
:101A500002C0969587950A94E2F781708195852753
:101A6000842385278C932F5F3F4F2430310559F70E
:101A7000089540912605509127054115510561F0C3
:101A800021E030E002C0220F331F8A95E2F72423C1
:101A9000352381E0232B09F480E0089590932705F6
:101AA00080932605089521E030E002C0220F331F05
:101AB0008A95E2F72095309580912605909127052B
:101AC000822393230E944E0D089590910D038095DB
:101AD000892380930D03282F277069F4891759F003
:101AE0009091E60592FF07C08695869586950E949F
:101AF000530D10920D03089521E030E002C0220F33
:101B0000331F8A95E2F78091260590912705822B55
:101B1000932B0E944E0D089581E00E94390D882379
:101B200049F082E00E94390D882321F083E00E9471
:101B30007C0D089583E00E94530D089590937B03DC
:101B400080937A03089592959F70963091F058F49F
:101B5000925F9F70923058F4803F19F030F4883EC5
:101B600030F481E008959A5FF4CF843FD1F380E0B0
:101B70000895883EB0F3813FD1F7F3CFFC01248173
:101B8000222339F0808191810E94C30C0E94A30D11
:101B9000089580E00895292F332740E0211531056D
:101BA00011F0C90148E09C0164E0369527956A95DB
:101BB000E1F72115310511F04C5FC9019C01369503
:101BC0002795369527952115310511F04E5FC901EE
:101BD00096958795892B09F04F5F842F0895A6E08D
:101BE000B0E0E5EFFDE00C94D93226E0FC01DE0127
:101BF000119601900D922A95E1F7FC0125818981CA
:101C00009A81222399F0662389F00E948F0C182F65
:101C1000682F89819A810E94030D69817A81812FC1
:101C20000E943A0B2696E3E00C94F5320E94D00C09
:101C3000182FF3CF9C013A9521153F4150F5FC0137
:101C4000EE27F170BC0166277270AC014427547016
:101C50009C012227387094FF0EC080E1EF2B09F41D
:101C600080E0672B09F08062452B09F08064232B0C
:101C700089F08068089581E0EF2B09F480E0672BFC
:101C800009F08260452B09F08460232B19F08860ED
:101C9000089580E00895CF93DF93682F81E06A3044
:101CA00019F06D3031F480E00E94DE0EDF91CF91AB
:101CB0000895809167089091680826E0FC01A1E6EC
:101CC000B8E001900D922A95E1F7603E08F458C003
:101CD00026E0FC0111922A95E9F7C0916708D0919E
:101CE000680846E050E0BE0181E698E00E94C933F2
:101CF0009E0121563640892B41F1C90145E0969558
:101D000087954A95E1F741E050E0BA0102C0660FBD
:101D1000771F8A95E2F7CB0160915F0670916006AC
:101D2000862B972BB9016B5F7F4FE5E07695679522
:101D3000EA95E1F702C0440F551F6A95E2F7842B3C
:101D4000952B9093600680935F062A5F3F4F4091EA
:101D50005E06642F70E0C9010E94B632481B46300F
:101D600010F4240F311D211572E0370710F030E018
:101D700020E02F59394F309368082093670896CF99
:101D8000F6E06F9FB0011124605E794F46E050E0AD
:101D90000E94C033A2CFCF93DF93EC01FE01849168
:101DA000811103C0DF91CF9108950E944B0E2196BF
:101DB000F5CF8CEA90E00E94CB0E0895CF93382F98
:101DC000E0916708F0916808E156F64020915E06C0
:101DD000622F70E0CF010E94B632281B822F33237E
:101DE00061F066E00E940133C82FC15010F4CF911A
:101DF000089580E20E944B0EF8CF9F01280F311DFD
:101E00002115324018F080E0F0E0E0E08E0F9F2FC7
:101E1000911D8F59994F9093680880936708E7CF79
:101E20008091D6059091D505892B8093CA02909117
:101E3000F8039923A1F0892B8093CA028091A00115
:101E40008823E1F18091E50587FF38C08EE1ECEC55
:101E5000F2E090E08150A0F591111092F80340E279
:101E600050E06EE073E08AEC92E00E94C933892B67
:101E700021F180E2EAECF2E0AEE0B3E001900D92F5
:101E80008A95E1F7E091DC05F091DD053097A9F046
:101E90008091A001882359F08091E50587FF07C054
:101EA0008091CA028093CB0286E08093CA020280AE
:101EB000F381E02D8AEC92E00995089586E0C7CF82
:101EC0002191222339F29F5FC5CFCF93DF93EC019D
:101ED000EA85FB85309719F06C857D8509958B81A6
:101EE0000E94770C8C810E947E0C0E94100F86E06D
:101EF000FE0111928A95E9F7DF91CF910895CF9372
:101F0000DF93EC018D8181FD18C082608D8380910B
:101F1000D5059B81892B8093D5058091D6059C8121
:101F2000892B8093D6050E94100FE885F98530979C
:101F300021F06C857D85CE0109951092D80510920F
:101F4000D7058D8180FD03C0CE010E94650FDF9112
:101F5000CF9108951092D6058091A001ECECF2E0AB
:101F60008823B1F08091E50587FF12C08EE1DF0183
:101F70001D928A95E9F790E080E00E94BD0890E00C
:101F800080E00E9498081092D5050E94100F0895D5
:101F900086E0EDCFAAE2B0E0E0EDFFE00C94D932AC
:101FA0008EE096E02091F100FC012193CF01F6E054
:101FB00086319F07B9F780910F06833009F470C00E
:101FC000B8F4813009F447C0823009F4B1C080917F
:101FD000E80083FF7EC280910E0690910F069A3032
:101FE00008F077C2E92FF0E0E75CFB4C0C94623319
:101FF0008A3009F48CC08B3009F46FC0893039F70E
:1020000080910E06813219F7809112069091130685
:102010000297E8F68091E800877F8093E80080913E
:10202000E80082FF38C09091F3008091F20002979F
:1020300031F48091F100813011F0863021F48091EB
:10204000F1008093E9058091E8008B778093E800A8
:102050000E940307BCCF80910E06813A09F0B7CFEA
:102060008091E800877F8093E8008091120690912C
:102070001306892B61F460E28AEE95E070E00E941D
:10208000AF078091E8008B778093E800A0CF60E0F5
:1020900090E080E0F3CF80910C068111C0CF97CF04
:1020A00080910E06813A09F092CF809112069091AC
:1020B0001306892B09F08BCF8091E800877F8093EE
:1020C000E8008091E80080FFFCCF8091A001809320
:1020D000F1008091E8008E77B9CF80910E068132B1
:1020E00009F075CF8091120690911306892B09F0A3
:1020F0006ECF8091E800877F8093E8000E940307FD
:10210000809110068093A0010E94AA0F60CF809159
:102110000E06813209F05BCF8091E800877F8093C3
:10212000E8000E940307809111068093E8054FCFD5
:1021300080910E06813A09F04ACF8091E800877FAE
:102140008093E8008091E80080FFFCCF8091E80553
:10215000BECF803899F0823809F0BBC18091120659
:102160008F70873008F0B5C18093E9008091EB0053
:1021700085FB882780F91092E90006C080910A0645
:1021800090910B06911182609091E800977F909357
:10219000E8008093F1001092F1008091E8008E77C2
:1021A00094C1882309F482C1823009F092C18091E0
:1021B0001006811185C1809112068F702FEF280FB4
:1021C000263008F086C18093E9002091EB0020FFC3
:1021D00077C1933031F48091EB0080628093EB0003
:1021E0006FC19091EB0090619093EB0021E030E0A3
:1021F00001C0220F8A95EAF72093EA001092EA00C4
:102200008091EB008860EACF811163C110911006C4
:102210001F778091E3008078812B8093E300809189
:10222000E800877F8093E8000E9403078091E80020
:1022300080FFFCCF8091E30080688093E30082E020
:10224000111183E080930C0644C18058823008F05D
:1022500040C180911006909111068C3D23E09207B9
:10226000A1F583E08A838AE289834FB7F894DE017F
:10227000139620E03EE051E2E32FF0E05093570048
:10228000E49120FF03C0E295EF703F5FEF708E2F67
:1022900090E0EA30C0F0C7968D939D932F5F243174
:1022A00059F74FBF8091E800877F8093E8006AE28A
:1022B00070E0CE0101960E94AF078091E8008B7715
:1022C0008093E80006C1C096E7CF40911206509176
:1022D0001306292F33272330310509F444C078F53C
:1022E0002130310509F46FC08BE390E0EFEFF4E0AB
:1022F0002230310509F0EDC02091E800277F2093BE
:10230000E80020911406309115068217930708F40F
:102310009C0140E02115310509F064C0411162C003
:102320008091E80082FDC9CF80910C06882329F2B4
:10233000853019F28091E80083FFF2CFBECF2132C1
:102340003105A9F12232310509F0C3C0411551050B
:1023500009F443C04130510509F0BBC08DE690E05F
:10236000E2E5F4E0C9CF992781309105C1F00097EB
:1023700059F0029709F0ADC0ECE4F5E0E4918E2F3E
:1023800090E0ECE4F5E007C0ECE6F5E0E4918E2F98
:1023900090E0ECE6F5E0009709F49BC0ADCFEAE5EC
:1023A000F5E0E4918E2F90E0EAE5F5E0F4CF4115F9
:1023B000510571F04130510509F08BC089E090E082
:1023C000EAE2F5E099CF82E190E0EAE3F5E094CF2C
:1023D00089E090E0E1E1F5E08FCF80E490E0EFEB81
:1023E000F4E08ACF80910C06882309F466CF85300B
:1023F00009F463CF8091E80083FD5FCF8091E8000E
:1024000082FD8ECF8091E80080FF84CF9091F30011
:102410008091F2002115310519F08830910550F0B6
:1024200041E0089709F040E08091E8008E778093C2
:10243000E80070CF44914093F1003196215031096A
:102440000196E8CF803809F044C08091E800877F8A
:102450008093E80080910D068093F1009ECE81115B
:1024600038C0109110061230A0F58091E800877FE7
:102470008093E80010930D060E940307112311F0CA
:1024800084E005C08091E30087FDFACF81E080936E
:102490000C0642E061EC81E00E94220742E261EC1E
:1024A00082E00E94220780910C0613C080911006E2
:1024B000813079F481E0933009F080E080930B065D
:1024C0001092E9008091E800877F8093E8000E94E5
:1024D00003078091E80083FF0AC08091E800877FAE
:1024E0008093E8008091EB0080628093EB00AA96D5
:1024F000E3E00C94F532882321F00E94770C0E94CF
:10250000100F0895882339F09091D505982B90935A
:10251000D5050E94100F0895882321F00E947E0C9B
:102520000E94100F0895882339F09091D605982BBA
:102530009093D6050E94100F0895882351F19CEFC7
:10254000980F913A40F4682F8AEC92E00E94390883
:102550000E94100F089590E2980F983050F4877001
:1025600091E001C0990F8A95EAF7892F0E947E0CAD
:10257000EFCF9BE5980F933028F490E080E00E9425
:10258000BD080895885A8B3120F490E080E00E94C5
:1025900098080895CF93DF93EC010E949D12CE011D
:1025A0000E941A0E9E01205E31092830310510F07C
:1025B000CD2B29F40E948C12DF91CF9108950E94B7
:1025C0007B12FACFCF93C82F8823D9F18CEF8C0FD1
:1025D000813AC8F58091A001882311F18091E50529
:1025E00087FF1EC0EC2FE695E695E695F0E0E653F2
:1025F000FD4F828190E04C2F477021E030E002C017
:10260000220F331F4A95E2F782239323892B91F0FF
:102610006C2F8AEC92E00E9439080E94100F0AC0C9
:10262000ECECF2E082ED92E02191C21789F38E1773
:102630009F07D1F76C2F8AEC92E00E9463080E94FA
:10264000100FCF91089580E28C0F883068F4C77026
:1026500021E030E001C0220FCA95EAF78091D6054B
:10266000822B8093D605EBCFEBE5EC0FE33040F403
:10267000F0E0EA55FE4F808190E00E94BD08E1CF76
:10268000C85ACB31F0F6EC2FF0E0EE0FFF1FE75504
:10269000FE4F808191810E949808D3CFCF93DF9322
:1026A000EC010E941A0E9E01205E3109283031058E
:1026B00010F0209741F40E9493128C2F0E94E21296
:1026C000DF91CF9108950E948212F7CFFB018081A4
:1026D00091810E944E130895CF93DF93EC018A817C
:1026E000823041F4FB01828193810E944E138D81DF
:1026F00082608D83DF91CF9108950F931F93CF93C5
:10270000DF93EC01FC0101900020E9F78F010150FB
:102710001109C017D10728F0DF91CF911F910F91B8
:10272000089589910E944B0EF4CF0F931F93CF937E
:10273000DF938B01EA0190910C06943061F5809350
:10274000E9008FEF9091E800815095FD06C095ED6E
:102750009A95F1F700008111F5CF8091E80085FF8F
:102760001AC00E94D206811111C08091E80085FD37
:1027700006C08091E8008E778093E800F2CFF801E0
:1027800081918F018093F100219779F78091E80082
:102790008E778093E800DF91CF911F910F9108957C
:1027A00043E050E0BC0182E00E9495130895CF936E
:1027B000DF93EC018091A001811111C048E050E04D
:1027C000BE0181E00E94951380E2FE01AAEEB5E011
:1027D00001900D928A95E1F7DF91CF910895809154
:1027E000E50587FF05C040E282E050E0BE01EACF88
:1027F00048E081E0FACF81E08093E00080E28093BE
:10280000D8001092C9008FE19EE40197F1F700C053
:10281000000087E090EBDC018093690890936A08E0
:10282000A0936B08B0936C0888E19CE00FB6F89415
:10283000A895809360000FBE90936000FFCFFC01CD
:102840008281813031F4FB01808191810E94CA1222
:1028500008958230E9F7FB0182819381F7CF539A83
:102860004BB1477F5BB15860EFB7F8949B01220FE3
:10287000331F260F371F280F391F2817390741F438
:10288000EFBF8FE594E00197F1F700C000000895D5
:10289000DC016D91CD0178E05BB9000000C067FFFD
:1028A0004BB9660F000000C000C000C04BB900C0AB
:1028B0007A9591F7E2CF66E370E08DE295E00E94B1
:1028C0002F140895609197018091C80480FF0CC077
:1028D00070E08091960123E0829FC00111248A5DFF
:1028E0009B4F0E942F140895809198019091990117
:1028F00023E0829FF0011124EA5DFB4F891740F726
:102900001182108212828F5F3396F8CFB0E0A0E080
:10291000ECE8F4E10C94D2327C015B016A01809115
:10292000980301E010E08A3010F40AE010E0C1E002
:10293000D0E0B501C701F6010995811104C02196C7
:102940000C171D072CF4CDB7DEB7EAE00C94EE327D
:10295000CC9F9001CD9F300D300D112490E080E090
:1029600045E34A95F1F70000019682179307C1F7F6
:10297000E0CF80913A03811110C08091D80080612E
:102980008093D8008AE18A95F1F700C08091D90040
:1029900080FF0AC081E080933A0381E090913A037E
:1029A000913009F080E0089582E080933A030E941C
:1029B000B30610920C06F1CF0E94B914811103C026
:1029C0008091D9050895E091DC05F091DD053097FF
:1029D00029F00190F081E02D0995089580E0089597
:1029E000FF920F931F93CF93DF93EC01F62E042FEA
:1029F000122F0E94B91481110FC0CB31D1057CF088
:102A00006B97FE01EE0FFF1FEC0FFD1FE35DFA4F0A
:102A1000F1820083128303C0CB31D10594F3CDB78B
:102A2000DEB7E5E00C94F332A4E0B0E0EAE1F5E1D2
:102A30000C94CA32898380919F011981811325C02A
:102A400090915106937020919E0130E081E09217A1
:102A5000130609F480E0817080939D0180915606F1
:102A600090919C01981739F080939C0140E060E0C0
:102A700080E00E9461091981113099F0112339F029
:102A8000123009F464C080E032C081E0E4CF80916C
:102A90009D018823C1F340E060E080E00E9461096D
:102AA000F2CF0E94B9140BE1811101C006E30E942C
:102AB000B914811134C01BE11A83609152067091E0
:102AC0005306809154060E94A809F62EE72ED82EB0
:102AD0003A81232F30E03C832B839B81901708F1B0
:102AE0000E94B9148111CFCF81E0063360F6909136
:102AF0009B019F5F90939B0181110DC082E08093A9
:102B0000A10180919D01811106C01981111103C09D
:102B100083E08093A1012496E2E10C94E6321A82CC
:102B2000CCCFEB81FC81EF56FD4F808190919C01D1
:102B3000892339F02D2D4F2D6E2D8B819C810E9484
:102B4000F0148B819C8101969C838B83C6CF0E945D
:102B5000B9144BE1942E811102C036E3932E0E94EA
:102B6000B91481111FC0ABE1AA838090F904FA81E6
:102B7000EF2FF0E0FC83EB83CF01880F991F8C01CE
:102B80000B501E4F6801312C212C8B81891560F070
:102B90000E94B914811177CF81E095E3991508F06F
:102BA000A6CF71CF1A82E1CFEB81FC81EF56FD4FAA
:102BB000808190919C01892319F160915206709156
:102BC000530682E1682E85E0782E99EFA92E94E0D5
:102BD000B92E80E09A2DE9EFF4E09E1B9815D0F015
:102BE00020915406082F029F012D1124802F0E944E
:102BF000A809462F282F672F8B819C810E94F014F3
:102C00002B813C812F5F3F4F3C832B8332E0C30EEF
:102C1000D11CBBCFD601D0964C91D097F5019181B4
:102C2000491B550BD1962C919185291B330B449F41
:102C3000D001459FB00DB00D1124229FF001239FBC
:102C4000F00DF00D1124EA0FFB1F4E2EE230F105BE
:102C50003CF19FEFE13E0EE1F00744F4DF0105E0B7
:102C6000B695A7950A95E1F798E09A0F55245394E5
:102C7000E52CE90EFF24FF1CD701B595A7954A2E38
:102C8000AA9F7001AB9FF00CF00C1124EE15FF050C
:102C900000F59FEF9A0F951558F744244A94450C78
:102CA00090915506092F11E0010F08F40FEFD301A1
:102CB000ED91FD913D017101E09FE12CF09FE00C51
:102CC000F11C1124042D0E947A09BFEFAB1ABB0A34
:102CD00081CFFF24FA94AF1519F3552453945A0E5B
:102CE000DACFCF93C82F882391F080912C058111E2
:102CF0000EC00E94141510929F018091510683709E
:102D000080939E010E945B1483E08093A101C09395
:102D10002C05CF9108950F931F930E94B914882317
:102D200029F00E942D081F910F9108950E942D08EF
:102D30000091990310919A0320919B0330919C0379
:102D4000600F711F821F931FEECF1F93CF93DF93EE
:102D5000182FD0E0C0E0893311F4C0E5D0E0812F16
:102D60000E94E212209739F4812F0E949D12DF9178
:102D7000CF911F9108958FE99FE00197F1F700C06F
:102D800000002197EFCFB0E0A0E0E9ECF6E10C9471
:102D9000D232EC018AE0A82EFE012491222309F40C
:102DA00097C0213009F03EC031968491813031F4D2
:102DB0002296FE0184910E94A51607C0823039F444
:102DC0002296FE0184910E94E2122196E5CF833083
:102DD00031F42296FE0184910E949D12F6CF843038
:102DE00009F074C02296FE01249190E080E0FE017B
:102DF00031962053330B2A30310548F0019728F3E0
:102E0000EFE9FFE03197F1F700C00000F7CFA89E8F
:102E1000A001A99E500D1124C901840F951F249172
:102E2000EF01E5CFE22FF0E0E056FA4FB490822FA9
:102E300086958695869590E0FC01E057FA4FE490E0
:102E40002770F12C022E02C0F594E7940A94E2F761
:102E500031E0E322FF24FC01E058FA4FC490D12C6A
:102E6000022E02C0D594C7940A94E2F7E1E0CE2284
:102E7000DD24FC01E059FA4F049110E002C01595E1
:102E800007952A95E2F701701127E114F10419F072
:102E900081EE0E94E212C114D10419F086EE0E9464
:102EA000E2128B2D0E94A516C114D10419F086EEF2
:102EB0000E949D12E114F10419F081EE0E949D120E
:102EC0000115110509F481CF8CE275CFEF017DCF9B
:102ED000CDB7DEB7EAE00C94EE320E94AA0F2FEFD6
:102EE00084E39CE0215080409040E1F700C0000066
:102EF00088E19CE00FB6F894A895809360000FBE1F
:102F000090936000FFCFB0E0A0E0E9E8F7E10C9417
:102F1000D4326C017B0164E670E088E70E941430D3
:102F20008C01E601EC0CFD1C17FD0BC0FE01849129
:102F300064E670E00E9480308C012196CE15DF059A
:102F400099F70E94F63081E00115110509F080E043
:102F5000CDB7DEB7E8E00C94F0328091D3059091C4
:102F6000D405911103C091E089270895882369F061
:102F700062E070E080E594E00E948317811103C055
:102F80008091D30508951092D3058091D305EBCF9E
:102F9000CF93C091D3058091D4058823D1F00E94AE
:102FA0002D08605D7A488F4F9F4F6093CF057093D7
:102FB000D0058093D1059093D205C11108C062E07D
:102FC00070E08EE494E00E948317811105C0C091E7
:102FD000D3058C2FCF91089581E08093D305F7CF4F
:102FE0004F925F926F927F928F929F92AF92BF9219
:102FF000CF92DF92EF92FF92CF9380902205909034
:103000002305A0902405B09025050E94B9148823BB
:1030100009F44CC0C501B4010E9411086B017C0188
:103020000E948B164B015C01809222059092230531
:10303000A0922405B0922505A091D004E0EDF4E023
:103040008A2F90E04FEF5FEF60E070E04C195D0970
:103050006E097F09A91333C08093D00480912C0599
:10306000C0E0811108C080915106C82FC37019F0CB
:10307000C82FC695C6958091A101813009F449C039
:10308000882381F1823009F472C0833009F47AC058
:10309000CF91FF90EF90DF90CF90BF90AF909F9037
:1030A0008F907F906F905F904F9008950E948B1645
:1030B0006B017C01C818D908EA08FB08B1CF218D43
:1030C000328D2901712C612C441555056605770553
:1030D00020F481509F5F3296BDCF2C0D3D1D328F65
:1030E000218FF8CF10929B0180922805909229059C
:1030F000A0922A05B0922B0589E2E0EDF4E0A9EF59
:10310000B4E001900D928A95E1F781E08093A101EE
:10311000BFCF8C2F0E941415CC2309F4B9CF809116
:103120002605909127050E94CB0D8130A9F08823B8
:1031300049F08230A1F08330B1F00E94B9140E94AE
:10314000B914A6CF0E94DC1447E16FED81FFF5CFE3
:1031500082E30E946109F1CF4FED62E5F9CF47E1CB
:1031600067E185EEF6CF49E06FE68BE7F2CFC093DB
:103170009F0180915106837080939E010E945B1491
:1031800083E0C4CF80915006882351F048E050E09E
:1031900068E170E081E596E00E94033410925006E9
:1031A000C0902805D0902905E0902A05F0902B05C5
:1031B0000E94B914882369F0C701B6010E94110862
:1031C000603171058105910508F462CF1092A1016B
:1031D0005FCF0E948B166C197D098E099F09F0CF75
:1031E000E1E5F6E085E080838091A3019091A40160
:1031F000A091A50181839283A3838FE784838FEFBE
:10320000858348E050E068E170E0CF010E9403341C
:10321000109250060895B0E0A0E0E1E1F9E10C94CD
:10322000D03249015A016B017C010E94920984014C
:10323000A4016A2D7B2D88E090E00E942534940142
:103240004A2D5B2DB601C70100E20E949633622F22
:1032500084E290E00E941334CDB7DEB7ECE00C942A
:10326000EC320F931F93CF93DF93182FD62FC42FD9
:10327000022F8091C80480FF4DC09091C904911322
:1032800008C09091CA04961304C09091CB0494177F
:1032900029F090912504926090932504E82FE695FB
:1032A000F0E0ED50FE4F9081909323048E7F8230AA
:1032B000D1F48C2FC93708F088E7612F7D2F0E9449
:1032C000A8099091C80490FF0EC090919801209198
:1032D000990133E0939FF0011124EA5DFB4F9217AF
:1032E000F0F00E9462141093C904D093CA04C093F2
:1032F000CB04002379F02091C8046091CC04709134
:10330000CD04312F4D2F5C2F8091CE049091CF04AE
:103310000E940B19DF91CF911F910F910895718336
:10332000608382839F5F3396DACFE8ECF4E04381D9
:1033300021E1421B08F440E021E0628181810E948A
:1033400031190895E8ECF4E0438121E1420F08F4DB
:103350004FEF21E0628181810E9431190895E8ECEC
:10336000F4E0628121E1621B08F460E021E0438126
:1033700081810E9431190895E8ECF4E0628121E135
:10338000620F08F46FEF21E0438181810E943119BF
:103390000895E8ECF4E0818121E043816281885066
:1033A0000E9431190895E8ECF4E0818121E0438125
:1033B0006281885F0E94311908958091CC0488232E
:1033C00019F081508093CC042091C8043091C90435
:1033D0004091CA045091CB046091CC047091CD040B
:1033E0008091CE049091CF040E940B190895809192
:1033F000CC04833018F48F5F8093CC042091C804F0
:103400003091C9044091CA045091CB046091CC041E
:103410007091CD048091CE049091CF040E940B193D
:1034200008952091C80420FF24C0217022602093B9
:10343000C80480912504816080932504662381F06F
:103440003091C9044091CA045091CB046091CC04DE
:103450007091CD048091CE049091CF040E940B19FD
:1034600020E04091CB046091CA048091C9040E947D
:10347000311908958091C8048695815009F481E03E
:1034800061E00E94111A089561E081E00E94111A22
:103490000895E8ECF4E083E0808311828FEF82836B
:1034A00088E783831482A3E2B4E012968C9112978A
:1034B000836012968C93758123E030E04FEF58E7DC
:1034C00060E0868197810E940B190895A8E0B0E022
:1034D000ECE6FAE10C94DA3266EE7EEF90E080E002
:1034E0000E94313460E082E090E00E94133460E09A
:1034F00083E090E00E94133410927B0310927A03D1
:1035000060E074E184E090E00E94313460E086E0A5
:1035100090E00E9413346FEF87E090E00E94133434
:1035200040E050E0BA0188E090E00E94253460E07D
:1035300084E290E00E94133460E087E190E00E9412
:10354000133460E08CE090E00E94133460E08DE082
:1035500090E00E94133419821A821B821C821D8201
:103560001E821F82188648E050E068E170E0CE01BC
:1035700001960E94033440E050E0BA0180E290E0FE
:103580000E94253440E050E0BA018FE090E00E94B4
:10359000253440E050E0BA0183E190E00E942534F8
:1035A0002896E2E00C94F6329091E60592FB2227F1
:1035B00020F9281779F080FB92F99093E605609145
:1035C000E5057091E60584E090E00E94313482E0E8
:1035D0000E94650D0895B0E0A0E0E1EFFAE10C94DF
:1035E000D5327901C82F880FDD0B41155105A9F09F
:1035F000FE0193E0EE0FFF1F9A95E1F7E85FFE4FA3
:1036000081819281855C9C4F208130E04217530775
:1036100008F49A01A9010E94D633CE010E944032DB
:10362000D82E8823D1F001151105B9F083E0CC0F15
:10363000DD1F8A95E1F7FE01E85FFE4F438150E010
:103640000417150708F4A801C85FDE4F6C817D815F
:10365000655C7C4FC7010E94D6338D2DCDB7DEB798
:10366000E7E00C94F132A3E0B0E0E9E3FBE10C9475
:10367000D832609184037091850380918603909184
:1036800087030E94110841E06436710581059105A8
:1036900008F440E03091D605398364367105810520
:1036A000910520F420914D03231341E09091D5051D
:1036B0009A83411106C041E020914E03291301C0B5
:1036C00040E09091F8039B83411105C080914F0326
:1036D00011E08917C9F010E000E030E020E043E09D
:1036E00050E0BE016F5F7F4F87E00E94EB1A182FFA
:1036F000882351F00E942D08609384037093850302
:103700008093860390938703812F2396E4E00C94A3
:10371000F432A4E0B0E0EFE8FBE10C94D832609121
:1037200072037091730380917403909175030E94EA
:10373000110811E0643671058105910518F10E94A8
:103740008B166E5F7F4F8F4F9F4F69837A838B837A
:103750009C8310E000E030E020E044E050E0BE0157
:103760006F5F7F4F83E00E94EB1A182F882351F080
:103770000E942D0860937203709373038093740307
:1037800090937503812F2496E4E00C94F432A5E025
:10379000B0E0EDECFBE10C94D6327B0101E010E0EF
:1037A0009E012B5F3F4F50E040E070E060E080E022
:1037B0000E94EB1A182F882309F445C060916A0310
:1037C00070916B0380916C0390916D030E941108BE
:1037D000643671058105910538F48CE393E00E940D
:1037E00089069D81891779F104E010E09E012F5F21
:1037F0003F4F50E040E070E060E081E00E94EB1A53
:10380000082F8CE393E00E94890611E09D819813B4
:1038100010E0102331F10E942D0860936A03709329
:103820006B0380936C0390936D0389819A81AB81C4
:10383000BC818093660390936703A0936803B09361
:10384000690311E00EC080913C0390913D03A0916B
:103850003E03B0913F0389839A83AB83BC831111EC
:10386000E4CF8091660390916703A0916803B091C3
:103870006903F70180839183A283B383812F259607
:10388000E6E00C94F232B0E0A0E0E9E4FCE10C9454
:10389000D232C82F7B01D42F69015801FB0160810E
:1038A0007181828193810E941108643671058105BE
:1038B000910510F4DD23C9F010E000E030E020E0D5
:1038C000A501B6018C2F0E94EB1AC82F882339F06E
:1038D0000E942D08F70160837183828393838C2F6C
:1038E000CDB7DEB7EAE00C94EE32C1E0F8CFA1E04C
:1038F000B0E0EDE7FCE10C94D8328091D3058983E8
:103900002091650390E041E02817190609F440E092
:1039100001E010E09E012F5F3F4F64E973E08BE010
:103920000E94431C2196E4E00C94F432A1E0B0E044
:10393000ECE9FCE10C94D8328091F903898341E0F1
:1039400090916403981301C040E001E010E09E01F3
:103950002F5F3F4F60E973E08AE00E94431C21968D
:10396000E4E00C94F432ABE0B0E0E9EBFCE10C9461
:10397000D83288E0E8ECF4E0DE01119601900D9277
:103980008A95E1F78091230490912404A091250465
:1039900089879A87AB8741E08B85811101C040E020
:1039A0000BE010E09E012F5F3F4F68E873E088E076
:1039B0000E94431C8111109225042B96E4E00C9484
:1039C000F4320F931F9341E0209148033091490353
:1039D00080912605909127052817390709F440E0C2
:1039E00002E010E026E235E06CE773E084E00E943C
:1039F000431C8823B1F041E020914A0330914B03EE
:103A000080917A0390917B032817390709F440E0ED
:103A100002E010E02AE733E066E773E085E00E9409
:103A2000431C1F910F910895CF92DF92FF920F9345
:103A30001F93CF93DF93F82E6B01EA01A801B90120
:103A4000CE010E94C93341E0892B09F440E09E0178
:103A5000B6018F2D0E94431CDF91CF911F910F91D2
:103A6000FF90DF90CF900895A9E0B0E0EAE3FDE198
:103A70000C94D83288E0E1E5F6E0DE011196019081
:103A80000D928A95E1F780912C05898709E010E075
:103A90002BE533E0AE014F5F5F4F6CE873E089E0E8
:103AA0000E94141D2996E4E00C94F432A1E0B0E0E9
:103AB000ECE5FDE10C94D8320E94DC14898301E02E
:103AC00010E02CE433E0AE014F5F5F4F60E873E03D
:103AD00086E00E94141D2196E4E00C94F4320F93CA
:103AE0001F9304E010E020E433E0AC016EE673E0E5
:103AF00082E00E94141D1F910F9108951F920F9252
:103B00000FB60F9211242F933F934F935F936F93B0
:103B10007F938F939F93AF93BF93CF93DF93EF9355
:103B2000FF93D091E900DF708091EC00C82FC17045
:103B300080FDC0E81092E9008091F000877F8093BB
:103B4000F00078940E94CA0F1092E9008091F00072
:103B500088608093F000CD2BCF70C093E900FF9177
:103B6000EF91DF91CF91BF91AF919F918F917F9115
:103B70006F915F914F913F912F910F900FBE0F90DA
:103B80001F9018951F920F920FB60F9211242F932A
:103B90003F934F935F936F937F938F939F93AF93D5
:103BA000BF93EF93FF938091E10082FF09C0809162
:103BB000E20082FF05C08091E1008B7F8093E100ED
:103BC0008091DA0080FF24C08091D80080FF20C05F
:103BD0008091DA008E7F8093DA008091D90080FF97
:103BE0009DC080E189BD82E189BD09B400FEFDCFA1
:103BF00081E080930C068091E705811109C00E9445
:103C0000B3060E9454078091E20084608093E20032
:103C10008091E10080FF17C08091E20080FF13C017
:103C20008091E2008E7F8093E2008091E2008061CB
:103C30008093E2008091D80080628093D80019BC04
:103C400085E080930C068091E10084FF2BC0809179
:103C5000E20084FF27C080E189BD82E189BD89B58A
:103C6000982F917080FFFBCF8091D8008F7D80933B
:103C7000D8008091E1008F7E8093E1008091E20086
:103C80008F7E8093E2008091E20081608093E20069
:103C900080910D06882309F447C084E080930C06C8
:103CA00080910C068091E10083FF27C08091E200A3
:103CB00083FF23C08091E100877F8093E10082E051
:103CC00080930C0610920D068091E1008E7F809308
:103CD000E1008091E2008E7F8093E2008091E2001B
:103CE00080618093E20042E060E080E00E94220771
:103CF0008091F00088608093F000FF91EF91BF9178
:103D0000AF919F918F917F916F915F914F913F9173
:103D10002F910F900FBE0F901F90189519BC109205
:103D20000C061092E70574CF8091E30087FD93E0C5
:103D300090930C06B5CF78941F921FB61F92112452
:103D40008F939F93AF93BF938091E1059091E2058C
:103D5000A091E305B091E4050196A11DB11D8093EA
:103D6000E1059093E205A093E305B093E405BF91CC
:103D7000AF919F918F911F901FBE1F9018959C012E
:103D80004FB7F8948091E1059091E205A091E30589
:103D9000B091E4054FBF821B930B08952FB7F894A1
:103DA0008091E1059091E205A091E305B091E405D1
:103DB0002FBF0895A3E1B0E0E0EEFEE10C94CF3216
:103DC0008E01045F1F4F88E0D8011D928A95E9F7A4
:103DD00081EEC82E81E0D82EF12CE12CAA24A394E8
:103DE000B12C2BEE822E21E0922EF60181916F01F3
:103DF0008F3F09F442C0F894E82FE295EF70F0E0AD
:103E000021A18F70A50102C0440F551F8A95E2F7CA
:103E1000CA01922F982B91A392A18095892382A306
:103E2000789400C0E5EEF1E0712C31E021912F3F54
:103E300009F46BC0A22FA295AF70B0E090968C9160
:103E400090E02F7002C0959587952A95E2F780FD46
:103E50005CC0832F782A330F8E169F0639F7F60140
:103E6000319780818F3F11F00E943E0A50EA5A95A7
:103E7000F1F7F801EE0DFF1D70828FEFE81AF80AD6
:103E8000A4E0EA16F10409F0B0CF48E050E0B80130
:103E90008DE993E00E94C933009741F028E0F801D2
:103EA000ADE9B3E001900D922A95E1F70091A603E8
:103EB000892B69F181E0809332030E94CE1E90939A
:103EC00031038093300380913003909131030E943D
:103ED000BF1E059700F110E008551C4F44E050E06C
:103EE0006DE973E0C8010E94C933F12C892B51F0B0
:103EF00084E0EDE9F3E0D80101900D928A95E1F7B5
:103F0000FF24F3941092320307C080E0A3CF809186
:103F100032038111D8CFF12C0E94B914E82EE09120
:103F2000A603882309F4CBC019821A821B821C8243
:103F30000E2F10E008551C4F809198038A3008F02E
:103F400088C047EC5BE1BE016F5F7F4FC8010E94F4
:103F50008614882309F4A2C04FE65DE1BE016F5FBD
:103F60007F4FC8010E948614882309F497C049E84E
:103F70005BE1BE016F5F7F4FC8010E9486148823FA
:103F800009F48CC041EE5CE1BE016F5F7F4FC80158
:103F90000E948614882309F481C046E55DE1BE01D4
:103FA0006F5F7F4FC8010E948614882309F476C092
:103FB00043E35BE1BE016F5F7F4FC8010E9486143F
:103FC000882309F46BC043EB5CE1BE016F5F7F4F58
:103FD000C8010E948614882309F460C044E35DE1AF
:103FE000BE016F5F7F4FC8010E948614882309F4C9
:103FF00055C046E95CE1BE016F5F7F4FC8010E947A
:104000008614882309F44AC047E75CE1BE016F5F6C
:104010007F4FC8010E948614882309F43FC0109284
:1040200098038091A50390E044E050E0BE016F5FEB
:104030007F4F88559C4F0E94C93321E0209339035C
:10404000892BF1F4E12C8E2D8F296396EDE00C94F1
:10405000EB3280913303909134030E94BF1E843F62
:10406000914008F06ECF80913903882359F384E0A2
:10407000FE013196DF011D928A95E9F7109239030E
:10408000E091A503F0E0E855FC4F89819A81AB816E
:10409000BC8180839183A283B383D5CF8091980321
:1040A0008F3F31F08F5F809398038A3008F4B9CF47
:1040B0000E94CE1E9093340380933303D4CF00919B
:1040C000A50310E008551C4FF0E0E855FC4F84E0D4
:1040D000ACE3B3E001900D928A95E1F78CE393E0B5
:1040E0000E94890680933B0384E0E0E4F3E0D8017A
:1040F00001900D928A95E1F78090440390904503DA
:10410000A0904603B0904703809135039091360309
:10411000A0913703B091380388169906AA06BB060A
:10412000D1F08092350390923603A0923703B0927B
:1041300038030E94B91481110EC00E942D08861AFE
:10414000970AA80AB90A8092990390929A03A092BA
:104150009B03B0929C0380914803909149039093F4
:1041600027058093260580914A0390914B039093F5
:104170007B0380937A0380914C038093D9059091BF
:104180004E0380914F0320914D032093D6059093C9
:10419000D5059091E60592FF05C09091F80389132B
:1041A0008093F8038BE0E0E5F3E0DE0111960190E7
:1041B0000D928A95E1F78091500386950091510305
:1041C000D0905203C090530310915A0310925A0397
:1041D0001123A9F010FF0BC029819091C80420FF82
:1041E00026C091609093C80460E00E94111A11FFEC
:1041F00006C020E04C2D6D2D802F0E94311988E0E3
:10420000EBE5F3E0A1E5B6E001900D928A95E1F7C8
:10421000809163030E947116809164038093F90377
:1042200080916503882371F00E94C8170CCF9E7F90
:104230009093C804809125048160809325040E9496
:104240006214D5CF0E94AD17FECEB0E0A0E0EBE245
:10425000F1E20C94D2327C01DC0114968C9188231B
:1042600009F4BBC061E0C7010E94EF0DEC01F7014A
:104270008581882309F18091D7059091D805009711
:10428000D9F0C817D907C1F0FEE08F9FC0011124F3
:10429000FC01EA58FE4F2081246020838F589E4FF6
:1042A000DC01CD93DC930E947F0F1092D50561E075
:1042B000C7010E94EF0DEC01F7012581222309F4CB
:1042C000E6C4AE015A95CE0199274115FFE45F0778
:1042D00038F090E080E0CF3FD10509F008F4CE013E
:1042E000BC01645071096432710518F08B970E9708
:1042F00080F4E091C103F0E0EE0FFF1FEA53FC4FA2
:10430000808191818F3F3FE7930719F00196918358
:10431000808380E280938E01D093FB03C093FA03E5
:10432000CE0190528115904268F0CE0190548115D3
:10433000904188F5F7018681807F51F441155F41F6
:1043400090F506C0D70116968C91807F09F4B1C410
:10435000FE01FF27ED33F10570F4EE54FF4FE491B9
:10436000E0938E01D70111968C9111978093FD03F4
:104370008C918093FC03C334EEE7DE07B9F108F0BB
:1043800039C5C1343EE7D30781F082E0C2344EE73D
:10439000D40761F08EC441155F41D0F2CE01805A3E
:1043A0009245809740F3FE01D5CF81E00E947C0DBD
:1043B00003C081E00E94530D0E948C0D80910D037B
:1043C000877059F0F7018581882339F08091E605DF
:1043D00082FF03C082E00E94650DCDB7DEB7EAE040
:1043E0000C94EE3283E00E94530DE8CF83E00E94EC
:1043F0007C0DE4CF8AEF90E00E94C316DFCF9C2FA4
:104400008D2FA3C4F801858181FFA3C4C8010E9438
:10441000650F9FC48091E50581608093E50595C097
:104420008091E60588608093E6058FC08091E50560
:104430008260F3CF8091E5058460EFCF8091E50540
:104440008860EBCF8091E6058160EDCF8091E60535
:104450008260E9CF8091E5058061DFCF8091E5053D
:104460008062DBCF8091E5058064D7CF0E94AA0FE0
:104470008091E5058068D1CF8091E5058C60CDCF36
:104480008091E6058360CFCF8091E5058E7FC5CF13
:104490008091E605877FC7CF8091E5058D7FBDCFF1
:1044A0008091E5058B7FB9CF8091E505877FB5CFFA
:1044B0008091E6058E7FB7CF8091E6058D7FB3CFE3
:1044C0008091E5058F7EA9CF8091E5058F7DA5CFF1
:1044D0008091E5058F7BA1CF0E94AA0F8091E50511
:1044E0008F779BCF8091E505837F97CF8091E605FD
:1044F0008C7F99CF8091E50582FB992790F921E087
:10450000922790FB82F990FB83F987CF8091E60593
:10451000982F909591708E7F892B90FB81F983CF96
:104520009091E505892F8F7B96FF806476CF0E945E
:10453000AA0F9091E505892F97FB87F980586DCFD9
:1045400061E08EE090E00E9413346091E505709187
:10455000E60584E090E00E9431340E94AA0F2ECF3D
:1045600060E0EFCF9091E505892F8F7E94FF806109
:1045700054CF9091E505892F8E7F90FF81604DCFBC
:104580009091E605892F877F93FF88604CCF8091BB
:10459000EA0269E2811165E38AEC92E00E9439083F
:1045A00013C48091C80480FF29C0282F2E7F209338
:1045B000C8043091C9044091CA045091CB04609161
:1045C000CC047091CD048091CE049091CF040E94D0
:1045D0000B19809125048160809325040E94621448
:1045E0008091510691E08927809351061092A10194
:1045F00080915006816080935006E0CE8160809368
:10460000C80461E086950E94111AEACF4AE35AE194
:1046100064E47AE1812F0E94E2084CE459E066E507
:1046200079E0812F0E94E208C9CE44E45AE16AE3AE
:104630007AE1812F0E94E20846E559E06CE479E0D6
:10464000F0CF49EC59E163ED79E1812F0E94E20856
:1046500048E359E062E479E0E4CF43ED59E169ECE5
:1046600079E1812F0E94E20842E459E068E379E0B1
:10467000D8CF4FEA59E16CEB79E1812F0E94E20833
:104680004EE159E06BE279E0CCCF4CEB59E16FEAB7
:1046900079E1812F0E94E2084BE259E06EE179E076
:1046A000C0CF45E959E162EA79E1812F0E94E20831
:1046B00044E059E061E179E0B4CF42EA59E165E9CB
:1046C00079E1812F0E94E20841E159E064E079E05C
:1046D000A8CF4DED59E167EF79E1812F0E94E20803
:1046E00048EE58E066EF78E09CCF47EF59E16DED7A
:1046F00079E1812F0E94E20846EF58E068EE78E009
:1047000090CF61E081E00E94111A81E00E94510681
:1047100055CEC330BCE7DB0709F477C008F05AC0B8
:10472000C115FCE7DF0709F463C0C130DC4709F4B9
:1047300072C0D70115968C911597CD91DC91882385
:1047400009F477C0CE010E948F0C182F682FCE017C
:104750000E94030DBE01812F0E943A0B0E94590B4B
:10476000D82FC92FA82EF7010581D680D2949FE0BB
:10477000D92280910D038770F1F0C02E0023E1F063
:104780008C2F807F803451F080E28D0F883098F03C
:10479000D11004C08C2F807E803269F08091E605B4
:1047A00082FF09C082E00E94650D80910D03877031
:1047B000CC24C3948111C12CBC2EB2948FE0B822BA
:1047C000FBE0FB1508F496C0EB2DF0E0ED5BFB4C35
:1047D0000C946233CB353CE7D30749F1CC354CE739
:1047E000D407D9F0CA35DC4709F0A3CF81E01CC05B
:1047F0000E94AA0F8FEF94E3ACE081509040A0405C
:10480000E1F700C000000E94FB136FEF7FEF90E024
:1048100080E00E9431340E946D178091E60582FB92
:10482000882780F991E089270E94D41A82CF80E0FE
:10483000FBCFCE010E94D00C182F8CCF1C2F1F70E5
:104840008C2F807F11F01295107F0023B9F0112377
:1048500069F080E28D0F883010F0A11009C08091BE
:10486000D605182B1093D6050E94100F8D2F40C02F
:104870008091D505182B1093D505F6CF8D2F0E946A
:104880009D121123B9F180E28D0F883010F0A11034
:1048900004C0812F0E947E0C03C0812F0E94770CE0
:1048A0000E94100F27C01C2F1F708C2F807F80321A
:1048B00011F01295107FAA2059F021E0A21609F4F8
:1048C0007EC0002309F48AC0DD2009F44CC0CECF9D
:1048D0008091E60582FD43C00023D9F1112339F010
:1048E0008091D605182B1093D6050E94100F80E0FA
:1048F0000E94E2124B2D4850550B4430510510F4E4
:104900000E94DC148D2F9C2F0E94A30D8111ADC13C
:104910001092ED021092EC02CC20B1F080910D03C8
:1049200080FD12C0D70115961C92869586958695B6
:104930000E947C0DC7010E94252180910D03869560
:10494000869586950E94530D60E0C7010E94EF0D89
:1049500044CD80E00E949D12112361F29ACF002382
:10496000A1F0D11004C0812F0E949312C3CF31E077
:10497000D312C0CF8091F803912F9823191709F40F
:10498000B9CF182B1093F803B5CFD110B3CF812F27
:104990000E948C129091F803812F892329F0812F96
:1049A000809589238093F8038091EB02912F9823BF
:1049B00009F4A0CF109518231093EB029BCF00238E
:1049C00029F045E04D1508F495CFCDCF54E05D15A5
:1049D00008F490CF812F0E948C128CCFDD20D1F370
:1049E00089E3A81209C09FEFA7EEB3E09150A04061
:1049F000B040E1F700C000008D2F0E949D127ACFD9
:104A00008C2F86958695837069F0813009F072CF7E
:104A10008D2F9C2F9370011102C080E090E00E94C6
:104A2000980868CF8D2F9C2F9370011102C080E0F1
:104A300090E00E94BD085ECF8C2F837009F040C0CB
:104A4000011158CF4D2F429546954770440F440FA2
:104A50008D2F8F7090E0042E02C0880F991F0A944A
:104A6000E2F730E020E0D4FF09C02FE030E002C0E0
:104A7000220F331F4A95E2F7209530954C2F46952B
:104A800046954370423099F078F460917A037091C2
:104A90007B03413039F0822B932B862397230E948E
:104AA0009E0D28CF862B972B822B932BF8CF822B12
:104AB000932B20917A0330917B0382279327EFCFAA
:104AC0008695002311F08C2F8170882309F412CF72
:104AD0004D2F429546954770440F440F8D2F8F7090
:104AE00090E0042E02C0880F991F0A94E2F730E08C
:104AF00020E0D4FF09C02FE030E002C0220F331FB6
:104B00004A95E2F7209530954C2F4695469543708F
:104B1000423099F078F46091260570912705413074
:104B200039F0822B932B862397230E944E0DE2CEE1
:104B3000862B972B822B932BF8CF822B932B2091B4
:104B400026053091270582279327EFCF1C2F1F7052
:104B5000002329F0812F0E947C0D8D2F05CF8D2FF2
:104B60000E948C12812F0E94530DC4CE8D2FE2EF34
:104B7000AE16A1F1EA1570F0F0EFAF16D1F021EF0B
:104B8000A21691F0002309F460C0D1106FCE8C2FD3
:104B90008F7128C033EFA31641F144EFA412F2CF76
:104BA0008091E60582FD32C08C2F8F710023D9F2EF
:104BB00019C0002371F054E05D1508F49BCE2C2F32
:104BC0002F7181E090E002C0880F991F2A95E2F7CB
:104BD000B6CF85E08D1508F48DCEF1CF8C2F8F7177
:104BE0000111C1CF0E947C0D85CE90E080E00023B2
:104BF00009F49BCF21E030E09C2F9F71D90102C0C6
:104C0000AA0FBB1F9A95E2F7CD018FCF002391F039
:104C10001C2F1F71812F0E947C0D8091E60582FF61
:104C200007C0B8E01B9FC0011124836080930D036F
:104C3000812FD8CF81E00E94650DE1E0ED1508F0ED
:104C400059CE82E00E94650D55CEDD2059F08933A2
:104C500009F0D2CEFFEF27EE33E0F1502040304094
:104C6000E1F7C8CE8C2F8F717ECF002319F0D110C1
:104C70004FCE52CED1104CCE8091EC029091ED02ED
:104C8000029709F045CE8D2F0E94A51641CEC33460
:104C9000EEE7DE0709F4A6CB08F077C0C1343EE7A3
:104CA000D30709F486CB82E0C2344EE7D40709F477
:104CB00081CBCE0197558F3F910511F008F049C087
:104CC0006E01DD24BEE0CB9FF00111248F010F584F
:104CD0001E4FEA58FE4F808120FB80F980832223FB
:104CE00009F490CB0E94CE1E9093BA038093B9032F
:104CF000D80112968C9112978F5F12968C9312970F
:104D00008091D5059091D605892B13968C93139796
:104D10008091F80314968C9314971696ED91FC915C
:104D20001797309729F01C966D917C91C8010995D1
:104D30008EE08C9DF0018D9DF00D1124EF58FE4FFB
:104D4000858181FF5CCB90E080E09093D7058093D4
:104D5000D805D70115968C918823C9F1CE019057BB
:104D60008397F0F484E090E00E94FD339093E60591
:104D70008093E505FE01E150F047E232F10508F0CD
:104D800049CBE15BFB4C0C946233C4345EE7D5073E
:104D900009F414CBC5348EE7D80709F40FCB89CFBB
:104DA000C6319CE7D90709F0B4CC8091D6058A7A40
:104DB00091E009F490E09093EA0269E2811165E3E1
:104DC0008AEC92E00E9463080E94100FF7CAC63175
:104DD000ACE7DA0709F4DBCB1091D6051272FE01BD
:104DE000E052F847E531F10508F0A3CCEF58FB4C51
:104DF0000C946233C4345EE7D50709F4FBCAC534AA
:104E00008EE7D80709F055CF8EEE90E0F5CACF9324
:104E1000DF9380910C03807F09F04DC080910B03DC
:104E2000882309F448C0E0914F0650911606C091BE
:104E30000703D0910603609108037091090347E0CE
:104E40005E17C9F18E2F90E0E49FF0011124E95E16
:104E5000F94F2481222391F1489FF001499FF00DE1
:104E60001124DF01A95EB94F11962C9111972C13D3
:104E700025C02C912D1322C015962C911597211128
:104E80001DC012962D913C91261B370B283C3105F5
:104E9000A8F480910C038F70806180930C03E35E13
:104EA000F94F80818F708061808386E093E00E945B
:104EB00025210E94850CDF91CF910895FC01319648
:104EC000E770BECFA4E1B0E0E8E6F7E20C94D032A0
:104ED0008C0186E0F801DE011F9601900D928A9503
:104EE000E1F7F8018481E58096E0A92E93E0B92EE0
:104EF00090910A03911128C0882319F1EE20F1F056
:104F0000C8010E94BE0DF82E8823C1F087E0F80189
:104F1000D50101900D928A95E1F780910A038130C5
:104F200031F480910603909107030E94C30C0E9404
:104F300007278F2D6496ECE00C94EC32C8010E9498
:104F40002521FF24F394F5CFD080C1808280938007
:104F5000F0900B032091080330910903A401421B38
:104F6000530BFF2009F4D9C0483C510508F092C00A
:104F70008823F9F29091070380910C03282F207F5A
:104F800009F056C0C91214C090910603D91210C07E
:104F9000E11048C08F70806180930C0386E093E03D
:104FA0000E94252180910C03F8018683F12CC1CF4A
:104FB000E11038C06C2D8D2D0E946A066C2D8D2D50
:104FC0000E946A06E82E8111F1CFDF86C88A8F859C
:104FD00098890E94C30C292F22952F70243058F4F1
:104FE0009F70223088F0992399F0F8019681907F84
:104FF00079F4FE2C9ECF2A5F2F70223068F0C80112
:105000000E942521EF2CF5CF992311F0882389F3F5
:10501000805E883070F3F3CF803F58F3815F833038
:1050200070F7E7CF80910C03816080930C03BECFB3
:10503000C91207C090910603D91203C0EE2009F4EB
:105040008DC0C8010E94BE0D882309F477CFEE20E1
:1050500009F474CF80910C03803288F0209106030C
:1050600030910703398728879B868A8690910A03A7
:105070009C871D868E87CE0108960E94252187E099
:10508000F801A6E0B3E001900D928A95E1F70E9445
:10509000072757CF90910C03292F207F51F486E0EA
:1050A00093E00E94252187E0F50111928A95E9F7A6
:1050B0007DCF882309F43DCF809107038C1110C068
:1050C00080910603D8120CC0E1100AC09683C80173
:1050D0000E94252187E0F50111928A95E9F729CFF1
:1050E000C8010E94BE0D882309F428CFEE2009F4E0
:1050F00025CF80910C03803210F22091060330916D
:1051000007033A8329839C828B8290910A039D83B3
:105110001E828F83CE010196B0CF483C5105D0F658
:10512000882309F40ECFFE2CEE2009F407CF8091DE
:1051300007038C1120C080910603D8121CC08091F7
:105140000C0380FD0FC0982F907F61F08683903F05
:1051500031F0982F907F905F8F70892B8683C801E4
:105160000E94252187E0F801A6E0B3E001900D92AE
:105170008A95E1F7DECEC8010E94BE0D81117FCF76
:1051800080910C03816080930C03C8010E9425214B
:10519000D0CEABE1B0E0EFECF8E20C94D9324E8B1C
:1051A0005F8B688F798F8A8F9B8F882349F08091DE
:1051B000EC029091ED0201969093ED028093EC0247
:1051C0008B8D81111092D5051D8A86E0FE017696A1
:1051D000DE011F9601900D928A95E1F78B89882355
:1051E00029F061E0CE010F960E94EF0D87E0FE01ED
:1051F0003F96DE01189601900D928A95E1F7CE0157
:1052000008960E94622781110CC087E0FE01389643
:10521000DE01119601900D928A95E1F78C8581113E
:105220000BC017E080914F0690911606891331C08C
:105230006B96E3E00C94F5322091160630E0C9013C
:1052400001968770992740914F064817190699F0E3
:1052500097E0929FD001939FB00D1124A95EB94FA2
:10526000FE01319601900D929A95E1F78093160612
:105270000E94850CD6CF0E94AA0F1092160610929B
:105280004F0687E0E6E0F3E0DF011D928A95E9F73B
:10529000C8CF819FC0011124895E994F0E94622767
:1052A000882331F280914F0690E00196877099270C
:1052B00080934F06B7CFA6E0B0E0E1E6F9E20C94A8
:1052C000D8320E94CE1E8C0180912E0390912F0324
:1052D0008017910781F019821A820E94CE1E682FD2
:1052E00049815A81792F80E090E00E94C92810936B
:1052F0002F0300932E032696E4E00C94F4321F92C1
:105300001FB61F9211248F939F93AF93BF938091E9
:10531000E005811113C08091E1059091E205A09113
:10532000E305B091E4054196A11DB11D8093E1050F
:105330009093E205A093E305B093E405BF91AF918C
:105340009F918F911F901FBE1F901895CDB7DEB70C
:105350002A970FB6F894DEBF0FBECDBF85B7806821
:1053600085BF85B7806885BF84B7877F84BF0FB648
:10537000F894A895809160008861809360001092F5
:1053800060000FBE80E890E00FB6F8948093610053
:10539000909361000FBE8CE39AE09093C9028093D2
:1053A000C8020E94B3060E9454078091E200846004
:1053B0008093E200789480910C068823A1F01091EC
:1053C000E9001F709091EC00892F817090FD80E8BA
:1053D000182B1092E9008091E80083FD0E94CA0F0B
:1053E0001F701093E90082E084BD93E095BD9AEFB1
:1053F00097BD80936E001092990310929A031092B9
:105400009B0310929C030E94B914809368018091C1
:105410006801882309F475C0109296018BE180938E
:1054200097010E94B91481110E9454318091680142
:105430008091680194E0811190E09093A60384E04C
:10544000891B8093A50384E90E943E0A86E60E9498
:105450003E0A87E90E943E0A86EC0E943E0A05EE5B
:1054600011E0D8018D918D018F3F11F00E943E0A0D
:10547000B1E00B3E1B07A9F788E0E8EAF3E0DF01A3
:10548000782E1D927A94E9F7EDE9F3E0DF011D92A1
:105490008A95E9F790E080E00E94FD33863E9E4FBA
:1054A00011F00E94661A82E090E00E94EF33809330
:1054B000B00384E090E00E94FD339093E605809372
:1054C000E5050E94DA1EEFEFF6E721E0E150F0403B
:1054D0002040E1F700C000000E94DA1E0E94B914CB
:1054E000E4E08111E0E0F0E0E855FC4F808181FFCD
:1054F0000CC06FEF7FEF90E080E00E9431340E949B
:10550000FB138BE1809396018ACF83E090E00E94A9
:10551000EF3390E00E949E0D1092F9048FEF9FEF01
:1055200090931305809312059093150580931405AD
:10553000909317058093160590931905809318058D
:1055400090931B0580931A0590931D0580931C056D
:1055500090931F0580931E0590932105809320054D
:105560001092D0049093EA048093E9049093EC04A1
:105570008093EB049093EE048093ED049093F004F9
:105580008093EF049093F2048093F1049093F404D9
:105590008093F3049093F6048093F5049093F804B9
:1055A0008093F70490E080E00E94FD33863E9E4F9A
:1055B00021F00E94661A0E94F01881E08093500644
:1055C00048E050E068E170E081E596E00E94DF335A
:1055D00010925006809151068C7F11F40E94F018B1
:1055E0000E94B91483E080931E0480E280935E06DB
:1055F0000E940E306BE070E08BE992E00E9483170E
:105600008823E9F180911E0465E070E081FD62C1AC
:1056100086E992E00E948317882389F16DE070E0AB
:1056200084E892E00E948317882349F10E942D08A4
:10563000605D7A488F4F9F4F6093CF057093D00580
:105640008093D1059093D205E1E6F6E080E092E008
:10565000DF019C011D9221503040E1F7F093680872
:10566000E09367088FEF9FEF9093600680935F064B
:1056700081E08093D4058093D30510921F0480911C
:10568000A703811179C090E080E00E94FD33863E3F
:105690009E4F21F00E94661A0E94491A88E090E00D
:1056A0000E94F7334B015C0184E290E00E94EF33EB
:1056B000282F30E040E050E060E070E080E090E0D3
:1056C00000E20E947B33282939294A295B2920934B
:1056D000C8043093C9044093CA045093CB04609328
:1056E000CC047093CD048093CE049093CF0480912A
:1056F00025048360809325042E7F89F50E94491A32
:1057000088E090E00E94F7336B017C0184E290E036
:105710000E94EF33282F30E040E050E060E070E07E
:1057200080E090E00E947B33B22FA32FF42FE52F6F
:105730005B0197018601BC29A12BFE29E32BB093C5
:10574000C804A093C904F093CA04E093CB04609307
:10575000CC04B092CD048093CE049093CF040E94E9
:1057600092098091C80480FF04C060E086950E9481
:10577000111A81E08093A7030E94B914811102C01D
:105780000E94573189E691E09093DD058093DC0516
:1057900080910C0600E112E1853009F4E0C00E941E
:1057A000DA1E21EB222E23E0322EE8EAF3E0F8871E
:1057B000EF83DF01F10191918D9123E0E93BF20745
:1057C00009F4DDC09817B9F30E94B9148A8795EFE0
:1057D000A92E91E0B92EE12CAF81B8859D90B887B4
:1057E000AF83F10161901F01691409F41CC269249F
:1057F0002501812C77247394872D862109F408C212
:10580000F72CF920FA85FF23A1F08982EA820E9411
:10581000CE1E9C838B8321E02D8391E0F11001C08B
:1058200090E09E8349815A816B817C818D810E94A9
:10583000C928FF2041F0D2018C91F12C8F3F19F043
:105840008987FF24F3940F2D10E08091D004800FFE
:10585000912F911D09976CF1A8E0CA2ED12CC01A86
:10586000D10AB8016F527B4FA60181ED94E00E94EE
:10587000D633B80167527B4FA60189ED94E00E94B0
:10588000D633A601440F551FB801660F771F675125
:105890007B4F89EE94E00E94D633B8016F517B4F65
:1058A000A60181EE94E00E94D63388E08F198093A0
:1058B000D0048091D00490E0E985AE2FB0E09D0146
:1058C000220F331F2B5D3D4FAA0FBB1FBD016A5D29
:1058D0007D4F98C181E992E09DCE80910C06843085
:1058E00009F42EC081E00E9471160E94F01781E039
:1058F0000E9471160E94AD171092E00588E190E0B9
:10590000A0E40FB6F894A895809360000FBEA09312
:10591000600083B7817F846083BF83B7816083BF6A
:105920007894889583B78E7F83BF0FB6F894A89537
:1059300080916000886180936000109260000FBECB
:1059400080910B06882359F00E94DA1EE8EAF3E002
:10595000819181114DC3B3E0E03BFB07C9F7809112
:105960000C06853009F4B9CF0E94AA0F0E94DC14FE
:1059700080E00E94711680E00E94711610CF98138B
:1059800023CF0E945B29D12C0E94B914882309F4EB
:10599000CEC00091D7051091D80501151105B9F0B9
:1059A0008091B9039091BA030E94BF1E893C910572
:1059B00070F0AEE00A9FC0011124FC01EA58FE4FCE
:1059C000208122FD04C08F589E4F0E947F0F80903F
:1059D000C6039090C703092C000CAA08BB081091BD
:1059E0008D01212F30E0E6ECF3E081E090E032968B
:1059F000281739070CF023C16091C2037091C303CB
:105A00008091C4039091C5030E9411082B013C01B1
:105A1000B9EC4B1651046104710414F18091C10377
:105A200090E0019669E170E00E940D338093C1031C
:105A3000880F991FFC01EA53FC4F11821082812FBD
:105A4000183108F087E18F5F80938D010E942D0847
:105A50006093C2037093C3038093C4039093C50300
:105A6000E2E08E169104A104B1040CF4F4C0A0E6A7
:105A7000BAEEA50194010E9468334B015C01F8EC79
:105A80001F9F90011124032E000C440B550B240D75
:105A9000351D461D571DA5E0B0E00E9468339B01EF
:105AA000AC01C501B4010E94213349015A0121EF23
:105AB00082169104A104B1042CF050EF852E912C94
:105AC000A12CB12C6091BD037091BE038091BF03E6
:105AD0009091C0030E9411082B013C0135E643164A
