:100000000C94BF050C94DC050C94DC050C94D32FE8
:100010000C94DC050C94DC050C94DC050C94DC05DC
:100020000C94DC050C94DC050C9415170C94011C45
:100030000C9498280C94DC050C94DC050C94DC05DD
:100040000C94DC050C94DC050C94DC050C94DC05AC
:100050000C94DC050C94ED170C94DC050C94DC0579
:100060000C94DC050C94DC050C94DC050C94DC058C
:100070000C94DC050C94DC050C94DC050C94DC057C
:100080000C94DC050C94DC050C94DC050C94DC056C
:100090000C94DC050C94DC050C94DC050C94DC055C
:1000A0000C94DC050C94DC050C94DC0573616E7417
:1000B00069008081828384A0A1A2A3A4C0C1C2C31D
:1000C000C400209495962020B4B5B62020D4D5D66F
:1000D0002000209798992020B7B8B92020D7D8D9E8
:1000E0002000209A9B9C2020BABBBC2020DADBDCBD
:1000F0002000209D9E9F2020BDBEBF2020DDDEDF92
:100100002000A7A800AFB000C600CA00C800A5A67E
:1001100000ADAE008788008F9000C500C900C70001
:10012000CB008586008D8E00ABAC00CFD000C60022
:10013000CA00C800A9AA00B1B2008B8C00CDCE00C5
:10014000C500C900C700CB00898A00919200202019
:10015000202020002057504D2020000000000000EB
:10016000000000000000000000000000000000008F
:100170000000000000000000000000000000007E01
:100180000F00D4FFFFFFC700000078000000000050
:100190000000002A2B2800000000000000000000E2
:1001A00000000000000029000000002C1E34202167
:1001B0002224342627252E362D3738271E1F2021AE
:1001C00022232425263333362E37381F040506070D
:1001D00008090A0B0C0D0E0F101112131415161727
:1001E00018191A1B1C1D2F3130232D350405060745
:1001F00008090A0B0C0D0E0F101112131415161707
:1002000018191A1B1C1D2F3130354C4D6163726F4C
:10021000203220746578743A0A73616E7469004DF7
:100220006163726F203120746578743A0A73616E6D
:100230007469002B0014001A00080015001700E074
:100240000004001600070009000A0003571D001BE8
:1002500000060019000500000000000000E300A8EF
:100260005D2C002A00130012000C0018001C000175
:100270005700570F000E000D000B002900025737E2
:10028000003600100011000000000000000457A913
:100290005D28002B001E001F00200021002200E02E
:1002A000003A003B003C003D00000003573E003F89
:1002B00000400041000000000000000000E30001D9
:1002C000002C002A0027002600250024002300001F
:1002D0000000004F00520051005000000000004597
:1002E000004400430042000000000000000457AA40
:1002F0005D28002B001E021F02200221022202E0C4
:10030000000000000000000000AB5D03570000008B
:100310000000000000AC5D000000000000E300AA47
:100320005D2C002A00270226022502240223023522
:1003300000310030002F002E002D00350231023038
:10034000022F022E022D02000000000000045701BF
:10035000002800005C0000000000000000A600C3B0
:100360005CC65CC85CCA5C0000AE00C45CC75CC90B
:100370005CCB5C00004600000000000000E30001D0
:10038000002C00A900AA00000000000000F100BD40
:1003900000BE00F000ED00EE00EF00AB00AC00FB93
:1003A00000FA00F900FC0000000000000004570102
:1003B00000280000DA0281FFD9F1DB20A4A62EAFCD
:1003C00000A0C000A1C800AED580A81FD300408DFA
:1003D00014200000010101010101010101020202DA
:1003E00002020202020203030303030303030404E1
:1003F00004040404040505050505060606060607AB
:100400000707070708080808090909090A0A0A0B63
:100410000B0B0C0C0C0D0D0D0E0E0E0F0F0F101004
:10042000111111121213131414151516161717188B
:100430001819191A1A1B1B1C1D1D1E1E1F202021F6
:100440002222232424252626272829292A2B2C2D3D
:100450002D2E2F30313232333435363738393A3B5E
:100460003C3D3E3F404142434445464748494A4C53
:100470004D4E4F50515354555658595A5B5D5E5F1F
:10048000616264656668696B6C6D6F7072737577B5
:10049000787A7B7D7E8082838587888A8C8E8F9117
:1004A000939596989A9C9EA0A2A3A5A7A9ABADAF41
:1004B000B1B3B5B7BABCBEC0C2C4C6C9CBCDCFD12B
:1004C000D4D6D8DBDDDFE2E4E7E9EBEEF0F3F5F8D4
:1004D000FAFDFF00AF00AE05010902A10185020986
:1004E00001A10005091901290815002501950875C4
:1004F0000181020501093009311581257F950275B9
:1005000008810609381581257F9501750881060542
:100510000C0A38021581257F950175088106C0C037
:1005200005010980A101850319012AB700150126DB
:10053000B700950175108100C0050C0901A1018566
:100540000419012AA002150126A002950175108147
:1005500000C005010906A1018506050719E029E784
:10056000150025019508750181020507190029EF7D
:100570001500250195F0750181020508190129056D
:10058000950575019102950175039101C005010959
:1005900006A101050719E029E71500250195087551
:1005A0000181029501750881010507190029FF15D0
:1005B0000026FF0095067508810005081901290528
:1005C000950575019102950175039101C009023BE2
:1005D00000020100A0FA0904000001030101000962
:1005E00021110100012240000705810308000109D3
:1005F000040100010300000009211101000122B6DD
:10060000000705820320000112010002000000081B
:10061000534601000100010200010C0343006F007A
:1006200072006E0065000000100366006F006F002E
:100630007300740061006E000000040309040000F0
:10064000000000003E5B4F5B3E003E6B4F6B3E0088
:100650001C3E7C3E1C00183C7E3C18001C577D57FD
:100660001C001C5E7F5E1C0000183C180000FFE7A9
:10067000C3E7FF00001824180000FFE7DBE7FF00D6
:1006800030483A060E00262979292600407F0505C4
:100690000700407F05253F005A3CE73C5A007F3E5B
:1006A0001C1C0800081C1C3E7F0014227F22140022
:1006B0005F5F005F5F0006097F017F00006689952C
:1006C0006A0060606060600094A2FFA29400080469
:1006D0007E04080010207E20100008082A1C080054
:1006E000081C2A0808001E10101010000C1E0C1EFA
:1006F0000C0030383E383000060E3E0E060000007A
:100700000000000000005F0000000007000700007C
:10071000147F147F1400242A7F2A120023130864F4
:100720006200364956205000000807030000001CF4
:10073000224100000041221C00002A1C7F1C2A00CC
:1007400008083E080800008070300000080808080B
:1007500008000000606000002010080402003E5104
:1007600049453E0000427F40000072494949460029
:100770002141494D33001814127F1000274545458B
:1007800039003C4A494931004121110907003649E5
:1007900049493600464949291E000000140000005E
:1007A0000040340000000008142241001414141406
:1007B00014000041221408000201590906003E41BC
:1007C0005D594E007C1211127C007F494949360068
:1007D0003E41414122007F4141413E007F4949491C
:1007E00041007F09090901003E41415173007F0822
:1007F00008087F0000417F4100002040413F010088
:100800007F08142241007F40404040007F021C02CC
:100810007F007F0408107F003E4141413E007F0978
:10082000090906003E4151215E007F091929460051
:1008300026494949320003017F0103003F404040FF
:100840003F001F2040201F003F4038403F006314FE
:10085000081463000304780403006159494D430000
:10086000007F414141000204081020000041414145
:100870007F000402010204004040404040000003A9
:10088000070800002054547840007F284444380072
:10089000384444442800384444287F003854545491
:1008A000180000087E0902001824241C78007F0824
:1008B0000404780000447D4000002040403D0000DA
:1008C0007F102844000000417F4000007C04780431
:1008D00078007C08040478003844444438007C18CC
:1008E00024241800182424187C007C080404080020
:1008F00048545454240004043F4424003C40402005
:100900007C001C2040201C003C4030403C0044281F
:10091000102844004C9090907C004464544C440057
:100920000008364100000000770000000041360852
:1009300000000201020402003C2623263C000000C5
:100940000000000000000000000000000000C0E007
:10095000F0F8F81800C0F0FCFEFFFFFFFFFFFFFFFC
:100960007E00000000000000000080C0E0E0E0E049
:10097000E0E0E0E0C0800000000080C0E0E0E0E0F7
:10098000E0E0E0E0C080000000E0E0C0C0E0E0E0C7
:10099000E00000E0E0C0C0E0E0E0E0E0C080000097
:1009A000000080C0E0E0E0E0E0E0E0E0C0800000C7
:1009B000000000000000000000000000E0F0F0F087
:1009C000E0ECEEF7F37020007C7C7C7E007E7E7E87
:1009D0007F7F7F000080C0E07E5B4F5BFEC0000039
:1009E000C000DCD7DEDEDED7DC00C0000000000087
:1009F00000000000000000000000000000000000F7
:100A000000000000000000F8FCFEFFE000FFFFFF18
:100A1000FFFFFF80FFFFFFFFFFFFFFFFFF1F07013B
:100A2000000000000000000000FFFFFF8100000048
:100A300000000081C3C3C30000FFFFFF810000006E
:100A400000000081FFFFFF0000FFFFFF010000002A
:100A5000000000FFFFFF010000000001FFFFFF009A
:100A600000FFFFFF9D1C1C1C1C1C1C9DDFDFDF000A
:100A70000000000000000000000000000F1F3F7F8A
:100A80007F7F7F7F3F1E0C001F1F1F3F003F3F3FA8
:100A90007F7F7F00307B7F7830202030787F3B0065
:100AA00003000F7F0F0F0F7F0F00030000000000F7
:100AB0000000000000000000000000000000000036
:100AC00000000000000000030F1F3F3F3F3F1F1FBB
:100AD0003F3F7F7F7F3F3F1F3F7F7F7F7F7C7878D7
:100AE000381C0F0000000000000001030707070783
:100AF00007070707030100000000010307070707B6
:100B000007070707030100000007070700000000B0
:100B100000000007070700000000000007070700AB
:100B20000000010307070707070707070301000085
:100B300000000000000000000000000000000000B5
:100B400000000000000000000000000000000000A5
:100B50000000000000000000000000000000000095
:100B60000000000000000000000000000000000085
:100B70000000000000000000000000000000112440
:100B80001FBECFEFDAE0DEBFCDBF12E0A0E0B1E0E4
:100B9000E8E8F4E602C005900D92A03EB107D9F74F
:100BA00027E0A0EEB2E001C01D92A035B207E1F748
:100BB0000E94BF280C94FE310C94000080913F05E8
:100BC000837051F0846080933F051092C80180913A
:100BD0003E05816080933E050895FC01AC014C5FA9
:100BE0005F4F8FEF91E32191822728E030E087FF6C
:100BF00009C0880F892721503109C9F7E417F50783
:100C000091F70895880FF7CF90913F05937071F099
:100C10008093400560934105493708F048E74093C9
:100C2000420580913E05816080933E050895E8ED80
:100C3000F0E080818E7F80831092E2001092DA00D3
:100C40001092E100A0EEB0E08C9181608C938081E5
:100C50008F77808319BCA7EDB0E08C918E7F8C9349
:100C600080818F7E808310920F0508952091E4008B
:100C70003091E50095E6A9012091EC00822F81706A
:100C800020FF06C08091E80080FF06C080E0089544
:100C90002091E80022FD1AC080913405882389F054
:100CA000853089F08091EB0085FD0FC02091E40034
:100CB0003091E50042175307F9F29150E1F684E0D4
:100CC000089582E0089583E0089581E00895EF9209
:100CD000FF920F931F93CF937C018B010E943606E6
:100CE000C82F811117C08091E80085FD0BC080914D
:100CF000E8008E778093E8000E943606882399F3F7
:100D0000C82F08C0F70181917F018093F100015045
:100D1000110949F78C2FCF911F910F91FF90EF9000
:100D200008958091360587FF13C08091E80082FF07
:100D300006C08091E8008B778093E80004C0809122
:100D400034058111F2CF0895809134058823D9F3B9
:100D50008091E80080FFF8CF8091E8008E77ECCF9B
:100D6000982F9093E900242F762F50E0891731F0C7
:100D70007091EC002091ED005091F00021FD07C032
:100D80009F5F973071F78093E90081E0089530917B
:100D9000EB003E7F3093EB003091ED003D7F3093D0
:100DA000ED003091EB0031603093EB007093EC007C
:100DB0002093ED005093F0002091EE0027FDE0CF4E
:100DC00080E00895CF92DF92EF92FF920F931F93EE
:100DD000CF93DF93C8EDD0E088818F7E8883E7EDE5
:100DE000F0E080818160808384E082BF81E0809335
:100DF0000F0588818E7F888302EE10E0F801108253
:100E00001092DA0081EEC82ED12CF6011082888172
:100E10008F77888388818068888388818F7D8883A5
:100E200019BC1092340510923505109233051092BA
:100E3000320590EEE92EF12CF70180818B7F8083C3
:100E400088818160888342E060E080E00E94B00693
:100E5000F60180818E7F8083F801808181608083AC
:100E6000808188608083F70180818E7F8083888184
:100E700080618883DF91CF911F910F91FF90EF9058
:100E8000DF90CF900895FC01CB0120913C0530917B
:100E90003D052617370790F0009729F42091E800C8
:100EA0002E772093E80040E0009751F4411108C0EC
:100EB0008091E80082FF31C080E00895C901F3CF3E
:100EC000209134052223A9F12530A9F12091E800D1
:100ED00023FD2DC02091E80022FDEACF2091E800FB
:100EE00020FFE2CF3091F3002091F200009719F03B
:100EF0002830310558F041E02830310509F040E054
:100F00002091E8002E772093E800CECF41914093C6
:100F1000F10001972F5F3F4FE9CF8091340588237F
:100F200041F0853041F08091E80083FFC1CF81E03E
:100F3000089582E0089583E0089508958091110551
:100F4000089587E797E7909301088093000888E168
:100F50009AE00FB6F894A895809360000FBE909326
:100F60006000FFCF0F931F93CF93DF9300D000D08B
:100F7000CDB7DEB7462F572FBC012FB7F89480911D
:100F8000060590910705A0910805B09109052FBFAE
:100F90008C019D01041B150B260B370BC901B801F1
:100FA0000F900F900F900F90DF91CF911F910F91A5
:100FB0000895CF93DF9300D000D0CDB7DEB78FB7C1
:100FC000F89420910605309107054091080550914D
:100FD000090529833A834B835C838FBF69817A81BA
:100FE0008B819C810F900F900F900F90DF91CF918C
:100FF00008959C018091C7018823C9F080910A055A
:1010000087FF15C0E62FE695E695E695603FE0F48C
:10101000E20FF32FF11D677081E090E001C0880FAF
:101020006A95EAF780959281892382830895F90170
:101030003296285F3F4F8191681303C0DF011197FB
:101040001C92E217F307B9F708959C018091C7013C
:101050008823C1F080910A0587FF14C0E62FE6952A
:10106000E695E695603FF8F4E20FF32FF11D677007
:1010700021E030E001C0220F6A95EAF78281822BDD
:1010800082830895F90132968FEF90E041916417C1
:1010900051F08F3F19F4411101C0892F9F5F9630A5
:1010A000A9F78F3F09F40895280F311D87FD3A9560
:1010B000F9016283089520910305309104052817F2
:1010C000390771F09093040580930305E0910105C1
:1010D000F0910205309721F00084F185E02D09940C
:1010E00008952091FF04309100052817390771F009
:1010F000909300058093FF04E0910105F0910205B3
:10110000309721F00680F781E02D09940895FA01C7
:1011100081110994FB01FDCFEFE3F5E0248130E17B
:10112000231B08F420E0248380913E058160809396
:101130003E050895EFE3F5E0248130E1230F08F444
:101140002FEF248380913E05816080933E050895B2
:10115000EFE3F5E0438120E1421B08F440E08181A8
:10116000628190E00C940406EFE3F5E0438120E116
:10117000420F08F44FEF8181628190E00C940406E5
:10118000EFE3F5E0628120E1621B08F460E0818119
:10119000438190E00C940406EFE3F5E0628120E1E6
:1011A000620F08F46FEF8181438190E00C94040694
:1011B000EFE3F5E08181438162818850990B0C94C3
:1011C0000406EFE3F5E0818190E0438162810896B7
:1011D0000C94040690913F05969596958FEF890F94
:1011E000913009F481E00C94DE0581E00C94DE0579
:1011F0000C94BD10FF920F931F93CF93DF93182F82
:10120000062FF42ED0E0C0E02F2D402F612FCE010D
:101210000E94F8082196C633D105B1F7DF91CF912E
:101220001F910F91FF900895409143048D3E59F412
:101230008091440487FF0DC01092440441110BC0FB
:1012400010923B0408C08E3E81F48091440418162D
:101250009CF3442381F08091450490914604892BAE
:1012600009F05AC010923A0408958F3E49F447FF9E
:10127000F0CF10924304809144048111ECCFE0CF71
:10128000803F19F41416ACF3E4CF90914504893FE4
:1012900029F41916F4F610924504DBCF8A3F19F4AD
:1012A00097FFD7CFF8CF909146048B3F29F497FF53
:1012B000D0CF10924604CDCF8C3F19F41916CCF341
:1012C000C8CF9FE0980F983090F4815F990B21E090
:1012D00030E0B90102C0660F771F8A95E2F7CB01B3
:1012E000809590914204892380934204B2CF8D3F30
:1012F00031F480913C048E7F80933C04AACF8E3FD2
:1013000021F480913C048D7FF7CF8F3F09F0A1CF6E
:1013100080913C048B7FF0CF089580913C0480FD48
:1013200016C081FD16C082FD16C080913A04882344
:10133000A1F0883280F428E0829FC001112468E285
:1013400070E00E941031862F672B39F0089582E0FB
:10135000089584E0089588E0089581E008958091DB
:101360003C0480FD14C081FD14C082FD16C0809134
:101370003B04882381F08E3180F420E5829FC001F8
:1013800011246EE170E00E941031862F089584E1EF
:10139000089588E2089588E0089580E508958D3ED7
:1013A00031F40E94AF0981958093440408958E3EE4
:1013B00019F40E94AF09F8CF8F3E31F40E94AF09B3
:1013C0008195809343040895803F19F40E94AF09EA
:1013D000F8CF893F29F40E948D0980934504089530
:1013E0008A3F21F40E948D098195F7CF8B3F31F41C
:1013F0000E948D0981958093460408958C3F19F4CD
:101400000E948D09F8CF9FE0980F983070F4815FAB
:10141000990B21E030E001C0220F8A95EAF7809114
:101420004204822B8093420408958D3F31F48091D1
:101430003C04816080933C0408958E3F21F48091A8
:101440003C048260F7CF8F3FB9F780913C04846001
:10145000F1CF80E0089578940895F894E82FE2950C
:10146000EF70F0E041A18F7021E030E0B90102C0DF
:10147000660F771F8A95E2F7CB01962F90959423FC
:1014800091A392A1892B82A30C942B0A90910A0517
:1014900092FF06C0282F28712830F9F4877F8460D6
:1014A00093FF06C0282F28712831F1F4877E8461CC
:1014B00020910B0520FF06C0382F38713830D9F441
:1014C000877F816021FF06C0282F28712831D1F441
:1014D000877E816194FD877E0895282F24712430B2
:1014E000F9F68B7F8860DCCF282F2471243101F737
:1014F0008B7E8861DDCF382F3171313019F78E7FC7
:101500008860E0CF282F2171213121F78E7E8861FC
:10151000E1CFCF93DF93EC01803E910509F460C0E9
:1015200050F58133910509F4A6C090F489329105F4
:1015300009F49AC08A9709F4A5C0C130D10509F40D
:1015400062C0CE010497813A910508F055C05BC096
:1015500089339105F1F182389105D9F1C59709F4E4
:101560007CC0C83AD10508F094C0C53AD10528F32B
:10157000A497D06448C0843E910509F453C068F430
:10158000823E9105E1F1833E910509F440C0CE0110
:10159000805E9109089780F536C0863E910509F472
:1015A0004CC0873E910509F44DC0811522E5920794
:1015B00008F0AAC0811531E5930708F0FAC08F3F03
:1015C000910511F008F074C08D3E910550F2D06580
:1015D0001AC080910A058370B1F0C0EED0E013C04C
:1015E00080910A0580FD12C190910B0590FF0BC000
:1015F000C3EED0E084FF07C0D0E0C0E004C080911B
:101600000A0582FDF5CFCE01DF91CF91089580913B
:101610000A0582FDFEC090910B0590FDDECF84FF90
:10162000F2CFEACF80910B0581FFEDCF80910A05C3
:10163000C7EED0E084FDE0CFE6CF80910A0583FDC0
:10164000F7CFE1CF80910A0583FDE6C090910B05AD
:1016500091FFE5CFC4EED0E0D6CF80910A0585FF9B
:10166000D2CFC9E2D0E0CFCF80910A0585FFCBCFA2
:10167000C5E3D0E0C8CF80910A0586FFC4CFCAE297
:10168000D0E0C1CF80910A0586FFBDCFC1E3D0E095
:10169000BACFCF3BD10508F07ACFC85AD0E0CC0FF3
:1016A000DD1FC453DE4F0990D881C02DD464ABCF69
:1016B000811540E5940760F4C11580E4D80708F06F
:1016C00075C0CE019A9581159F4108F49CCF94CFA7
:1016D000F4E096958795FA95E1F783702C2F26957F
:1016E0002695237040E2249F90011124382B8C2FE3
:1016F0008370C1E0D0E002C0CC0FDD1F8A95E2F715
:10170000C22BD32BDC687FCFC11586E5D80730F517
:10171000C11595E5D90708F060C0C11524E5D207C9
:10172000C0F49C2F969596959E0123703327C11582
:10173000D34508F043C0C1E0D0E002C0CC0FDD1FAC
:101740002A95E2F720E2929FC0011124C82BD92BE1
:10175000D9CFDC2FCC27C46FD06A55CFC1153AE55D
:10176000D30788F4C11549E5D40708F041C0CE017C
:1017700098558F3F910511F008F03ECFDC2FCC2714
:10178000C06FD06A40CFCE0190568115904208F0CC
:1017900033CF8D2F8F710E94460A90E0982F8827B3
:1017A00088279F719C012C2BE90120C0DF70D06A33
:1017B0002ACFD82FCC27C16FD06A25CFC1E0D0E087
:1017C00002C0CC0FDD1F2A95E2F730E2939FC001E3
:1017D0001124C82BD92BDA6816CF8C2F0E94460A09
:1017E000C82FD0E0DC2FCC27CC27DF71D0620BCF05
:1017F0008C2F8F700E94460A34E0D695C7953A9593
:10180000E1F7CF70DC2FC82FD069FDCEC9E3D0E05F
:10181000FACEC2EED0E0F7CEC6EED0E0F4CE8091A4
:101820007F03811110927F030895982F90958091E6
:10183000FD0489238093FD040895982F909580914D
:10184000FE0489238093FE04089580915D039091A6
:101850002C03981301C008958F5F8770FACFAF9261
:10186000BF92CF92DF92EF92FF920F931F93CF938D
:10187000DF93C0904B04D0904C04E0904D04F09066
:101880004E044091800350918103609182037091D6
:101890008303C42AD52AE62AF72ACFE1D0E0082F0D
:1018A00010E026E0929F000D111D112490E3A92E57
:1018B000BC2ED701C6010C2E04C0B695A7959795EE
:1018C00087950A94D2F780FD0FC0219788F7B12C35
:1018D0008B2DDF91CF911F910F91FF90EF90DF90B3
:1018E000CF90BF90AF900895AC9EF001AD9EF00DEB
:1018F0001124E00FF11FEE0FFF1FED5CFD4F8591EE
:1019000094910E94890A019701F3E2CFCF93DF936C
:10191000EC010E942F0CEC2FF0E096E0D99FE00D37
:10192000F11D112490E3899FE00DF11D1124EE0FAC
:10193000FF1FED5CFD4F85919491DF91CF910C9449
:10194000890A292F220FE22FE90FEE0FE80F9E2FB1
:101950009770E695E695E69585E0E89FF0011124FD
:10196000E85FFC4F50E040E080E0219130E0092E3C
:1019700002C0369527950A94E2F721703327042E8A
:1019800001C0220F0A94EAF7822B4F5F5F4F453068
:10199000510559F70895292F220FE22FE90FEE0F75
:1019A000E80F8E2F877041E001C0440F8A95EAF757
:1019B000E695E695E69585E0E89FF0011124E85F5D
:1019C000FC4F30E020E070E05191DF011197CB0136
:1019D000022E02C0969587950A94E2F78170819550
:1019E0008527842385278C932F5F3F4F2530310532
:1019F00059F70895282F80914B0490914C04A091A1
:101A00004D04B0914E040097A105B10549F004C002
:101A1000B695A795979587952A95D2F781700895E1
:101A200080E00895FC01808191810E94860C282F1E
:101A300092959F70963091F060F4925F9F70923013
:101A400030F481E0203F81F030F4283E30F080E037
:101A500008959A5FF3CF243FD1F7089581E0283E9F
:101A6000E0F3213FA1F7F9CF08959C019A958115E4
:101A70009F4150F5D901AA27B170F901EE27F27004
:101A8000B90166277470A9014427587034FF0EC04D
:101A900080E1AB2B09F480E0EF2B09F08062672B2B
:101AA00009F08064452B89F08068089581E0AB2BB4
:101AB00009F480E0EF2B09F08260672B09F0846065
:101AC000452B19F08860089580E00895CF93DF9347
:101AD000682F80914E0790914F076A30B9F420919A
:101AE000450588549540622F70E00E94F030281B15
:101AF000822F66E00E940431C82FC15018F4DF9194
:101B0000CF91089580E20E94660DF7CF6D30F9F411
:101B10009C012854354040914505642F70E0C9016F
:101B20000E94F030481B842FA901480F511D411518
:101B3000524018F080E030E020E0820F932F911D9A
:101B4000885B9A4F90934F0780934E07D8CF26E03B
:101B5000FC01A8E4B7E001900D922A95E1F7603E00
:101B600008F458C026E0FC0111922A95E9F7C091CB
:101B70004E07D0914F0746E050E0BE0188E497E061
:101B80000E9496319E0128543540892B41F1C901AC
:101B900045E0969587954A95E1F741E050E0BA0116
:101BA00002C0660F771F8A95E2F7CB016091460568
:101BB00070914705862B972BB9016B5F7F4FE5E04E
:101BC00076956795EA95E1F702C0440F551F6A952F
:101BD000E2F7842B952B90934705809346052A5F67
:101BE0003F4F40914505642F70E0C9010E94F030DD
:101BF000481B463010F4240F311D211572E03707C1
:101C000010F030E020E0285B3A4F30934F072093EC
:101C10004E0775CFF6E06F9FB0011124625C794FDB
:101C200046E050E00E948D31A2CFCF93DF93EC01CC
:101C3000FE018491811103C0DF91CF9108950E942C
:101C4000660D2196F5CF8091FE049091FD04892BBD
:101C50008093E20290917F039923A1F0892B8093D6
:101C6000E2028091C7018823D9F180910A0587FF9C
:101C700037C08EE1E4EEF2E090E0815098F59111EA
:101C80000E940F0C40E250E06FE573E082EE92E0BC
:101C90000E949631892B59F180E2E2EEF2E0AFE545
:101CA000B3E001900D928A95E1F7E0910105F09182
:101CB00002053097E1F08091C701882359F08091A7
:101CC0000A0587FF07C08091E2028093E30286E065
:101CD0008093E2020280F381E02D82EE92E009948B
:101CE00086E0C8CF2191222341F29F5FC6CF08959D
:101CF000CF93DF93EC0181E0898B8091FE049F817B
:101D0000892B8093FE048091FD049885892B809314
:101D1000FD040E94230EEA81FB81309739F06C8923
:101D20007D89CE010696DF91CF910994DF91CF9105
:101D30000895EF92FF920F931F93CF93DF93EC01DF
:101D40008A85811134C0EB80FC8087E5F81A26E192
:101D50002E9DC0012F9D900D1124DC01A75ABE4F6E
:101D60001496ED91FC911597309731F054966D9142
:101D70007C91815A9E4F099586E18E9D80018F9DB1
:101D8000100D1124075A1E4FF80187810E941D0C67
:101D9000F80180850E94150C0E94230E1882198676
:101DA0001B861E821D821092FC041092FB04DF91A0
:101DB000CF911F910F91FF90EF900895882321F00C
:101DC0000E94150C0C94230E0895882339F09091ED
:101DD000FD04892B8093FD040C94230E0895882321
:101DE00021F00E941D0C0C94230E0895882339F0D5
:101DF0009091FE04892B8093FE040C94230E089589
:101E0000CF92DF92EF92FF920F931F93CF93DF93C6
:101E10006C017B0164E670E088E70E94202EEC01F3
:101E200097FD12C010E000E0F601E00FF11F849171
:101E300064E670E00E949A2EEC01892B29F40F5F72
:101E40001F4F0E151F0581F70E94272FCE01DF912E
:101E5000CF911F910F91FF90EF90DF90CF90089559
:101E60008091F9049091FA04911103C091E08927BF
:101E70000895882369F062E070E085ED94E00E94A7
:101E8000000F892B19F08091F90408951092F9043C
:101E90008091F904EBCFCF93DF9300D000D00F9265
:101EA000CDB7DEB78091F9048D838091FA04882341
:101EB000F1F00E94D907DC01CB01805A9541AF4F68
:101EC000BF4F8093F5049093F604A093F704B0936A
:101ED000F8048D81811108C062E070E083ED94E028
:101EE0000E94000F892B61F08091F9048D838D8110
:101EF0000F900F900F900F900F90DF91CF9108955A
:101F000081E08093F904F0CF80930C0570930E0567
:101F100060930D0580913405843001F582E0809353
:101F2000E9008FEF9091E800815095FD06C095ED96
:101F30009A95F1F700008111F5CF8091E80085FFB7
:101F40000DC050E040E063E070E08CE095E00E945E
:101F500067068091E8008E778093E8000895BC01C1
:101F600084E00C94840FBC0183E00C94840F22E085
:101F70002093E9002FEF3091E800215035FD06C095
:101F800035ED3A95F1F700002111F5CF2091E800E9
:101F900025FF0BC050E040E066E070E00E9467065D
:101FA0008091E8008E778093E8000895CF93DF93C7
:101FB000D82FC92F8091C7018823C1F180910A05CC
:101FC00087FF34C060E282E08093E9008FEF909158
:101FD000E800815095FD06C095ED9A95F1F7000057
:101FE0008111F5CF8091E80085FF1DC08091C70168
:101FF00070E050E040E0811104C050E040E068E053
:1020000070E08D2F9C2F0E9467068091E8008E77EC
:102010008093E80080E2ED2FFC2FA2E1B5E0019073
:102020000D928A95E1F7DF91CF91089568E081E004
:10203000CBCF539A3BB1377F2BB128604FB7F89481
:1020400083E594E0FC010196508168E02BB9000023
:1020500000C057FF3BB9550F000000C000C000C0D2
:102060003BB900C06A9591F754E0853F950751F759
:102070004FBF8FE594E00197F1F700C0000008958D
:102080009F92AF92BF92CF92DF92EF92FF920F9307
:102090001F93CF93DF93082FD92EC62E972E7A0148
:1020A0008091B703AA24A394B12C8A3018F48AE053
:1020B000A82EB12CC1E0D0E0F8946C2D792D802FA2
:1020C0009D2DF7010995182F0E942B0A111104C0AC
:1020D0002196AC16BD066CF4812FDF91CF911F9134
:1020E0000F91FF90EF90DF90CF90BF90AF909F90B7
:1020F0000895CC9F9001CD9F300D300D112490E0BC
:1021000080E045E34A95F1F70000019682179307B6
:10211000C1F7D2CF80918E03811110C08091D80079
:1021200080618093D8008AE18A95F1F700C08091A0
:10213000D90080FF0AC081E080938E0381E09091F6
:102140008E03913009F080E0089582E080938E0341
:102150000E94170610923405F1CF0E948A1088233E
:1021600051F0E0910105F0910205309721F00190C6
:10217000F081E02D099480E00895FF920F931F9362
:10218000CF93DF93EC01F62E042F122F0E948A10BA
:1021900081110FC0CB31D1057CF06B97CE01880F38
:1021A000991FC80FD91FCD5ADB4FF98208831A83B4
:1021B00003C0CB31D10594F3DF91CF911F910F91E3
:1021C000FF900895CF93DF9300D000D0CDB7DEB756
:1021D0000E948A10882341F00F900F900F900F906B
:1021E000DF91CF910C94D9070E94D90769837A8334
:1021F0008B839C838091B8039091B903A091BA031B
:10220000B091BB0329813A814B815C81280F391F32
:102210004A1F5B1FCA01B9010F900F900F900F90DA
:10222000DF91CF910895AF92BF92CF92DF92EF925C
:10223000FF920F931F93CF93DF93CDB7DEB728970D
:102240000FB6F894DEBF0FBECDBF0E94E2106093C0
:102250004704709348048093490490934A04209162
:102260003F05122F137019F0122F16951695309105
:10227000C801323009F4C4C180F4311122C0109277
:10228000560160934F0470935004809351049093CF
:10229000520481E08093C80103C0333009F4B9C10E
:1022A00028960FB6F894DEBF0FBECDBFDF91CF9159
:1022B0001F910F91FF90EF90DF90CF90BF90AF9064
:1022C00008958091550118131FC023704091540147
:1022D00050E081E02417150609F480E081708093B6
:1022E00058018091440590915701981739F08093D7
:1022F000570140E060E080E00E94FA08112331F0CD
:10230000113079F080E04DC081E0E8CF8091580134
:10231000882309F446C040E060E080E00E94FA08AB
:10232000F1CFE09056018BE0E89EE02C11242BE0E9
:10233000F22EFE0C36E3A32EAF1410F496E3F92E22
:102340000E948A10882331F08BE1B82EBF1410F45C
:102350000BE1F02E0E948A10811105C02BE1E216DC
:1023600010F4BBE1EB2E0091400540914105E09156
:102370004205F0E0ED52FC4F411185C0A490A982C6
:102380000A2DAD82CE2CD12CCF1408F4F3C00E94BC
:102390008A10882309F400C181E04AE14F1508F44E
:1023A000B1CF909156019F5F909356018111FAC071
:1023B00082E08093C801809158018111F3C01123FC
:1023C00009F425C140914B0450914C0460914D0497
:1023D00070914E04CB01AA27BB270097A105B10538
:1023E00009F4E4C0AC01BD0180E1052F162F272FB1
:1023F0003327011511052105310519F0885FB90151
:10240000A8018A019B01F4E0369527951795079559
:10241000FA95D1F7011511052105310519F08C5FE9
:10242000B901A8018A019B01E2E03695279517952D
:102430000795EA95D1F7011511052105310519F028
:102440008E5FB901A8017695679557954795452BFD
:10245000462B472B21F08F5F813009F4A9C08230D1
:1024600009F0B7C01A82198220E040E06FEF89813D
:102470009A810E94F80889819A8101969A838983BA
:10248000C69791F70DCFC42ED12CB490BD8226E013
:10249000029FF00111242FEF30E0CF01B9010E941B
:1024A000F030802F90E0880F991F55E5569FD0019E
:1024B000579FB00D11248A1B9B0BA82FAA0FA80FA2
:1024C0005901AC18BD085D815A9DC0015B9D900DFE
:1024D000112499834A9FA0011124452F55275901A2
:1024E000A41AB50AA501BD81B49F5001B59FB00CD7
:1024F00011240B2DA9014A1B5109DA01AC9DA00141
:10250000AD9D500DBC9D500D1124452F5527241B0A
:10251000350BAD81A29FA001A39F500D1124633004
:102520007105C1F0EC3FB3E0FB0768F46130710561
:10253000A9F062307105B9F0EF3FF10508F022CF44
:10254000092F59831FCF6430710589F066307105FA
:10255000B9F318CFB9820D819D8314CF2D812983C2
:10256000BD82092F0FCF052FAD80A982F5CF0D8138
:102570005D8308CFF601E655FD4F808190915701AC
:10258000892331F0202F49816D81C6010E94F8080E
:102590002FEFC21AD20AF8CE81E055E35F1508F09A
:1025A00000CFB0CE112309F47BCE0CCF80E01DCF3D
:1025B0001A8219822FEF40E060E089819A810E949F
:1025C000F808A981BA811196BA83A983D69791F7A1
:1025D00067CE0E94AD1081FF63CE1A82198220E07F
:1025E0004FEF60E089819A810E94F80849815A8101
:1025F0004F5F5F4F5A8349834633510581F750CE71
:10260000109355012370209354010E94191083E008
:1026100041CE80913E05882351F046E050E06CE1C8
:1026200070E08FE395E00E94CA3110923E058091E0
:102630004F0490915004A0915104B09152048983A9
:102640009A83AB83BC830E948A10882391F06981AE
:102650007A818B819C810E94B207462F572FBC0143
:10266000403151056105710508F41ACE1092C80178
:1026700017CE0E94E210AB01BC0189819A81AB8127
:10268000BC81481B590B6A0B7B0BEACFEFE3F5E0EB
:1026900085E080838091C9019091CA01A091CB010E
:1026A00081839283A3838FE784838FEF858346E0C2
:1026B00050E06CE170E0CF010E94CA3110923E05FB
:1026C0000895CF9384E090E00E94BC31C82F82E24D
:1026D00090E00E94BC31982F8C2FCF9108951F93CA
:1026E000CF93DF93CDB7DEB728970FB6F894DEBF50
:1026F0000FBECDBF8091AF039091B003A091B10305
:10270000B091B203BC01CD010E94B20711E0643662
:1027100071058105910578F10E94E210DC01CB0181
:102720000296A11DB11D89839A83AB83BC838091DE
:102730002E0190912F0185569C4F20912D01422F03
:1027400050E0253010F044E050E0BE016F5F7F4F55
:102750000E94A33183E090E00E947A30182F8823F2
:1027600051F00E94D9076093AF037093B003809338
:10277000B1039093B203812F28960FB6F894DEBF71
:102780000FBECDBFDF91CF911F910895EF92FF92C1
:102790001F93CF93DF93CDB7DEB729970FB6F89489
:1027A000DEBF0FBECDBF7B0190E080E00E947A309B
:1027B000182F882309F47DC080911801482F50E01C
:1027C000882311F041E050E06091190170911A01E5
:1027D00065567C4FCE0105960E94A33180919303EC
:1027E00090919403A0919503B0919603BC01CD0103
:1027F0000E94B207643671058105910540F48CE9A9
:1028000093E00E94ED059D81891709F452C081E093
:1028100090E00E947A3081111BC010E080918F03FC
:1028200090919003A0919103B0919203F70180835E
:102830009183A283B383812F29960FB6F894DEBFCC
:102840000FBECDBFDF91CF911F91FF90EF90089504
:1028500080912001482F50E0853010F044E050E096
:10286000609121017091220165567C4FCE01019645
:102870000E94A3318CE993E00E94ED059D818913AC
:10288000CCCF0E94D90760939303709394038093F5
:1028900095039093960389819A81AB81BC81809343
:1028A0008F0390939003A0939103B093920311E050
:1028B000B5CF80919C0390919D03A0919E03B09110
:1028C0009F0389839A83AB83BC831111E4CFA6CF86
:1028D000AF92BF92CF92DF92EF92FF920F931F932E
:1028E000CF93DF9300D000D000D0CDB7DEB78D837B
:1028F0007B01A42EB22E3E836801DB018D919D9158
:102900000D90BC91A02DBC01CD010E94B20769833E
:102910007A838B839C83643671058105910510F45D
:10292000AA20C9F1BD810B2F0B2E000C110B88E0E2
:10293000B802F0011124EB5EFE4F81819281855631
:102940009C4F408150E0C416D50608F4A6016B2DBB
:102950007E810E94A331C8010E947A308983882336
:1029600041F00E94D907D7016D937D938D939C937D
:102970001397898126960FB6F894DEBF0FBECDBFA0
:10298000DF91CF911F910F91FF90EF90DF90CF904B
:10299000BF90AF900895B1E0B983EBCF0F931F9331
:1029A000CF93DF9300D000D000D00F92CDB7DEB729
:1029B00086E0EFE3F5E0DE01119601900D928A9535
:1029C000E1F71F8247E050E068EA73E0CE0101962C
:1029D0000E94963141E0892B09F440E007E010E0C5
:1029E0009E012F5F3F4F63EB73E084E00E94681409
:1029F00027960FB6F894DEBF0FBECDBFDF91CF9103
:102A00001F910F9108950F931F93CF93DF93D82FAA
:102A1000C92F44E050E060EA73E00E94963141E043
:102A2000892B09F440E004E010E02D2F3C2F67E9EA
:102A300073E082E00E946814DF91CF911F910F91A3
:102A4000089569EE7EEF90E080E00E94F83160E04A
:102A500082E090E00E94DA3160E083E090E00E9442
:102A6000DA31109280031092810310928203109247
:102A7000830360E084E090E00E94DA3160E082E26B
:102A800090E00E94DA3160E085E090E00E94DA3167
:102A900060E086E090E00E94DA316FEF87E090E03E
:102AA0000E94DA3140E050E0BA0188E090E00E94F4
:102AB000EC3160E08DE090E00E94DA3140E050E0DF
:102AC000BA0188E190E00E94EC3160E087E190E09B
:102AD0000E94DA3140E050E0BA018CE190E00E94BF
:102AE000EC3170E060E080E290E00E94F83140E07C
:102AF00050E0BA0188E190E00E94EC3140E050E003
:102B0000BA018FE090E00E94EC3140E050E0BA0161
:102B100083E190E00C94EC31CF92DF92EF92FF9240
:102B20000F931F93CF93DF93CDB7DEB728970FB6E0
:102B3000F894DEBF0FBECDBF82EB90E00E94150E71
:102B40008CEA90E00E94150E8EE491E00E94150E32
:102B500083E00E94FA0C8823D1F182EF90E00E947A
:102B6000150E8EE491E00E94150E20917F03809156
:102B7000FE04282B298328782D83398134743983E6
:102B80002223C1F185E291E00E94150E49818EE178
:102B900091E04423C1F180E291E00E94150E898109
:102BA000882399F187E191E00E94150E9D81992378
:102BB00091F181E191E00E94150E8CE091E00E947C
:102BC000150EA981A11132C082E091E031C081E0EF
:102BD0000E94FA0C882319F082EE90E0C0CF82E0C8
:102BE0000E94FA0C882319F082ED90E0B8CF82ECB5
:102BF00090E0B5CF82E291E00E94150E598151110B
:102C000007C08AE191E00E94150E84E191E0CCCFEB
:102C10008CE191E0C2CF8EE091E00E94150EB98167
:102C2000BB23D9F18AE091E00E94150E85E091E086
:102C30000E94150EE0917F038091FE04E82BE9834A
:102C4000E171ED83F981F272F983EE2359F18BE49E
:102C500091E00E94150E298184E491E0222359F12C
:102C600086E491E00E94150E8DE391E00E94150E1E
:102C70004D81442361F187E391E00E94150E82E3C8
:102C800091E00E94150E598151112DC00E94AD1086
:102C900081FD29C088E291E028C088E091E00E948F
:102CA000150E92CF88E491E00E94150E3981311102
:102CB0000BC080E491E00E94150E0E94AD1081FDD2
:102CC000D3CF8AE391E0D2CF82E491E0CBCF84E30B
:102CD00091E00E94150E8981882309F49BC080E34E
:102CE00091E00E94150E8BE291E00E94150E8EE499
:102CF00091E00E94150E84E591E00E94150E8091EE
:102D0000D90390911401981305C090910603903255
:102D100009F462C08093140190E290930603282F77
:102D200030E050E040E029833A834B835C8310928B
:102D30000503CA01B9012AE030E040E050E00E94FA
:102D40002431605D603349F089819A81AB81BC8117
:102D5000892B8A2B8B2B09F460E2609304038AE0B1
:102D6000C82ED12CE12CF12C69817A818B819C8138
:102D7000A70196010E9424312D833E834F835887FB
:102D800029813A814B815C8160E22A30310541051D
:102D9000510548F06D817E818F819885A70196014C
:102DA0000E942431605D6093030389819A81AB8125
:102DB000BC8120E284369105A105B10558F06D81F2
:102DC0007E818F8198852AE030E040E050E00E94CB
:102DD0002431205D20930203A2E0B3E00D90002097
:102DE000E9F71197BA83A98302E013E029813A81B8
:102DF00002171307A0F028960FB6F894DEBF0FBE97
:102E0000CDBFDF91CF911F910F91FF90EF90DF9099
:102E1000CF9008958EE291E00E94150E37CFF80111
:102E200081918F010E94660DE1CF1F920F920FB624
:102E30000F9211242F933F934F935F936F937F9340
:102E40008F939F93AF93BF93EF93FF938091E10094
:102E500082FF09C08091E20082FF05C08091E100FD
:102E60008B7F8093E1008091DA0080FF24C0809105
:102E7000D80080FF20C08091DA008E7F8093DA0036
:102E80008091D90080FF9BC080E189BD82E189BD2E
:102E900009B400FEFDCF81E08093340580910F05D9
:102EA000811109C00E9417060E94E2068091E2008B
:102EB00084608093E2008091E10080FF17C08091E0
:102EC000E20080FF13C08091E2008E7F8093E200D9
:102ED0008091E20080618093E2008091D80080625E
:102EE0008093D80019BC85E0809334058091E1007F
:102EF00084FF29C08091E20084FF25C080E189BD64
:102F000082E189BD09B400FEFDCF8091D8008F7D9C
:102F10008093D8008091E1008F7E8093E1008091C2
:102F2000E2008F7E8093E2008091E20081608093D6
:102F3000E20080913505882309F447C084E080933E
:102F40003405809134058091E10083FF27C0809192
:102F5000E20083FF23C08091E100877F8093E1003E
:102F600082E080933405109235058091E1008E7FD8
:102F70008093E1008091E2008E7F8093E200809157
:102F8000E20080618093E20042E060E080E00E9425
:102F9000B0068091F00088608093F000FF91EF917F
:102FA000BF91AF919F918F917F916F915F914F9161
:102FB0003F912F910F900FBE0F901F90189519BC45
:102FC0001092340510920F0576CF8091E30087FDB3
:102FD00002C081E0B4CF83E0B2CF78941F921FB6D5
:102FE0001F9211248F939F93AF93BF9380910605F7
:102FF00090910705A0910805B09109050196A11DC2
:10300000B11D8093060590930705A0930805B09322
:103010000905BF91AF919F918F911F901FBE1F9087
:1030200018959C014FB7F89480910605909107057B
:10303000A0910805B09109054FBF821B930B08951D
:103040002FB7F8948091060590910705A091080587
:10305000B09109052FBF08950E94201820914304C4
:1030600030914404232B21F080933F04909340043B
:103070002091450430914604232B21F080933D0498
:1030800090933E04E0910105F0910205309749F0DC
:1030900082E0809341040480F581E02D81E494E096
:1030A0000994089590E080E00E94710890E080E02B
:1030B0000E945B081092FD040E94230E86E0E1E46A
:1030C000F4E0DF011D928A95E9F710923B0410921B
:1030D0003A0410923C040C942C1860934B047093A7
:1030E0004C0480934D0490934E040C9452180F930B
:1030F0001F93CF93DF9300D000D0CDB7DEB741E070
:1031000050E060E070E004C0440F551F661F771F59
:103110008A95D2F7409550956095709580914B04B3
:1031200090914C04A0914D04B0914E048A019B01F2
:10313000082319232A233B2309831A832B833C83E7
:10314000C901B8010F900F900F900F90DF91CF91B0
:103150001F910F910C946D1890915E0380958923B7
:1031600080935E03282F277091F4282F082E000CDF
:10317000330B9217130659F090910B0592FD07C07F
:103180008595859585950E94771810925E03089520
:10319000CF93C0910B05C2FB992790F9981799F02E
:1031A00080FBC2F9C0930B0560910A0584E090E0B2
:1031B0000E94DA316C2F82E290E00E94DA3182E0E4
:1031C000CF910C94AC18CF9108950F931F93CF9388
:1031D000DF9300D000D0CDB7DEB741E050E060E033
:1031E00070E004C0440F551F661F771F8A95D2F701
:1031F00080914B0490914C04A0914D04B0914E04E9
:103200008A019B01082B192B2A2B3B2B09831A833C
:103210002B833C83C901B8010F900F900F900F9042
:10322000DF91CF911F910F910C946D1881E00E9456
:10323000FA0C882341F082E00E94FA0C882319F0EE
:1032400083E00C94E51883E00C9477186093800376
:103250007093810380938203909383030C9452189C
:103260001092FE048091C701E4EEF2E0882359F049
:1032700080910A0587FF07C08EE1DF011D928A95C4
:10328000E9F70C94521886E0F8CF1F93CF93DF93A1
:10329000CDB7DEB7AA970FB6F894DEBF0FBECDBF8D
:1032A00086E395E0FC0101962091F100208325E062
:1032B0008E339207B9F780913705893009F456C0EB
:1032C000C8F4823009F4B2C0833009F481C081307F
:1032D00071F18091E80083FF7CC280913605909166
:1032E00037059A3008F075C2E92FF0E0E050FE4C47
:1032F0000C9465318A3009F488C08B3051F7809185
:103300003605813231F780913A0590913B05892B42
:1033100001F78091E800877F8093E8000E94910682
:10332000809138058093C7010E943019D2CF8091D7
:103330003605813A71F68091E800877F8093E80036
:1033400080913A0590913B05892B61F460E282E11E
:1033500095E070E00E9443078091E8008B778093AE
:10336000E800B7CF60E090E080E0F3CF80913605D1
:10337000813209F0AECF80913A0590913B050297DA
:1033800008F0A7CF8091E800877F8093E8008091C4
:10339000E80082FF18C09091F3008091F20002973C
:1033A00031F48091F100813011F0863021F4809168
:1033B000F100809311058091E8008B778093E800FD
:1033C0000E94910686CF809134058111E0CF81CF94
:1033D00080913605813A09F07CCF80913A05909131
:1033E0003B05892B09F075CF8091E800877F80939A
:1033F000E8008091E80080FFFCCF8091C7018093B6
:10340000F1008091E8008E77D9CF80913605813226
:1034100009F05FCF8091E800877F8093E8000E94E9
:103420009106809139058093100553CF8091360520
:10343000813A09F04ECF8091E800877F8093E800C1
:103440008091E80080FFFCCF80911005D8CF8038B4
:1034500099F0823809F0BDC180913A058F708730AC
:1034600008F0B7C18093E9008091EB0085FB8827C5
:1034700080F91092E90006C08091320590913305E1
:10348000911182609091E800977F9093E80080937B
:10349000F1001092F1008091E8008E7796C18823A8
:1034A00009F484C1823009F094C1809138058111FA
:1034B00087C180913A058F702FEF280F263008F0D2
:1034C00088C18093E9002091EB0020FF79C19330FF
:1034D00031F48091EB0080628093EB0071C1909198
:1034E000EB0090619093EB0021E030E001C0220FEF
:1034F0008A95EAF72093EA001092EA008091EB00A7
:103500008860EACF811165C1109138051F778091DD
:10351000E3008078812B8093E3008091E800877F2F
:103520008093E8000E9491068091E80080FFFCCF24
:103530008091E30080688093E30082E0111183E0D2
:103540008093340546C18058823008F042C14091D2
:103550003805509139054C3D83E05807A1F583E0CB
:103560008A838AE289834FB7F894DE01139620E0BC
:103570003EE051E2E32FF0E050935700E49120FF4A
:1035800003C0E295EF703F5FEF708E2F90E0EA305E
:10359000C0F0C7968D939D932F5F243159F74FBF8D
:1035A0008091E800877F8093E8006AE270E0CE01B6
:1035B00001960E9443078091E8008B778093E80092
:1035C00008C1C096E7CF20913A0530913B05852F81
:1035D00099278330910509F160F48130910509F450
:1035E00072C0029709F0F5C08BE390E0EDECF5E0D6
:1035F00029C08132910509F45AC0829709F0E9C0C7
:103600002115310509F469C02130310509F0E1C007
:1036100086EB90E0E7EDF4E015C0CA019927413050
:10362000B1F18230910509F43AC0892B09F0D1C07B
:10363000EAE3F6E0E4918E2F90E0EAE3F6E000970B
:1036400009F4C7C02091E800277F2093E80020916B
:103650003C0530913D058217930708F49C0140E03A
:103660002115310509F03EC041113CC08091E800B0
:1036700082FDA1CF80913405882309F49CCF853049
:1036800009F499CF8091E80083FFF0CF94CFE8E26E
:10369000F6E0E4918E2F90E0E8E2F6E0D0CFEAE1A8
:1036A000F6E0E4918E2F90E0EAE1F6E0C8CF211534
:1036B000310571F02130310509F08BC089E090E0CF
:1036C000E8EFF5E0BFCF82E190E0E8E0F6E0BACFC6
:1036D00089E090E0EFEDF5E0B5CF80E490E0EDE833
:1036E000F5E0B0CF80913405882309F464CF8530AC
:1036F00009F461CF8091E80083FD5DCF8091E800FF
:1037000082FDB4CF8091E80080FFAACF9091F300B2
:103710008091F2002115310519F08830910550F0A3
:1037200041E0089709F040E08091E8008E778093AF
:10373000E80096CF44914093F10031962150310931
:103740000196E8CF803809F044C08091E800877F77
:103750008093E800809135058093F1009CCE811123
:1037600038C0109138051230A0F58091E800877FAD
:103770008093E800109335050E949106112311F003
:1037800084E005C08091E30087FDFACF81E080935B
:10379000340542E061EC81E00E94B00642E261EC57
:1037A00082E00E94B0068091340513C080913805F4
:1037B000813079F481E0933009F080E08093330523
:1037C0001092E9008091E800877F8093E8000E94D2
:1037D00091068091E80083FF0AC08091E800877F0E
:1037E0008093E8008091EB0080628093EB00AA96C2
:1037F0000FB6F894DEBF0FBECDBFDF91CF911F9102
:1038000008951F920F920FB60F9211242F933F939A
:103810004F935F936F937F938F939F93AF93BF93D8
:10382000CF93DF93EF93FF93D091E900DF70809106
:10383000EC00C82FC17080FDC0E81092E9008091B3
:10384000F000877F8093F00078940E9445191092D1
:10385000E9008091F00088608093F000CD2BCF705C
:10386000C093E900FF91EF91DF91CF91BF91AF91AC
:103870009F918F917F916F915F914F913F912F9188
:103880000F900FBE0F901F901895882379F19CEF31
:10389000980F913A38F4682F82EE92E00E94F9076F
:1038A0000C94230E90E2980F983050F4877091E0BA
:1038B00001C0990F8A95EAF7892F0E941D0CF0CF5D
:1038C0009BE5980F933020F490E080E00C94710811
:1038D00098E5980F973120F490E080E00C945B0815
:1038E0008D3E20F00E9414090C942C180895CF935B
:1038F000DF93EC010E94451CCE010E94350D9E0114
:10390000205E31092830310510F0CD2B21F4DF91F4
:10391000CF910C94EF0EDF91CF910C94DE0EFB0152
:10392000DC018C91813021F4808191810C94771C91
:10393000823019F482819381F9CF0895CF93C82FF3
:10394000882309F46DC08CEF8C0F813AB8F5809113
:10395000C701882311F180910A0587FF1EC0EC2F53
:10396000E695E695E695F0E0EE51FD4F828190E018
:103970004C2F477021E030E002C0220F331F4A95E0
:10398000E2F782239323892B89F06C2F82EE92E059
:103990000E94F9070E94230E09C0E4EEF2E0819133
:1039A000C81799F322E0EA3EF207C9F76C2F82EEBE
:1039B00092E00E942508CF910C94230E80E28C0F98
:1039C000883068F4C77021E030E001C0220FCA954A
:1039D000EAF78091FE04822B8093FE04ECCF8BE506
:1039E0008C0F833038F42C2F2452330BC901CF9124
:1039F0000C947108E8E5EC0FE73150F4F0E0EE0FBD
:103A0000FF1FE453FE4F80819181CF910C945B089E
:103A1000CD3E30F08C2F0E94CF09CF910C942C1802
:103A2000CF9108951F93CF93DF93182FEB010E943E
:103A30009E1C209731F4812FDF91CF911F910C9420
:103A4000451C8FE99FE00197F1F700C00000219726
:103A5000F0CFAF92BF92CF92DF92EF92FF920F938F
:103A60001F93CF93DF93EC018AE0A82EFE012491EF
:103A7000222309F4A3C0213009F044C03196849177
:103A8000813061F42296FE01849170E060E0893318
:103A900011F460E570E00E94121D07C0823039F415
:103AA0002296FE0184910E949E1C2196DFCF8330D6
:103AB00031F42296FE0184910E94451CF6CF843099
:103AC00009F07AC02296FE01249190E080E0FE0188
:103AD00031962053330B2A30310548F0019728F3F3
:103AE000EFE9FFE03197F1F700C00000F7CFA89EA3
:103AF000A001A99E500D1124C901840F951F249186
:103B0000EF01E5CFE22FF0E0E557FE4FB490822FB2
:103B100086958695869590E0FC01E558FE4FE490E9
:103B20002770F12C022E02C0F594E7940A94E2F774
:103B300031E0E322FF24FC01E559FE4FC490D12C73
:103B4000022E02C0D594C7940A94E2F7E1E0CE2297
:103B5000DD24FC01E55AFE4F049110E002C01595EA
:103B600007952A95E2F701701127E114F10419F085
:103B700081EE0E949E1CC114D10419F086EE0E94B1
:103B80009E1CF9E370E060E0BF1202C060E570E0E7
:103B90008B2D0E94121DCD2819F086EE0E94451C27
:103BA000EF2819F081EE0E94451C012B09F47DCF0E
:103BB00070E060E08CE26FCFEF0177CFDF91CF91C3
:103BC0001F910F91FF90EF90DF90CF90BF90AF903B
:103BD0000895CF93DF93EC010E94350D9E01205E86
:103BE00031092830310510F0209739F40E94F60E83
:103BF0008C2FDF91CF910C949E1C0E94E50EF8CF84
:103C0000FB01DC018C91813021F4808191810C9445
:103C1000E91D823019F482819381F9CF0895CF9301
:103C2000DF93EC01FB018881823031F48281938142
:103C30000E94E91D81E08B87DF91CF9108959F92CB
:103C4000AF92BF92CF92DF92EF92FF920F931F93AA
:103C5000CF93DF93CDB7DEB760970FB6F894DEBF92
:103C60000FBECDBF1A821982FE01339686E0DF01B6
:103C70001D928A95E9F78CEFE82E81E0F82E10E08E
:103C800000E0CC24C394D12C26E0A22E22E0B22E58
:103C9000F70181917F018F3F09F446C0F894E82F26
:103CA000E295EF70F0E021A18F70A60102C0440FF1
:103CB000551F8A95E2F7CA01922F982B91A392A1E2
:103CC0008095892382A30E942B0A00C0E0E0F2E0E5
:103CD00031E0912C21912F3F09F47FC0A22FA295B2
:103CE000AF70B0E090968C9190E02F7002C09595E7
:103CF00087952A95E2F780FD70C0832F982A330FAD
:103D0000AE16BF0639F7F701319780818F3F11F06A
:103D10000E942D0A50EA5A95F1F7E1E0F0E0EC0F2D
:103D2000FD1FE00FF11F90820F5F1F4F0430110540
:103D300009F0AECF48E050E0BE016F5F7F4F8CEBE3
:103D400093E00E9496317C01892B49F088E0FE01C6
:103D50003196ACEBB3E001900D928A95E1F71091AA
:103D6000C503E114F104D9F181E0809386030E9438
:103D7000201890938503809384038091840390910D
:103D800085030E941118059790F0E12FF0E0EA53A7
:103D9000FC4F8091BC0380838091BD03818380911F
:103DA000BE0382838091BF0383831092860381E0E8
:103DB00090E0EF28C1F060960FB6F894DEBF0FBE1A
:103DC000CDBFDF91CF911F910F91FF90EF90DF90CA
:103DD000CF90BF90AF909F90089580E08FCF80915B
:103DE00086038111CACF0E948A10F82EE091C50384
:103DF000882309F483C01A8619861C861B860E2F19
:103E000010E00A531C4F8091B7038A3008F03FC07E
:103E100046EC53E1BE01675F7F4FC8010E9440102E
:103E2000882309F444C043E055E1BE01675F7F4F3A
:103E3000C8010E9440108823D1F14FE653E1BE0132
:103E4000675F7F4FC8010E944010882381F14EECCC
:103E500054E1BE01675F7F4FC8010E944010882374
:103E600031F11092B7038091C40390E044E050E038
:103E7000BE01675F7F4F8A539C4F0E94963121E0BD
:103E800020938D03892B61F5F12C8F2D94CF809198
:103E90008703909188030E941118843F914008F095
:103EA000B7CF80918D03811112C080E084CF8091C3
:103EB000B7038F3F29F08F5F8093B7038A3098F262
:103EC0000E9420189093880380938703EACFFE0115
:103ED000399684E0DF011D928A95E9F710928D03EF
:103EE000E091C403F0E0EA53FC4F89859A85AB85E5
:103EF000BC8580839183A283B383C7CFF0E0EA536C
:103F0000FC4F0091C40310E00A531C4FF8948081C9
:103F10009181A281B38180939C0390939D03A09390
:103F20009E03B0939F038CE993E00E94ED0580937C
:103F30009B030E942B0AF8948091A0039091A10307
:103F4000A091A203B091A303F80180839183A2837F
:103F5000B3830E942B0AF894C090A403D090A503C9
:103F6000E090A603F090A7038091890390918A03C3
:103F7000A0918B03B0918C03C816D906EA06FB0604
:103F8000F1F0C0928903D0928A03E0928B03F09201
:103F90008C030E948A10811112C00E94D9076D877C
:103FA0007E878F87988BC61AD70AE80AF90AC092CB
:103FB000B803D092B903E092BA03F092BB030E9417
:103FC0002B0AF89486E0E8EAF3E0AFE3B5E001906D
:103FD0000D928A95E1F70E942B0A67CF6F927F922C
:103FE0009F92AF92BF92CF92DF92EF92FF920F9388
:103FF0001F93CF93DF93CDB7DEB729970FB6F89411
:10400000DEBF0FBECDBF7C01DC0113968D919C916C
:104010001497892B41F01C911196DC90812F8D21F2
:104020008F3F09F017C629960FB6F894DEBF0FBE72
:10403000CDBFDF91CF911F910F91FF90EF90DF9057
:10404000CF90BF90AF909F907F906F9008950E9407
:104050002F0C082F682F89819A810E94CB0CE12FA9
:10406000F0E0B6E0DB9EE00DF11D112410E3019FAE
:10407000E00DF11D1124EE0FFF1FED5CFD4F0591CA
:104080001491D70112968C918111ACC0F7018281F5
:104090000A3AFDE51F0709F44EC108F093C0083A3B
:1040A0003DE5130709F411C1093A4DE5140709F478
:1040B0003CC1980137552F3F310511F008F04CC035
:1040C00040914A0150914B014217530724F4309319
:1040D0004B0120934A0196E1929F5001939FB00CAF
:1040E0001124A501475A5E4F6A01DA0150968C935C
:1040F0005097F701928116968C911697992309F49F
:104100002BC11A961C930E9319978F5F16968C935A
:104110000E942018D6011E969C938E931D97809125
:104120007F0317968C9317978091FD049091FE045E
:10413000892B18968C931897ED91FC9111973097D5
:1041400039F054966D917C91C501815A9E4F099525
:104150001093FC040093FB04D70112968C918823E2
:1041600009F48BC50236BDE51B0761F008F01EC1DE
:104170000631FCE51F0708F0FDC002302CE51207F0
:1041800008F419C10E94611390930B0580930A05EE
:1041900006314CE5140708F02EC102305CE5150726
:1041A00008F01CC160910A0510910B0584E090E0B5
:1041B0000E94DA31612F82E290E00E94DA310E949F
:1041C00030198AC00B3A5DE5150709F4BEC00C3AF8
:1041D0006DE5160709F06DCF882309F47DC08BE0EB
:1041E00092E0B7C0C8019056811570E2970748F079
:1041F000905E8115A0E19A0720F0915C81159F41A6
:1042000058F5C80199279C01245031092432310501
:1042100018F08B970E9780F4E091DE03F0E0EE0F3C
:10422000FF1FED51FC4F808191818F3F2FE7920757
:1042300019F001969183808380914A0190914B01FE
:10424000019609F423CF89E5C82E81E0D82EB12C40
:10425000A12C9924939431C090E080E00F3F110588
:1042600009F088F6C801CFCFD60116968C91169723
:104270008823E9F019968D919C910817190739F454
:104280008091FB049091FC040817190781F0F60156
:104290009786148703878189811103C0C6010E9414
:1042A000780EC60106960E94990E1092FD04FFEF4B
:1042B000AF1ABF0A26E1C20ED11C80914A0190912B
:1042C0004B018A159B0584F6E1CE882351F181E0EC
:1042D0000E94E5180E94161980915E03877009F408
:1042E000A2CED70112968C91882309F49CCE80919E
:1042F0000B0582FD98CE82E029960FB6F894DEBFBA
:104300000FBECDBFDF91CF911F910F91FF90EF9026
:10431000DF90CF90BF90AF909F907F906F900C9464
:10432000AC1881E00E947718D5CF882311F082E085
:10433000CFCF82E0F7CF882321F083E00E94E518F9
:10434000CBCF83E00E947718C7CF882329F28FE173
:1043500092E00E94291DC0CF882309F4FDCEFA0106
:104360008189882309F4F8CEC501815A9E4F0E94A5
:10437000990EF2CEC8018B5F9C45099708F402CFD5
:104380000631BCE51B07B9F48091FE048A7A91E0FE
:1043900009F490E09093070369E2811165E382EEEE
:1043A00092E00E9425080E94230E96CF063A3DE532
:1043B000130709F4E7CE0B35FDE51F0709F4A9C182
:1043C00008F088C101153CE5130709F495C10F3DBC
:1043D0001C4509F0DFC00E9421157ECFF801E35093
:1043E000FC4580910A058160E331F10530F5E65F17
:1043F000FD4C0C94653104306DE5160778F40B3FE5
:104400007CE5170708F4CECEF801EC5FFC45E830F8
:10441000F10510F5E35EFD4C0C94653102368DE537
:10442000180709F496C090910A05892F8E7F90FF96
:104430008160063A1D4509F0B5CE80930A05B2CEDB
:1044400080910A058260F9CF80910A058460F5CFDA
:1044500080910A058860F1CF80910B05816080937F
:104460000B05A0CE80910B058260F9CF80910A05E3
:104470008061E3CF80910A058062DFCF80910A05D9
:104480008064DBCF0E94301980910A058068D5CF07
:1044900080910A058C60D1CF80910B058360DFCFBE
:1044A00080910A058E7FC9CF80910A058D7FC5CF87
:1044B00080910A058B7FC1CF80910A05877FBDCF90
:1044C00080910B058E7FCBCF80910B058D7FC7CF61
:1044D00080910A058F7EB1CF80910A058F7DADCF87
:1044E00080910A058F7BA9CF0E94301980910A051F
:1044F0008F77A3CF80910A05837F9FCF80910B0593
:104500008C7FADCF80910A0582FB992790F921E03D
:10451000922790FB82F990FB83F98FCF80910B0556
:10452000982F909591708E7F892B90FB81F997CF72
:104530000E94301990910A05892F97FB87F98058BE
:104540007CCF61E08EE090E00E94DA312BCE60E01B
:10455000F9CF90910A05892F8F7E94FF80616DCFEE
:104560008091FE048272073DACE51A0778F4033CA3
:10457000BCE51B0778F0F801E45CFC45E331F1058C
:1045800008F062C0EB5DFD4C0C9465310E351D45A5
:1045900009F4A2CEF70182811081D180882309F429
:1045A000BCC0812F9D2D0E942F0C082F682F812FBA
:1045B0009D2D0E94CB0CE12FF0E016E0D19EE00D86
:1045C000F11D112420E3029FE00DF11D1124EE0FD7
:1045D000FF1FED5CFD4F859194910E94890A8C012B
:1045E000682ED7011296DC90129715967C907294E3
:1045F0005FE0752280915E038770C1F09D2CDD2005
:10460000B1F0812F807F803421F080E2800F8830EC
:1046100068F080910B0582FD09C082E00E94AC1811
:1046200080915E038770992493948111912C812F3E
:1046300082958F70A82EB12C8C3008F0DBC0F5016C
:10464000E85CFD4C0C94653180913F0591E0892731
:1046500080933F051092C80180913E058160809350
:104660003E053ACE4AEE58E065EF78E00E948708B2
:1046700033CE45EF58E06AEE78E0F8CF48ED58E0E9
:1046800061EE78E0F3CF41EE58E068ED78E0EECFF0
:1046900040EC58E06CEC78E0E9CF4CEC58E060EC92
:1046A00078E0E4CF48EA58E064EB78E0DFCF44EB11
:1046B00058E068EA78E0DACF4CE858E06AE978E058
:1046C000D5CF4AE958E06CE878E0D0CF81E00E948D
:1046D000DE0502CE0C355DE51507E9F00D351D450B
:1046E00009F058CF80910B0582FB882780F991E073
:1046F00089270E94C8184ECF0E9430197FEF84E3AB
:104700009CE0715080409040E1F700C000000E94A2
:10471000A10781E0EECF80E0ECCF812F9D2D0E949C
:10472000A10C082F48CFB12FBF70CB2E107F19F0EE
:10473000C29430EFC322802FDD20B9F0CC2069F085
:1047400090E2900F983010F0011109C08091FE04A2
:10475000C82AC092FE040E94230E802F49C0809177
:10476000FD04C82AC092FD04F6CF0E94451CCC204F
:1047700009F440C0005E8C2D083010F0611003C0B9
:104780000E941D0C02C00E94150C0E94230E32C014
:10479000E12FEF70CE2E107F103219F0C29420EF6F
:1047A000C2226620A1F0F1E06F1609F48EC0DD2070
:1047B00009F498C0772009F48EC0D70115968C9122
:1047C000159780FFCACF8F7015968C9384C0209167
:1047D0000B0522FF57C0DD2009F44CC0CC2039F076
:1047E0008091FE04C82AC092FE040E94230E80E03D
:1047F0000E949E1CA8E0AA1AB108B4E0AB16B1044E
:1048000010F40E94AD109920A9F080915E0380FD04
:1048100011C0F70112828595859585950E94E5184E
:10482000C7010E94EE1F80915E0385958595859551
:104830000E94771885E0F701DE01119601900D9234
:104840008A95E1F789819A810E94A10C9A81E98178
:10485000F0E006E0909FE00DF11D112410E3819F30
:10486000E00DF11D1124EE0FFF1FED5CFD4F859152
:104870009491D9CB80E00E94451CCC2009F4BACF9A
:104880008C2D7ECFDD20A1F090917F038C2D892B84
:10489000711003C00E94F60EADCF01E07012FACF86
:1048A00022FDA8CF981709F4A5CF80937F03A2CF4C
:1048B000711006C00E940F0C8C2D0E94EF0E9ACF33
:1048C00011E0711609F496CFF5CFDD2031F025E027
:1048D000271508F48FCF8C2DDDCF34E0371508F481
:1048E00089CFEACF772041F3093349F4BFEFE7EEF0
:1048F000F3E0B150E040F040E1F700C00000802F4D
:104900000E94451C77CF812F86958695837061F034
:10491000813009F06FCFC8019370D11002C090E0D0
:1049200080E00E945B0866CFC8019370D11002C07E
:1049300090E080E00E9471085DCF802FDD2029F09B
:104940000E94CF090E942C1855CF0E941409FACF5B
:10495000812F837009F072C0D1104CCF202F229587
:1049600026952770220F220F402F4F7050E070E0E5
:1049700060E0022E04C0440F551F661F771F0A9483
:10498000D2F780E090E0DC0104FF0FC08FE090E000
:10499000A0E0B0E004C0880F991FAA1FBB1F2A9592
:1049A000D2F780959095A095B095E12FE695E69584
:1049B000E370E23051F1E33009F10091800310918E
:1049C00081032091820330918303E13099F0842B9D
:1049D000952BA62BB72BAC01BD014023512362239D
:1049E00073234E835F8368877987CB01BA010E9466
:1049F000261900CF402B512B622B732B8A019B0170
:104A0000082B192B2A2B3B2B12C0842B952BA62B62
:104A1000B72B409180035091810360918203709184
:104A200083038C019D0104271527262737270E8332
:104A30001F8328873987C901B801D9CF8695DD2022
:104A400011F0812F8170882309F4D4CE202F229574
:104A500026952770220F220F402F4F7050E070E0F4
:104A600060E0022E04C0440F551F661F771F0A9492
:104A7000D2F780E090E0DC0104FF0FC08FE090E00F
:104A8000A0E0B0E004C0880F991FAA1FBB1F2A95A1
:104A9000D2F780959095A095B095E12FE695E69593
:104AA000E370E23081F1E330F9F000914B041091B2
:104AB0004C0420914D0430914E04E13089F0842B58
:104AC000952BA62BB72BAC01BD01402351236223AC
:104AD00073234E835F8368877987CB01BA0110C047
:104AE000402B512B622B732B8A019B01082B192B16
:104AF0002A2B3B2B0E831F8328873987C901B801D6
:104B00000E946D1877CE842B952BA62BB72B409146
:104B10004B0450914C0460914D0470914E048C01F3
:104B20009D010427152726273727E4CF1F70DD2096
:104B300029F0812F0E94E518802FACCE802F0E9493
:104B4000EF0E812F0E94771855CE802F22EF62162C
:104B5000B9F1261570F030EF6316D1F041EF64160D
:104B600091F0DD2009F466C07110F7CD812F8F71AF
:104B70002BC053EF651659F164EF6612F2CF8091A6
:104B80000B0582FF39C0812F8F71DD20D9F21CC047
:104B9000DD2089F074E0771508F42CCE1F7181E0D8
:104BA00090E0A0E0B0E004C0880F991FAA1FBB1FCF
:104BB0001A95D2F7ACCF25E0271508F41BCEEECF1F
:104BC000812F8F71D110BECF0E94E51813CE60E007
:104BD00070E0CB01DD2009F493CF1F7181E090E0FC
:104BE000A0E0B0E0AC01BD0104C0440F551F661F3A
:104BF000771F1A95D2F76DCFDD2089F01F71812FB5
:104C00000E94E51880910B0582FD07C058E0159FB2
:104C1000C0011124836080935E03812FD5CF81E092
:104C20000E94AC1861E0671508F0E4CD82E00E94B4
:104C3000AC18E0CD772059F0893309F060CE7FEFD2
:104C400087EE93E0715080409040E1F756CE812F7F
:104C50008F7178CF85E0F701DE01119601900D92FA
:104C60008A95E1F7D70112962C9189819A812111B9
:104C7000EEC90E94A10C082FF2C90631ECE51E070F
:104C800009F06ECC8091070369E2811165E382EE41
:104C900092E00E94F90787CB1F93CF93DF93809117
:104CA0002B03807FA9F480912803882389F08091C9
:104CB0005D03D0912C036091260370912703A0918E
:104CC0002903B0912A03C62FC72316E0D81304C0C6
:104CD000DF91CF911F91089590E0109711F0CF3F91
:104CE00019F401968770F2CF189F9001199F300D2B
:104CF0001124F901E35DFC4F41814713F2CF40815C
:104D00004613EFCF42814111ECCF438154814A1BBE
:104D10005B0B483C510528F780912B038F70806115
:104D200080932B03F901EE5CFC4F80818F708061D2
:104D3000808386E293E00E94EE1FDF91CF911F9166
:104D40000C94250CAF92BF92CF92DF92EF92FF921C
:104D50000F931F93CF93DF93CDB7DEB72B970FB68B
:104D6000F894DEBF0FBECDBF8C0185E0F801DE01F7
:104D7000179601900D928A95E1F7F801E28086E29C
:104D8000A82E83E0B82E6091290370912A03611543
:104D9000710509F41AC19091260340912703842FCD
:104DA00089238F3F09F411C120813181C380D480D0
:104DB000F0902803F601E61BF70BFF2009F4D0C0A2
:104DC00080912B03582F507FE83CF10508F0ABC0D1
:104DD000511177C0FE2C431321C092131FC0E11064
:104DE0001DC08F70806180932B03C5010E94EE1F50
:104DF00080912B03F80185838F2D2B960FB6F894A5
:104E0000DEBF0FBECDBFDF91CF911F910F91FF90FD
:104E1000EF90DF90CF90BF90AF900895CD2829F00C
:104E2000822F83238F3F09F0EBC080E0F82FF170D1
:104E3000DF2EE0915D0340912C0356E080FD1CC005
:104E4000EE20D1F280912B03816080932B03F12C13
:104E5000D3CF8E2F90E05E9FF0011124E35DFC4FD5
:104E60006181361306C06081261303C06281E61299
:104E7000E7CFFC013196E770E413EBCF2F8338873F
:104E80008F8198850E94860C292F22952F70903251
:104E900060F0225F2F70223078F49F7051F0F8019B
:104EA0009581907F31F4D12C0AC09F7011F0882336
:104EB000D1F3805E8830B8F3C8010E94EE1FFD2C4C
:104EC0009BCF431306C0921304C0F801EE2009F4EF
:104ED00061C0C8010E94120D882309F1EE20F9F08B
:104EE00080912B03803270F02091260330912703AC
:104EF0003A8329831B82DD82CC828E83CE01019688
:104F00000E94EE1F86E0F801A6E2B3E001900D9248
:104F10008A95E1F70E944C26FF24F3946DCFC801D7
:104F20000E94EE1FF9CF51110AC086E293E00E9461
:104F3000EE1F86E0F50111928A95E9F788CF4313B9
:104F4000C8CF9213C6CFE110C4CFF8018583C80142
:104F50000E94EE1F86E0F50111928A95E9F74CCF89
:104F6000E83CF105B8F7FE2CEE20C9F243131FC050
:104F700092131DC080912B0380FD10C0982F907F4D
:104F800069F0F8018583903F31F0982F907F905F12
:104F90008F70892B8583C8010E94EE1F86E0F8017F
:104FA000A6E2B3E001900D928A95E1F725CFC80102
:104FB0000E94120D8111A6CF80912B0381608093F6
:104FC0002B03C8010E94EE1F17CFEE2009F4A7CFD4
:104FD000C8010E94120DF82E882309F4A0CF86E0A4
:104FE000F801A6E2B3E001900D928A95E1F7809175
:104FF0002603909127030E94860C0E944C26FCCE2B
:1050000081E08E2513CF1F93CF93DF93CDB7DEB70B
:1050100067970FB6F894DEBF0FBECDBF4B8B5C8B8E
:105020006D8B7E8B8F8B61111092FD041A8A2C89F7
:105030008E899F893B893D872E876F87998B888BC7
:1050400086E0FE013D96DE01179601900D928A954D
:10505000E1F7CE0107960E94A226882389F016E088
:1050600080915D0390912C0389134FC067960FB612
:10507000F894DEBF0FBECDBFDF91CF911F91089591
:1050800086E0FE013796DE01119601900D928A9519
:10509000E1F74A855B854115510509F37F816885F4
:1050A000862F87238F3FD9F220912C0330E0C9014E
:1050B000019687709927E0915D03E817190671F44E
:1050C0000E94301910922C0310925D0386E0E6E2F4
:1050D000F3E0DF011D928A95E9F7C1CF79836A83F6
:1050E0005D834C8396E0929FD001939FB00D112475
:1050F000A35DBC4FFE01319601900D929A95E1F7A8
:1051000080932C030E94250CAACF819FC0011124FB
:10511000835D9C4F0E94A226882309F4A7CF80912B
:105120005D0390E001968770992780935D0398CF87
:105130001F921FB61F9211248F939F93AF93BF931B
:1051400080910505811113C0809106059091070596
:10515000A0910805B09109054196A11DB11D80934C
:10516000060590930705A0930805B0930905BF9124
:10517000AF919F918F911F901FBE1F901895CDB733
:10518000DEB72E970FB6F894DEBF0FBECDBF84B743
:10519000877F84BF0FB6F894A895809160008861DE
:1051A00080936000109260000FBE80E890E00FB620
:1051B000F89480936100909361000FBE85B780687A
:1051C00085BF85B7806885BF89E29AE09093E10248
:1051D0008093E0020E9417060E94E2068091E2009E
:1051E00084608093E2007894809134058823A1F054
:1051F0001091E9001F709091EC00892F817090FD53
:1052000080E8182B1092E9008091E80083FD0E944D
:1052100045191F701093E90082E084BD93E095BDAD
:105220009AEF97BD80936E001092B8031092B90365
:105230001092BA031092BB030E948A1080933D0122
:105240000E948A1081110E948C2F80913D018091D3
:105250003D0194E0811190E09093C50384E0891BA7
:105260008093C40384E90E942D0A86E60E942D0AD9
:1052700087E90E942D0A86EC0E942D0A00E012E0C8
:10528000F6E0EF2EF2E0FF2ED8018D918D018F3FD9
:1052900011F00E942D0AE016F106B1F788E0E6EC65
:1052A000F3E0DF01282F1D922A95E9F7ECEBF3E0FC
:1052B000DF011D928A95E9F790E080E00E94C431F9
:1052C000893E9E4F11F00E94211582E090E00E94DD
:1052D000BC318093CE030E94611390930B058093A1
:1052E0000A050E941F1EEFE3FCE93197F1F700C0A9
:1052F00000000E941F1E0E948A10E4E08111E0E07D
:10530000F0E0EA53FC4F808181FF08C06FEF7FEF30
:1053100090E080E00E94F8310E94A10783E090E0D5
:105320000E94BC31282F30E050E040E02F833887C6
:1053300049875A87CA01B9010E94261990E080E086
:105340000E94C431893E9E4F21F00E9421150E9487
:10535000461346E050E06CE170E08FE395E00E9478
:10536000AC3110923E0580913F058C7F11F40E9474
:10537000461383E08093350480E2809345050E94C4
:105380001A2E6DE070E086EC93E00E94000F892BEE
:1053900009F043C08091350463E070E081FD6BC289
:1053A00083EC93E00E94000F892BB9F56DE070E06B
:1053B00083EB93E00E94000F892B79F50E94D907B7
:1053C0006F83788789879A87DC01CB01805A954162
:1053D000AF4FBF4F8093F5049093F604A093F7046A
:1053E000B093F804E8E4F5E080E092E0DF019C018E
:1053F0001D9221503040E1F7F0934F07E0934E07A4
:105400008FEF9FEF909347058093460581E080934F
:10541000FA048093F904109236040E948A108111D4
:1054200002C00E948F2F8EE391E09093020580933B
:1054300001058091340500E112E1853009F45AC27A
:105440000E941F1ED82E81110E94D907A6ECB3E03E
:10545000EFECF3E010E000E0B02EED9081918E15BE
:1054600009F457C28E25C12CFF24F394982F9F2155
:1054700009F44AC20E948A10882399F0C982BA822C
:10548000EF2081E009F480E08B830E942018816086
:10549000782F9D838C8349815A816B818D810E94F5
:1054A0000328F801E153FC4F8081F826F0820E9426
:1054B0008A10882309F4CCC080914A0190914B0155
:1054C000C12C76E1B72E019609F070C24090E3033B
:1054D0005090E403052C000C6608770810914C01ED
:1054E000212F30E0E3EEF3E081E090E032962817E0
:1054F00039070CF065C22091DF033091E003409141
:10550000E1035091E203CA01B9010E94B2074B01C5
:105510005C0139EC83169104A104B10414F180916B
:10552000DE0390E0019669E170E00E941031809303
:10553000DE03880F991FFC01ED51FC4F1182108290
:10554000812F183108F087E18F5F80934C010E9412
:10555000D9076093DF037093E0038093E103909396
:10556000E20342E044165104610471040CF434C2B5
:10557000A0E6BAEEA30192010E946B316F83788797
:1055800089879A8758EC159F90011124032E000CEF
:10559000440B550B280D391D4A1D5B1DA5E0B0E0DD
:1055A0000E946B316B877C878D879E876F817885A2
:1055B00089859A852B853C854D855E850E942431A1
:1055C00029013A0181EF48165104610471042CF05D
:1055D00050EF452E512C612C712C2091DA03309123
:1055E000DB034091DC035091DD03CA01B9010E9445
:1055F000B2074B015C0135E683169104A104B104A6
:1056000084F00E94D9076093DA037093DB038093E0
:10561000DC039093DD038091D9038093D8034092FB
:10562000D7031091D803A091D703A11BBB0BA501F1
:1056300094010E9476316F83788789879A8724E660
:1056400030E040E050E00E944631120F1093D90341
:105650000E9413118091FA048823A1F180913704EC
:10566000909138040E941118C29708F0B9C1209196
:105670004605309147052115310509F0D7C18091C4
:10568000F9048823F9F00E94D9076F837887898706
:105690009A878091F5049091F604A091F704B09157
:1056A000F8042F81388549855A85281B390B4A0B08
:1056B0005B0BDA01C9018F3F9F4FAF4FBF4710F41B
:1056C0000E94300FD1100E944B0F86E0E1E4F4E01D
:1056D000DE01119601900D928A95E1F70091430445
:1056E000F0904404E0904504109146041092430465
:1056F000109244041092450410924604802F8F2982
:1057000009F448C080913F04909140040E94111810
:105710009C0180913B04882309F487C2253131051F
:10572000C8F18F3F19F08F5F80933B04002359F03D
:105730000E94AF099FEF10160CF491E0899F802D15
:10574000112480934304FF2059F00E94AF099FEF7A
:105750001F140CF491E0899F802D11248093440440
:10576000309143043323B1F020914404222391F07B
:1057700045EB3403C0011124992309F42BC2909303
:10578000430455EB250390011124332309F426C269
:1057900030934404812F8E2909F448C080913D0440
:1057A00090913E040E9411189C0180913A04882334
:1057B00009F436C221353105C8F18F3F19F08F5FEA
:1057C00080933A04EE2059F00E948D099FEF1E1439
:1057D0000CF491E0899F802D1124809345041123BE
:1057E00059F00E948D099FEF11160CF491E0899FEA
:1057F000802D112480934604309145043323B1F069
:1058000020914604222391F045EB3403C00111247A
:10581000992309F4E7C19093450455EB25039001C2
:105820001124332309F4E2C13093460480914304E8
:1058300090914404892B90914504892B90914604C2
:10584000892B11F00E942C180B83FC82ED821E83A1
:1058500086E0FE013196A1E4B4E001900D928A95B4
:10586000E1F70E94AD1090913904891709F4E1CD58
:1058700080933904DECD80EC93E094CD80913405A3
:10588000843041F10E9413110E94300F10920505DF
:1058900048E150E080E40FB6F894A895409360008A
:1058A0000FBE8093600083B7817F846083BF83B71E
:1058B000816083BF7894889583B78E7F83BF0FB64E
:1058C000F894A895809160008861809360001092A0
:1058D00060000FBE80913305882361F00E941F1E77
:1058E000E6ECF3E08191811185C1AEECB3E0AE1737
:1058F000BF07C1F780913405853009F4BFCF0E94FE
:1059000030190E94AD109CCDC394FF0C26E0C2124A
:10591000ADCD0F5F1F4F0830110509F09DCD8FEF02
:1059200089838A831B820E9420188160782F9D833F
:105930008C8349815A816B818D810E940328B7CD68
:10594000B89EF001B99EF00D1124E75AFE4FE2888F
:10595000F388E114F10419F4E8ECEE2EF12CB89E72
:105960008001B99E100D1124075A1E4FD8011696BA
:105970008C9116978823C9F01D968D919C910E9459
:105980001118E816F90688F4CB9C70011124F8016F
:105990008189811105C0C701875A9E4F0E94780EE8
:1059A000C701815A9E4F0E94990EC3948C2D90E09E
:1059B00020914A0130914B01281739070CF686CD0A
:1059C00040815181052E000C660B770B440E551E4D
:1059D000661E771E01968ACD412C512C3201FDCDD9
:1059E0000E942018909338048093370488E495E04F
:1059F00090934F0780934E070E94D9070E94B207E9
:105A00006F83788789879A876136734E86419105BF
:105A100040F00E94300F8091FA04882309F42FCEC1
:105A200026CE0E944B0F0E948C15F5CF8091360434
:105A300061E070E0811123CE082F10E07B01082E79
:105A400002C0EE0CFF1C0A94E2F7A9014E215F216F
:105A5000452B09F447C09091350490FD45C08295CF
:105A6000880F807680934F0198013695279536955B
:105A7000279520935201815E80935001109253012B
:105A800024E630E047E050E06DE471E088E70E94F2
:105A9000C92E892B09F0F3CDA80125E0440F551F2D
:105AA0002A95E1F78091350480FD2CC0485B5A4F60
:105AB00004E610E020E230E060E488E70E94F62E81
:105AC000892B09F0DCCD0E944B0FE094F09480917B
:105AD000460590914705E822F922F0924705E092A9
