:100000000C94BF050C94DC050C94DC050C94753441
:100010000C94DC050C94DC050C94DC050C94DC05DC
:100020000C94DC050C94DC050C943C1A0C94281FF1
:100030000C946B2C0C94DC050C94DC050C94DC0506
:100040000C94DC050C94DC050C94DC050C94DC05AC
:100050000C94DC050C94141B0C94DC050C94DC054E
:100060000C94DC050C94DC050C94DC050C94DC058C
:100070000C94DC050C94DC050C94DC050C94DC057C
:100080000C94DC050C94DC050C94DC050C94DC056C
:100090000C94DC050C94DC050C94DC050C94DC055C
:1000A0000C94DC050C94DC050C94DC0504010203C3
:1000B000048081828384A0A1A2A3A4C0C1C2C3C4BE
:1000C00000209495962020B4B5B62020D4D5D62013
:1000D00000209798992020B7B8B92020D7D8D920E8
:1000E00000209A9B9C2020BABBBC2020DADBDC20BD
:1000F00000209D9E9F2020BDBEBF2020DDDEDF2092
:1001000000A7A800AFB000C600CA00C800A5A6009E
:10011000ADAE008788008F9000C500C900C700CB36
:10012000008586008D8E00ABAC00CFD000C600CA23
:1001300000C800A9AA00B1B2008B8C00CDCE00C5CA
:1001400000C900C700CB00898A00919200202020BE
:100150002020002057504D2020000000000000000B
:10016000000000000000000000000000000000008F
:1001700000000000000000000000000000007E0FF2
:1001800000D4FFFFFFC7000000780000000000005F
:1001900000002A2B280000000000000000000000E2
:1001A000000000000029000000002C1E3420212245
:1001B00024342627252E362D3738271E1F202122AE
:1001C000232425263333362E37381F040506070827
:1001D000090A0B0C0D0E0F10111213141516171817
:1001E000191A1B1C1D2F3130232D35040506070855
:1001F000090A0B0C0D0E0F101112131415161718F7
:10020000191A1B1C1D2F3130354C4D6163726F2044
:100210003220746578743A0A73616E7469004D61B6
:1002200063726F203120746578743A0A73616E745A
:1002300069002B0014001A00080015001700E000E8
:1002400004001600070009000A0000571D001B00EB
:10025000060019000500000000000000E300A85D92
:100260002C002A00130012000C0018001C0034009F
:1002700033000F000E000D000B002900380037007E
:100280003600100011000000000000000157A95DB9
:1002900028002B001E001F00200021002200E0008B
:1002A0003A003B003C003D003E0000573F0040004C
:1002B000410042004300000000000000E300010094
:1002C0002C002A002700260025002400230000001F
:1002D00052004F005200510050004F00510050009A
:1002E0000000450044000000000000000157AA5D26
:1002F00028002B001E021F02200221022202E00021
:100300000000000000000000AB5D0057000000008E
:1003100000000000AC5D000000000000E300AA5DEA
:100320002C002A002702260225022402230235007F
:10033000310030002F002E002D0035023102300236
:100340002F022E022D0200000000000001570100C4
:100350002800005C0000000000000000A600C35C54
:10036000C65CC85CCA5C0000AE00C45CC75CC95C0B
:10037000CB5C00004600000000000000E30001002C
:100380002C00A900AA00000000000000F100BD0040
:10039000BE00F000ED00EE00EF00AB00AC00FB0093
:1003A000FA00F900FC000000000000000157010005
:1003B000280000DA0281FFD9F1DB20A4A62EAF00CD
:1003C000A0C000A1C800AED580A81FD300408D14E6
:1003D00020000001010101010101010102020202EC
:1003E00002020202020303030303030303040404DF
:1003F00004040404050505050506060606060707A8
:1004000007070708080808090909090A0A0A0B0B5F
:100410000B0C0C0C0D0D0D0E0E0E0F0F0F101011FE
:100420001111121213131414151516161717181884
:1004300019191A1A1B1B1C1D1D1E1E1F20202122EC
:1004400022232424252626272829292A2B2C2D2D32
:100450002E2F30313232333435363738393A3B3C4F
:100460003D3E3F404142434445464748494A4C4D42
:100470004E4F50515354555658595A5B5D5E5F610B
:100480006264656668696B6C6D6F7072737577789E
:100490007A7B7D7E8082838587888A8C8E8F9193FC
:1004A0009596989A9C9EA0A2A3A5A7A9ABADAFB123
:1004B000B3B5B7BABCBEC0C2C4C6C9CBCDCFD1D408
:1004C000D6D8DBDDDFE2E4E7E9EBEEF0F3F5F8FAAE
:1004D000FDFF00AF00AE05010902A101850209017F
:1004E000A1000509190129081500250195087501C4
:1004F00081020501093009311581257F95027508B2
:10050000810609381581257F950175088106050C3E
:100510000A38021581257F950175088106C0C0053E
:10052000010980A101850319012AB700150126B729
:1005300000950175108100C0050C0901A101850419
:1005400019012AA002150126A0029501751081004B
:10055000C005010906A1018506050719E029E7156F
:100560000025019508750181020507190029EF157D
:1005700000250195F07501810205081901290595ED
:100580000575019102950175039101C005010906E8
:10059000A101050719E029E7150025019508750156
:1005A00081029501750881010507190029FF1500D1
:1005B00026FF009506750881000508190129059593
:1005C0000575019102950175039101C009023B0077
:1005D000020100A0FA090400000103010100092141
:1005E00011010001224000070581030800010904F0
:1005F0000100010300000009211101000122B600E1
:1006000007058203200001120100020000000853C8
:100610004601000100010200010C0343006F00725B
:10062000006E0065000000100366006F006F00732D
:1006300000740061006E0000000403090400000063
:10064000000080C0E0E0F0F0F0F0F0F0F0F0F0F04A
:10065000F0E0E0C0800000000000001C577D571C47
:10066000001C5E7F5E1C0000183C180000FFE7C302
:10067000E7FF00001824180000FFE7DBE7FF003069
:10068000483A060E00262979292600407F050507ED
:1006900000407F05253F005A3CE73C5A007F3E1C46
:1006A0001C0800081C1C3E7F0014227F2214005FDF
:1006B0005F005F5F0006097F017F00006689956A21
:1006C0000060606060600094A2FFA2940008047E55
:1006D00004080010207E20100008082A1C080008CA
:1006E0001C2A0808001E10101010000C1E0C1E0CF6
:1006F0000030383E383000060E3E0E060000000086
:1007000000000000005F0000000007000700001468
:100710007F147F1400242A7F2A12002313086462A6
:1007200000364956205000000807030000001C2234
:100730004100000041221C00002A1C7F1C2A0008E6
:10074000083E08080000807030000008080808080B
:10075000000000606000002010080402003E5149C3
:10076000453E0000427F4000007249494946002151
:1007700041494D33001814127F1000274545453973
:10078000003C4A49493100412111090700364949D5
:10079000493600464949291E0000001400000000A7
:1007A00040340000000008142241001414141414F2
:1007B000000041221408000201590906003E415D73
:1007C000594E007C1211127C007F49494936003E87
:1007D00041414122007F4141413E007F4949494119
:1007E000007F09090901003E41415173007F08085B
:1007F000087F0000417F4100002040413F01007F11
:1008000008142241007F40404040007F021C027FCC
:10081000007F0408107F003E4141413E007F0909EE
:100820000906003E4151215E007F09192946002634
:10083000494949320003017F0103003F4040403FE6
:10084000001F2040201F003F4038403F0063140835
:100850001463000304780403006159494D43000008
:100860007F41414100020408102000004141417FC6
:100870000004020102040040404040400000030721
:100880000800002054547840007F28444438003841
:100890004444442800384444285F003854545418D1
:1008A0000000087E0902001824241C78007F080438
:1008B00004780000447D4000002040403D00007F5F
:1008C000102844000000417F4000007C0478047838
:1008D000007C08040478003844444438007C182420
:1008E000241800182424187C007C080404080048FC
:1008F000545454240004043F4424003C4040207CD1
:10090000001C2040201C003C4030403C004428108B
:100910002844004C9090907C004464544C44000067
:100920000836410000000077000000004136080052
:10093000000201020402003C2623263C0080E0F86D
:10094000FEFF7F230303070F0707070707070F07AC
:100950000303237FFFFFFEF8E0800000F80422522B
:10096000E2424242E2522222224282020222220237
:1009700004F80000F80402028242224282020202CB
:10098000824222122242820204F80000F8FCDEAE0B
:100990001EBEBEBE1EAEDEDEDEBE7EFEFEDEDEFEA7
:1009A000FCF80000F8FCFEFE7EBEDEBE7EFEFE0011
:1009B0000000000000808040402020101008081037
:1009C000102020404080808080C0C0E0E0F0F0F83F
:1009D000F8F0F0E0E0C0C08080808040402020102F
:1009E0001008081010202040408080808040C060A7
:1009F000A050B058A850B060A040C080803FFFFF1A
:100A0000FFFFE0C0800000000000000000000000C8
:100A10000080C0E0FFFFFFFFFF3F00001F20444AAF
:100A200047424242474A4440404040414244444099
:100A3000201F00001F2040414040404040414041B5
:100A4000414F4848484F4141201F00001F3F7B75E0
:100A5000787D7D7D78757B7F7F7F7F7E7D7B7B7FD3
:100A60003F1F00001F3F7F7E7F7F7F7F7F7E7F0055
:100A7000000000000088885D5D3E3E7C7CF8F87CCC
:100A80007C3E3E5D5D888888885555232347478F87
:100A90008F47472323555588888888D5D5E2E2C4F7
:100AA000C48888C4C4E2E2D5D5888888885DD56BBF
:100AB000B66DD6ADDA6DD66BB65DD588880000030D
:100AC000070E1C397377F7F301000000000103FFE4
:100AD000FF7F7F3F1F0F070300000004F80000F8AE
:100AE00004201F00001F20FCF80000F8043F1F0036
:100AF000001F2004F80000F8FC201F00001F3FFC2E
:100B0000F80000F8FC3F1F00001F3FFE7EBEDEEE37
:100B1000DEBE7EFEFCF8007E7E70777777707E7E8C
:100B20003F1F000000000000000000000000000067
:100B30000000000000000001010202040408080493
:100B40000402020101000000000101020204040885
:100B50000804040202010100000000010103030770
:100B6000070F0F0707030301010000000001010345
:100B70000205060D0A05060302010100000011240A
:100B80001FBECFEFDAE0DEBFCDBF12E0A0E0B1E0E4
:100B9000ECECFDE602C005900D92A23CB107D9F73E
:100BA00027E0A2ECB2E001C01D92AE3AB207E1F735
:100BB0000E94922C0C94A0360C94000090919D05FC
:100BC000937061F081110BC0946090939D05109219
:100BD000AA0180919C05816080939C0508958330D3
:100BE00010F09860F2CF880F880F982BEECFFC01A1
:100BF000AC014C5F5F4F8FEF91E32191822728E09A
:100C000030E087FF09C0880F892721503109C9F7D3
:100C1000E417F50791F70895880FF7CF90919D0598
:100C2000937071F080939E0560939F05473908F09B
:100C300046E94093A00580919C05816080939C05C6
:100C40000895E8EDF0E080818E7F80831092E200CD
:100C50001092DA001092E100A0EEB0E08C91816079
:100C60008C9380818F77808319BCA7EDB0E08C9145
:100C70008E7F8C9380818F7E808310926D05089586
:100C80002091E4003091E50095E6A9012091EC0067
:100C9000822F817020FF06C08091E80080FF06C08F
:100CA00080E008952091E80022FD1AC0809192050D
:100CB000882389F0853089F08091EB0085FD0FC095
:100CC0002091E4003091E50042175307F9F291506A
:100CD000E1F684E0089582E0089583E0089581E0DC
:100CE0000895EF92FF920F931F93CF937C018B0196
:100CF0000E944006C82F811117C08091E80085FD31
:100D00000BC08091E8008E778093E8000E94400637
:100D1000882399F3C82F08C0F70181917F01809340
:100D2000F1000150110949F78C2FCF911F910F91BC
:100D3000FF90EF9008958091940587FF13C08091F4
:100D4000E80082FF06C08091E8008B778093E8007E
:100D500004C0809192058111F2CF0895809192058F
:100D60008823D9F38091E80080FFF8CF8091E800D4
:100D70008E77ECCF982F9093E900242F762F50E0B8
:100D8000891731F07091EC002091ED005091F00046
:100D900021FD07C09F5F973071F78093E90081E0E4
:100DA00008953091EB003E7F3093EB003091ED00E1
:100DB0003D7F3093ED003091EB0031603093EB00DC
:100DC0007093EC002093ED005093F0002091EE0022
:100DD00027FDE0CF80E00895CF92DF92EF92FF925F
:100DE0000F931F93CF93DF93C8EDD0E088818F7E60
:100DF0008883E7EDF0E080818160808384E082BFBA
:100E000081E080936D0588818E7F888302EE10E0FB
:100E1000F80110821092DA0081EEC82ED12CF60172
:100E2000108288818F778883888180688883888111
:100E30008F7D888319BC10929205109293051092B1
:100E400091051092900590EEE92EF12CF70180812A
:100E50008B7F808388818160888342E060E080E0CE
:100E60000E94BA06F60180818E7F8083F80180811E
:100E700081608083808188608083F70180818E7F9C
:100E80008083888180618883DF91CF911F910F914A
:100E9000FF90EF90DF90CF900895FC01CB0120915F
:100EA0009A0530919B052617370790F0009729F493
:100EB0002091E8002E772093E80040E0009751F45D
:100EC000411108C08091E80082FF31C080E00895A0
:100ED000C901F3CF209192052223A9F12530A9F170
:100EE0002091E80023FD2DC02091E80022FDEACFEB
:100EF0002091E80020FFE2CF3091F3002091F20032
:100F0000009719F02830310558F041E028303105BC
:100F100009F040E02091E8002E772093E800CECF42
:100F200041914093F10001972F5F3F4FE9CF8091AE
:100F30009205882341F0853041F08091E80083FFDD
:100F4000C1CF81E0089582E0089583E00895089577
:100F500080916F05089587E797E790930108809344
:100F6000000888E19AE00FB6F894A8958093600095
:100F70000FBE90936000FFCF0F931F93CF93DF932B
:100F800000D000D0CDB7DEB7462F572FBC012FB70A
:100F9000F8948091640590916505A0916605B091E3
:100FA00067052FBF8C019D01041B150B260B370B0A
:100FB000C901B8010F900F900F900F90DF91CF9162
:100FC0001F910F910895CF93DF9300D000D0CDB73C
:100FD000DEB78FB7F8942091640530916505409194
:100FE00066055091670529833A834B835C838FBFE5
:100FF00069817A818B819C810F900F900F900F9067
:10100000DF91CF9108959C018091A9018823C9F0B7
:101010008091680587FF15C0E62FE695E695E69571
:10102000603FE0F4E20FF32FF11D677081E090E084
:1010300001C0880F6A95EAF780959281892382839F
:101040000895F9013296285F3F4F8191681303C0DC
:10105000DF0111971C92E217F307B9F708959C017D
:101060008091A9018823C1F08091680587FF14C091
:10107000E62FE695E695E695603FF8F4E20FF32F4C
:10108000F11D677021E030E001C0220F6A95EAF798
:101090008281822B82830895F90132968FEF90E04E
:1010A0004191641751F08F3F19F4411101C0892F0C
:1010B0009F5F9630A9F78F3F09F40895280F311DDF
:1010C00087FD3A95F9016283089520916105309179
:1010D00062052817390771F09093620580936105C6
:1010E000E0915F05F0916005309721F00084F18573
:1010F000E02D0994089520915D0530915E05281733
:10110000390771F090935E0580935D05E0915F056E
:10111000F0916005309721F00680F781E02D099469
:101120000895FA0181110994FB01FDCFEDE9F5E085
:1011300024813AE0231B08F420E0248380919C055D
:10114000816080939C050895EDE9F5E024813AE003
:10115000230F08F42FEF248380919C0581608093F6
:101160009C050895EDE9F5E0438128E0421B08F471
:1011700040E08181628190E00C940E06EDE9F5E09B
:10118000438128E0420F08F44FEF8181628190E0B3
:101190000C940E06EDE9F5E0628128E0621B08F48C
:1011A00060E08181438190E00C940E06EDE9F5E06A
:1011B000628128E0620F08F46FEF8181438190E043
:1011C0000C940E06EDE9F5E081814381628188503F
:1011D000990B0C940E06EDE9F5E0818190E04381D6
:1011E000628108960C940E0690919D0596959695B1
:1011F0008FEF890F913009F482E00C94DE05809125
:101200009D05869586958F5F833008F081E00C946C
:10121000DE050C948811FF920F931F93CF93DF93F9
:10122000182F062FF42ED0E0C0E02F2D402F612F75
:10123000CE010E9409092196C633D105B1F7DF918D
:10124000CF911F910F91FF900895EF92FF920F930E
:10125000282FC701801B91098F3F910519F010F0CD
:101260008FEF90E0382F3095230F08F42FEF680FA1
:10127000822F0F91FF90EF900895AF92BF92CF927F
:10128000DF92EF92FF920F931F93CF93DF93262F5E
:10129000472FE82FF0E0EE52FC4F71110FC0649120
:1012A000862FE62F7E2FDF91CF911F910F91FF9018
:1012B000EF90DF90CF90BF90AF900895E72EF12C84
:1012C000E49186E0689F80011124CFEFD0E0C8014F
:1012D000BE010E949235DB0130E0220F331F55E53D
:1012E000569FC001579F900D1124281B390B622F68
:1012F000660F260FCE018E199F09E89F6001E99FB6
:10130000D00C11246D2D429FA0011124452F55278B
:10131000CE01841B950BE89FA001E99F500D11247D
:10132000852F5E01A21AB108AE9C9001AF9C300DD2
:10133000BE9C300D1124232F3327C21BD30BEC9FEF
:101340009001ED9F300D1124A330B105B1F00C3F99
:1013500093E0190760F4A130B10599F01297A9F054
:101360000F3F110508F09ECF8D2D632F9BCFA4302A
:10137000B10571F01697C1F395CF652F8E2FED2D26
:1013800091CF6E2FE52F8D2D8DCF832F6E2FF7CF21
:101390008E2FE32F87CF40914D048D3E59F48091DD
:1013A0004E0487FF0DC010924E0441110BC01092E5
:1013B000450408C08E3E81F480914E0418169CF3BB
:1013C000442381F080914F0490915004892B09F0BF
:1013D0005AC01092440408958F3E49F447FFF0CF5D
:1013E00010924D0480914E048111ECCFE0CF803FEC
:1013F00019F41416ACF3E4CF90914F04893F29F40B
:101400001916F4F610924F04DBCF8A3F19F497FFB8
:10141000D7CFF8CF909150048B3F29F497FFD0CFCE
:1014200010925004CDCF8C3F19F41916CCF3C8CFCD
:101430009FE0980F983090F4815F990B21E030E0A5
:10144000B90102C0660F771F8A95E2F7CB0180953C
:1014500090914C04892380934C04B2CF8D3F31F49A
:10146000809146048E7F80934604AACF8E3F21F45C
:10147000809146048D7FF7CF8F3F09F0A1CF8091F7
:1014800046048B7FF0CF08958091460480FD16C0FE
:1014900081FD16C082FD16C0809144048823A1F00E
:1014A000883280F428E0829FC001112468E270E055
:1014B0000E94B235862F672B39F0089582E0089597
:1014C00084E0089588E0089581E0089580914604BD
:1014D00080FD14C081FD14C082FD16C080914504BA
:1014E000882381F08E3180F420E5829FC001112491
:1014F0006EE170E00E94B235862F089584E1089570
:1015000088E2089588E0089580E508958D3E31F4DD
:101510000E94660A819580934E0408958E3E19F4C8
:101520000E94660AF8CF8F3E31F40E94660A8195C8
:1015300080934D040895803F19F40E94660AF8CF05
:10154000893F29F40E94440A80934F0408958A3FFA
:1015500021F40E94440A8195F7CF8B3F31F40E9419
:10156000440A81958093500408958C3F19F40E9499
:10157000440AF8CF9FE0980F983070F4815F990B80
:1015800021E030E001C0220F8A95EAF780914C04F7
:10159000822B80934C0408958D3F31F48091460452
:1015A00081608093460408958E3F21F48091460423
:1015B0008260F7CF8F3FB9F7809146048460F1CF06
:1015C00080E0089578940895F894E82FE295EF70FC
:1015D000F0E041A18F7021E030E0B90102C0660F58
:1015E000771F8A95E2F7CB01962F9095942391A3CC
:1015F00092A1892B82A30C94E20A9091680592FF34
:1016000006C0282F28712830F9F4877F846093FF63
:1016100006C0282F28712831F1F4877E846120913B
:10162000690520FF06C0382F38713830D9F4877F1C
:10163000816021FF06C0282F28712831D1F4877ED0
:10164000816194FD877E0895282F24712430F9F656
:101650008B7F8860DCCF282F2471243101F78B7EAB
:101660008861DDCF382F3171313019F78E7F886076
:10167000E0CF282F2171213121F78E7E8861E1CFC3
:10168000CF93DF93EC01803E910509F460C050F5E3
:101690008133910509F4A6C090F48932910509F4CB
:1016A0009AC08A9709F4A5C0C130D10509F462C077
:1016B000CE010497813A910508F055C05BC089338B
:1016C0009105F1F182389105D9F1C59709F47CC0F3
:1016D000C83AD10508F094C0C53AD10528F3A497BB
:1016E000D06448C0843E910509F453C068F4823E3A
:1016F0009105E1F1833E910509F440C0CE01805E81
:101700009109089780F536C0863E910509F44CC0D2
:10171000873E910509F44DC0811522E5920708F036
:10172000AAC0811531E5930708F0FAC08F3F9105F3
:1017300011F008F074C08D3E910550F2D0651AC0CA
:10174000809168058370B1F0C0EED0E013C0809145
:10175000680580FD12C19091690590FF0BC0C3EE32
:10176000D0E084FF07C0D0E0C0E004C080916805ED
:1017700082FDF5CFCE01DF91CF910895809168056C
:1017800082FDFEC09091690590FDDECF84FFF2CF0F
:10179000EACF8091690581FFEDCF80916805C7EEA2
:1017A000D0E084FDE0CFE6CF8091680583FDF7CFE0
:1017B000E1CF8091680583FDE6C09091690591FFB6
:1017C000E5CFC4EED0E0D6CF8091680585FFD2CFBB
:1017D000C9E2D0E0CFCF8091680585FFCBCFC5E3CC
:1017E000D0E0C8CF8091680586FFC4CFCAE2D0E0C0
:1017F000C1CF8091680586FFBDCFC1E3D0E0BACFED
:10180000CF3BD10508F07ACFC85AD0E0CC0FDD1F0E
:10181000C255DE4F0990D881C02DD464ABCF81155D
:1018200040E5940760F4C11580E4D80708F075C05E
:10183000CE019A9581159F4108F49CCF94CFF4E096
:1018400096958795FA95E1F783702C2F2695269526
:10185000237040E2249F90011124382B8C2F837039
:10186000C1E0D0E002C0CC0FDD1F8A95E2F7C22BA9
:10187000D32BDC687FCFC11586E5D80730F5C115BD
:1018800095E5D90708F060C0C11524E5D207C0F47A
:101890009C2F969596959E0123703327C115D345AD
:1018A00008F043C0C1E0D0E002C0CC0FDD1F2A9594
:1018B000E2F720E2929FC0011124C82BD92BD9CF87
:1018C000DC2FCC27C46FD06A55CFC1153AE5D307BA
:1018D00088F4C11549E5D40708F041C0CE019855F8
:1018E0008F3F910511F008F03ECFDC2FCC27C06F61
:1018F000D06A40CFCE0190568115904208F033CF88
:101900008D2F8F710E94FD0A90E0982F88278827DD
:101910009F719C012C2BE90120C0DF70D06A2ACF77
:10192000D82FCC27C16FD06A25CFC1E0D0E002C04C
:10193000CC0FDD1F2A95E2F730E2939FC0011124FE
:10194000C82BD92BDA6816CF8C2F0E94FD0AC82F1E
:10195000D0E0DC2FCC27CC27DF71D0620BCF8C2FCF
:101960008F700E94FD0A34E0D695C7953A95E1F74D
:10197000CF70DC2FC82FD069FDCEC9E3D0E0FACEFE
:10198000C2EED0E0F7CEC6EED0E0F4CE8091B00348
:1019900081111092B00308959091690592FD05C0E0
:1019A0009091B00398138093B0030895982F909569
:1019B00080915A05892380935A050895982F909510
:1019C00080915B05892380935B0508958091410395
:1019D00090911003981301C008958F5F8770FACF1C
:1019E000AF92BF92CF92DF92EF92FF920F931F932D
:1019F000CF93DF93C090A704D090A804E090A904EF
:101A0000F090AA044091A4035091A5036091A6030D
:101A10007091A703C42AD52AE62AF72ACFE1D0E09D
:101A2000082F10E026E0929F000D111D112490E375
:101A3000A92EBC2ED701C6010C2E04C0B695A795C1
:101A4000979587950A94D2F780FD0FC0219788F764
:101A5000B12C8B2DDF91CF911F910F91FF90EF90C3
:101A6000DF90CF90BF90AF900895AC9EF001AD9EF7
:101A7000F00D1124E00FF11FEE0FFF1FEE5CFD4F84
:101A8000859194910E94400B019701F3E2CFCF938F
:101A9000DF93EC010E94F00CEC2FF0E096E0D99F70
:101AA000E00DF11D112490E3899FE00DF11D11243B
:101AB000EE0FFF1FEE5CFD4F85919491DF91CF916A
:101AC0000C94400B292F220FE22FE90FEE0FE80FA5
:101AD0009E2F9770E695E695E69585E0E89FF001E4
:101AE0001124E451FD4F50E040E080E0219130E0CE
:101AF000092E02C0369527950A94E2F72170332704
:101B0000042E01C0220F0A94EAF7822B4F5F5F4F29
:101B10004530510559F70895292F220FE22FE90F7B
:101B2000EE0FE80F8E2F877041E001C0440F8A95B9
:101B3000EAF7E695E695E69585E0E89FF001112441
:101B4000E451FD4F30E020E070E05191DF0111974A
:101B5000CB01022E02C0969587950A94E2F7817018
:101B600081958527842385278C932F5F3F4F2530D0
:101B7000310559F70895282F8091A7049091A80462
:101B8000A091A904B091AA040097A105B10549F05C
:101B900004C0B695A795979587952A95D2F7817039
:101BA000089580E00895282F92959F70963091F0C7
:101BB00060F4925F9F70923030F481E0203F81F0BA
:101BC00030F4283E30F080E008959A5FF3CF243F50
:101BD000D1F7089581E0283EE0F3213FA1F7F9CF46
:101BE0000895FC01808191810E94470D0C94D30DD2
:101BF0009C019A9581159F4150F5D901AA27B17092
:101C0000F901EE27F270B90166277470A901442723
:101C1000587034FF0EC080E1AB2B09F480E0EF2B4D
:101C200009F08062672B09F08064452B89F0806899
:101C3000089581E0AB2B09F480E0EF2B09F082607E
:101C4000672B09F08460452B19F08860089580E0C7
:101C50000895CF93DF93682F8091AC079091AD07E3
:101C60006A30B9F42091A305865A9540622F70E03E
:101C70000E949235281B822F66E00E94A635C82F4D
:101C8000C15018F4DF91CF91089580E20E94290E8F
:101C9000F7CF6D30F9F49C01265A35404091A305E9
:101CA000642F70E0C9010E949235481B842FA9015E
:101CB000480F511D4115524018F080E030E020E0FF
:101CC000820F932F911D8A559A4F9093AD07809361
:101CD000AC07D8CF26E0FC01A6EAB7E001900D9250
:101CE0002A95E1F7603E08F458C026E0FC01119205
:101CF0002A95E9F7C091AC07D091AD0746E050E0D6
:101D0000BE0186EA97E00E9438369E01265A354089
:101D1000892B41F1C90145E0969587954A95E1F7F0
:101D200041E050E0BA0102C0660F771F8A95E2F7E2
:101D3000CB016091A4057091A505862B972BB90165
:101D40006B5F7F4FE5E076956795EA95E1F702C016
:101D5000440F551F6A95E2F7842B952B9093A505A8
:101D60008093A4052A5F3F4F4091A305642F70E044
:101D7000C9010E949235481B463010F4240F311DD2
:101D8000211572E0370710F030E020E02A553A4F75
:101D90003093AD072093AC0775CFF6E06F9FB0018D
:101DA0001124635C794F46E050E00E942F36A2CFA9
:101DB000CF93DF93EC01FE018491811103C0DF9189
:101DC000CF9108950E94290E2196F5CF80915B0551
:101DD00090915A05892B8093C4029091B003992366
:101DE000A1F0892B8093C4028091A9018823D9F1A5
:101DF0008091680587FF37C08EE1E6ECF2E090E065
:101E0000815098F591110E94C60C40E250E063E4C5
:101E100073E084EC92E00E943836892B59F180E21D
:101E2000E4ECF2E0A3E4B3E001900D928A95E1F7CF
:101E3000E0915F05F09160053097E1F08091A90194
:101E4000882359F08091680587FF07C08091C402FC
:101E50008093C50286E08093C4020280F381E02D66
:101E600084EC92E0099486E0C8CF2191222341F2CC
:101E70009F5FC6CF0895CF93DF93EC0181E0898BFC
:101E800080915B059F81892B80935B0580915A052A
:101E90009885892B80935A050E94E60EEA81FB8182
:101EA000309739F06C897D89CE010696DF91CF910C
:101EB0000994DF91CF910895EF92FF920F931F93B2
:101EC000CF93DF93EC018A85811134C0EB80FC80D5
:101ED00087E5F81A26E12E9DC0012F9D900D112453
:101EE000DC01A358BE4F1496ED91FC9115973097E5
:101EF00031F054966D917C918D579E4F099586E1F6
:101F00008E9D80018F9D100D112403581E4FF801E6
:101F100087810E94DE0CF80180850E94D60C0E9409
:101F2000E60E188219861B861E821D8210925905A4
:101F300010925805DF91CF911F910F91FF90EF9074
:101F40000895882321F00E94D60C0C94E60E089583
:101F5000882339F090915A05892B80935A050C9467
:101F6000E60E0895882321F00E94DE0C0C94E60E04
:101F70000895882339F090915B05892B80935B0548
:101F80000C94E60E0895CF92DF92EF92FF920F939A
:101F90001F93CF93DF936C017B0164E670E088E7C9
:101FA0000E94C232EC0197FD12C010E000E0F60181
:101FB000E00FF11F849164E670E00E943C33EC0175
:101FC000892B29F40F5F1F4F0E151F0581F70E9403
:101FD000C933CE01DF91CF911F910F91FF90EF9008
:101FE000DF90CF90089580915605909157059111FB
:101FF00003C091E089270895882369F062E070E0CA
:1020000084ED94E00E94C30F892B19F0809156054E
:1020100008951092560580915605EBCFCF93DF932C
:1020200000D000D00F92CDB7DEB7809156058D83DA
:10203000809157058823F1F00E94E307DC01CB0172
:10204000805D9A48AF4FBF4F8093520590935305E0
:10205000A0935405B09355058D81811108C062E0AD
:1020600070E082ED94E00E94C30F892B61F08091B3
:1020700056058D838D810F900F900F900F900F90CC
:10208000DF91CF91089581E080935605F0CF809342
:102090006A0570936C0560936B058091920584309E
:1020A00001F582E08093E9008FEF9091E800815084
:1020B00095FD06C095ED9A95F1F700008111F5CFD9
:1020C0008091E80085FF0DC050E040E063E070E0E3
:1020D0008AE695E00E9471068091E8008E778093F1
:1020E000E8000895BC0184E00C944710BC0183E033
:1020F0000C94471022E02093E9002FEF3091E80084
:10210000215035FD06C035ED3A95F1F7000021115B
:10211000F5CF2091E80025FF0BC050E040E066E0DD
:1021200070E00E9471068091E8008E778093E8004D
:102130000895CF93DF93D82FC92F8091A9018823C9
:10214000C1F18091680587FF34C060E282E080932E
:10215000E9008FEF9091E800815095FD06C095ED64
:102160009A95F1F700008111F5CF8091E80085FF85
:102170001DC08091A90170E050E040E0811104C0D1
:1021800050E040E068E070E08D2F9C2F0E947106C7
:102190008091E8008E778093E80080E2ED2FFC2F9D
:1021A000A0E7B5E001900D928A95E1F7DF91CF911C
:1021B000089568E081E0CBCF539A3BB1377F2BB1D4
:1021C00028604FB7F89480EB94E0FC0101965081B1
:1021D00068E02BB9000000C057FF3BB9550F000065
:1021E00000C000C000C03BB900C06A9591F755E03F
:1021F0008235950751F74FBF8FE594E00197F1F7CE
:1022000000C0000008959F92AF92BF92CF92DF92DC
:10221000EF92FF920F931F93CF93DF93082FD92E46
:10222000C62E972E7A018091C103AA24A394B12CC3
:102230008A3018F48AE0A82EB12CC1E0D0E0F894DE
:102240006C2D792D802F9D2DF7010995182F0E9457
:10225000E20A111104C02196AC16BD066CF4812F60
:10226000DF91CF911F910F91FF90EF90DF90CF9072
:10227000BF90AF909F900895CC9F9001CD9F300D5F
:10228000300D112490E080E045E34A95F1F700001D
:10229000019682179307C1F7D2CF80916D03811108
:1022A00010C08091D80080618093D8008AE18A951F
:1022B000F1F700C08091D90080FF0AC081E08093CF
:1022C0006D0381E090916D03913009F080E00895F5
:1022D00082E080936D030E94210610929205F1CF57
:1022E0000E944D11811103C080915C050895E09119
:1022F0005F05F0916005309721F00190F081E02DAD
:10230000099480E008950E944D1191E08927089575
:10231000FF920F931F93CF93DF93EC01F62E042FC0
:10232000122F0E94831181110FC0CB31D1057CF097
:102330006B97CE01880F991FC80FD91FC055DB4F6F
:10234000F98208831A8303C0CB31D10594F3DF915E
:10235000CF911F910F91FF9008952F923F924F922E
:102360005F926F927F928F929F92AF92BF92CF9225
:10237000DF92EF92FF920F931F93CF93DF9300D0E2
:1023800000D00F92CDB7DEB7482E80917C0184112A
:1023900032C090919D05937020917B0130E081E0E7
:1023A0009217130609F480E0817080937A0180917E
:1023B000A20590917901981739F08093790140E056
:1023C00060E080E00E940B09EE24E3944E14A9F033
:1023D00032E0F32E4F1409F48DC041100AC08091F1
:1023E0007A01882309F440C040E060E080E00E9468
:1023F0000B0980E039C081E0D7CF009178018BE0F4
:10240000089F802D11248983082F055F073308F06A
:1024100006E30E948311882319F00C3108F00BE1C8
:102420000E948311811105C029812B3110F43BE1F9
:10243000398360919E0570919F058091A0050E944F
:102440003D09F62EE72ED82E9981892F90E09A83A8
:102450008983F981F01798F10E948311882309F488
:1024600044C081E00B3128F6909178019F5F9093F2
:10247000780181110CC082E08093AA0180917A01D9
:10248000811105C0411003C083E08093AA010F9021
:102490000F900F900F900F90DF91CF911F910F91A0
:1024A000FF90EF90DF90CF90BF90AF909F908F9074
:1024B0007F906F905F904F903F902F900895E981AB
:1024C000FA81E457FD4F808190917901892339F099
:1024D0002D2D4F2D6E2D89819A810E940909E98148
:1024E000FA813196FA83E983B4CF81E0063308F4A8
:1024F000BBCF7FCFC0907A0421E00C2D021B08F4E3
:1025000000E0C02E209178018BE0289F802D1124BF
:102510008983182F155F173308F016E30E94831183
:10252000882319F01C3108F01BE10E9483118111EE
:1025300005C009810B3110F40BE10983A0907A04E6
:102540003981232F30E03C832B83C901880F991FE9
:10255000FC01E051FE4F3F018C2D90E09C012F5F6C
:102560003F4F3A832983312C212C6B81611750F026
:102570000E948311882309F4A1C081E01B3108F473
:1025800073CF37CFEB81FC81E457FD4F8081909171
:1025900079018923F9F060919E056D8370919F0503
:1025A00089819A8186589B4F4C01BC2C80E0BA14DB
:1025B000D8F02091A005082F029F012D1124802F13
:1025C0006D810E943D09462F672F282F8B819C81AA
:1025D0000E9409092B813C812F5F3F4F3C832B8355
:1025E00032E0630E711CC1CFF40191914F01F301F0
:1025F00040A9491B550B21A9F4019781291B330BD5
:10260000449FD001459FB00DB00D1124229FF001D1
:10261000239FF00DF00D1124EA0FFB1FDE2EE23098
:10262000F10538F19FEFE13E0EE1F00740F4DF01E4
:1026300095E0B695A7959A95E1F798E09A0F5524FD
:102640005394E52CE90EFF24FF1CD701B595A795FF
:10265000DA2EAA9F7001AB9FF00CF00C1124EE153E
:10266000FF0520F59FEF9A0F951558F7DD24DA94B2
:10267000D50C9091A105092F61E0060F08F40FEF2A
:10268000F401EE0FFF1FEA57F4400588F689E02DAC
:102690007101E09FE12CF09FE00CF11C11240D2D45
:1026A0006D810E9425096D83B39481CFFF24FA9434
:1026B000AF15F9F2552453945A0ED6CF81E0163354
:1026C00008F4D2CE96CECF93C82F882391F0809174
:1026D000AF0481110EC00E94AD1110927C01809157
:1026E0009D05837080937B010E94DC1083E08093C2
:1026F000AA01C093AF04CF910895CF93DF9300D088
:1027000000D0CDB7DEB70E944D11882341F00F9065
:102710000F900F900F90DF91CF910C94E3070E94E0
:10272000E30769837A838B839C838091C2039091B2
:10273000C303A091C403B091C50329813A814B81A1
:102740005C81280F391F4A1F5B1FCA01B9010F9016
:102750000F900F900F90DF91CF9108954F925F925D
:102760006F927F928F929F92AF92BF92CF92DF92A1
:10277000EF92FF92CF93DF93CDB7DEB728970FB6D6
:10278000F894DEBF0FBECDBF8091A3049091A40446
:10279000A091A504B091A60489839A83AB83BC83DE
:1027A0000E944D11882309F453C069817A818B817D
:1027B0009C810E94BC076B017C010E947D13609389
:1027C000A3047093A4048093A5049093A604A091FD
:1027D0005104E1E5F4E02A2F30E088248A94982C13
:1027E000A12CB12C8C189D08AE08BF08A31341C0C2
:1027F000209351042091AF0421114EC020919D05DA
:10280000A22FA370A983AA2319F0269526952983C0
:102810002091AA01223009F4E3C008F03FC0211141
:1028200055C0109278016093AB047093AC04809310
:10283000AD049093AE0489E2E1E5F4E0AAE7B4E0E8
:1028400001900D928A95E1F781E08093AA0129C059
:102850000E947D136D837E838F8398876B017C013B
:1028600089819A81AB81BC81C81AD90AEA0AFB0A1C
:10287000A4CF418D528D2A01712C612C84149504B2
:10288000A604B70420F421503F5F3296AFCF4C0D21
:102890005D1D528F418FF8CF1982BACF233009F4D2
:1028A000ABC028960FB6F894DEBF0FBECDBFDF9148
:1028B000CF91FF90EF90DF90CF90BF90AF909F901F
:1028C0008F907F906F905F904F90089589810E94C4
:1028D000AD11B981BB2329F34091A7045091A804FD
:1028E0006091A9047091AA04CB01AA27BB27009785
:1028F000A105B10509F450C0AC01BD0180E1C52EB0
:10290000D62EE72EFF24C114D104E104F10419F0FE
:10291000885FB701A6016A017B0134E0F694E79471
:10292000D794C7943A95D1F7C114D104E104F104C6
:1029300019F08C5FB701A6016A017B0122E0F694D1
:10294000E794D794C7942A95D1F7C114D104E10430
:10295000F10419F08E5FB701A6017695679557953A
:102960004795452B462B472B29F08F5FF12CE12C07
:102970008130A1F0823001F5F12CE12C20E040E023
:102980006FEFC7010E9409093FEFE31AF30A86E3DC
:10299000E816F10499F785CF80E0B1CF2FEF40E042
:1029A00060E0C7010E9409099FEFE91AF90AA6E34E
:1029B000EA16F10499F775CF0E94701181FF71CF6B
:1029C000F12CE12C20E04FEF60E0C7010E940909E3
:1029D000BFEFEB1AFB0A36E3E316F10499F761CF78
:1029E000898180937C0180919D05837080937B0118
:1029F0000E94DC1083E029CF80919C05882351F050
:102A000046E050E06CE170E08DE995E00E946C36A4
:102A100010929C058091AB049091AC04A091AD0400
:102A2000B091AE0489839A83AB83BC830E944D111D
:102A3000882391F069817A818B819C810E94BC07F7
:102A4000462F572FBC01403151056105710508F42F
:102A500028CF1092AA0125CF0E947D13AB01BC01A3
:102A600089819A81AB81BC81481B590B6A0B7B0B16
:102A7000EACFEDE9F5E085E080838091AB019091AC
:102A8000AC01A091AD0181839283A3838FE78483FE
:102A90008FEF858346E050E06CE170E0CF010E944B
:102AA0006C3610929C050895CF9384E090E00E94CC
:102AB0005E36C82F82E290E00E945E36982F8C2FFF
:102AC000CF910895CF92DF92EF92FF920F931F93D1
:102AD000CF93DF93FA0169017801C82F880FDD0BCE
:102AE0003097B1F0DE0193E0AA0FBB1F9A95E1F792
:102AF000A75FBE4F11968D919C91129782599C4F62
:102B00004C9150E0E417F50708F4AF010E944536F8
:102B1000CE010E941C35182F8823D1F0E114F10456
:102B2000B9F083E0CC0FDD1F8A95E1F7FE01E75F86
:102B3000FE4F438150E0E416F50608F4A701C75F95
:102B4000DE4F6C817D8162597C4FC6010E94453603
:102B5000812FDF91CF911F910F91FF90EF90DF9028
:102B6000CF9008950F931F93CF93DF9300D000D0A1
:102B700000D00F92CDB7DEB78091B1039091B20330
:102B8000A091B303B091B403BC01CD010E94BC0776
:102B9000462F572FBC0181E0443651056105710570
:102BA00008F480E090915B059983443651056105F6
:102BB000710520F420918403291381E090915A0536
:102BC0009A83811106C081E020918503291301C0F9
:102BD00080E09091B0039B83811105C080918603B2
:102BE00011E08917C9F010E000E030E020E043E098
:102BF00050E0BE016F5F7F4F87E00E946215182F83
:102C0000882351F00E94E3076093B1037093B203ED
:102C10008093B3039093B403812F27960FB6F89453
:102C2000DEBF0FBECDBFDF91CF911F910F910895F1
:102C30000F931F93CF93DF93CDB7DEB728970FB6CF
:102C4000F894DEBF0FBECDBF80919C0390919D0391
:102C5000A0919E03B0919F03BC01CD010E94BC07CF
:102C600011E0643671058105910520F10E947D1304
:102C7000DC01CB010296A11DB11D89839A83AB8330
:102C8000BC8310E000E030E020E044E050E0BE0112
:102C90006F5F7F4F83E00E946215182F882351F0E9
:102CA0000E94E30760939C0370939D0380939E03AF
:102CB00090939F03812F28960FB6F894DEBF0FBE26
:102CC000CDBFDF91CF911F910F910895EF92FF92A9
:102CD0000F931F93CF93DF93CDB7DEB729970FB62E
:102CE000F894DEBF0FBECDBF7B0101E010E09E0176
:102CF0002B5F3F4F50E040E070E060E080E00E94DA
:102D00006215182F882309F447C08091940390918D
:102D10009503A0919603B0919703BC01CD010E9449
:102D2000BC07643671058105910538F48FE693E0A0
:102D30000E94F7059D81891779F104E010E09E015A
:102D40002F5F3F4F50E040E070E060E081E00E9484
:102D50006215082F8FE693E00E94F70511E09D8130
:102D6000981310E0102331F10E94E307609394035D
:102D700070939503809396039093970389819A812A
:102D8000AB81BC818093900390939103A0939203B5
:102D9000B093930311E00EC080916F039091700384
:102DA000A0917103B091720389839A83AB83BC8332
:102DB0001111E4CF8091900390919103A09192031F
:102DC000B0919303F70180839183A283B383812F12
:102DD00029960FB6F894DEBF0FBECDBFDF91CF911D
:102DE0001F910F91FF90EF900895AF92BF92CF92F5
:102DF000DF92EF92FF920F931F93CF93DF9300D058
:102E000000D000D0CDB7DEB78D837B01A42ED22EAB
:102E10003E83B02EC12EDB018D919D910D90BC9112
:102E2000A02DBC01CD010E94BC076436710581054F
:102E3000910510F4AA2039F110E000E030E020E024
:102E40004B2D5C2D6D2D7E818D810E9462158983B5
:102E5000882339F00E94E307F7016083718382833E
:102E60009383898126960FB6F894DEBF0FBECDBF3F
:102E7000DF91CF911F910F91FF90EF90DF90CF9056
:102E8000BF90AF900895F1E0F983EBCF0F931F93BC
:102E9000CF93DF930F92CDB7DEB78091560589832C
:102EA00020918F0390E041E02817190609F440E0D3
:102EB00001E010E09E012F5F3F4F6DEB73E08AE071
:102EC0000E94F5160F90DF91CF911F910F910895F9
:102ED0000F931F93CF93DF930F92CDB7DEB78091FF
:102EE000E303898341E090918E03981301C040E091
:102EF00001E010E09E012F5F3F4F69EB73E089E036
:102F00000E94F5160F90DF91CF911F910F910895B8
:102F10000F931F9341E000917B0310917C0320915C
:102F20007D0330917E038091A7049091A804A09125
:102F3000A904B091AA04081719072A073B0709F446
:102F400040E004E010E027EA34E068EA73E084E05F
:102F50000E94F516882301F141E000917F03109152
:102F6000800320918103309182038091A40390918A
:102F7000A503A091A603B091A703081719072A0774
:102F80003B0709F440E004E010E024EA33E060EAA3
:102F900073E085E00E94F5161F910F910895DF926E
:102FA000EF92FF920F931F93CF93DF93F82ED62EBD
:102FB000E72ED42FC52FB901A8018D2F9C2F0E9479
:102FC000383641E0892B09F440E02D2F3C2F6D2D40
:102FD0007E2D8F2D0E94F516DF91CF911F910F91BD
:102FE000FF90EF90DF9008950F931F93CF93DF939F
:102FF00000D000D000D00F92CDB7DEB786E0EDE96B
:10300000F5E0DE01119601900D928A95E1F780912D
:10301000AF048F8307E010E027E833E0AE014F5F95
:103020005F4F65EB73E088E00E94CF1727960FB6DD
:10303000F894DEBF0FBECDBFDF91CF911F910F91EE
:1030400008950F931F93CF93DF930F92CDB7DEB701
:103050000E947011898301E010E023E833E0AE01A3
:103060004F5F5F4F6CEA73E086E00E94CF170F90CE
:10307000DF91CF911F910F9108950F931F93AC0192
:1030800004E010E023E733E068E973E082E00E94A7
:10309000CF171F910F91089569EE7EEF90E080E0C9
:1030A0000E949A3660E082E090E00E947C3660E008
:1030B00083E090E00E947C361092A4031092A50356
:1030C0001092A6031092A70360E084E090E00E94B3
:1030D0007C3660E082E290E00E947C3660E085E031
:1030E00090E00E947C3660E086E090E00E947C36B2
:1030F0006FEF87E090E00E947C3640E050E0BA013C
:1031000088E090E00E948E3660E08DE090E00E94C2
:103110007C3640E050E0BA0188E190E00E948E36B3
:1031200060E087E190E00E947C3640E050E0BA0128
:103130008CE190E00E948E3670E060E080E290E0EA
:103140000E949A3640E050E0BA0188E190E00E9487
:103150008E3640E050E0BA018FE090E00E948E365B
:1031600040E050E0BA0183E190E00C948E36CF92BB
:10317000DF92EF92FF920F931F93CF93DF93CDB720
:10318000DEB728970FB6F894DEBF0FBECDBF8CEA2E
:1031900090E00E94D80E8DE491E00E94D80E83E06A
:1031A0000E94BB0D8823D1F181EF90E00E94D80EE0
:1031B0008DE491E00E94D80E2091B00380915B05D0
:1031C000282B298328782D8339813474398322234D
:1031D000C1F184E291E00E94D80E49818DE191E035
:1031E0004423C1F18FE191E00E94D80E89818823A8
:1031F00099F186E191E00E94D80E9D81992391F189
:1032000080E191E00E94D80E8BE091E00E94D80E00
:10321000A981A11132C081E091E031C081E00E941A
:10322000BB0D882319F081EE90E0C0CF82E00E94B0
:10323000BB0D882319F081ED90E0B8CF81EC90E0D0
:10324000B5CF81E291E00E94D80E5981511107C09B
:1032500089E191E00E94D80E83E191E0CCCF8BE12F
:1032600091E0C2CF8DE091E00E94D80EB981BB23DE
:10327000D9F189E091E00E94D80E84E091E00E94AB
:10328000D80EE091B00380915B05E82BE983E171F2
:10329000ED83F981F272F983EE2359F18AE491E02A
:1032A0000E94D80E298183E491E0222359F185E41C
:1032B00091E00E94D80E8CE391E00E94D80E4D81DF
:1032C000442361F186E391E00E94D80E81E391E00E
:1032D0000E94D80E598151112DC00E94701181FD9C
:1032E00029C087E291E028C087E091E00E94D80ED3
:1032F00092CF87E491E00E94D80E398131110BC042
:103300008FE391E00E94D80E0E94701181FDD3CF0F
:1033100089E391E0D2CF81E491E0CBCF83E391E0E8
:103320000E94D80E8981882309F49BC08FE291E026
:103330000E94D80E8AE291E00E94D80E8DE491E0BE
:103340000E94D80E83E591E00E94D80E8091E3039D
:1033500090910801981305C09091E802903209F409
:1033600062C08093080190E29093E802282F30E039
:1033700050E040E029833A834B835C831092E7025C
:10338000CA01B9012AE030E040E050E00E94C635B1
:10339000605D603349F089819A81AB81BC81892B62
:1033A0008A2B8B2B09F460E26093E6028AE0C82E38
:1033B000D12CE12CF12C69817A818B819C81A70130
:1033C00096010E94C6352D833E834F8358872981FD
:1033D0003A814B815C8160E22A303105410551051B
:1033E00048F06D817E818F819885A70196010E94AA
:1033F000C635605D6093E50289819A81AB81BC81AD
:1034000020E284369105A105B10558F06D817E81D9
:103410008F8198852AE030E040E050E00E94C63578
:10342000205D2093E402A4EEB2E00D900020E9F7C5
:103430001197BA83A98304EE12E029813A81021719
:103440001307A0F028960FB6F894DEBF0FBECDBFCD
:10345000DF91CF911F910F91FF90EF90DF90CF9070
:1034600008958DE291E00E94D80E37CFF801819146
:103470008F010E94290EE1CF1F920F920FB60F927B
:1034800011242F933F934F935F936F937F938F9369
:103490009F93AF93BF93EF93FF938091E10082FFDF
:1034A00009C08091E20082FF05C08091E1008B7F1E
:1034B0008093E1008091DA0080FF24C08091D800E1
:1034C00080FF20C08091DA008E7F8093DA008091A7
:1034D000D90080FF9BC080E189BD82E189BD09B42C
:1034E00000FEFDCF81E08093920580916D058111F2
:1034F00009C00E9421060E94EC068091E2008460CF
:103500008093E2008091E10080FF17C08091E2008B
:1035100080FF13C08091E2008E7F8093E200809153
:10352000E20080618093E2008091D8008062809305
:10353000D80019BC85E0809392058091E10084FF5A
:1035400029C08091E20084FF25C080E189BD82E12D
:1035500089BD09B400FEFDCF8091D8008F7D809396
:10356000D8008091E1008F7E8093E1008091E2009D
:103570008F7E8093E2008091E20081608093E20080
:1035800080919305882309F447C084E080939205D5
:10359000809192058091E10083FF27C08091E20035
:1035A00083FF23C08091E100877F8093E10082E068
:1035B00080939205109293058091E1008E7F809315
:1035C000E1008091E2008E7F8093E2008091E20032
:1035D00080618093E20042E060E080E00E94BA06F1
:1035E0008091F00088608093F000FF91EF91BF918F
:1035F000AF919F918F917F916F915F914F913F918B
:103600002F910F900FBE0F901F90189519BC10921C
:10361000920510926D0576CF8091E30087FD02C080
:1036200081E0B4CF83E0B2CF78941F921FB61F928F
:1036300011248F939F93AF93BF93809164059091D2
:103640006505A0916605B09167050196A11DB11DA4
:103650008093640590936505A0936605B093670514
:10366000BF91AF919F918F911F901FBE1F90189592
:103670009C014FB7F8948091640590916505A091E5
:103680006605B09167054FBF821B930B08952FB756
:10369000F8948091640590916505A0916605B091BC
:1036A00067052FBF08950E94471B20914D0430915C
:1036B0004E04232B21F08093490490934A042091D7
:1036C0004F0430915004232B21F0809347049093B2
:1036D0004804E0915F05F0916005309749F082E081
:1036E00080934B040480F581E02D8BE494E00994F1
:1036F000089590E080E00E947B0890E080E00E94C6
:10370000650810925A050E94E60E86E0EBE4F4E0AC
:10371000DF011D928A95E9F7109245041092440446
:10372000109246040C94531B6093A7047093A80452
:103730008093A9049093AA040C94791B0F931F9370
:10374000CF93DF9300D000D0CDB7DEB741E050E09B
:1037500060E070E004C0440F551F661F771F8A9514
:10376000D2F740955095609570958091A7049091FF
:10377000A804A091A904B091AA048A019B0108237E
:1037800019232A233B2309831A832B833C83C901F2
:10379000B8010F900F900F900F90DF91CF911F9174
:1037A0000F910C94941B90914203809589238093F0
:1037B0004203282F277091F4282F082E000C330B7A
:1037C0009217130659F09091690592FD07C08595EF
:1037D000859585950E949E1B109242030895CF9374
:1037E000C0916905C2FB992790F9981799F080FB61
:1037F000C2F9C09369056091680584E090E00E9479
:103800007C366C2F82E290E00E947C3682E0CF9181
:103810000C94D31BCF9108950F931F93CF93DF93F5
:1038200000D000D0CDB7DEB741E050E060E070E0FE
:1038300004C0440F551F661F771F8A95D2F78091E9
:10384000A7049091A804A091A904B091AA048A01A8
:103850009B01082B192B2A2B3B2B09831A832B83C3
:103860003C83C901B8010F900F900F900F90DF912A
:10387000CF911F910F910C94941B81E00E94BB0D7E
:10388000882341F082E00E94BB0D882319F083E079
:103890000C940C1C83E00C949E1B6093A403709307
:1038A000A5038093A6039093A7030C94791B109211
:1038B0005B058091A901E6ECF2E0882359F0809144
:1038C000680587FF07C08EE1DF011D928A95E9F741
:1038D0000C94791B86E0F8CF1F93CF93DF93CDB77D
:1038E000DEB7AA970FB6F894DEBF0FBECDBF84E94E
:1038F00095E0FC0101962091F100208325E08C39B0
:103900009207B9F780919505893009F456C0C8F43B
:10391000823009F4B2C0833009F481C0813071F182
:103920008091E80083FF7CC2809194059091950579
:103930009A3008F075C2E92FF0E0EE55F94C0C947E
:1039400007368A3009F488C08B3051F7809194058E
:10395000813231F78091980590919905892B01F773
:103960008091E800877F8093E8000E949B06809109
:1039700096058093A9010E94571CD2CF809194058F
:10398000813A71F68091E800877F8093E80080910A
:10399000980590919905892B61F460E280E795E0A4
:1039A00070E00E944D078091E8008B778093E800DB
:1039B000B7CF60E090E080E0F3CF80919405813252
:1039C00009F0AECF8091980590919905029708F083
:1039D000A7CF8091E800877F8093E8008091E8007E
:1039E00082FF18C09091F3008091F200029731F4A9
:1039F0008091F100813011F0863021F48091F10046
:103A000080936F058091E8008B778093E8000E9497
:103A10009B0686CF809192058111E0CF81CF809166
:103A20009405813A09F07CCF809198059091990591
:103A3000892B09F075CF8091E800877F8093E8009B
:103A40008091E80080FFFCCF8091A9018093F10074
:103A50008091E8008E77D9CF80919405813209F06A
:103A60005FCF8091E800877F8093E8000E949B06EB
:103A70008091970580936E0553CF80919405813A8C
:103A800009F04ECF8091E800877F8093E800809115
:103A9000E80080FFFCCF80916E05D8CF803899F088
:103AA000823809F0BDC1809198058F70873008F089
:103AB000B7C18093E9008091EB0085FB882780F9EE
:103AC0001092E90006C080919005909191059111A6
:103AD00082609091E800977F9093E8008093F100D6
:103AE0001092F1008091E8008E7796C1882309F446
:103AF00084C1823009F094C180919605811187C1FB
:103B0000809198058F702FEF280F263008F088C11C
:103B10008093E9002091EB0020FF79C1933031F4CC
:103B20008091EB0080628093EB0071C19091EB007B
:103B300090619093EB0021E030E001C0220F8A9564
:103B4000EAF72093EA001092EA008091EB00886087
:103B5000EACF811165C1109196051F778091E3002E
:103B60008078812B8093E3008091E800877F8093A9
:103B7000E8000E949B068091E80080FFFCCF8091C6
:103B8000E30080688093E30082E0111183E080937A
:103B9000920546C18058823008F042C14091960596
:103BA000509197054C3D83E05807A1F583E08A8347
:103BB0008AE289834FB7F894DE01139620E03EE055
:103BC00051E2E32FF0E050935700E49120FF03C04F
:103BD000E295EF703F5FEF708E2F90E0EA30C0F01B
:103BE000C7968D939D932F5F243159F74FBF8091D6
:103BF000E800877F8093E8006AE270E0CE010196DA
:103C00000E944D078091E8008B778093E80008C1FF
:103C1000C096E7CF2091980530919905852F992777
:103C20008330910509F160F48130910509F472C087
:103C3000029709F0F5C08BE390E0ECECF5E029C0C9
:103C40008132910509F45AC0829709F0E9C0211523
:103C5000310509F469C02130310509F0E1C086EB76
:103C600090E0E6EDF4E015C0CA0199274130B1F1CA
:103C70008230910509F43AC0892B09F0D1C0E9E3FB
:103C8000F6E0E4918E2F90E0E9E3F6E0009709F486
:103C9000C7C02091E800277F2093E80020919A0573
:103CA00030919B058217930708F49C0140E0211591
:103CB000310509F03EC041113CC08091E80082FD11
:103CC000A1CF80919205882309F49CCF853009F417
:103CD00099CF8091E80083FFF0CF94CFE7E2F6E040
:103CE000E4918E2F90E0E7E2F6E0D0CFE9E1F6E054
:103CF000E4918E2F90E0E9E1F6E0C8CF211531057F
:103D000071F02130310509F08BC089E090E0E7EFD8
:103D1000F5E0BFCF82E190E0E7E0F6E0BACF89E0DE
:103D200090E0EEEDF5E0B5CF80E490E0ECE8F5E072
:103D3000B0CF80919205882309F464CF853009F4CF
:103D400061CF8091E80083FD5DCF8091E80082FD26
:103D5000B4CF8091E80080FFAACF9091F3008091CA
:103D6000F2002115310519F08830910550F041E03D
:103D7000089709F040E08091E8008E778093E80092
:103D800096CF44914093F10031962150310901962C
:103D9000E8CF803809F044C08091E800877F8093A5
:103DA000E800809193058093F1009CCE811138C08A
:103DB000109196051230A0F58091E800877F8093DE
:103DC000E800109393050E949B06112311F084E0F4
:103DD00005C08091E30087FDFACF81E080939205D2
:103DE00042E061EC81E00E94BA0642E261EC82E0CE
:103DF0000E94BA068091920513C080919605813089
:103E000079F481E0933009F080E08093910510927D
:103E1000E9008091E800877F8093E8000E949B067C
:103E20008091E80083FF0AC08091E800877F80933B
:103E3000E8008091EB0080628093EB00AA960FB6B9
:103E4000F894DEBF0FBECDBFDF91CF911F910895D3
:103E50001F920F920FB60F9211242F933F934F93FF
:103E60005F936F937F938F939F93AF93BF93CF9302
:103E7000DF93EF93FF93D091E900DF708091EC0026
:103E8000C82FC17080FDC0E81092E9008091F00059
:103E9000877F8093F00078940E946C1C1092E90058
:103EA0008091F00088608093F000CD2BCF70C0939C
:103EB000E900FF91EF91DF91CF91BF91AF919F9179
:103EC0008F917F916F915F914F913F912F910F90C3
:103ED0000FBE0F901F901895882379F19CEF980FD3
:103EE000913A38F4682F84EC92E00E9403080C9415
:103EF000E60E90E2980F983050F4877091E001C080
:103F0000990F8A95EAF7892F0E94DE0CF0CF9BE586
:103F1000980F933020F490E080E00C947B0898E5B3
:103F2000980F973120F490E080E00C9465088D3E66
:103F300020F00E94CB090C94531B0895CF93DF937C
:103F4000EC010E946C1FCE010E94F80D9E01205EC4
:103F500031092830310510F0CD2B21F4DF91CF91BC
:103F60000C94B20FDF91CF910C94A10FFB01DC01F7
:103F70008C91813021F4808191810C949E1F82303C
:103F800019F482819381F9CF0895CF93C82F8823A4
:103F900009F46DC08CEF8C0F813AB8F58091A901BE
:103FA000882311F18091680587FF1EC0EC2FE695EC
:103FB000E695E695F0E0EC53FD4F828190E04C2FC2
:103FC000477021E030E002C0220F331F4A95E2F72C
:103FD00082239323892B89F06C2F84EC92E00E943A
:103FE00003080E94E60E09C0E6ECF2E08191C817D2
:103FF00099F322E0EC3CF207C9F76C2F84EC92E0D5
:104000000E942F08CF910C94E60E80E28C0F88302E
:1040100068F4C77021E030E001C0220FCA95EAF7CA
:1040200080915B05822B80935B05ECCF8BE58C0F39
:10403000833038F42C2F2452330BC901CF910C94C8
:104040007B08E8E5EC0FE73150F4F0E0EE0FFF1FDE
:10405000E255FE4F80819181CF910C946508CD3E51
:1040600030F08C2F0E94860ACF910C94531BCF9175
:1040700008950F931F93CF93C82F10E000E089336A
:1040800011F400E510E08C2F0E94C51F01151105E9
:1040900031F48C2FCF911F910F910C946C1F8FE9ED
:1040A0009FE00197F1F700C0000001501109EECF29
:1040B000AF92BF92CF92DF92EF92FF920F931F9336
:1040C000CF93DF93EC018AE0A82EFE0124912223F6
:1040D00009F494C0213009F03EC0319684918130BA
:1040E00031F42296FE0184910E94392007C082306B
:1040F00039F42296FE0184910E94C51F2196E5CFD6
:10410000833031F42296FE0184910E946C1FF6CF19
:10411000843009F071C02296FE01249190E080E085
:10412000FE0131962053330B2A30310548F00197B8
:1041300028F3EFE9FFE03197F1F700C00000F7CF77
:10414000A89EA001A99E500D1124C901840F951F9E
:104150002491EF01E5CFE22FF0E0E657FE4FB49057
:10416000822F86958695869590E0FC01E658FE4F55
:10417000E4902770F12C022E02C0F594E7940A9483
:10418000E2F731E0E322FF24FC01E659FE4FC49040
:10419000D12C022E02C0D594C7940A94E2F7E1E034
:1041A000CE22DD24FC01E65AFE4F049110E002C04D
:1041B000159507952A95E2F701701127E114F1048E
:1041C00019F081EE0E94C51FC114D10419F086EECA
:1041D0000E94C51F8B2D0E943920CD2819F086EE34
:1041E0000E946C1FEF2819F081EE0E946C1F012BBA
:1041F00009F484CF8CE278CFEF0180CFDF91CF91AB
:104200001F910F91FF90EF90DF90CF90BF90AF90F4
:104210000895CF93DF93EC010E94F80D9E01205E7C
:1042200031092830310510F0209739F40E94B90F78
:104230008C2FDF91CF910C94C51F0E94A80FF8CF4F
:10424000FB01DC018C91813021F4808191810C94FF
:104250000921823019F482819381F9CF0895CF9397
:10426000DF93EC01FB018881823031F482819381FC
:104270000E94092181E08B87DF91CF9108959F9261
:10428000AF92BF92CF92DF92EF92FF920F931F9364
:10429000CF93DF93CDB7DEB760970FB6F894DEBF4C
:1042A0000FBECDBF1A821982FE01339686E0DF0170
:1042B0001D928A95E9F78EEDE82E81E0F82E10E048
:1042C00000E0CC24C394D12C28EEA22E21E0B22E03
:1042D000F70181917F018F3F09F446C0F894E82FE0
:1042E000E295EF70F0E021A18F70A60102C0440FAB
:1042F000551F8A95E2F7CA01922F982B91A392A19C
:104300008095892382A30E94E20A00C0E2EEF1E0D8
:1043100031E0912C21912F3F09F47FC0A22FA2956B
:10432000AF70B0E090968C9190E02F7002C09595A0
:1043300087952A95E2F780FD70C0832F982A330F66
:10434000AE16BF0639F7F701319780818F3F11F024
:104350000E94E40A50EA5A95F1F7E1E0F0E0EC0F30
:10436000FD1FE00FF11F90820F5F1F4F04301105FA
:1043700009F0AECF48E050E0BE016F5F7F4F86ECA2
:1043800093E00E9438367C01892B49F088E0FE01D9
:104390003196A6ECB3E001900D928A95E1F7109169
:1043A000CF03E114F104D9F181E0809365030E9409
:1043B000471B909364038093630380916303909100
:1043C00064030E94381B059790F0E12FF0E0E05362
:1043D000FC4F8091C60380838091C70381838091C5
:1043E000C80382838091C90383831092650381E0AF
:1043F00090E0EF28C1F060960FB6F894DEBF0FBED4
:10440000CDBFDF91CF911F910F91FF90EF90DF9083
:10441000CF90BF90AF909F90089580E08FCF809114
:1044200065038111CACF0E944D11F82EE091CF0390
:10443000882309F4BAC01A8619861C861B860E2F9B
:1044400010E000531C4F8091C1038A3008F076C001
:1044500046E656E1BE01675F7F4FC8010E94031127
:10446000882309F47BC04DE358E1BE01675F7F4FAD
:10447000C8010E940311882309F470C048E156E185
:10448000BE01675F7F4FC8010E940311882309F4B2
:1044900065C048E857E1BE01675F7F4FC8010E94D1
:1044A0000311882309F45AC041E258E1BE01675F55
:1044B0007F4FC8010E940311882309F44FC042EBCB
:1044C00055E1BE01675F7F4FC8010E940311882339
:1044D00009F444C044EF57E1BE01675F7F4FC80154
:1044E0000E9403118823D1F148E657E1BE01675FBE
:1044F0007F4FC8010E940311882381F146E457E1F0
:10450000BE01675F7F4FC8010E940311882331F10C
:104510001092C1038091CE0390E044E050E0BE01D0
:10452000675F7F4F80539C4F0E94383621E0209375
:104530006C03892B61F5F12C8F2D5DCF8091660383
:10454000909167030E94381B843F914008F080CF10
:1045500080916C03811112C080E04DCF8091C10326
:104560008F3F29F08F5F8093C1038A3098F20E94B9
:10457000471B9093670380936603EACFFE01399649
:1045800084E0DF011D928A95E9F710926C03E091B7
:10459000CE03F0E0E053FC4F89859A85AB85BC855E
:1045A00080839183A283B383C7CFF0E0E053FC4FB5
:1045B0000091CE0310E000531C4FF894808191814C
:1045C000A281B38180936F0390937003A0937103D2
:1045D000B09372038FE693E00E94F70580936E0319
:1045E0000E94E20AF8948091730390917403A09161
:1045F0007503B0917603F80180839183A283B3831E
:104600000E94E20AF894C0907703D0907803E0907B
:104610007903F0907A038091680390916903A091E7
:104620006A03B0916B03C816D906EA06FB06F1F0DF
:10463000C0926803D0926903E0926A03F0926B0320
:104640000E944D11811112C00E94E3076D877E8781
:104650008F87988BC61AD70AE80AF90AC092C20354
:10466000D092C303E092C403F092C5030E94E20A11
:10467000F89480917B0390917C03A0917D03B0918D
:104680007E038093A7049093A804A093A904B093F9
:10469000AA0480917F0390918003A0918103B0913F
:1046A00082038093A4039093A503A093A603B093E1
:1046B000A7030E94E20AF8948091830380935C052B
:1046C0000E94E20AF8948091840380935B058091B4
:1046D000850380935A05809186030E94CC0C0E942A
:1046E000E20AF89486E0E7E8F3E0ADE9B5E001908E
:1046F0000D928A95E1F780918D030E9463130E94C9
:10470000E20AF89480918E038093E3030E94E20A08
:10471000F89480918F03882329F00E940E100E9444
:10472000E20A1ACF0E94F30FFACF4F925F926F9274
:104730007F928F929F92AF92BF92CF92DF92EF9231
:10474000FF920F931F93CF93DF93CDB7DEB72997D7
:104750000FB6F894DEBF0FBECDBF6C01DC0113961F
:104760008D919C911497892B41F01C911196FC908E
:10477000812F8F218F3F09F041C629960FB6F894FB
:10478000DEBF0FBECDBFDF91CF911F910F91FF9084
:10479000EF90DF90CF90BF90AF909F908F907F90E1
:1047A0006F905F904F9008950E94F00C082F682F33
:1047B00089819A810E948C0DE12FF0E0B6E0FB9E8A
:1047C000E00DF11D112420E3029FE00DF11D1124E5
:1047D000EE0FFF1FEE5CFD4F05911491D60112966E
:1047E0008C918111ACC0F60182810A3AFDE51F0768
:1047F00009F451C108F093C0083A3DE5130709F4E4
:1048000011C1093A4DE5140709F43FC19801375524
:104810002F3F310511F008F04CC040916E015091CE
:104820006F014217530724F430936F0120936E01F8
:1048300096E1929F5001939FB00C1124A50143581B
:104840005E4F7A01DA0150968C935097F60192816F
:1048500016968C911697992309F42EC11A961C93DB
:104860000E9319978F5F16968C930E94471BD70162
:104870001E969C938E931D978091B00317968C93F0
:10488000179780915A0590915B05892B18968C9308
:104890001897ED91FC911197309739F054966D91DE
:1048A0007C91C5018D579E4F099510935905009332
:1048B0005805D60112968C91882309F4B2C50236A8
:1048C000BDE51B0761F008F021C10631FCE51F07BB
:1048D00008F000C102302CE5120708F41CC10E9448
:1048E0005415909369058093680506314CE51407CB
:1048F00008F031C102305CE5150708F01FC1609176
:1049000068051091690584E090E00E947C36612F73
:1049100082E290E00E947C360E94571C8AC00B3ACB
:104920005DE5150709F4C1C00C3A9DE5190709F0CA
:104930006DCF882309F47DC08AE092E0BAC0C80137
:1049400090568115A0E29A0748F0905E8115B0E17B
:104950009B0720F0915C81159F4158F5C80199276C
:104960009C01245031092432310518F08B970E97A1
:1049700080F4E091E803F0E0EE0FFF1FE351FC4FFD
:10498000808191818F3F2FE7920719F001969183E3
:10499000808380916E0190916F01019609F423CF7D
:1049A0008DE7E82E81E0F82EB12CA12C9924939468
:1049B00031C090E080E00F3F110509F088F6C80192
:1049C000CFCFD70116968C9116978823E9F01996C8
:1049D0008D919C910817190739F480915805909191
:1049E00059050817190781F0F7019786148703877F
:1049F0008189811103C0C7010E943B0FC701069640
:104A00000E945C0F10925A05FFEFAF1ABF0A26E111
:104A1000E20EF11C80916E0190916F018A159B0549
:104A200084F6E1CE882369F181E00E940C1C0E948B
:104A30003D1C80914203877009F49FCED6011296E7
:104A40008C91882309F499CE8091690582FD95CED9
:104A500082E029960FB6F894DEBF0FBECDBFDF917E
:104A6000CF911F910F91FF90EF90DF90CF90BF906B
:104A7000AF909F908F907F906F905F904F900C942D
:104A8000D31B81E00E949E1BD2CF882311F082E0CD
:104A9000CCCF82E0F7CF882321F083E00E940C1C6A
:104AA000C8CF83E00E949E1BC4CF882311F28EE101
:104AB00092E00E945820BDCF882309F4FACEFA0173
:104AC0008189882309F4F5CEC5018D579E4F0E9438
:104AD0005C0FEFCEC8018B5F9C45099708F4FFCEB1
:104AE0000631BCE51B07B9F480915B058A7A91E039
:104AF00009F490E09093E90269E2811165E384ECA6
:104B000092E00E942F080E94E60E93CF063A3DE500
:104B1000130709F4E4CE0B353DE5130709F4AAC1E8
:104B200008F089C101155CE5150709F496C10F3D30
:104B30001C4509F0DFC00E944C187BCFF801E35000
:104B4000FC45809168058160E331F10530F5E4555D
:104B5000F94C0C94073604308DE5180778F40B3FB8
:104B60009CE5190708F4CBCEF801EC5FFC45E83072
:104B7000F10510F5E154F94C0C9407360236ADE519
:104B80001A0709F496C090916805892F8E7F90FFCF
:104B90008160063A1D4509F0B2CE80936805AFCE1C
:104BA000809168058260F9CF809168058460F5CFB7
:104BB000809168058860F1CF80916905816080935C
:104BC00069059DCE809169058260F9CF8091680565
:104BD0008061E3CF809168058062DFCF80916805B6
:104BE0008064DBCF0E94571C809168058068D5CF18
:104BF000809168058C60D1CF809169058360DFCF9B
:104C0000809168058E7FC9CF809168058D7FC5CF63
:104C1000809168058B7FC1CF80916805877FBDCF6C
:104C2000809169058E7FCBCF809169058D7FC7CF3D
:104C3000809168058F7EB1CF809168058F7DADCF63
:104C4000809168058F7BA9CF0E94571C80916805D1
:104C50008F77A3CF80916805837F9FCF809169056F
:104C60008C7FADCF8091680582FB992790F921E078
:104C7000922790FB82F990FB83F98FCF8091690591
:104C8000982F909591708E7F892B90FB81F997CF0B
:104C90000E94571C90916805892F97FB87F98058CF
:104CA0007CCF61E08EE090E00E947C3628CE60E010
:104CB000F9CF90916805892F8F7E94FF80616DCF29
:104CC00080915B058272073DECE51E0778F4033C9A
:104CD000FCE51F0778F0F801E45CFC45E331F105E1
:104CE00008F063C0E953F94C0C9407360E351D45A6
:104CF00009F49FCEF60182811081F180882309F4A6
:104D0000BDC0812F9F2D0E94F00C082F682F812F8E
:104D10009F2D0E948C0DE12FF0E026E0F29EE00D29
:104D2000F11D112430E3039FE00DF11D1124EE0F5E
:104D3000FF1FEE5CFD4F859194910E94400B182F50
:104D4000092F782ED6011296FC9012971596EC90AA
:104D5000E294EFE0EE22809142038770C1F0AF2C25
:104D6000FF20B1F0892F807F803421F080E2810F15
:104D7000883068F08091690582FD09C082E00E9458
:104D8000D31B809142038770AA24A3948111A12C84
:104D9000802F82958F70882E912C8C3008F0D5C092
:104DA000F401E652F94C0C94073680919D0591E090
:104DB000892780939D051092AA0180919C058160AE
:104DC00080939C0536CE44EF58E06FEF78E00E9468
:104DD00091082FCE4FEF58E064EF78E0F8CF42EE25
:104DE00058E06BEE78E0F3CF4BEE58E062EE78E0FF
:104DF000EECF4AEC58E066ED78E0E9CF46ED58E0BA
:104E00006AEC78E0E4CF42EB58E06EEB78E0DFCF7D
:104E10004EEB58E062EB78E0DACF46E958E064EA1E
:104E200078E0D5CF44EA58E066E978E0D0CF81E079
:104E30000E94DE05FECD0C359DE51907E9F00D3524
:104E40001D4509F057CF8091690582FB882780F9BD
:104E500091E089270E94EF1B4DCF0E94571CBFEFA6
:104E6000E4E3FCE0B150E040F040E1F700C00000B6
:104E70000E94AB0781E0EECF80E0ECCF812F9F2D29
:104E80000E94620D082F47CFB02FBF70BB2E802F1E
:104E9000807F19F0B29460EFB622FF20B9F0BB20FA
:104EA00069F080E2810F883010F0711009C08091A4
:104EB0005B05B82AB0925B050E94E60E812F43C0C5
:104EC00080915A05B82AB0925A05F6CF812F0E94D8
:104ED0006C1FBB20D1F180E2810F883010F071107F
:104EE00004C08B2D0E94DE0C03C08B2D0E94D60CBB
:104EF0000E94E60E2AC0E02FEF70BE2E802F807F2A
:104F0000803219F0B29450EFB522772059F0F1E0D9
:104F10007F1609F48AC0FF2009F496C0EE2009F438
:104F20008BC0CCCF8091690582FF60C0FF2009F45F
:104F300056C0BB2039F080915B05B82AB0925B0562
:104F40000E94E60E80E00E94C51FA8E08A1A910820
:104F5000B4E08B16910410F40E947011812F902FF1
:104F60000E94D30D811138C21092EB021092EA0216
:104F7000AA20A9F08091420380FD11C0F60112829F
:104F80008595859585950E940C1CC6010E949523E8
:104F9000809142038595859585950E949E1B85E0AD
:104FA000F601DE01119601900D928A95E1F7898153
:104FB0009A810E94620D9A81E981F0E026E0929F39
:104FC000E00DF11D112430E3839FE00DF11D11244C
:104FD000EE0FFF1FEE5CFD4F85919491CECB80E0EC
:104FE0000E946C1FBB2009F4B0CF7BCFFF2079F06B
:104FF0008091B0038B29E11003C00E94B90FA5CFA7
:1050000044244394E410F9CF0E94CC0C9ECFE110CD
:1050100006C00E94C60C8B2D0E94B20F96CF55245D
:105020005394E51409F491CFF4CFFF2039F045E013
:10503000642E6E1408F489CF8B2DDFCF34E0732EED
:105040007E1408F482CFE7CFEE2029F329E3721211
:1050500009C03FEF47EE53E0315040405040E1F788
:1050600000C00000812F0E946C1F6FCF802F86959B
:105070008695837069F0813009F067CF812F902F7A
:105080009370F11002C090E080E00E9465085DCF4F
:10509000812F902F9370F11002C090E080E00E9469
:1050A0007B0853CF812FFF2029F00E94860A0E949F
:1050B000531B4BCF0E94CB09FACF802F837009F08E
:1050C00075C0F11042CF912F929596959770292F28
:1050D000220F220F812F8F7090E0B0E0A0E02C0112
:1050E0003D01022E04C0440C551C661C771C0A941A
:1050F000D2F780E090E0DC0114FF0FC08FE090E079
:10510000A0E0B0E004C0880F991FAA1FBB1F2A951A
:10511000D2F780959095A095B095202F269526954D
:105120002370223081F1233009F14091A403509182
:10513000A5036091A6037091A703213099F08429FB
:105140009529A629B7292C013D0144225522662222
:1051500077224E825F8268867986C301B2010E94FF
:105160004D1CF3CE442A552A662A772AA3019201C0
:10517000282B392B4A2B5B2B2E833F83488759875B
:10518000CA01B901ECCF84299529A629B7294091F4
:10519000A4035091A5036091A6037091A7032C016D
:1051A0003D014426552666267726D3CF8695FF20D7
:1051B00011F0802F8170882309F4C7CE912F92952A
:1051C00096959770292F220F220F812F8F7090E0D4
:1051D000B0E0A0E02C013D01022E04C0440C551C9F
:1051E000661C771C0A94D2F780E090E0DC0114FF83
:1051F0000FC08FE090E0A0E0B0E004C0880F991FDE
:10520000AA1FBB1F2A95D2F780959095A095B095BF
:10521000202F269526952370223081F12330F9F036
:105220004091A7045091A8046091A9047091AA0428
:10523000213089F084299529A629B7292C013D011F
:1052400044225522662277224E825F8268867986C2
:10525000C301B20110C0442A552A662A772AA30145
:105260009201282B392B4A2B5B2B2E833F834887B7
:105270005987CA01B9010E94941B67CE84299529D8
:10528000A629B7294091A7045091A8046091A904C8
:105290007091AA042C013D014426552666267726E6
:1052A000D3CF302F3F70B32EFF2029F0832F0E94E1
:1052B0000C1C812FA2CE812F0E94B20F8B2D0E9439
:1052C0009E1B43CE812F42EF7416C9F1471570F033
:1052D00050EF7516D1F091EF791691F0FF2009F497
:1052E0006BC0E110EBCD802F8F712DC0A3EF7A162C
:1052F00069F1B4EF7B12F2CF8091690582FF3CC067
:10530000802F8F71FF20D9F21EC0FF2091F0E4E0C2
:10531000EE1508F41ACE202F2F7181E090E0A0E066
:10532000B0E004C0880F991FAA1FBB1F2A95D2F7AF
:10533000A9CF25E0522E5E1408F407CEECCF802FC3
:105340008F71F110BCCF0E940C1CFFCD60E070E0AB
:10535000CB01FF2009F48FCF802F8F7141E050E007
:1053600060E070E02A013B0104C0440C551C661C3F
:10537000771C8A95D2F768CFFF2099F0202F2F71E4
:10538000B22E822F0E940C1C8091690582FD07C0FD
:1053900038E0B39EC00111248360809342038B2DBB
:1053A000D2CF81E00E94D31B41E04E1508F0CDCD55
:1053B00082E00E94D31BC9CDEE2059F0893309F059
:1053C00051CE5FEF87EE93E0515080409040E1F77F
:1053D00047CE802F8F7173CFFF2019F0E110C4CD1D
:1053E000C7CDE110C1CD8091EA029091EB02029706
:1053F00009F0BACD812F0E943920B6CD85E0F601A3
:10540000DE01119601900D928A95E1F7D601129670
:105410002C9189819A812111C7C90E94620D082FA0
:10542000CBC90631ECE51E0709F04ACC8091E902B0
:1054300069E2811165E384EC92E00E94030863CB8A
:105440001F93CF93DF9380910F03807FA9F4809106
:105450000C03882389F080914103D091100360915F
:105460000A0370910B03A0910D03B0910E03C62F98
:10547000C72316E0D81304C0DF91CF911F91089580
:1054800090E0109711F0CF3F19F401968770F2CF9A
:10549000189F9001199F300D1124F901EF5EFC4F08
:1054A00041814713F2CF40814613EFCF4281411132
:1054B000ECCF438154814A1B5B0B483C510528F7D4
:1054C00080910F038F70806180930F03F901EA5E72
:1054D000FC4F80818F70806180838AE093E00E941E
:1054E0009523DF91CF911F910C94E60CAF92BF9260
:1054F000CF92DF92EF92FF920F931F93CF93DF93A0
:10550000CDB7DEB72B970FB6F894DEBF0FBECDBF79
:105510008C0185E0F801DE01179601900D928A95C5
:10552000E1F7F801E2808AE0A82E83E0B82E6091CE
:105530000D0370910E036115710509F40AC1909174
:105540000A0340910B03842F89238F3F09F401C183
:1055500020813181C380D480F0900C03F601E61BDA
:10556000F70BFF2009F4DCC080910F03582F507F08
:10557000E83CF10508F0B7C0511177C0FE2C431389
:1055800021C092131FC0E1101DC08F7080618093F5
:105590000F03C5010E94952380910F03F8018583B5
:1055A0008F2D2B960FB6F894DEBF0FBECDBFDF91C7
:1055B000CF911F910F91FF90EF90DF90CF90BF9010
:1055C000AF900895CD2829F0822F83238F3F09F0D3
:1055D000DAC080E0F82FF170DF2EE09141034091B6
:1055E000100356E080FD1CC0EE20D1F280910F0325
:1055F000816080930F03F12CD3CF8E2F90E05E9FBC
:10560000F0011124EF5EFC4F6181361306C060810A
:10561000261303C06281E612E7CFFC013196E770E2
:10562000E413EBCF2F8338878F8198850E94470D35
:10563000292F22952F70903260F0225F2F70223038
:1056400078F49F7051F0F8019581907F31F4D12C5E
:105650000AC09F7011F08823D1F3805E8830B8F3C0
:10566000C8010E949523FD2C9BCF431312C09213B7
:1056700010C0E1100EC0F8018583C8010E94952377
:1056800086E0F801AAE0B3E001900D928A95E1F777
:1056900087CFC8010E94F10D882309F1EE20F9F0AF
:1056A00080910F03803270F020910A0330910B0338
:1056B0003A8329831B82DD82CC828E83CE010196C0
:1056C0000E94952386E0F801AAE0B3E001900D92D4
:1056D0008A95E1F70E94202AFF24F39461CFC80144
:1056E0000E949523F9CF51110AC08AE093E00E94ED
:1056F000952386E0F50111928A95E9F77CCF431353
:10570000C8CF9213C6CFE110C4CFF8018583C8017A
:105710000E94952386E0F50111928A95E9F740CF22
:10572000E83CF105B8F7FE2CEE20C9F2431303C0A4
:10573000921709F4A5CFC8010E94F10D8111C2CFC3
:1057400080910F03816080930F03C8010E9495230D
:1057500027CFEE2021F2C8010E94F10DF82E8823F8
:1057600009F4BDCF86E0F801AAE0B3E001900D9204
:105770008A95E1F780910A0390910B030E94470DEF
:105780000E94202A0DCF81E08E2524CF1F93CF9336
:10579000DF93CDB7DEB767970FB6F894DEBF0FBEC5
:1057A000CDBF4B8B5C8B6D8B7E8B8F8B2E893F8916
:1057B0002115310529F0842F85238F3F09F081C001
:1057C000611110925A051A8A4D875E876F87398B4F
:1057D000288B86E0FE013D96DE01179601900D9222
:1057E0008A95E1F7CE0107960E94762A882389F0F0
:1057F00016E0809141039091100389134FC0679682
:105800000FB6F894DEBF0FBECDBFDF91CF911F91D1
:10581000089586E0FE013796DE01119601900D9203
:105820008A95E1F76A857B856115710509F34F81DA
:105830005885842F85238F3FD9F22091100330E0C3
:10584000C901019687709927E0914103E81719066D
:1058500071F40E94571C109210031092410386E0CD
:10586000EAE0F3E0DF011D928A95E9F7C1CF4983B1
:105870005A837D836C8396E0929FD001939FB00DF5
:105880001124AF5EBC4FFE01319601900D929A95A6
:10589000E1F7809310030E94E60CAACF819FC0011C
:1058A00011248F5E9C4F0E94762A882309F4A7CF8B
:1058B0008091410390E0019687709927809341037E
:1058C00098CF8091EA029091EB0201969093EB02BF
:1058D0008093EA0275CF1F921FB61F9211248F93F7
:1058E0009F93AF93BF9380916305811113C0809103
:1058F000640590916505A0916605B0916705419694
:10590000A11DB11D8093640590936505A093660564
:10591000B0936705BF91AF919F918F911F901FBE6C
:105920001F901895CDB7DEB763970FB6F894DEBF1A
:105930000FBECDBF84B7877F84BF0FB6F894A895FC
:1059400080916000886180936000109260000FBEBB
:1059500080E890E00FB6F894809361009093610026
:105960000FBE85B7806885BF85B7806885BF80EE2C
:105970009AE09093C3028093C2020E9421060E9483
:10598000EC068091E20084608093E200789480913C
:1059900092058823A1F01091E9001F709091EC000E
:1059A000892F817090FD80E8182B1092E90080917A
:1059B000E80083FD0E946C1C1F701093E90082E0D8
:1059C00084BD93E095BD9AEF97BD80936E001092D1
:1059D000C2031092C3031092C4031092C5030E9425
:1059E0008311809361010E944D1181110E942E3418
:1059F000809161018091610194E0811190E0909328
:105A0000CF0384E0891B8093CE0384E90E94E40ADB
:105A100086E60E94E40A87E90E94E40A86EC0E9476
:105A2000E40A02EE11E0D8018D918D018F3F11F053
:105A30000E94E40AB1E0083E1B07A9F788E0E0ED08
:105A4000F3E0DF01282F1D922A95E9F7E6ECF3E059
:105A5000DF011D928A95E9F790E080E00E946636AA
:105A6000893E9E4F11F00E944C1882E090E00E9407
:105A70005E368093D8030E945415909369058093F5
:105A800068050E943F21EFE3FCE93197F1F700C080
:105A900000000E943F210E948311E4E08111E0E0B8
:105AA000F0E0E053FC4F808181FF08C06FEF7FEF93
:105AB00090E080E00E949A360E94AB0783E090E07D
:105AC0000E945E36282F30E050E040E02B873C8774
:105AD0004D875E87CA01B9010E944D1C10927A045D
